{
	"data": {
		"bytecode": {
			"linkReferences": {},
			"object": "60806040525f8055348015610012575f80fd5b5061014e806100205f395ff3fe608060405234801561000f575f80fd5b506004361061003f575f3560e01c806343a0b7a214610043578063ea21785a14610061578063f58586ee1461007f575b5f80fd5b61004b61009d565b60405161005891906100cc565b60405180910390f35b6100696100a1565b60405161007691906100cc565b60405180910390f35b6100876100a9565b60405161009491906100ff565b60405180910390f35b5f90565b5f8054905090565b5f60055f5411905090565b5f819050919050565b6100c6816100b4565b82525050565b5f6020820190506100df5f8301846100bd565b92915050565b5f8115159050919050565b6100f9816100e5565b82525050565b5f6020820190506101125f8301846100f0565b9291505056fea2646970667358221220e6cd1f4bbac96690f17d1c6513c30a329a3f1cee48aae9d5f71f59e6b4299a6764736f6c63430008140033",
			"opcodes": "PUSH1 0x80 PUSH1 0x40 MSTORE PUSH0 DUP1 SSTORE CALLVALUE DUP1 ISZERO PUSH2 0x12 JUMPI PUSH0 DUP1 REVERT JUMPDEST POP PUSH2 0x14E DUP1 PUSH2 0x20 PUSH0 CODECOPY PUSH0 RETURN INVALID PUSH1 0x80 PUSH1 0x40 MSTORE CALLVALUE DUP1 ISZERO PUSH2 0xF JUMPI PUSH0 DUP1 REVERT JUMPDEST POP PUSH1 0x4 CALLDATASIZE LT PUSH2 0x3F JUMPI PUSH0 CALLDATALOAD PUSH1 0xE0 SHR DUP1 PUSH4 0x43A0B7A2 EQ PUSH2 0x43 JUMPI DUP1 PUSH4 0xEA21785A EQ PUSH2 0x61 JUMPI DUP1 PUSH4 0xF58586EE EQ PUSH2 0x7F JUMPI JUMPDEST PUSH0 DUP1 REVERT JUMPDEST PUSH2 0x4B PUSH2 0x9D JUMP JUMPDEST PUSH1 0x40 MLOAD PUSH2 0x58 SWAP2 SWAP1 PUSH2 0xCC JUMP JUMPDEST PUSH1 0x40 MLOAD DUP1 SWAP2 SUB SWAP1 RETURN JUMPDEST PUSH2 0x69 PUSH2 0xA1 JUMP JUMPDEST PUSH1 0x40 MLOAD PUSH2 0x76 SWAP2 SWAP1 PUSH2 0xCC JUMP JUMPDEST PUSH1 0x40 MLOAD DUP1 SWAP2 SUB SWAP1 RETURN JUMPDEST PUSH2 0x87 PUSH2 0xA9 JUMP JUMPDEST PUSH1 0x40 MLOAD PUSH2 0x94 SWAP2 SWAP1 PUSH2 0xFF JUMP JUMPDEST PUSH1 0x40 MLOAD DUP1 SWAP2 SUB SWAP1 RETURN JUMPDEST PUSH0 SWAP1 JUMP JUMPDEST PUSH0 DUP1 SLOAD SWAP1 POP SWAP1 JUMP JUMPDEST PUSH0 PUSH1 0x5 PUSH0 SLOAD GT SWAP1 POP SWAP1 JUMP JUMPDEST PUSH0 DUP2 SWAP1 POP SWAP2 SWAP1 POP JUMP JUMPDEST PUSH2 0xC6 DUP2 PUSH2 0xB4 JUMP JUMPDEST DUP3 MSTORE POP POP JUMP JUMPDEST PUSH0 PUSH1 0x20 DUP3 ADD SWAP1 POP PUSH2 0xDF PUSH0 DUP4 ADD DUP5 PUSH2 0xBD JUMP JUMPDEST SWAP3 SWAP2 POP POP JUMP JUMPDEST PUSH0 DUP2 ISZERO ISZERO SWAP1 POP SWAP2 SWAP1 POP JUMP JUMPDEST PUSH2 0xF9 DUP2 PUSH2 0xE5 JUMP JUMPDEST DUP3 MSTORE POP POP JUMP JUMPDEST PUSH0 PUSH1 0x20 DUP3 ADD SWAP1 POP PUSH2 0x112 PUSH0 DUP4 ADD DUP5 PUSH2 0xF0 JUMP JUMPDEST SWAP3 SWAP2 POP POP JUMP INVALID LOG2 PUSH5 0x6970667358 0x22 SLT KECCAK256 0xE6 0xCD 0x1F 0x4B 0xBA 0xC9 PUSH7 0x90F17D1C6513C3 EXP ORIGIN SWAP11 EXTCODEHASH SHR 0xEE BASEFEE 0xAA 0xE9 0xD5 0xF7 0x1F MSIZE 0xE6 0xB4 0x29 SWAP11 PUSH8 0x64736F6C63430008 EQ STOP CALLER "
		},
		"gasEstimates": {
			"creation": {
				"codeDepositCost": "66800",
				"executionCost": "5120",
				"totalCost": "71920"
			},
			"external": {
				"PikachuEncounter()": "302",
				"getCaptured()": "2432",
				"sucess()": "2465"
			}
		},
		"methodIdentifiers": {
			"PikachuEncounter()": "43a0b7a2",
			"getCaptured()": "ea21785a",
			"sucess()": "f58586ee"
		}
	},
	"abi": [
		{
			"inputs": [],
			"name": "PikachuEncounter",
			"outputs": [
				{
					"internalType": "uint256",
					"name": "",
					"type": "uint256"
				}
			],
			"stateMutability": "pure",
			"type": "function"
		},
		{
			"inputs": [],
			"name": "getCaptured",
			"outputs": [
				{
					"internalType": "uint256",
					"name": "",
					"type": "uint256"
				}
			],
			"stateMutability": "view",
			"type": "function"
		},
		{
			"inputs": [],
			"name": "sucess",
			"outputs": [
				{
					"internalType": "bool",
					"name": "",
					"type": "bool"
				}
			],
			"stateMutability": "view",
			"type": "function"
		}
	]
}