{
	"data": {
		"bytecode": {
			"linkReferences": {},
			"object": "60806040525f80555f600155348015610016575f80fd5b50610210806100245f395ff3fe608060405234801561000f575f80fd5b506004361061003f575f3560e01c806343a0b7a214610043578063ea21785a14610061578063f58586ee1461007f575b5f80fd5b61004b61009d565b604051610058919061011a565b60405180910390f35b6100696100ce565b604051610076919061011a565b60405180910390f35b6100876100d6565b604051610094919061014d565b60405180910390f35b5f60015f8154809291906100b090610193565b91905055506100bd6100e1565b6100c56100d6565b50600154905090565b5f8054905090565b5f60055f5411905090565b5f808154809291906100f290610193565b91905055506100ff6100d6565b50565b5f819050919050565b61011481610102565b82525050565b5f60208201905061012d5f83018461010b565b92915050565b5f8115159050919050565b61014781610133565b82525050565b5f6020820190506101605f83018461013e565b92915050565b7f4e487b71000000000000000000000000000000000000000000000000000000005f52601160045260245ffd5b5f61019d82610102565b91507fffffffffffffffffffffffffffffffffffffffffffffffffffffffffffffffff82036101cf576101ce610166565b5b60018201905091905056fea26469706673582212209b54595519d534d71d24b279b8e6c99701a62f7b66f5fb5a52fbebca453bcd9464736f6c63430008140033",
			"opcodes": "PUSH1 0x80 PUSH1 0x40 MSTORE PUSH0 DUP1 SSTORE PUSH0 PUSH1 0x1 SSTORE CALLVALUE DUP1 ISZERO PUSH2 0x16 JUMPI PUSH0 DUP1 REVERT JUMPDEST POP PUSH2 0x210 DUP1 PUSH2 0x24 PUSH0 CODECOPY PUSH0 RETURN INVALID PUSH1 0x80 PUSH1 0x40 MSTORE CALLVALUE DUP1 ISZERO PUSH2 0xF JUMPI PUSH0 DUP1 REVERT JUMPDEST POP PUSH1 0x4 CALLDATASIZE LT PUSH2 0x3F JUMPI PUSH0 CALLDATALOAD PUSH1 0xE0 SHR DUP1 PUSH4 0x43A0B7A2 EQ PUSH2 0x43 JUMPI DUP1 PUSH4 0xEA21785A EQ PUSH2 0x61 JUMPI DUP1 PUSH4 0xF58586EE EQ PUSH2 0x7F JUMPI JUMPDEST PUSH0 DUP1 REVERT JUMPDEST PUSH2 0x4B PUSH2 0x9D JUMP JUMPDEST PUSH1 0x40 MLOAD PUSH2 0x58 SWAP2 SWAP1 PUSH2 0x11A JUMP JUMPDEST PUSH1 0x40 MLOAD DUP1 SWAP2 SUB SWAP1 RETURN JUMPDEST PUSH2 0x69 PUSH2 0xCE JUMP JUMPDEST PUSH1 0x40 MLOAD PUSH2 0x76 SWAP2 SWAP1 PUSH2 0x11A JUMP JUMPDEST PUSH1 0x40 MLOAD DUP1 SWAP2 SUB SWAP1 RETURN JUMPDEST PUSH2 0x87 PUSH2 0xD6 JUMP JUMPDEST PUSH1 0x40 MLOAD PUSH2 0x94 SWAP2 SWAP1 PUSH2 0x14D JUMP JUMPDEST PUSH1 0x40 MLOAD DUP1 SWAP2 SUB SWAP1 RETURN JUMPDEST PUSH0 PUSH1 0x1 PUSH0 DUP2 SLOAD DUP1 SWAP3 SWAP2 SWAP1 PUSH2 0xB0 SWAP1 PUSH2 0x193 JUMP JUMPDEST SWAP2 SWAP1 POP SSTORE POP PUSH2 0xBD PUSH2 0xE1 JUMP JUMPDEST PUSH2 0xC5 PUSH2 0xD6 JUMP JUMPDEST POP PUSH1 0x1 SLOAD SWAP1 POP SWAP1 JUMP JUMPDEST PUSH0 DUP1 SLOAD SWAP1 POP SWAP1 JUMP JUMPDEST PUSH0 PUSH1 0x5 PUSH0 SLOAD GT SWAP1 POP SWAP1 JUMP JUMPDEST PUSH0 DUP1 DUP2 SLOAD DUP1 SWAP3 SWAP2 SWAP1 PUSH2 0xF2 SWAP1 PUSH2 0x193 JUMP JUMPDEST SWAP2 SWAP1 POP SSTORE POP PUSH2 0xFF PUSH2 0xD6 JUMP JUMPDEST POP JUMP JUMPDEST PUSH0 DUP2 SWAP1 POP SWAP2 SWAP1 POP JUMP JUMPDEST PUSH2 0x114 DUP2 PUSH2 0x102 JUMP JUMPDEST DUP3 MSTORE POP POP JUMP JUMPDEST PUSH0 PUSH1 0x20 DUP3 ADD SWAP1 POP PUSH2 0x12D PUSH0 DUP4 ADD DUP5 PUSH2 0x10B JUMP JUMPDEST SWAP3 SWAP2 POP POP JUMP JUMPDEST PUSH0 DUP2 ISZERO ISZERO SWAP1 POP SWAP2 SWAP1 POP JUMP JUMPDEST PUSH2 0x147 DUP2 PUSH2 0x133 JUMP JUMPDEST DUP3 MSTORE POP POP JUMP JUMPDEST PUSH0 PUSH1 0x20 DUP3 ADD SWAP1 POP PUSH2 0x160 PUSH0 DUP4 ADD DUP5 PUSH2 0x13E JUMP JUMPDEST SWAP3 SWAP2 POP POP JUMP JUMPDEST PUSH32 0x4E487B7100000000000000000000000000000000000000000000000000000000 PUSH0 MSTORE PUSH1 0x11 PUSH1 0x4 MSTORE PUSH1 0x24 PUSH0 REVERT JUMPDEST PUSH0 PUSH2 0x19D DUP3 PUSH2 0x102 JUMP JUMPDEST SWAP2 POP PUSH32 0xFFFFFFFFFFFFFFFFFFFFFFFFFFFFFFFFFFFFFFFFFFFFFFFFFFFFFFFFFFFFFFFF DUP3 SUB PUSH2 0x1CF JUMPI PUSH2 0x1CE PUSH2 0x166 JUMP JUMPDEST JUMPDEST PUSH1 0x1 DUP3 ADD SWAP1 POP SWAP2 SWAP1 POP JUMP INVALID LOG2 PUSH5 0x6970667358 0x22 SLT KECCAK256 SWAP12 SLOAD MSIZE SSTORE NOT 0xD5 CALLVALUE 0xD7 SAR 0x24 0xB2 PUSH26 0xB8E6C99701A62F7B66F5FB5A52FBEBCA453BCD9464736F6C6343 STOP ADDMOD EQ STOP CALLER "
		},
		"gasEstimates": {
			"creation": {
				"codeDepositCost": "105600",
				"executionCost": "10161",
				"totalCost": "115761"
			},
			"external": {
				"PikachuEncounter()": "infinite",
				"getCaptured()": "2432",
				"sucess()": "2465"
			}
		},
		"methodIdentifiers": {
			"PikachuEncounter()": "43a0b7a2",
			"getCaptured()": "ea21785a",
			"sucess()": "f58586ee"
		}
	},
	"abi": [
		{
			"inputs": [],
			"name": "PikachuEncounter",
			"outputs": [
				{
					"internalType": "uint256",
					"name": "",
					"type": "uint256"
				}
			],
			"stateMutability": "nonpayable",
			"type": "function"
		},
		{
			"inputs": [],
			"name": "getCaptured",
			"outputs": [
				{
					"internalType": "uint256",
					"name": "",
					"type": "uint256"
				}
			],
			"stateMutability": "view",
			"type": "function"
		},
		{
			"inputs": [],
			"name": "sucess",
			"outputs": [
				{
					"internalType": "bool",
					"name": "",
					"type": "bool"
				}
			],
			"stateMutability": "view",
			"type": "function"
		}
	]
}