{
	"data": {
		"bytecode": {
			"linkReferences": {
				"remix_tests.sol": {
					"Assert": [
						{
							"length": 20,
							"start": 150
						},
						{
							"length": 20,
							"start": 399
						},
						{
							"length": 20,
							"start": 664
						}
					]
				}
			},
			"object": "608060405234801561000f575f80fd5b5061089f8061001d5f395ff3fe608060405260043610610033575f3560e01c80630895e64a146100375780634a4507ff146100415780637fea0d4b14610057575b5f80fd5b61003f61006d565b005b34801561004c575f80fd5b50610055610278565b005b348015610062575f80fd5b5061006b610380565b005b5f60c890505f6014905073__$acbfb1c35000d78352310b16a054a6b106$__63abcd796034846040518363ffffffff1660e01b81526004016100b0929190610465565b602060405180830381865af41580156100cb573d5f803e3d5ffd5b505050506040513d601f19601f820116820180604052508101906100ef91906104d8565b505f8054906101000a900473ffffffffffffffffffffffffffffffffffffffff1673ffffffffffffffffffffffffffffffffffffffff1663040f0aee619c40346040518363ffffffff1660e01b81526004015f604051808303818589803b158015610158575f80fd5b5088f115801561016a573d5f803e3d5ffd5b50505050505073__$acbfb1c35000d78352310b16a054a6b106$__63abcd79605f8054906101000a900473ffffffffffffffffffffffffffffffffffffffff1673ffffffffffffffffffffffffffffffffffffffff166382b2e2576040518163ffffffff1660e01b8152600401602060405180830381865afa1580156101f2573d5f803e3d5ffd5b505050506040513d601f19601f82011682018060405250810190610216919061052d565b836040518363ffffffff1660e01b81526004016102349291906105a2565b602060405180830381865af415801561024f573d5f803e3d5ffd5b505050506040513d601f19601f8201168201806040525081019061027391906104d8565b505050565b5f73__$acbfb1c35000d78352310b16a054a6b106$__63abcd79605f8054906101000a900473ffffffffffffffffffffffffffffffffffffffff1673ffffffffffffffffffffffffffffffffffffffff166382b2e2576040518163ffffffff1660e01b8152600401602060405180830381865afa1580156102fb573d5f803e3d5ffd5b505050506040513d601f19601f8201168201806040525081019061031f919061052d565b836040518363ffffffff1660e01b815260040161033d929190610626565b602060405180830381865af4158015610358573d5f803e3d5ffd5b505050506040513d601f19601f8201168201806040525081019061037c91906104d8565b5050565b60405161038c906103e6565b604051809103905ff0801580156103a5573d5f803e3d5ffd5b505f806101000a81548173ffffffffffffffffffffffffffffffffffffffff021916908373ffffffffffffffffffffffffffffffffffffffff160217905550565b6102098061066183390190565b5f819050919050565b610405816103f3565b82525050565b5f82825260208201905092915050565b7f6e6f2072656369626f20323030000000000000000000000000000000000000005f82015250565b5f61044f600d8361040b565b915061045a8261041b565b602082019050919050565b5f6060820190506104785f8301856103fc565b61048560208301846103fc565b818103604083015261049681610443565b90509392505050565b5f80fd5b5f8115159050919050565b6104b7816104a3565b81146104c1575f80fd5b50565b5f815190506104d2816104ae565b92915050565b5f602082840312156104ed576104ec61049f565b5b5f6104fa848285016104c4565b91505092915050565b61050c816103f3565b8114610516575f80fd5b50565b5f8151905061052781610503565b92915050565b5f602082840312156105425761054161049f565b5b5f61054f84828501610519565b91505092915050565b7f6e6f20657320636f72726563746f0000000000000000000000000000000000005f82015250565b5f61058c600e8361040b565b915061059782610558565b602082019050919050565b5f6060820190506105b55f8301856103fc565b6105c260208301846103fc565b81810360408301526105d381610580565b90509392505050565b7f6e6f206573206365726f000000000000000000000000000000000000000000005f82015250565b5f610610600a8361040b565b915061061b826105dc565b602082019050919050565b5f6060820190506106395f8301856103fc565b61064660208301846103fc565b818103604083015261065781610604565b9050939250505056fe608060405234801561000f575f80fd5b505f80819055506101e6806100235f395ff3fe608060405260043610610033575f3560e01c8063040f0aee1461003757806382b2e257146100415780639e1a4d191461006b575b5f80fd5b61003f610095565b005b34801561004c575f80fd5b506100556100b5565b60405161006291906100da565b60405180910390f35b348015610076575f80fd5b5061007f6100bd565b60405161008c91906100da565b60405180910390f35b600a346100a2919061014d565b5f546100ae919061017d565b5f81905550565b5f8054905090565b5f5481565b5f819050919050565b6100d4816100c2565b82525050565b5f6020820190506100ed5f8301846100cb565b92915050565b7f4e487b71000000000000000000000000000000000000000000000000000000005f52601260045260245ffd5b7f4e487b71000000000000000000000000000000000000000000000000000000005f52601160045260245ffd5b5f610157826100c2565b9150610162836100c2565b925082610172576101716100f3565b5b828204905092915050565b5f610187826100c2565b9150610192836100c2565b92508282019050808211156101aa576101a9610120565b5b9291505056fea2646970667358221220e13e8cf6af50256cf00287a6019e2c38b937ed29553b0e2f85be31450ab7540864736f6c63430008140033a264697066735822122004fdd15ede1a383a28bcfbf54e4fecb4f54c17fb9a85ce48d385a27ccc69e36664736f6c63430008140033",
			"opcodes": "PUSH1 0x80 PUSH1 0x40 MSTORE CALLVALUE DUP1 ISZERO PUSH2 0xF JUMPI PUSH0 DUP1 REVERT JUMPDEST POP PUSH2 0x89F DUP1 PUSH2 0x1D PUSH0 CODECOPY PUSH0 RETURN INVALID PUSH1 0x80 PUSH1 0x40 MSTORE PUSH1 0x4 CALLDATASIZE LT PUSH2 0x33 JUMPI PUSH0 CALLDATALOAD PUSH1 0xE0 SHR DUP1 PUSH4 0x895E64A EQ PUSH2 0x37 JUMPI DUP1 PUSH4 0x4A4507FF EQ PUSH2 0x41 JUMPI DUP1 PUSH4 0x7FEA0D4B EQ PUSH2 0x57 JUMPI JUMPDEST PUSH0 DUP1 REVERT JUMPDEST PUSH2 0x3F PUSH2 0x6D JUMP JUMPDEST STOP JUMPDEST CALLVALUE DUP1 ISZERO PUSH2 0x4C JUMPI PUSH0 DUP1 REVERT JUMPDEST POP PUSH2 0x55 PUSH2 0x278 JUMP JUMPDEST STOP JUMPDEST CALLVALUE DUP1 ISZERO PUSH2 0x62 JUMPI PUSH0 DUP1 REVERT JUMPDEST POP PUSH2 0x6B PUSH2 0x380 JUMP JUMPDEST STOP JUMPDEST PUSH0 PUSH1 0xC8 SWAP1 POP PUSH0 PUSH1 0x14 SWAP1 POP PUSH20 0x0 PUSH4 0xABCD7960 CALLVALUE DUP5 PUSH1 0x40 MLOAD DUP4 PUSH4 0xFFFFFFFF AND PUSH1 0xE0 SHL DUP2 MSTORE PUSH1 0x4 ADD PUSH2 0xB0 SWAP3 SWAP2 SWAP1 PUSH2 0x465 JUMP JUMPDEST PUSH1 0x20 PUSH1 0x40 MLOAD DUP1 DUP4 SUB DUP2 DUP7 GAS DELEGATECALL ISZERO DUP1 ISZERO PUSH2 0xCB JUMPI RETURNDATASIZE PUSH0 DUP1 RETURNDATACOPY RETURNDATASIZE PUSH0 REVERT JUMPDEST POP POP POP POP PUSH1 0x40 MLOAD RETURNDATASIZE PUSH1 0x1F NOT PUSH1 0x1F DUP3 ADD AND DUP3 ADD DUP1 PUSH1 0x40 MSTORE POP DUP2 ADD SWAP1 PUSH2 0xEF SWAP2 SWAP1 PUSH2 0x4D8 JUMP JUMPDEST POP PUSH0 DUP1 SLOAD SWAP1 PUSH2 0x100 EXP SWAP1 DIV PUSH20 0xFFFFFFFFFFFFFFFFFFFFFFFFFFFFFFFFFFFFFFFF AND PUSH20 0xFFFFFFFFFFFFFFFFFFFFFFFFFFFFFFFFFFFFFFFF AND PUSH4 0x40F0AEE PUSH2 0x9C40 CALLVALUE PUSH1 0x40 MLOAD DUP4 PUSH4 0xFFFFFFFF AND PUSH1 0xE0 SHL DUP2 MSTORE PUSH1 0x4 ADD PUSH0 PUSH1 0x40 MLOAD DUP1 DUP4 SUB DUP2 DUP6 DUP10 DUP1 EXTCODESIZE ISZERO DUP1 ISZERO PUSH2 0x158 JUMPI PUSH0 DUP1 REVERT JUMPDEST POP DUP9 CALL ISZERO DUP1 ISZERO PUSH2 0x16A JUMPI RETURNDATASIZE PUSH0 DUP1 RETURNDATACOPY RETURNDATASIZE PUSH0 REVERT JUMPDEST POP POP POP POP POP POP PUSH20 0x0 PUSH4 0xABCD7960 PUSH0 DUP1 SLOAD SWAP1 PUSH2 0x100 EXP SWAP1 DIV PUSH20 0xFFFFFFFFFFFFFFFFFFFFFFFFFFFFFFFFFFFFFFFF AND PUSH20 0xFFFFFFFFFFFFFFFFFFFFFFFFFFFFFFFFFFFFFFFF AND PUSH4 0x82B2E257 PUSH1 0x40 MLOAD DUP2 PUSH4 0xFFFFFFFF AND PUSH1 0xE0 SHL DUP2 MSTORE PUSH1 0x4 ADD PUSH1 0x20 PUSH1 0x40 MLOAD DUP1 DUP4 SUB DUP2 DUP7 GAS STATICCALL ISZERO DUP1 ISZERO PUSH2 0x1F2 JUMPI RETURNDATASIZE PUSH0 DUP1 RETURNDATACOPY RETURNDATASIZE PUSH0 REVERT JUMPDEST POP POP POP POP PUSH1 0x40 MLOAD RETURNDATASIZE PUSH1 0x1F NOT PUSH1 0x1F DUP3 ADD AND DUP3 ADD DUP1 PUSH1 0x40 MSTORE POP DUP2 ADD SWAP1 PUSH2 0x216 SWAP2 SWAP1 PUSH2 0x52D JUMP JUMPDEST DUP4 PUSH1 0x40 MLOAD DUP4 PUSH4 0xFFFFFFFF AND PUSH1 0xE0 SHL DUP2 MSTORE PUSH1 0x4 ADD PUSH2 0x234 SWAP3 SWAP2 SWAP1 PUSH2 0x5A2 JUMP JUMPDEST PUSH1 0x20 PUSH1 0x40 MLOAD DUP1 DUP4 SUB DUP2 DUP7 GAS DELEGATECALL ISZERO DUP1 ISZERO PUSH2 0x24F JUMPI RETURNDATASIZE PUSH0 DUP1 RETURNDATACOPY RETURNDATASIZE PUSH0 REVERT JUMPDEST POP POP POP POP PUSH1 0x40 MLOAD RETURNDATASIZE PUSH1 0x1F NOT PUSH1 0x1F DUP3 ADD AND DUP3 ADD DUP1 PUSH1 0x40 MSTORE POP DUP2 ADD SWAP1 PUSH2 0x273 SWAP2 SWAP1 PUSH2 0x4D8 JUMP JUMPDEST POP POP POP JUMP JUMPDEST PUSH0 PUSH20 0x0 PUSH4 0xABCD7960 PUSH0 DUP1 SLOAD SWAP1 PUSH2 0x100 EXP SWAP1 DIV PUSH20 0xFFFFFFFFFFFFFFFFFFFFFFFFFFFFFFFFFFFFFFFF AND PUSH20 0xFFFFFFFFFFFFFFFFFFFFFFFFFFFFFFFFFFFFFFFF AND PUSH4 0x82B2E257 PUSH1 0x40 MLOAD DUP2 PUSH4 0xFFFFFFFF AND PUSH1 0xE0 SHL DUP2 MSTORE PUSH1 0x4 ADD PUSH1 0x20 PUSH1 0x40 MLOAD DUP1 DUP4 SUB DUP2 DUP7 GAS STATICCALL ISZERO DUP1 ISZERO PUSH2 0x2FB JUMPI RETURNDATASIZE PUSH0 DUP1 RETURNDATACOPY RETURNDATASIZE PUSH0 REVERT JUMPDEST POP POP POP POP PUSH1 0x40 MLOAD RETURNDATASIZE PUSH1 0x1F NOT PUSH1 0x1F DUP3 ADD AND DUP3 ADD DUP1 PUSH1 0x40 MSTORE POP DUP2 ADD SWAP1 PUSH2 0x31F SWAP2 SWAP1 PUSH2 0x52D JUMP JUMPDEST DUP4 PUSH1 0x40 MLOAD DUP4 PUSH4 0xFFFFFFFF AND PUSH1 0xE0 SHL DUP2 MSTORE PUSH1 0x4 ADD PUSH2 0x33D SWAP3 SWAP2 SWAP1 PUSH2 0x626 JUMP JUMPDEST PUSH1 0x20 PUSH1 0x40 MLOAD DUP1 DUP4 SUB DUP2 DUP7 GAS DELEGATECALL ISZERO DUP1 ISZERO PUSH2 0x358 JUMPI RETURNDATASIZE PUSH0 DUP1 RETURNDATACOPY RETURNDATASIZE PUSH0 REVERT JUMPDEST POP POP POP POP PUSH1 0x40 MLOAD RETURNDATASIZE PUSH1 0x1F NOT PUSH1 0x1F DUP3 ADD AND DUP3 ADD DUP1 PUSH1 0x40 MSTORE POP DUP2 ADD SWAP1 PUSH2 0x37C SWAP2 SWAP1 PUSH2 0x4D8 JUMP JUMPDEST POP POP JUMP JUMPDEST PUSH1 0x40 MLOAD PUSH2 0x38C SWAP1 PUSH2 0x3E6 JUMP JUMPDEST PUSH1 0x40 MLOAD DUP1 SWAP2 SUB SWAP1 PUSH0 CREATE DUP1 ISZERO DUP1 ISZERO PUSH2 0x3A5 JUMPI RETURNDATASIZE PUSH0 DUP1 RETURNDATACOPY RETURNDATASIZE PUSH0 REVERT JUMPDEST POP PUSH0 DUP1 PUSH2 0x100 EXP DUP2 SLOAD DUP2 PUSH20 0xFFFFFFFFFFFFFFFFFFFFFFFFFFFFFFFFFFFFFFFF MUL NOT AND SWAP1 DUP4 PUSH20 0xFFFFFFFFFFFFFFFFFFFFFFFFFFFFFFFFFFFFFFFF AND MUL OR SWAP1 SSTORE POP JUMP JUMPDEST PUSH2 0x209 DUP1 PUSH2 0x661 DUP4 CODECOPY ADD SWAP1 JUMP JUMPDEST PUSH0 DUP2 SWAP1 POP SWAP2 SWAP1 POP JUMP JUMPDEST PUSH2 0x405 DUP2 PUSH2 0x3F3 JUMP JUMPDEST DUP3 MSTORE POP POP JUMP JUMPDEST PUSH0 DUP3 DUP3 MSTORE PUSH1 0x20 DUP3 ADD SWAP1 POP SWAP3 SWAP2 POP POP JUMP JUMPDEST PUSH32 0x6E6F2072656369626F2032303000000000000000000000000000000000000000 PUSH0 DUP3 ADD MSTORE POP JUMP JUMPDEST PUSH0 PUSH2 0x44F PUSH1 0xD DUP4 PUSH2 0x40B JUMP JUMPDEST SWAP2 POP PUSH2 0x45A DUP3 PUSH2 0x41B JUMP JUMPDEST PUSH1 0x20 DUP3 ADD SWAP1 POP SWAP2 SWAP1 POP JUMP JUMPDEST PUSH0 PUSH1 0x60 DUP3 ADD SWAP1 POP PUSH2 0x478 PUSH0 DUP4 ADD DUP6 PUSH2 0x3FC JUMP JUMPDEST PUSH2 0x485 PUSH1 0x20 DUP4 ADD DUP5 PUSH2 0x3FC JUMP JUMPDEST DUP2 DUP2 SUB PUSH1 0x40 DUP4 ADD MSTORE PUSH2 0x496 DUP2 PUSH2 0x443 JUMP JUMPDEST SWAP1 POP SWAP4 SWAP3 POP POP POP JUMP JUMPDEST PUSH0 DUP1 REVERT JUMPDEST PUSH0 DUP2 ISZERO ISZERO SWAP1 POP SWAP2 SWAP1 POP JUMP JUMPDEST PUSH2 0x4B7 DUP2 PUSH2 0x4A3 JUMP JUMPDEST DUP2 EQ PUSH2 0x4C1 JUMPI PUSH0 DUP1 REVERT JUMPDEST POP JUMP JUMPDEST PUSH0 DUP2 MLOAD SWAP1 POP PUSH2 0x4D2 DUP2 PUSH2 0x4AE JUMP JUMPDEST SWAP3 SWAP2 POP POP JUMP JUMPDEST PUSH0 PUSH1 0x20 DUP3 DUP5 SUB SLT ISZERO PUSH2 0x4ED JUMPI PUSH2 0x4EC PUSH2 0x49F JUMP JUMPDEST JUMPDEST PUSH0 PUSH2 0x4FA DUP5 DUP3 DUP6 ADD PUSH2 0x4C4 JUMP JUMPDEST SWAP2 POP POP SWAP3 SWAP2 POP POP JUMP JUMPDEST PUSH2 0x50C DUP2 PUSH2 0x3F3 JUMP JUMPDEST DUP2 EQ PUSH2 0x516 JUMPI PUSH0 DUP1 REVERT JUMPDEST POP JUMP JUMPDEST PUSH0 DUP2 MLOAD SWAP1 POP PUSH2 0x527 DUP2 PUSH2 0x503 JUMP JUMPDEST SWAP3 SWAP2 POP POP JUMP JUMPDEST PUSH0 PUSH1 0x20 DUP3 DUP5 SUB SLT ISZERO PUSH2 0x542 JUMPI PUSH2 0x541 PUSH2 0x49F JUMP JUMPDEST JUMPDEST PUSH0 PUSH2 0x54F DUP5 DUP3 DUP6 ADD PUSH2 0x519 JUMP JUMPDEST SWAP2 POP POP SWAP3 SWAP2 POP POP JUMP JUMPDEST PUSH32 0x6E6F20657320636F72726563746F000000000000000000000000000000000000 PUSH0 DUP3 ADD MSTORE POP JUMP JUMPDEST PUSH0 PUSH2 0x58C PUSH1 0xE DUP4 PUSH2 0x40B JUMP JUMPDEST SWAP2 POP PUSH2 0x597 DUP3 PUSH2 0x558 JUMP JUMPDEST PUSH1 0x20 DUP3 ADD SWAP1 POP SWAP2 SWAP1 POP JUMP JUMPDEST PUSH0 PUSH1 0x60 DUP3 ADD SWAP1 POP PUSH2 0x5B5 PUSH0 DUP4 ADD DUP6 PUSH2 0x3FC JUMP JUMPDEST PUSH2 0x5C2 PUSH1 0x20 DUP4 ADD DUP5 PUSH2 0x3FC JUMP JUMPDEST DUP2 DUP2 SUB PUSH1 0x40 DUP4 ADD MSTORE PUSH2 0x5D3 DUP2 PUSH2 0x580 JUMP JUMPDEST SWAP1 POP SWAP4 SWAP3 POP POP POP JUMP JUMPDEST PUSH32 0x6E6F206573206365726F00000000000000000000000000000000000000000000 PUSH0 DUP3 ADD MSTORE POP JUMP JUMPDEST PUSH0 PUSH2 0x610 PUSH1 0xA DUP4 PUSH2 0x40B JUMP JUMPDEST SWAP2 POP PUSH2 0x61B DUP3 PUSH2 0x5DC JUMP JUMPDEST PUSH1 0x20 DUP3 ADD SWAP1 POP SWAP2 SWAP1 POP JUMP JUMPDEST PUSH0 PUSH1 0x60 DUP3 ADD SWAP1 POP PUSH2 0x639 PUSH0 DUP4 ADD DUP6 PUSH2 0x3FC JUMP JUMPDEST PUSH2 0x646 PUSH1 0x20 DUP4 ADD DUP5 PUSH2 0x3FC JUMP JUMPDEST DUP2 DUP2 SUB PUSH1 0x40 DUP4 ADD MSTORE PUSH2 0x657 DUP2 PUSH2 0x604 JUMP JUMPDEST SWAP1 POP SWAP4 SWAP3 POP POP POP JUMP INVALID PUSH1 0x80 PUSH1 0x40 MSTORE CALLVALUE DUP1 ISZERO PUSH2 0xF JUMPI PUSH0 DUP1 REVERT JUMPDEST POP PUSH0 DUP1 DUP2 SWAP1 SSTORE POP PUSH2 0x1E6 DUP1 PUSH2 0x23 PUSH0 CODECOPY PUSH0 RETURN INVALID PUSH1 0x80 PUSH1 0x40 MSTORE PUSH1 0x4 CALLDATASIZE LT PUSH2 0x33 JUMPI PUSH0 CALLDATALOAD PUSH1 0xE0 SHR DUP1 PUSH4 0x40F0AEE EQ PUSH2 0x37 JUMPI DUP1 PUSH4 0x82B2E257 EQ PUSH2 0x41 JUMPI DUP1 PUSH4 0x9E1A4D19 EQ PUSH2 0x6B JUMPI JUMPDEST PUSH0 DUP1 REVERT JUMPDEST PUSH2 0x3F PUSH2 0x95 JUMP JUMPDEST STOP JUMPDEST CALLVALUE DUP1 ISZERO PUSH2 0x4C JUMPI PUSH0 DUP1 REVERT JUMPDEST POP PUSH2 0x55 PUSH2 0xB5 JUMP JUMPDEST PUSH1 0x40 MLOAD PUSH2 0x62 SWAP2 SWAP1 PUSH2 0xDA JUMP JUMPDEST PUSH1 0x40 MLOAD DUP1 SWAP2 SUB SWAP1 RETURN JUMPDEST CALLVALUE DUP1 ISZERO PUSH2 0x76 JUMPI PUSH0 DUP1 REVERT JUMPDEST POP PUSH2 0x7F PUSH2 0xBD JUMP JUMPDEST PUSH1 0x40 MLOAD PUSH2 0x8C SWAP2 SWAP1 PUSH2 0xDA JUMP JUMPDEST PUSH1 0x40 MLOAD DUP1 SWAP2 SUB SWAP1 RETURN JUMPDEST PUSH1 0xA CALLVALUE PUSH2 0xA2 SWAP2 SWAP1 PUSH2 0x14D JUMP JUMPDEST PUSH0 SLOAD PUSH2 0xAE SWAP2 SWAP1 PUSH2 0x17D JUMP JUMPDEST PUSH0 DUP2 SWAP1 SSTORE POP JUMP JUMPDEST PUSH0 DUP1 SLOAD SWAP1 POP SWAP1 JUMP JUMPDEST PUSH0 SLOAD DUP2 JUMP JUMPDEST PUSH0 DUP2 SWAP1 POP SWAP2 SWAP1 POP JUMP JUMPDEST PUSH2 0xD4 DUP2 PUSH2 0xC2 JUMP JUMPDEST DUP3 MSTORE POP POP JUMP JUMPDEST PUSH0 PUSH1 0x20 DUP3 ADD SWAP1 POP PUSH2 0xED PUSH0 DUP4 ADD DUP5 PUSH2 0xCB JUMP JUMPDEST SWAP3 SWAP2 POP POP JUMP JUMPDEST PUSH32 0x4E487B7100000000000000000000000000000000000000000000000000000000 PUSH0 MSTORE PUSH1 0x12 PUSH1 0x4 MSTORE PUSH1 0x24 PUSH0 REVERT JUMPDEST PUSH32 0x4E487B7100000000000000000000000000000000000000000000000000000000 PUSH0 MSTORE PUSH1 0x11 PUSH1 0x4 MSTORE PUSH1 0x24 PUSH0 REVERT JUMPDEST PUSH0 PUSH2 0x157 DUP3 PUSH2 0xC2 JUMP JUMPDEST SWAP2 POP PUSH2 0x162 DUP4 PUSH2 0xC2 JUMP JUMPDEST SWAP3 POP DUP3 PUSH2 0x172 JUMPI PUSH2 0x171 PUSH2 0xF3 JUMP JUMPDEST JUMPDEST DUP3 DUP3 DIV SWAP1 POP SWAP3 SWAP2 POP POP JUMP JUMPDEST PUSH0 PUSH2 0x187 DUP3 PUSH2 0xC2 JUMP JUMPDEST SWAP2 POP PUSH2 0x192 DUP4 PUSH2 0xC2 JUMP JUMPDEST SWAP3 POP DUP3 DUP3 ADD SWAP1 POP DUP1 DUP3 GT ISZERO PUSH2 0x1AA JUMPI PUSH2 0x1A9 PUSH2 0x120 JUMP JUMPDEST JUMPDEST SWAP3 SWAP2 POP POP JUMP INVALID LOG2 PUSH5 0x6970667358 0x22 SLT KECCAK256 0xE1 RETURNDATACOPY DUP13 0xF6 0xAF POP 0x25 PUSH13 0xF00287A6019E2C38B937ED2955 EXTCODESIZE 0xE 0x2F DUP6 0xBE BALANCE GASLIMIT EXP 0xB7 SLOAD ADDMOD PUSH5 0x736F6C6343 STOP ADDMOD EQ STOP CALLER LOG2 PUSH5 0x6970667358 0x22 SLT KECCAK256 DIV REVERT 0xD1 0x5E 0xDE BYTE CODESIZE GASPRICE 0x28 0xBC 0xFB CREATE2 0x4E 0x4F 0xEC 0xB4 CREATE2 0x4C OR 0xFB SWAP11 DUP6 0xCE BASEFEE 0xD3 DUP6 LOG2 PUSH29 0xCC69E36664736F6C634300081400330000000000000000000000000000 "
		},
		"gasEstimates": {
			"creation": {
				"codeDepositCost": "441400",
				"executionCost": "472",
				"totalCost": "441872"
			},
			"external": {
				"addValueOnce()": "infinite",
				"beforeAll()": "infinite",
				"testInitialBalance()": "infinite"
			}
		},
		"methodIdentifiers": {
			"addValueOnce()": "0895e64a",
			"beforeAll()": "7fea0d4b",
			"testInitialBalance()": "4a4507ff"
		}
	},
	"abi": [
		{
			"inputs": [],
			"name": "addValueOnce",
			"outputs": [],
			"stateMutability": "payable",
			"type": "function"
		},
		{
			"inputs": [],
			"name": "beforeAll",
			"outputs": [],
			"stateMutability": "nonpayable",
			"type": "function"
		},
		{
			"inputs": [],
			"name": "testInitialBalance",
			"outputs": [],
			"stateMutability": "nonpayable",
			"type": "function"
		}
	]
}