{
	"sc/is/inheritance.sol": {
		"parent": {
			"abi": [
				{
					"constant": false,
					"inputs": [],
					"name": "setValue",
					"outputs": [],
					"payable": false,
					"stateMutability": "nonpayable",
					"type": "function"
				}
			],
			"devdoc": {
				"methods": {}
			},
			"evm": {
				"assembly": "    /* \"sc/is/inheritance.sol\":55:176  contract parent{... */\n  mstore(0x40, 0x80)\n  callvalue\n    /* \"--CODEGEN--\":8:17   */\n  dup1\n    /* \"--CODEGEN--\":5:7   */\n  iszero\n  tag_1\n  jumpi\n    /* \"--CODEGEN--\":30:31   */\n  0x00\n    /* \"--CODEGEN--\":27:28   */\n  dup1\n    /* \"--CODEGEN--\":20:32   */\n  revert\n    /* \"--CODEGEN--\":5:7   */\ntag_1:\n    /* \"sc/is/inheritance.sol\":55:176  contract parent{... */\n  pop\n  dataSize(sub_0)\n  dup1\n  dataOffset(sub_0)\n  0x00\n  codecopy\n  0x00\n  return\nstop\n\nsub_0: assembly {\n        /* \"sc/is/inheritance.sol\":55:176  contract parent{... */\n      mstore(0x40, 0x80)\n      callvalue\n        /* \"--CODEGEN--\":8:17   */\n      dup1\n        /* \"--CODEGEN--\":5:7   */\n      iszero\n      tag_1\n      jumpi\n        /* \"--CODEGEN--\":30:31   */\n      0x00\n        /* \"--CODEGEN--\":27:28   */\n      dup1\n        /* \"--CODEGEN--\":20:32   */\n      revert\n        /* \"--CODEGEN--\":5:7   */\n    tag_1:\n        /* \"sc/is/inheritance.sol\":55:176  contract parent{... */\n      pop\n      jumpi(tag_2, lt(calldatasize, 0x04))\n      shr(0xe0, calldataload(0x00))\n      dup1\n      0x4fa519fa\n      eq\n      tag_3\n      jumpi\n    tag_2:\n      0x00\n      dup1\n      revert\n        /* \"sc/is/inheritance.sol\":96:174  function setValue() external {... */\n    tag_3:\n      tag_4\n      tag_5\n      jump\t// in\n    tag_4:\n      stop\n    tag_5:\n        /* \"sc/is/inheritance.sol\":129:135  uint a */\n      0x00\n        /* \"sc/is/inheritance.sol\":138:140  10 */\n      0x0a\n        /* \"sc/is/inheritance.sol\":129:140  uint a = 10 */\n      swap1\n      pop\n        /* \"sc/is/inheritance.sol\":144:150  uint b */\n      0x00\n        /* \"sc/is/inheritance.sol\":153:155  20 */\n      0x14\n        /* \"sc/is/inheritance.sol\":144:155  uint b = 20 */\n      swap1\n      pop\n        /* \"sc/is/inheritance.sol\":169:170  b */\n      dup1\n        /* \"sc/is/inheritance.sol\":165:166  a */\n      dup3\n        /* \"sc/is/inheritance.sol\":165:170  a + b */\n      add\n        /* \"sc/is/inheritance.sol\":159:162  sum */\n      0x00\n        /* \"sc/is/inheritance.sol\":159:170  sum = a + b */\n      dup2\n      swap1\n      sstore\n      pop\n        /* \"sc/is/inheritance.sol\":96:174  function setValue() external {... */\n      pop\n      pop\n      jump\t// out\n\n    auxdata: 0xa265627a7a7231582001b38ba146e120cbf68700d176e6b934614bc67b05b0addae67d6721dec17fa464736f6c63430005110032\n}\n",
				"bytecode": {
					"linkReferences": {},
					"object": "6080604052348015600f57600080fd5b5060838061001e6000396000f3fe6080604052348015600f57600080fd5b506004361060285760003560e01c80634fa519fa14602d575b600080fd5b60336035565b005b6000600a9050600060149050808201600081905550505056fea265627a7a7231582001b38ba146e120cbf68700d176e6b934614bc67b05b0addae67d6721dec17fa464736f6c63430005110032",
					"opcodes": "PUSH1 0x80 PUSH1 0x40 MSTORE CALLVALUE DUP1 ISZERO PUSH1 0xF JUMPI PUSH1 0x0 DUP1 REVERT JUMPDEST POP PUSH1 0x83 DUP1 PUSH2 0x1E PUSH1 0x0 CODECOPY PUSH1 0x0 RETURN INVALID PUSH1 0x80 PUSH1 0x40 MSTORE CALLVALUE DUP1 ISZERO PUSH1 0xF JUMPI PUSH1 0x0 DUP1 REVERT JUMPDEST POP PUSH1 0x4 CALLDATASIZE LT PUSH1 0x28 JUMPI PUSH1 0x0 CALLDATALOAD PUSH1 0xE0 SHR DUP1 PUSH4 0x4FA519FA EQ PUSH1 0x2D JUMPI JUMPDEST PUSH1 0x0 DUP1 REVERT JUMPDEST PUSH1 0x33 PUSH1 0x35 JUMP JUMPDEST STOP JUMPDEST PUSH1 0x0 PUSH1 0xA SWAP1 POP PUSH1 0x0 PUSH1 0x14 SWAP1 POP DUP1 DUP3 ADD PUSH1 0x0 DUP2 SWAP1 SSTORE POP POP POP JUMP INVALID LOG2 PUSH6 0x627A7A723158 KECCAK256 ADD 0xB3 DUP12 LOG1 CHAINID 0xE1 KECCAK256 0xCB 0xF6 DUP8 STOP 0xD1 PUSH23 0xE6B934614BC67B05B0ADDAE67D6721DEC17FA464736F6C PUSH4 0x43000511 STOP ORIGIN "
				},
				"gasEstimates": {
					"creation": {
						"codeDepositCost": "26200",
						"executionCost": "81",
						"totalCost": "26281"
					},
					"external": {
						"setValue()": "20168"
					}
				},
				"methodIdentifiers": {
					"setValue()": "4fa519fa"
				}
			},
			"storageLayout": {
				"storage": [
					{
						"astId": 3,
						"contract": "sc/is/inheritance.sol:parent",
						"label": "sum",
						"offset": 0,
						"slot": "0",
						"type": "t_uint256"
					}
				],
				"types": {
					"t_uint256": {
						"encoding": "inplace",
						"label": "uint256",
						"numberOfBytes": "32"
					}
				}
			},
			"userdoc": {
				"methods": {}
			}
		}
	}
}