{
	"tests/storage_test.sol": {
		"testSuite": {
			"abi": [
				{
					"inputs": [],
					"name": "beforeAll",
					"outputs": [],
					"stateMutability": "nonpayable",
					"type": "function"
				},
				{
					"inputs": [],
					"name": "checkGet",
					"outputs": [
						{
							"internalType": "bool",
							"name": "",
							"type": "bool"
						}
					],
					"stateMutability": "nonpayable",
					"type": "function"
				},
				{
					"inputs": [],
					"name": "checkSet",
					"outputs": [
						{
							"internalType": "bool",
							"name": "",
							"type": "bool"
						}
					],
					"stateMutability": "nonpayable",
					"type": "function"
				},
				{
					"inputs": [],
					"name": "initialValueIs100",
					"outputs": [],
					"stateMutability": "nonpayable",
					"type": "function"
				}
			],
			"devdoc": {
				"kind": "dev",
				"methods": {},
				"version": 1
			},
			"evm": {
				"assembly": "    /* \"tests/storage_test.sol\":490:1334  contract testSuite {... */\n  mstore(0x40, 0x80)\n  callvalue\n  dup1\n  iszero\n  tag_1\n  jumpi\n  0x00\n  dup1\n  revert\ntag_1:\n  pop\n  dataSize(sub_0)\n  dup1\n  dataOffset(sub_0)\n  0x00\n  codecopy\n  0x00\n  return\nstop\n\nsub_0: assembly {\n        /* \"tests/storage_test.sol\":490:1334  contract testSuite {... */\n      mstore(0x40, 0x80)\n      callvalue\n      dup1\n      iszero\n      tag_1\n      jumpi\n      0x00\n      dup1\n      revert\n    tag_1:\n      pop\n      jumpi(tag_2, lt(calldatasize, 0x04))\n      shr(0xe0, calldataload(0x00))\n      dup1\n      0x3e1d6928\n      eq\n      tag_3\n      jumpi\n      dup1\n      0x7fea0d4b\n      eq\n      tag_4\n      jumpi\n      dup1\n      0xc3754742\n      eq\n      tag_5\n      jumpi\n      dup1\n      0xe507fffc\n      eq\n      tag_6\n      jumpi\n    tag_2:\n      0x00\n      dup1\n      revert\n        /* \"tests/storage_test.sol\":1026:1332  function checkSet() public returns (bool) {... */\n    tag_3:\n      tag_7\n      tag_8\n      jump\t// in\n    tag_7:\n      mload(0x40)\n      tag_9\n      swap2\n      swap1\n      tag_10\n      jump\t// in\n    tag_9:\n      mload(0x40)\n      dup1\n      swap2\n      sub\n      swap1\n      return\n        /* \"tests/storage_test.sol\":674:777  function beforeAll() public {... */\n    tag_4:\n      tag_11\n      tag_12\n      jump\t// in\n    tag_11:\n      stop\n        /* \"tests/storage_test.sol\":926:1020  function initialValueIs100() public {... */\n    tag_5:\n      tag_13\n      tag_14\n      jump\t// in\n    tag_13:\n      stop\n        /* \"tests/storage_test.sol\":783:920  function checkGet() public  returns (bool){... */\n    tag_6:\n      tag_15\n      tag_16\n      jump\t// in\n    tag_15:\n      mload(0x40)\n      tag_17\n      swap2\n      swap1\n      tag_10\n      jump\t// in\n    tag_17:\n      mload(0x40)\n      dup1\n      swap2\n      sub\n      swap1\n      return\n        /* \"tests/storage_test.sol\":1026:1332  function checkSet() public returns (bool) {... */\n    tag_8:\n        /* \"tests/storage_test.sol\":1062:1066  bool */\n      0x00\n        /* \"tests/storage_test.sol\":1174:1180  Assert */\n      linkerSymbol(\"acbfb1c35000d78352310b16a054a6b1066124b9c6f054b10c085f549bff80c6\")\n        /* \"tests/storage_test.sol\":1174:1186  Assert.equal */\n      0xabcd7960\n        /* \"tests/storage_test.sol\":1187:1190  foo */\n      0x00\n      dup1\n      sload\n      swap1\n      0x0100\n      exp\n      swap1\n      div\n      0xffffffffffffffffffffffffffffffffffffffff\n      and\n        /* \"tests/storage_test.sol\":1187:1194  foo.get */\n      0xffffffffffffffffffffffffffffffffffffffff\n      and\n      0x6d4ce63c\n        /* \"tests/storage_test.sol\":1187:1196  foo.get() */\n      mload(0x40)\n      dup2\n      0xffffffff\n      and\n      0xe0\n      shl\n      dup2\n      mstore\n      0x04\n      add\n      0x20\n      mload(0x40)\n      dup1\n      dup4\n      sub\n      dup2\n      dup7\n      gas\n      staticcall\n      iszero\n      dup1\n      iszero\n      tag_20\n      jumpi\n      returndatasize\n      0x00\n      dup1\n      returndatacopy\n      revert(0x00, returndatasize)\n    tag_20:\n      pop\n      pop\n      pop\n      pop\n      mload(0x40)\n      returndatasize\n      not(0x1f)\n      0x1f\n      dup3\n      add\n      and\n      dup3\n      add\n      dup1\n      0x40\n      mstore\n      pop\n      dup2\n      add\n      swap1\n      tag_21\n      swap2\n      swap1\n      tag_22\n      jump\t// in\n    tag_21:\n        /* \"tests/storage_test.sol\":1198:1201  100 */\n      0x64\n        /* \"tests/storage_test.sol\":1174:1232  Assert.equal(foo.get(), 100, \"is not 100 at the begining\") */\n      mload(0x40)\n      dup4\n      0xffffffff\n      and\n      0xe0\n      shl\n      dup2\n      mstore\n      0x04\n      add\n      tag_23\n      swap3\n      swap2\n      swap1\n      tag_24\n      jump\t// in\n    tag_23:\n      0x20\n      mload(0x40)\n      dup1\n      dup4\n      sub\n      dup2\n      dup7\n      gas\n      delegatecall\n      iszero\n      dup1\n      iszero\n      tag_26\n      jumpi\n      returndatasize\n      0x00\n      dup1\n      returndatacopy\n      revert(0x00, returndatasize)\n    tag_26:\n      pop\n      pop\n      pop\n      pop\n      mload(0x40)\n      returndatasize\n      not(0x1f)\n      0x1f\n      dup3\n      add\n      and\n      dup3\n      add\n      dup1\n      0x40\n      mstore\n      pop\n      dup2\n      add\n      swap1\n      tag_27\n      swap2\n      swap1\n      tag_28\n      jump\t// in\n    tag_27:\n      pop\n        /* \"tests/storage_test.sol\":1242:1245  foo */\n      0x00\n      dup1\n      sload\n      swap1\n      0x0100\n      exp\n      swap1\n      div\n      0xffffffffffffffffffffffffffffffffffffffff\n      and\n        /* \"tests/storage_test.sol\":1242:1249  foo.set */\n      0xffffffffffffffffffffffffffffffffffffffff\n      and\n      0x60fe47b1\n        /* \"tests/storage_test.sol\":1250:1251  4 */\n      0x04\n        /* \"tests/storage_test.sol\":1242:1252  foo.set(4) */\n      mload(0x40)\n      dup3\n      0xffffffff\n      and\n      0xe0\n      shl\n      dup2\n      mstore\n      0x04\n      add\n      tag_29\n      swap2\n      swap1\n      tag_30\n      jump\t// in\n    tag_29:\n      0x00\n      mload(0x40)\n      dup1\n      dup4\n      sub\n      dup2\n      0x00\n      dup8\n      dup1\n      extcodesize\n      iszero\n      dup1\n      iszero\n      tag_31\n      jumpi\n      0x00\n      dup1\n      revert\n    tag_31:\n      pop\n      gas\n      call\n      iszero\n      dup1\n      iszero\n      tag_33\n      jumpi\n      returndatasize\n      0x00\n      dup1\n      returndatacopy\n      revert(0x00, returndatasize)\n    tag_33:\n      pop\n      pop\n      pop\n      pop\n        /* \"tests/storage_test.sol\":1269:1275  Assert */\n      linkerSymbol(\"acbfb1c35000d78352310b16a054a6b1066124b9c6f054b10c085f549bff80c6\")\n        /* \"tests/storage_test.sol\":1269:1281  Assert.equal */\n      0xabcd7960\n        /* \"tests/storage_test.sol\":1282:1285  foo */\n      0x00\n      dup1\n      sload\n      swap1\n      0x0100\n      exp\n      swap1\n      div\n      0xffffffffffffffffffffffffffffffffffffffff\n      and\n        /* \"tests/storage_test.sol\":1282:1289  foo.get */\n      0xffffffffffffffffffffffffffffffffffffffff\n      and\n      0x6d4ce63c\n        /* \"tests/storage_test.sol\":1282:1291  foo.get() */\n      mload(0x40)\n      dup2\n      0xffffffff\n      and\n      0xe0\n      shl\n      dup2\n      mstore\n      0x04\n      add\n      0x20\n      mload(0x40)\n      dup1\n      dup4\n      sub\n      dup2\n      dup7\n      gas\n      staticcall\n      iszero\n      dup1\n      iszero\n      tag_35\n      jumpi\n      returndatasize\n      0x00\n      dup1\n      returndatacopy\n      revert(0x00, returndatasize)\n    tag_35:\n      pop\n      pop\n      pop\n      pop\n      mload(0x40)\n      returndatasize\n      not(0x1f)\n      0x1f\n      dup3\n      add\n      and\n      dup3\n      add\n      dup1\n      0x40\n      mstore\n      pop\n      dup2\n      add\n      swap1\n      tag_36\n      swap2\n      swap1\n      tag_22\n      jump\t// in\n    tag_36:\n        /* \"tests/storage_test.sol\":1293:1294  4 */\n      0x04\n        /* \"tests/storage_test.sol\":1269:1325  Assert.equal(foo.get(), 4, \"is not 4 after settting it\") */\n      mload(0x40)\n      dup4\n      0xffffffff\n      and\n      0xe0\n      shl\n      dup2\n      mstore\n      0x04\n      add\n      tag_37\n      swap3\n      swap2\n      swap1\n      tag_38\n      jump\t// in\n    tag_37:\n      0x20\n      mload(0x40)\n      dup1\n      dup4\n      sub\n      dup2\n      dup7\n      gas\n      delegatecall\n      iszero\n      dup1\n      iszero\n      tag_40\n      jumpi\n      returndatasize\n      0x00\n      dup1\n      returndatacopy\n      revert(0x00, returndatasize)\n    tag_40:\n      pop\n      pop\n      pop\n      pop\n      mload(0x40)\n      returndatasize\n      not(0x1f)\n      0x1f\n      dup3\n      add\n      and\n      dup3\n      add\n      dup1\n      0x40\n      mstore\n      pop\n      dup2\n      add\n      swap1\n      tag_41\n      swap2\n      swap1\n      tag_28\n      jump\t// in\n    tag_41:\n        /* \"tests/storage_test.sol\":1262:1325  return Assert.equal(foo.get(), 4, \"is not 4 after settting it\") */\n      swap1\n      pop\n        /* \"tests/storage_test.sol\":1026:1332  function checkSet() public returns (bool) {... */\n      swap1\n      jump\t// out\n        /* \"tests/storage_test.sol\":674:777  function beforeAll() public {... */\n    tag_12:\n        /* \"tests/storage_test.sol\":751:770  new SimpleStorage() */\n      mload(0x40)\n      tag_43\n      swap1\n      tag_44\n      jump\t// in\n    tag_43:\n      mload(0x40)\n      dup1\n      swap2\n      sub\n      swap1\n      0x00\n      create\n      dup1\n      iszero\n      dup1\n      iszero\n      tag_45\n      jumpi\n      returndatasize\n      0x00\n      dup1\n      returndatacopy\n      revert(0x00, returndatasize)\n    tag_45:\n      pop\n        /* \"tests/storage_test.sol\":746:749  foo */\n      0x00\n      dup1\n        /* \"tests/storage_test.sol\":746:770  foo =new SimpleStorage() */\n      0x0100\n      exp\n      dup2\n      sload\n      dup2\n      0xffffffffffffffffffffffffffffffffffffffff\n      mul\n      not\n      and\n      swap1\n      dup4\n      0xffffffffffffffffffffffffffffffffffffffff\n      and\n      mul\n      or\n      swap1\n      sstore\n      pop\n        /* \"tests/storage_test.sol\":674:777  function beforeAll() public {... */\n      jump\t// out\n        /* \"tests/storage_test.sol\":926:1020  function initialValueIs100() public {... */\n    tag_14:\n        /* \"tests/storage_test.sol\":972:978  Assert */\n      linkerSymbol(\"acbfb1c35000d78352310b16a054a6b1066124b9c6f054b10c085f549bff80c6\")\n        /* \"tests/storage_test.sol\":972:984  Assert.equal */\n      0xabcd7960\n        /* \"tests/storage_test.sol\":985:988  foo */\n      0x00\n      dup1\n      sload\n      swap1\n      0x0100\n      exp\n      swap1\n      div\n      0xffffffffffffffffffffffffffffffffffffffff\n      and\n        /* \"tests/storage_test.sol\":985:992  foo.get */\n      0xffffffffffffffffffffffffffffffffffffffff\n      and\n      0x6d4ce63c\n        /* \"tests/storage_test.sol\":985:994  foo.get() */\n      mload(0x40)\n      dup2\n      0xffffffff\n      and\n      0xe0\n      shl\n      dup2\n      mstore\n      0x04\n      add\n      0x20\n      mload(0x40)\n      dup1\n      dup4\n      sub\n      dup2\n      dup7\n      gas\n      staticcall\n      iszero\n      dup1\n      iszero\n      tag_48\n      jumpi\n      returndatasize\n      0x00\n      dup1\n      returndatacopy\n      revert(0x00, returndatasize)\n    tag_48:\n      pop\n      pop\n      pop\n      pop\n      mload(0x40)\n      returndatasize\n      not(0x1f)\n      0x1f\n      dup3\n      add\n      and\n      dup3\n      add\n      dup1\n      0x40\n      mstore\n      pop\n      dup2\n      add\n      swap1\n      tag_49\n      swap2\n      swap1\n      tag_22\n      jump\t// in\n    tag_49:\n        /* \"tests/storage_test.sol\":995:998  100 */\n      0x64\n        /* \"tests/storage_test.sol\":972:1013  Assert.equal(foo.get(),100, \"is not 100\") */\n      mload(0x40)\n      dup4\n      0xffffffff\n      and\n      0xe0\n      shl\n      dup2\n      mstore\n      0x04\n      add\n      tag_50\n      swap3\n      swap2\n      swap1\n      tag_51\n      jump\t// in\n    tag_50:\n      0x20\n      mload(0x40)\n      dup1\n      dup4\n      sub\n      dup2\n      dup7\n      gas\n      delegatecall\n      iszero\n      dup1\n      iszero\n      tag_53\n      jumpi\n      returndatasize\n      0x00\n      dup1\n      returndatacopy\n      revert(0x00, returndatasize)\n    tag_53:\n      pop\n      pop\n      pop\n      pop\n      mload(0x40)\n      returndatasize\n      not(0x1f)\n      0x1f\n      dup3\n      add\n      and\n      dup3\n      add\n      dup1\n      0x40\n      mstore\n      pop\n      dup2\n      add\n      swap1\n      tag_54\n      swap2\n      swap1\n      tag_28\n      jump\t// in\n    tag_54:\n      pop\n        /* \"tests/storage_test.sol\":926:1020  function initialValueIs100() public {... */\n      jump\t// out\n        /* \"tests/storage_test.sol\":783:920  function checkGet() public  returns (bool){... */\n    tag_16:\n        /* \"tests/storage_test.sol\":820:824  bool */\n      0x00\n        /* \"tests/storage_test.sol\":842:848  Assert */\n      linkerSymbol(\"acbfb1c35000d78352310b16a054a6b1066124b9c6f054b10c085f549bff80c6\")\n        /* \"tests/storage_test.sol\":842:854  Assert.equal */\n      0xabcd7960\n        /* \"tests/storage_test.sol\":855:858  foo */\n      0x00\n      dup1\n      sload\n      swap1\n      0x0100\n      exp\n      swap1\n      div\n      0xffffffffffffffffffffffffffffffffffffffff\n      and\n        /* \"tests/storage_test.sol\":855:862  foo.get */\n      0xffffffffffffffffffffffffffffffffffffffff\n      and\n      0x6d4ce63c\n        /* \"tests/storage_test.sol\":855:864  foo.get() */\n      mload(0x40)\n      dup2\n      0xffffffff\n      and\n      0xe0\n      shl\n      dup2\n      mstore\n      0x04\n      add\n      0x20\n      mload(0x40)\n      dup1\n      dup4\n      sub\n      dup2\n      dup7\n      gas\n      staticcall\n      iszero\n      dup1\n      iszero\n      tag_57\n      jumpi\n      returndatasize\n      0x00\n      dup1\n      returndatacopy\n      revert(0x00, returndatasize)\n    tag_57:\n      pop\n      pop\n      pop\n      pop\n      mload(0x40)\n      returndatasize\n      not(0x1f)\n      0x1f\n      dup3\n      add\n      and\n      dup3\n      add\n      dup1\n      0x40\n      mstore\n      pop\n      dup2\n      add\n      swap1\n      tag_58\n      swap2\n      swap1\n      tag_22\n      jump\t// in\n    tag_58:\n        /* \"tests/storage_test.sol\":866:869  foo */\n      0x00\n      dup1\n      sload\n      swap1\n      0x0100\n      exp\n      swap1\n      div\n      0xffffffffffffffffffffffffffffffffffffffff\n      and\n        /* \"tests/storage_test.sol\":866:880  foo.storedData */\n      0xffffffffffffffffffffffffffffffffffffffff\n      and\n      0x2a1afcd9\n        /* \"tests/storage_test.sol\":866:882  foo.storedData() */\n      mload(0x40)\n      dup2\n      0xffffffff\n      and\n      0xe0\n      shl\n      dup2\n      mstore\n      0x04\n      add\n      0x20\n      mload(0x40)\n      dup1\n      dup4\n      sub\n      dup2\n      dup7\n      gas\n      staticcall\n      iszero\n      dup1\n      iszero\n      tag_60\n      jumpi\n      returndatasize\n      0x00\n      dup1\n      returndatacopy\n      revert(0x00, returndatasize)\n    tag_60:\n      pop\n      pop\n      pop\n      pop\n      mload(0x40)\n      returndatasize\n      not(0x1f)\n      0x1f\n      dup3\n      add\n      and\n      dup3\n      add\n      dup1\n      0x40\n      mstore\n      pop\n      dup2\n      add\n      swap1\n      tag_61\n      swap2\n      swap1\n      tag_22\n      jump\t// in\n    tag_61:\n        /* \"tests/storage_test.sol\":842:913  Assert.equal(foo.get(), foo.storedData(), \" get and store date differ\") */\n      mload(0x40)\n      dup4\n      0xffffffff\n      and\n      0xe0\n      shl\n      dup2\n      mstore\n      0x04\n      add\n      tag_62\n      swap3\n      swap2\n      swap1\n      tag_63\n      jump\t// in\n    tag_62:\n      0x20\n      mload(0x40)\n      dup1\n      dup4\n      sub\n      dup2\n      dup7\n      gas\n      delegatecall\n      iszero\n      dup1\n      iszero\n      tag_65\n      jumpi\n      returndatasize\n      0x00\n      dup1\n      returndatacopy\n      revert(0x00, returndatasize)\n    tag_65:\n      pop\n      pop\n      pop\n      pop\n      mload(0x40)\n      returndatasize\n      not(0x1f)\n      0x1f\n      dup3\n      add\n      and\n      dup3\n      add\n      dup1\n      0x40\n      mstore\n      pop\n      dup2\n      add\n      swap1\n      tag_66\n      swap2\n      swap1\n      tag_28\n      jump\t// in\n    tag_66:\n        /* \"tests/storage_test.sol\":835:913  return Assert.equal(foo.get(), foo.storedData(), \" get and store date differ\") */\n      swap1\n      pop\n        /* \"tests/storage_test.sol\":783:920  function checkGet() public  returns (bool){... */\n      swap1\n      jump\t// out\n    tag_44:\n      dataSize(sub_0)\n      dup1\n      dataOffset(sub_0)\n      dup4\n      codecopy\n      add\n      swap1\n      jump\t// out\n        /* \"#utility.yul\":7:97   */\n    tag_67:\n        /* \"#utility.yul\":41:48   */\n      0x00\n        /* \"#utility.yul\":84:89   */\n      dup2\n        /* \"#utility.yul\":77:90   */\n      iszero\n        /* \"#utility.yul\":70:91   */\n      iszero\n        /* \"#utility.yul\":59:91   */\n      swap1\n      pop\n        /* \"#utility.yul\":7:97   */\n      swap2\n      swap1\n      pop\n      jump\t// out\n        /* \"#utility.yul\":103:212   */\n    tag_68:\n        /* \"#utility.yul\":184:205   */\n      tag_98\n        /* \"#utility.yul\":199:204   */\n      dup2\n        /* \"#utility.yul\":184:205   */\n      tag_67\n      jump\t// in\n    tag_98:\n        /* \"#utility.yul\":179:182   */\n      dup3\n        /* \"#utility.yul\":172:206   */\n      mstore\n        /* \"#utility.yul\":103:212   */\n      pop\n      pop\n      jump\t// out\n        /* \"#utility.yul\":218:428   */\n    tag_10:\n        /* \"#utility.yul\":305:309   */\n      0x00\n        /* \"#utility.yul\":343:345   */\n      0x20\n        /* \"#utility.yul\":332:341   */\n      dup3\n        /* \"#utility.yul\":328:346   */\n      add\n        /* \"#utility.yul\":320:346   */\n      swap1\n      pop\n        /* \"#utility.yul\":356:421   */\n      tag_100\n        /* \"#utility.yul\":418:419   */\n      0x00\n        /* \"#utility.yul\":407:416   */\n      dup4\n        /* \"#utility.yul\":403:420   */\n      add\n        /* \"#utility.yul\":394:400   */\n      dup5\n        /* \"#utility.yul\":356:421   */\n      tag_68\n      jump\t// in\n    tag_100:\n        /* \"#utility.yul\":218:428   */\n      swap3\n      swap2\n      pop\n      pop\n      jump\t// out\n        /* \"#utility.yul\":515:632   */\n    tag_70:\n        /* \"#utility.yul\":624:625   */\n      0x00\n        /* \"#utility.yul\":621:622   */\n      dup1\n        /* \"#utility.yul\":614:626   */\n      revert\n        /* \"#utility.yul\":761:838   */\n    tag_72:\n        /* \"#utility.yul\":798:805   */\n      0x00\n        /* \"#utility.yul\":827:832   */\n      dup2\n        /* \"#utility.yul\":816:832   */\n      swap1\n      pop\n        /* \"#utility.yul\":761:838   */\n      swap2\n      swap1\n      pop\n      jump\t// out\n        /* \"#utility.yul\":844:966   */\n    tag_73:\n        /* \"#utility.yul\":917:941   */\n      tag_106\n        /* \"#utility.yul\":935:940   */\n      dup2\n        /* \"#utility.yul\":917:941   */\n      tag_72\n      jump\t// in\n    tag_106:\n        /* \"#utility.yul\":910:915   */\n      dup2\n        /* \"#utility.yul\":907:942   */\n      eq\n        /* \"#utility.yul\":897:960   */\n      tag_107\n      jumpi\n        /* \"#utility.yul\":956:957   */\n      0x00\n        /* \"#utility.yul\":953:954   */\n      dup1\n        /* \"#utility.yul\":946:958   */\n      revert\n        /* \"#utility.yul\":897:960   */\n    tag_107:\n        /* \"#utility.yul\":844:966   */\n      pop\n      jump\t// out\n        /* \"#utility.yul\":972:1115   */\n    tag_74:\n        /* \"#utility.yul\":1029:1034   */\n      0x00\n        /* \"#utility.yul\":1060:1066   */\n      dup2\n        /* \"#utility.yul\":1054:1067   */\n      mload\n        /* \"#utility.yul\":1045:1067   */\n      swap1\n      pop\n        /* \"#utility.yul\":1076:1109   */\n      tag_109\n        /* \"#utility.yul\":1103:1108   */\n      dup2\n        /* \"#utility.yul\":1076:1109   */\n      tag_73\n      jump\t// in\n    tag_109:\n        /* \"#utility.yul\":972:1115   */\n      swap3\n      swap2\n      pop\n      pop\n      jump\t// out\n        /* \"#utility.yul\":1121:1472   */\n    tag_22:\n        /* \"#utility.yul\":1191:1197   */\n      0x00\n        /* \"#utility.yul\":1240:1242   */\n      0x20\n        /* \"#utility.yul\":1228:1237   */\n      dup3\n        /* \"#utility.yul\":1219:1226   */\n      dup5\n        /* \"#utility.yul\":1215:1238   */\n      sub\n        /* \"#utility.yul\":1211:1243   */\n      slt\n        /* \"#utility.yul\":1208:1327   */\n      iszero\n      tag_111\n      jumpi\n        /* \"#utility.yul\":1246:1325   */\n      tag_112\n      tag_70\n      jump\t// in\n    tag_112:\n        /* \"#utility.yul\":1208:1327   */\n    tag_111:\n        /* \"#utility.yul\":1366:1367   */\n      0x00\n        /* \"#utility.yul\":1391:1455   */\n      tag_113\n        /* \"#utility.yul\":1447:1454   */\n      dup5\n        /* \"#utility.yul\":1438:1444   */\n      dup3\n        /* \"#utility.yul\":1427:1436   */\n      dup6\n        /* \"#utility.yul\":1423:1445   */\n      add\n        /* \"#utility.yul\":1391:1455   */\n      tag_74\n      jump\t// in\n    tag_113:\n        /* \"#utility.yul\":1381:1455   */\n      swap2\n      pop\n        /* \"#utility.yul\":1337:1465   */\n      pop\n        /* \"#utility.yul\":1121:1472   */\n      swap3\n      swap2\n      pop\n      pop\n      jump\t// out\n        /* \"#utility.yul\":1478:1604   */\n    tag_75:\n        /* \"#utility.yul\":1573:1597   */\n      tag_115\n        /* \"#utility.yul\":1591:1596   */\n      dup2\n        /* \"#utility.yul\":1573:1597   */\n      tag_72\n      jump\t// in\n    tag_115:\n        /* \"#utility.yul\":1568:1571   */\n      dup3\n        /* \"#utility.yul\":1561:1598   */\n      mstore\n        /* \"#utility.yul\":1478:1604   */\n      pop\n      pop\n      jump\t// out\n        /* \"#utility.yul\":1610:1697   */\n    tag_76:\n        /* \"#utility.yul\":1657:1664   */\n      0x00\n        /* \"#utility.yul\":1686:1691   */\n      dup2\n        /* \"#utility.yul\":1675:1691   */\n      swap1\n      pop\n        /* \"#utility.yul\":1610:1697   */\n      swap2\n      swap1\n      pop\n      jump\t// out\n        /* \"#utility.yul\":1703:1763   */\n    tag_77:\n        /* \"#utility.yul\":1731:1734   */\n      0x00\n        /* \"#utility.yul\":1752:1757   */\n      dup2\n        /* \"#utility.yul\":1745:1757   */\n      swap1\n      pop\n        /* \"#utility.yul\":1703:1763   */\n      swap2\n      swap1\n      pop\n      jump\t// out\n        /* \"#utility.yul\":1769:1931   */\n    tag_78:\n        /* \"#utility.yul\":1829:1838   */\n      0x00\n        /* \"#utility.yul\":1862:1925   */\n      tag_119\n        /* \"#utility.yul\":1880:1924   */\n      tag_120\n        /* \"#utility.yul\":1889:1923   */\n      tag_121\n        /* \"#utility.yul\":1917:1922   */\n      dup5\n        /* \"#utility.yul\":1889:1923   */\n      tag_76\n      jump\t// in\n    tag_121:\n        /* \"#utility.yul\":1880:1924   */\n      tag_77\n      jump\t// in\n    tag_120:\n        /* \"#utility.yul\":1862:1925   */\n      tag_72\n      jump\t// in\n    tag_119:\n        /* \"#utility.yul\":1849:1925   */\n      swap1\n      pop\n        /* \"#utility.yul\":1769:1931   */\n      swap2\n      swap1\n      pop\n      jump\t// out\n        /* \"#utility.yul\":1937:2096   */\n    tag_79:\n        /* \"#utility.yul\":2042:2089   */\n      tag_123\n        /* \"#utility.yul\":2083:2088   */\n      dup2\n        /* \"#utility.yul\":2042:2089   */\n      tag_78\n      jump\t// in\n    tag_123:\n        /* \"#utility.yul\":2037:2040   */\n      dup3\n        /* \"#utility.yul\":2030:2090   */\n      mstore\n        /* \"#utility.yul\":1937:2096   */\n      pop\n      pop\n      jump\t// out\n        /* \"#utility.yul\":2102:2279   */\n    tag_80:\n        /* \"#utility.yul\":2194:2205   */\n      0x00\n        /* \"#utility.yul\":2228:2234   */\n      dup3\n        /* \"#utility.yul\":2223:2226   */\n      dup3\n        /* \"#utility.yul\":2216:2235   */\n      mstore\n        /* \"#utility.yul\":2268:2272   */\n      0x20\n        /* \"#utility.yul\":2263:2266   */\n      dup3\n        /* \"#utility.yul\":2259:2273   */\n      add\n        /* \"#utility.yul\":2244:2273   */\n      swap1\n      pop\n        /* \"#utility.yul\":2102:2279   */\n      swap3\n      swap2\n      pop\n      pop\n      jump\t// out\n        /* \"#utility.yul\":2285:2461   */\n    tag_81:\n        /* \"#utility.yul\":2425:2453   */\n      0x6973206e6f74203130302061742074686520626567696e696e67000000000000\n        /* \"#utility.yul\":2421:2422   */\n      0x00\n        /* \"#utility.yul\":2413:2419   */\n      dup3\n        /* \"#utility.yul\":2409:2423   */\n      add\n        /* \"#utility.yul\":2402:2454   */\n      mstore\n        /* \"#utility.yul\":2285:2461   */\n      pop\n      jump\t// out\n        /* \"#utility.yul\":2467:2849   */\n    tag_82:\n        /* \"#utility.yul\":2617:2620   */\n      0x00\n        /* \"#utility.yul\":2638:2713   */\n      tag_127\n        /* \"#utility.yul\":2710:2712   */\n      0x1a\n        /* \"#utility.yul\":2705:2708   */\n      dup4\n        /* \"#utility.yul\":2638:2713   */\n      tag_80\n      jump\t// in\n    tag_127:\n        /* \"#utility.yul\":2631:2713   */\n      swap2\n      pop\n        /* \"#utility.yul\":2722:2815   */\n      tag_128\n        /* \"#utility.yul\":2811:2814   */\n      dup3\n        /* \"#utility.yul\":2722:2815   */\n      tag_81\n      jump\t// in\n    tag_128:\n        /* \"#utility.yul\":2840:2842   */\n      0x20\n        /* \"#utility.yul\":2835:2838   */\n      dup3\n        /* \"#utility.yul\":2831:2843   */\n      add\n        /* \"#utility.yul\":2824:2843   */\n      swap1\n      pop\n        /* \"#utility.yul\":2467:2849   */\n      swap2\n      swap1\n      pop\n      jump\t// out\n        /* \"#utility.yul\":2855:3546   */\n    tag_24:\n        /* \"#utility.yul\":3095:3099   */\n      0x00\n        /* \"#utility.yul\":3133:3135   */\n      0x60\n        /* \"#utility.yul\":3122:3131   */\n      dup3\n        /* \"#utility.yul\":3118:3136   */\n      add\n        /* \"#utility.yul\":3110:3136   */\n      swap1\n      pop\n        /* \"#utility.yul\":3146:3225   */\n      tag_130\n        /* \"#utility.yul\":3222:3223   */\n      0x00\n        /* \"#utility.yul\":3211:3220   */\n      dup4\n        /* \"#utility.yul\":3207:3224   */\n      add\n        /* \"#utility.yul\":3198:3204   */\n      dup6\n        /* \"#utility.yul\":3146:3225   */\n      tag_75\n      jump\t// in\n    tag_130:\n        /* \"#utility.yul\":3235:3325   */\n      tag_131\n        /* \"#utility.yul\":3321:3323   */\n      0x20\n        /* \"#utility.yul\":3310:3319   */\n      dup4\n        /* \"#utility.yul\":3306:3324   */\n      add\n        /* \"#utility.yul\":3297:3303   */\n      dup5\n        /* \"#utility.yul\":3235:3325   */\n      tag_79\n      jump\t// in\n    tag_131:\n        /* \"#utility.yul\":3372:3381   */\n      dup2\n        /* \"#utility.yul\":3366:3370   */\n      dup2\n        /* \"#utility.yul\":3362:3382   */\n      sub\n        /* \"#utility.yul\":3357:3359   */\n      0x40\n        /* \"#utility.yul\":3346:3355   */\n      dup4\n        /* \"#utility.yul\":3342:3360   */\n      add\n        /* \"#utility.yul\":3335:3383   */\n      mstore\n        /* \"#utility.yul\":3400:3539   */\n      tag_132\n        /* \"#utility.yul\":3534:3538   */\n      dup2\n        /* \"#utility.yul\":3400:3539   */\n      tag_82\n      jump\t// in\n    tag_132:\n        /* \"#utility.yul\":3392:3539   */\n      swap1\n      pop\n        /* \"#utility.yul\":2855:3546   */\n      swap4\n      swap3\n      pop\n      pop\n      pop\n      jump\t// out\n        /* \"#utility.yul\":3552:3668   */\n    tag_83:\n        /* \"#utility.yul\":3622:3643   */\n      tag_134\n        /* \"#utility.yul\":3637:3642   */\n      dup2\n        /* \"#utility.yul\":3622:3643   */\n      tag_67\n      jump\t// in\n    tag_134:\n        /* \"#utility.yul\":3615:3620   */\n      dup2\n        /* \"#utility.yul\":3612:3644   */\n      eq\n        /* \"#utility.yul\":3602:3662   */\n      tag_135\n      jumpi\n        /* \"#utility.yul\":3658:3659   */\n      0x00\n        /* \"#utility.yul\":3655:3656   */\n      dup1\n        /* \"#utility.yul\":3648:3660   */\n      revert\n        /* \"#utility.yul\":3602:3662   */\n    tag_135:\n        /* \"#utility.yul\":3552:3668   */\n      pop\n      jump\t// out\n        /* \"#utility.yul\":3674:3811   */\n    tag_84:\n        /* \"#utility.yul\":3728:3733   */\n      0x00\n        /* \"#utility.yul\":3759:3765   */\n      dup2\n        /* \"#utility.yul\":3753:3766   */\n      mload\n        /* \"#utility.yul\":3744:3766   */\n      swap1\n      pop\n        /* \"#utility.yul\":3775:3805   */\n      tag_137\n        /* \"#utility.yul\":3799:3804   */\n      dup2\n        /* \"#utility.yul\":3775:3805   */\n      tag_83\n      jump\t// in\n    tag_137:\n        /* \"#utility.yul\":3674:3811   */\n      swap3\n      swap2\n      pop\n      pop\n      jump\t// out\n        /* \"#utility.yul\":3817:4162   */\n    tag_28:\n        /* \"#utility.yul\":3884:3890   */\n      0x00\n        /* \"#utility.yul\":3933:3935   */\n      0x20\n        /* \"#utility.yul\":3921:3930   */\n      dup3\n        /* \"#utility.yul\":3912:3919   */\n      dup5\n        /* \"#utility.yul\":3908:3931   */\n      sub\n        /* \"#utility.yul\":3904:3936   */\n      slt\n        /* \"#utility.yul\":3901:4020   */\n      iszero\n      tag_139\n      jumpi\n        /* \"#utility.yul\":3939:4018   */\n      tag_140\n      tag_70\n      jump\t// in\n    tag_140:\n        /* \"#utility.yul\":3901:4020   */\n    tag_139:\n        /* \"#utility.yul\":4059:4060   */\n      0x00\n        /* \"#utility.yul\":4084:4145   */\n      tag_141\n        /* \"#utility.yul\":4137:4144   */\n      dup5\n        /* \"#utility.yul\":4128:4134   */\n      dup3\n        /* \"#utility.yul\":4117:4126   */\n      dup6\n        /* \"#utility.yul\":4113:4135   */\n      add\n        /* \"#utility.yul\":4084:4145   */\n      tag_84\n      jump\t// in\n    tag_141:\n        /* \"#utility.yul\":4074:4145   */\n      swap2\n      pop\n        /* \"#utility.yul\":4030:4155   */\n      pop\n        /* \"#utility.yul\":3817:4162   */\n      swap3\n      swap2\n      pop\n      pop\n      jump\t// out\n        /* \"#utility.yul\":4168:4253   */\n    tag_85:\n        /* \"#utility.yul\":4213:4220   */\n      0x00\n        /* \"#utility.yul\":4242:4247   */\n      dup2\n        /* \"#utility.yul\":4231:4247   */\n      swap1\n      pop\n        /* \"#utility.yul\":4168:4253   */\n      swap2\n      swap1\n      pop\n      jump\t// out\n        /* \"#utility.yul\":4259:4417   */\n    tag_86:\n        /* \"#utility.yul\":4317:4326   */\n      0x00\n        /* \"#utility.yul\":4350:4411   */\n      tag_144\n        /* \"#utility.yul\":4368:4410   */\n      tag_145\n        /* \"#utility.yul\":4377:4409   */\n      tag_146\n        /* \"#utility.yul\":4403:4408   */\n      dup5\n        /* \"#utility.yul\":4377:4409   */\n      tag_85\n      jump\t// in\n    tag_146:\n        /* \"#utility.yul\":4368:4410   */\n      tag_77\n      jump\t// in\n    tag_145:\n        /* \"#utility.yul\":4350:4411   */\n      tag_72\n      jump\t// in\n    tag_144:\n        /* \"#utility.yul\":4337:4411   */\n      swap1\n      pop\n        /* \"#utility.yul\":4259:4417   */\n      swap2\n      swap1\n      pop\n      jump\t// out\n        /* \"#utility.yul\":4423:4570   */\n    tag_87:\n        /* \"#utility.yul\":4518:4563   */\n      tag_148\n        /* \"#utility.yul\":4557:4562   */\n      dup2\n        /* \"#utility.yul\":4518:4563   */\n      tag_86\n      jump\t// in\n    tag_148:\n        /* \"#utility.yul\":4513:4516   */\n      dup3\n        /* \"#utility.yul\":4506:4564   */\n      mstore\n        /* \"#utility.yul\":4423:4570   */\n      pop\n      pop\n      jump\t// out\n        /* \"#utility.yul\":4576:4814   */\n    tag_30:\n        /* \"#utility.yul\":4677:4681   */\n      0x00\n        /* \"#utility.yul\":4715:4717   */\n      0x20\n        /* \"#utility.yul\":4704:4713   */\n      dup3\n        /* \"#utility.yul\":4700:4718   */\n      add\n        /* \"#utility.yul\":4692:4718   */\n      swap1\n      pop\n        /* \"#utility.yul\":4728:4807   */\n      tag_150\n        /* \"#utility.yul\":4804:4805   */\n      0x00\n        /* \"#utility.yul\":4793:4802   */\n      dup4\n        /* \"#utility.yul\":4789:4806   */\n      add\n        /* \"#utility.yul\":4780:4786   */\n      dup5\n        /* \"#utility.yul\":4728:4807   */\n      tag_87\n      jump\t// in\n    tag_150:\n        /* \"#utility.yul\":4576:4814   */\n      swap3\n      swap2\n      pop\n      pop\n      jump\t// out\n        /* \"#utility.yul\":4820:4975   */\n    tag_88:\n        /* \"#utility.yul\":4923:4968   */\n      tag_152\n        /* \"#utility.yul\":4962:4967   */\n      dup2\n        /* \"#utility.yul\":4923:4968   */\n      tag_86\n      jump\t// in\n    tag_152:\n        /* \"#utility.yul\":4918:4921   */\n      dup3\n        /* \"#utility.yul\":4911:4969   */\n      mstore\n        /* \"#utility.yul\":4820:4975   */\n      pop\n      pop\n      jump\t// out\n        /* \"#utility.yul\":4981:5157   */\n    tag_89:\n        /* \"#utility.yul\":5121:5149   */\n      0x6973206e6f742034206166746572207365747474696e67206974000000000000\n        /* \"#utility.yul\":5117:5118   */\n      0x00\n        /* \"#utility.yul\":5109:5115   */\n      dup3\n        /* \"#utility.yul\":5105:5119   */\n      add\n        /* \"#utility.yul\":5098:5150   */\n      mstore\n        /* \"#utility.yul\":4981:5157   */\n      pop\n      jump\t// out\n        /* \"#utility.yul\":5163:5545   */\n    tag_90:\n        /* \"#utility.yul\":5313:5316   */\n      0x00\n        /* \"#utility.yul\":5334:5409   */\n      tag_155\n        /* \"#utility.yul\":5406:5408   */\n      0x1a\n        /* \"#utility.yul\":5401:5404   */\n      dup4\n        /* \"#utility.yul\":5334:5409   */\n      tag_80\n      jump\t// in\n    tag_155:\n        /* \"#utility.yul\":5327:5409   */\n      swap2\n      pop\n        /* \"#utility.yul\":5418:5511   */\n      tag_156\n        /* \"#utility.yul\":5507:5510   */\n      dup3\n        /* \"#utility.yul\":5418:5511   */\n      tag_89\n      jump\t// in\n    tag_156:\n        /* \"#utility.yul\":5536:5538   */\n      0x20\n        /* \"#utility.yul\":5531:5534   */\n      dup3\n        /* \"#utility.yul\":5527:5539   */\n      add\n        /* \"#utility.yul\":5520:5539   */\n      swap1\n      pop\n        /* \"#utility.yul\":5163:5545   */\n      swap2\n      swap1\n      pop\n      jump\t// out\n        /* \"#utility.yul\":5551:6238   */\n    tag_38:\n        /* \"#utility.yul\":5789:5793   */\n      0x00\n        /* \"#utility.yul\":5827:5829   */\n      0x60\n        /* \"#utility.yul\":5816:5825   */\n      dup3\n        /* \"#utility.yul\":5812:5830   */\n      add\n        /* \"#utility.yul\":5804:5830   */\n      swap1\n      pop\n        /* \"#utility.yul\":5840:5919   */\n      tag_158\n        /* \"#utility.yul\":5916:5917   */\n      0x00\n        /* \"#utility.yul\":5905:5914   */\n      dup4\n        /* \"#utility.yul\":5901:5918   */\n      add\n        /* \"#utility.yul\":5892:5898   */\n      dup6\n        /* \"#utility.yul\":5840:5919   */\n      tag_75\n      jump\t// in\n    tag_158:\n        /* \"#utility.yul\":5929:6017   */\n      tag_159\n        /* \"#utility.yul\":6013:6015   */\n      0x20\n        /* \"#utility.yul\":6002:6011   */\n      dup4\n        /* \"#utility.yul\":5998:6016   */\n      add\n        /* \"#utility.yul\":5989:5995   */\n      dup5\n        /* \"#utility.yul\":5929:6017   */\n      tag_88\n      jump\t// in\n    tag_159:\n        /* \"#utility.yul\":6064:6073   */\n      dup2\n        /* \"#utility.yul\":6058:6062   */\n      dup2\n        /* \"#utility.yul\":6054:6074   */\n      sub\n        /* \"#utility.yul\":6049:6051   */\n      0x40\n        /* \"#utility.yul\":6038:6047   */\n      dup4\n        /* \"#utility.yul\":6034:6052   */\n      add\n        /* \"#utility.yul\":6027:6075   */\n      mstore\n        /* \"#utility.yul\":6092:6231   */\n      tag_160\n        /* \"#utility.yul\":6226:6230   */\n      dup2\n        /* \"#utility.yul\":6092:6231   */\n      tag_90\n      jump\t// in\n    tag_160:\n        /* \"#utility.yul\":6084:6231   */\n      swap1\n      pop\n        /* \"#utility.yul\":5551:6238   */\n      swap4\n      swap3\n      pop\n      pop\n      pop\n      jump\t// out\n        /* \"#utility.yul\":6244:6404   */\n    tag_91:\n        /* \"#utility.yul\":6384:6396   */\n      0x6973206e6f742031303000000000000000000000000000000000000000000000\n        /* \"#utility.yul\":6380:6381   */\n      0x00\n        /* \"#utility.yul\":6372:6378   */\n      dup3\n        /* \"#utility.yul\":6368:6382   */\n      add\n        /* \"#utility.yul\":6361:6397   */\n      mstore\n        /* \"#utility.yul\":6244:6404   */\n      pop\n      jump\t// out\n        /* \"#utility.yul\":6410:6792   */\n    tag_92:\n        /* \"#utility.yul\":6560:6563   */\n      0x00\n        /* \"#utility.yul\":6581:6656   */\n      tag_163\n        /* \"#utility.yul\":6653:6655   */\n      0x0a\n        /* \"#utility.yul\":6648:6651   */\n      dup4\n        /* \"#utility.yul\":6581:6656   */\n      tag_80\n      jump\t// in\n    tag_163:\n        /* \"#utility.yul\":6574:6656   */\n      swap2\n      pop\n        /* \"#utility.yul\":6665:6758   */\n      tag_164\n        /* \"#utility.yul\":6754:6757   */\n      dup3\n        /* \"#utility.yul\":6665:6758   */\n      tag_91\n      jump\t// in\n    tag_164:\n        /* \"#utility.yul\":6783:6785   */\n      0x20\n        /* \"#utility.yul\":6778:6781   */\n      dup3\n        /* \"#utility.yul\":6774:6786   */\n      add\n        /* \"#utility.yul\":6767:6786   */\n      swap1\n      pop\n        /* \"#utility.yul\":6410:6792   */\n      swap2\n      swap1\n      pop\n      jump\t// out\n        /* \"#utility.yul\":6798:7489   */\n    tag_51:\n        /* \"#utility.yul\":7038:7042   */\n      0x00\n        /* \"#utility.yul\":7076:7078   */\n      0x60\n        /* \"#utility.yul\":7065:7074   */\n      dup3\n        /* \"#utility.yul\":7061:7079   */\n      add\n        /* \"#utility.yul\":7053:7079   */\n      swap1\n      pop\n        /* \"#utility.yul\":7089:7168   */\n      tag_166\n        /* \"#utility.yul\":7165:7166   */\n      0x00\n        /* \"#utility.yul\":7154:7163   */\n      dup4\n        /* \"#utility.yul\":7150:7167   */\n      add\n        /* \"#utility.yul\":7141:7147   */\n      dup6\n        /* \"#utility.yul\":7089:7168   */\n      tag_75\n      jump\t// in\n    tag_166:\n        /* \"#utility.yul\":7178:7268   */\n      tag_167\n        /* \"#utility.yul\":7264:7266   */\n      0x20\n        /* \"#utility.yul\":7253:7262   */\n      dup4\n        /* \"#utility.yul\":7249:7267   */\n      add\n        /* \"#utility.yul\":7240:7246   */\n      dup5\n        /* \"#utility.yul\":7178:7268   */\n      tag_79\n      jump\t// in\n    tag_167:\n        /* \"#utility.yul\":7315:7324   */\n      dup2\n        /* \"#utility.yul\":7309:7313   */\n      dup2\n        /* \"#utility.yul\":7305:7325   */\n      sub\n        /* \"#utility.yul\":7300:7302   */\n      0x40\n        /* \"#utility.yul\":7289:7298   */\n      dup4\n        /* \"#utility.yul\":7285:7303   */\n      add\n        /* \"#utility.yul\":7278:7326   */\n      mstore\n        /* \"#utility.yul\":7343:7482   */\n      tag_168\n        /* \"#utility.yul\":7477:7481   */\n      dup2\n        /* \"#utility.yul\":7343:7482   */\n      tag_92\n      jump\t// in\n    tag_168:\n        /* \"#utility.yul\":7335:7482   */\n      swap1\n      pop\n        /* \"#utility.yul\":6798:7489   */\n      swap4\n      swap3\n      pop\n      pop\n      pop\n      jump\t// out\n        /* \"#utility.yul\":7495:7671   */\n    tag_93:\n        /* \"#utility.yul\":7635:7663   */\n      0x2067657420616e642073746f7265206461746520646966666572000000000000\n        /* \"#utility.yul\":7631:7632   */\n      0x00\n        /* \"#utility.yul\":7623:7629   */\n      dup3\n        /* \"#utility.yul\":7619:7633   */\n      add\n        /* \"#utility.yul\":7612:7664   */\n      mstore\n        /* \"#utility.yul\":7495:7671   */\n      pop\n      jump\t// out\n        /* \"#utility.yul\":7677:8059   */\n    tag_94:\n        /* \"#utility.yul\":7827:7830   */\n      0x00\n        /* \"#utility.yul\":7848:7923   */\n      tag_171\n        /* \"#utility.yul\":7920:7922   */\n      0x1a\n        /* \"#utility.yul\":7915:7918   */\n      dup4\n        /* \"#utility.yul\":7848:7923   */\n      tag_80\n      jump\t// in\n    tag_171:\n        /* \"#utility.yul\":7841:7923   */\n      swap2\n      pop\n        /* \"#utility.yul\":7932:8025   */\n      tag_172\n        /* \"#utility.yul\":8021:8024   */\n      dup3\n        /* \"#utility.yul\":7932:8025   */\n      tag_93\n      jump\t// in\n    tag_172:\n        /* \"#utility.yul\":8050:8052   */\n      0x20\n        /* \"#utility.yul\":8045:8048   */\n      dup3\n        /* \"#utility.yul\":8041:8053   */\n      add\n        /* \"#utility.yul\":8034:8053   */\n      swap1\n      pop\n        /* \"#utility.yul\":7677:8059   */\n      swap2\n      swap1\n      pop\n      jump\t// out\n        /* \"#utility.yul\":8065:8736   */\n    tag_63:\n        /* \"#utility.yul\":8295:8299   */\n      0x00\n        /* \"#utility.yul\":8333:8335   */\n      0x60\n        /* \"#utility.yul\":8322:8331   */\n      dup3\n        /* \"#utility.yul\":8318:8336   */\n      add\n        /* \"#utility.yul\":8310:8336   */\n      swap1\n      pop\n        /* \"#utility.yul\":8346:8425   */\n      tag_174\n        /* \"#utility.yul\":8422:8423   */\n      0x00\n        /* \"#utility.yul\":8411:8420   */\n      dup4\n        /* \"#utility.yul\":8407:8424   */\n      add\n        /* \"#utility.yul\":8398:8404   */\n      dup6\n        /* \"#utility.yul\":8346:8425   */\n      tag_75\n      jump\t// in\n    tag_174:\n        /* \"#utility.yul\":8435:8515   */\n      tag_175\n        /* \"#utility.yul\":8511:8513   */\n      0x20\n        /* \"#utility.yul\":8500:8509   */\n      dup4\n        /* \"#utility.yul\":8496:8514   */\n      add\n        /* \"#utility.yul\":8487:8493   */\n      dup5\n        /* \"#utility.yul\":8435:8515   */\n      tag_75\n      jump\t// in\n    tag_175:\n        /* \"#utility.yul\":8562:8571   */\n      dup2\n        /* \"#utility.yul\":8556:8560   */\n      dup2\n        /* \"#utility.yul\":8552:8572   */\n      sub\n        /* \"#utility.yul\":8547:8549   */\n      0x40\n        /* \"#utility.yul\":8536:8545   */\n      dup4\n        /* \"#utility.yul\":8532:8550   */\n      add\n        /* \"#utility.yul\":8525:8573   */\n      mstore\n        /* \"#utility.yul\":8590:8729   */\n      tag_176\n        /* \"#utility.yul\":8724:8728   */\n      dup2\n        /* \"#utility.yul\":8590:8729   */\n      tag_94\n      jump\t// in\n    tag_176:\n        /* \"#utility.yul\":8582:8729   */\n      swap1\n      pop\n        /* \"#utility.yul\":8065:8736   */\n      swap4\n      swap3\n      pop\n      pop\n      pop\n      jump\t// out\n    stop\n\n    sub_0: assembly {\n            /* \"sc/test_unidad/storage.sol\":58:320  contract SimpleStorage {... */\n          mstore(0x40, 0x80)\n            /* \"sc/test_unidad/storage.sol\":116:164  constructor()  {... */\n          callvalue\n          dup1\n          iszero\n          tag_1\n          jumpi\n          0x00\n          dup1\n          revert\n        tag_1:\n          pop\n            /* \"sc/test_unidad/storage.sol\":154:157  100 */\n          0x64\n            /* \"sc/test_unidad/storage.sol\":141:151  storedData */\n          0x00\n            /* \"sc/test_unidad/storage.sol\":141:157  storedData = 100 */\n          dup2\n          swap1\n          sstore\n          pop\n            /* \"sc/test_unidad/storage.sol\":58:320  contract SimpleStorage {... */\n          dataSize(sub_0)\n          dup1\n          dataOffset(sub_0)\n          0x00\n          codecopy\n          0x00\n          return\n        stop\n\n        sub_0: assembly {\n                /* \"sc/test_unidad/storage.sol\":58:320  contract SimpleStorage {... */\n              mstore(0x40, 0x80)\n              callvalue\n              dup1\n              iszero\n              tag_1\n              jumpi\n              0x00\n              dup1\n              revert\n            tag_1:\n              pop\n              jumpi(tag_2, lt(calldatasize, 0x04))\n              shr(0xe0, calldataload(0x00))\n              dup1\n              0x2a1afcd9\n              eq\n              tag_3\n              jumpi\n              dup1\n              0x60fe47b1\n              eq\n              tag_4\n              jumpi\n              dup1\n              0x6d4ce63c\n              eq\n              tag_5\n              jumpi\n            tag_2:\n              0x00\n              dup1\n              revert\n                /* \"sc/test_unidad/storage.sol\":87:109  uint public storedData */\n            tag_3:\n              tag_6\n              tag_7\n              jump\t// in\n            tag_6:\n              mload(0x40)\n              tag_8\n              swap2\n              swap1\n              tag_9\n              jump\t// in\n            tag_8:\n              mload(0x40)\n              dup1\n              swap2\n              sub\n              swap1\n              return\n                /* \"sc/test_unidad/storage.sol\":170:229  function set(uint x) public {... */\n            tag_4:\n              tag_10\n              0x04\n              dup1\n              calldatasize\n              sub\n              dup2\n              add\n              swap1\n              tag_11\n              swap2\n              swap1\n              tag_12\n              jump\t// in\n            tag_11:\n              tag_13\n              jump\t// in\n            tag_10:\n              stop\n                /* \"sc/test_unidad/storage.sol\":235:318  function get() public view returns (uint retVal) {... */\n            tag_5:\n              tag_14\n              tag_15\n              jump\t// in\n            tag_14:\n              mload(0x40)\n              tag_16\n              swap2\n              swap1\n              tag_9\n              jump\t// in\n            tag_16:\n              mload(0x40)\n              dup1\n              swap2\n              sub\n              swap1\n              return\n                /* \"sc/test_unidad/storage.sol\":87:109  uint public storedData */\n            tag_7:\n              sload(0x00)\n              dup2\n              jump\t// out\n                /* \"sc/test_unidad/storage.sol\":170:229  function set(uint x) public {... */\n            tag_13:\n                /* \"sc/test_unidad/storage.sol\":221:222  x */\n              dup1\n                /* \"sc/test_unidad/storage.sol\":208:218  storedData */\n              0x00\n                /* \"sc/test_unidad/storage.sol\":208:222  storedData = x */\n              dup2\n              swap1\n              sstore\n              pop\n                /* \"sc/test_unidad/storage.sol\":170:229  function set(uint x) public {... */\n              pop\n              jump\t// out\n                /* \"sc/test_unidad/storage.sol\":235:318  function get() public view returns (uint retVal) {... */\n            tag_15:\n                /* \"sc/test_unidad/storage.sol\":271:282  uint retVal */\n              0x00\n                /* \"sc/test_unidad/storage.sol\":301:311  storedData */\n              dup1\n              sload\n                /* \"sc/test_unidad/storage.sol\":294:311  return storedData */\n              swap1\n              pop\n                /* \"sc/test_unidad/storage.sol\":235:318  function get() public view returns (uint retVal) {... */\n              swap1\n              jump\t// out\n                /* \"#utility.yul\":7:84   */\n            tag_19:\n                /* \"#utility.yul\":44:51   */\n              0x00\n                /* \"#utility.yul\":73:78   */\n              dup2\n                /* \"#utility.yul\":62:78   */\n              swap1\n              pop\n                /* \"#utility.yul\":7:84   */\n              swap2\n              swap1\n              pop\n              jump\t// out\n                /* \"#utility.yul\":90:208   */\n            tag_20:\n                /* \"#utility.yul\":177:201   */\n              tag_29\n                /* \"#utility.yul\":195:200   */\n              dup2\n                /* \"#utility.yul\":177:201   */\n              tag_19\n              jump\t// in\n            tag_29:\n                /* \"#utility.yul\":172:175   */\n              dup3\n                /* \"#utility.yul\":165:202   */\n              mstore\n                /* \"#utility.yul\":90:208   */\n              pop\n              pop\n              jump\t// out\n                /* \"#utility.yul\":214:436   */\n            tag_9:\n                /* \"#utility.yul\":307:311   */\n              0x00\n                /* \"#utility.yul\":345:347   */\n              0x20\n                /* \"#utility.yul\":334:343   */\n              dup3\n                /* \"#utility.yul\":330:348   */\n              add\n                /* \"#utility.yul\":322:348   */\n              swap1\n              pop\n                /* \"#utility.yul\":358:429   */\n              tag_31\n                /* \"#utility.yul\":426:427   */\n              0x00\n                /* \"#utility.yul\":415:424   */\n              dup4\n                /* \"#utility.yul\":411:428   */\n              add\n                /* \"#utility.yul\":402:408   */\n              dup5\n                /* \"#utility.yul\":358:429   */\n              tag_20\n              jump\t// in\n            tag_31:\n                /* \"#utility.yul\":214:436   */\n              swap3\n              swap2\n              pop\n              pop\n              jump\t// out\n                /* \"#utility.yul\":523:640   */\n            tag_22:\n                /* \"#utility.yul\":632:633   */\n              0x00\n                /* \"#utility.yul\":629:630   */\n              dup1\n                /* \"#utility.yul\":622:634   */\n              revert\n                /* \"#utility.yul\":769:891   */\n            tag_24:\n                /* \"#utility.yul\":842:866   */\n              tag_36\n                /* \"#utility.yul\":860:865   */\n              dup2\n                /* \"#utility.yul\":842:866   */\n              tag_19\n              jump\t// in\n            tag_36:\n                /* \"#utility.yul\":835:840   */\n              dup2\n                /* \"#utility.yul\":832:867   */\n              eq\n                /* \"#utility.yul\":822:885   */\n              tag_37\n              jumpi\n                /* \"#utility.yul\":881:882   */\n              0x00\n                /* \"#utility.yul\":878:879   */\n              dup1\n                /* \"#utility.yul\":871:883   */\n              revert\n                /* \"#utility.yul\":822:885   */\n            tag_37:\n                /* \"#utility.yul\":769:891   */\n              pop\n              jump\t// out\n                /* \"#utility.yul\":897:1036   */\n            tag_25:\n                /* \"#utility.yul\":943:948   */\n              0x00\n                /* \"#utility.yul\":981:987   */\n              dup2\n                /* \"#utility.yul\":968:988   */\n              calldataload\n                /* \"#utility.yul\":959:988   */\n              swap1\n              pop\n                /* \"#utility.yul\":997:1030   */\n              tag_39\n                /* \"#utility.yul\":1024:1029   */\n              dup2\n                /* \"#utility.yul\":997:1030   */\n              tag_24\n              jump\t// in\n            tag_39:\n                /* \"#utility.yul\":897:1036   */\n              swap3\n              swap2\n              pop\n              pop\n              jump\t// out\n                /* \"#utility.yul\":1042:1371   */\n            tag_12:\n                /* \"#utility.yul\":1101:1107   */\n              0x00\n                /* \"#utility.yul\":1150:1152   */\n              0x20\n                /* \"#utility.yul\":1138:1147   */\n              dup3\n                /* \"#utility.yul\":1129:1136   */\n              dup5\n                /* \"#utility.yul\":1125:1148   */\n              sub\n                /* \"#utility.yul\":1121:1153   */\n              slt\n                /* \"#utility.yul\":1118:1237   */\n              iszero\n              tag_41\n              jumpi\n                /* \"#utility.yul\":1156:1235   */\n              tag_42\n              tag_22\n              jump\t// in\n            tag_42:\n                /* \"#utility.yul\":1118:1237   */\n            tag_41:\n                /* \"#utility.yul\":1276:1277   */\n              0x00\n                /* \"#utility.yul\":1301:1354   */\n              tag_43\n                /* \"#utility.yul\":1346:1353   */\n              dup5\n                /* \"#utility.yul\":1337:1343   */\n              dup3\n                /* \"#utility.yul\":1326:1335   */\n              dup6\n                /* \"#utility.yul\":1322:1344   */\n              add\n                /* \"#utility.yul\":1301:1354   */\n              tag_25\n              jump\t// in\n            tag_43:\n                /* \"#utility.yul\":1291:1354   */\n              swap2\n              pop\n                /* \"#utility.yul\":1247:1364   */\n              pop\n                /* \"#utility.yul\":1042:1371   */\n              swap3\n              swap2\n              pop\n              pop\n              jump\t// out\n\n            auxdata: 0xa264697066735822122095dc4f62e9be4d6f4ca6ee05170cce75d80e700c89f890af369ff7dfa21ffbc164736f6c63430008120033\n        }\n    }\n\n    auxdata: 0xa26469706673582212201776203e417bf9cbb691b14625fe648a9f4f8365bae5afb56b25f56b459f3fa364736f6c63430008120033\n}\n",
				"bytecode": {
					"linkReferences": {
						"remix_tests.sol": {
							"Assert": [
								{
									"length": 20,
									"start": 197
								},
								{
									"length": 20,
									"start": 603
								},
								{
									"length": 20,
									"start": 979
								},
								{
									"length": 20,
									"start": 1249
								}
							]
						}
					},
					"object": "608060405234801561001057600080fd5b50610c25806100206000396000f3fe608060405234801561001057600080fd5b506004361061004c5760003560e01c80633e1d6928146100515780637fea0d4b1461006f578063c375474214610079578063e507fffc14610083575b600080fd5b6100596100a1565b6040516100669190610682565b60405180910390f35b610077610347565b005b6100816103b1565b005b61008b6104bd565b6040516100989190610682565b60405180910390f35b600073__$acbfb1c35000d78352310b16a054a6b106$__63abcd796060008054906101000a900473ffffffffffffffffffffffffffffffffffffffff1673ffffffffffffffffffffffffffffffffffffffff16636d4ce63c6040518163ffffffff1660e01b8152600401602060405180830381865afa158015610128573d6000803e3d6000fd5b505050506040513d601f19601f8201168201806040525081019061014c91906106d8565b60646040518363ffffffff1660e01b815260040161016b9291906107b6565b602060405180830381865af4158015610188573d6000803e3d6000fd5b505050506040513d601f19601f820116820180604052508101906101ac919061081e565b5060008054906101000a900473ffffffffffffffffffffffffffffffffffffffff1673ffffffffffffffffffffffffffffffffffffffff166360fe47b160046040518263ffffffff1660e01b81526004016102079190610886565b600060405180830381600087803b15801561022157600080fd5b505af1158015610235573d6000803e3d6000fd5b5050505073__$acbfb1c35000d78352310b16a054a6b106$__63abcd796060008054906101000a900473ffffffffffffffffffffffffffffffffffffffff1673ffffffffffffffffffffffffffffffffffffffff16636d4ce63c6040518163ffffffff1660e01b8152600401602060405180830381865afa1580156102be573d6000803e3d6000fd5b505050506040513d601f19601f820116820180604052508101906102e291906106d8565b60046040518363ffffffff1660e01b81526004016103019291906108fc565b602060405180830381865af415801561031e573d6000803e3d6000fd5b505050506040513d601f19601f82011682018060405250810190610342919061081e565b905090565b6040516103539061065a565b604051809103906000f08015801561036f573d6000803e3d6000fd5b506000806101000a81548173ffffffffffffffffffffffffffffffffffffffff021916908373ffffffffffffffffffffffffffffffffffffffff160217905550565b73__$acbfb1c35000d78352310b16a054a6b106$__63abcd796060008054906101000a900473ffffffffffffffffffffffffffffffffffffffff1673ffffffffffffffffffffffffffffffffffffffff16636d4ce63c6040518163ffffffff1660e01b8152600401602060405180830381865afa158015610436573d6000803e3d6000fd5b505050506040513d601f19601f8201168201806040525081019061045a91906106d8565b60646040518363ffffffff1660e01b8152600401610479929190610984565b602060405180830381865af4158015610496573d6000803e3d6000fd5b505050506040513d601f19601f820116820180604052508101906104ba919061081e565b50565b600073__$acbfb1c35000d78352310b16a054a6b106$__63abcd796060008054906101000a900473ffffffffffffffffffffffffffffffffffffffff1673ffffffffffffffffffffffffffffffffffffffff16636d4ce63c6040518163ffffffff1660e01b8152600401602060405180830381865afa158015610544573d6000803e3d6000fd5b505050506040513d601f19601f8201168201806040525081019061056891906106d8565b60008054906101000a900473ffffffffffffffffffffffffffffffffffffffff1673ffffffffffffffffffffffffffffffffffffffff16632a1afcd96040518163ffffffff1660e01b8152600401602060405180830381865afa1580156105d3573d6000803e3d6000fd5b505050506040513d601f19601f820116820180604052508101906105f791906106d8565b6040518363ffffffff1660e01b8152600401610614929190610a0c565b602060405180830381865af4158015610631573d6000803e3d6000fd5b505050506040513d601f19601f82011682018060405250810190610655919061081e565b905090565b6101a780610a4983390190565b60008115159050919050565b61067c81610667565b82525050565b60006020820190506106976000830184610673565b92915050565b600080fd5b6000819050919050565b6106b5816106a2565b81146106c057600080fd5b50565b6000815190506106d2816106ac565b92915050565b6000602082840312156106ee576106ed61069d565b5b60006106fc848285016106c3565b91505092915050565b61070e816106a2565b82525050565b6000819050919050565b6000819050919050565b600061074361073e61073984610714565b61071e565b6106a2565b9050919050565b61075381610728565b82525050565b600082825260208201905092915050565b7f6973206e6f74203130302061742074686520626567696e696e67000000000000600082015250565b60006107a0601a83610759565b91506107ab8261076a565b602082019050919050565b60006060820190506107cb6000830185610705565b6107d8602083018461074a565b81810360408301526107e981610793565b90509392505050565b6107fb81610667565b811461080657600080fd5b50565b600081519050610818816107f2565b92915050565b6000602082840312156108345761083361069d565b5b600061084284828501610809565b91505092915050565b6000819050919050565b600061087061086b6108668461084b565b61071e565b6106a2565b9050919050565b61088081610855565b82525050565b600060208201905061089b6000830184610877565b92915050565b6108aa81610855565b82525050565b7f6973206e6f742034206166746572207365747474696e67206974000000000000600082015250565b60006108e6601a83610759565b91506108f1826108b0565b602082019050919050565b60006060820190506109116000830185610705565b61091e60208301846108a1565b818103604083015261092f816108d9565b90509392505050565b7f6973206e6f742031303000000000000000000000000000000000000000000000600082015250565b600061096e600a83610759565b915061097982610938565b602082019050919050565b60006060820190506109996000830185610705565b6109a6602083018461074a565b81810360408301526109b781610961565b90509392505050565b7f2067657420616e642073746f7265206461746520646966666572000000000000600082015250565b60006109f6601a83610759565b9150610a01826109c0565b602082019050919050565b6000606082019050610a216000830185610705565b610a2e6020830184610705565b8181036040830152610a3f816109e9565b9050939250505056fe608060405234801561001057600080fd5b50606460008190555061017f806100286000396000f3fe608060405234801561001057600080fd5b50600436106100415760003560e01c80632a1afcd91461004657806360fe47b1146100645780636d4ce63c14610080575b600080fd5b61004e61009e565b60405161005b91906100d0565b60405180910390f35b61007e6004803603810190610079919061011c565b6100a4565b005b6100886100ae565b60405161009591906100d0565b60405180910390f35b60005481565b8060008190555050565b60008054905090565b6000819050919050565b6100ca816100b7565b82525050565b60006020820190506100e560008301846100c1565b92915050565b600080fd5b6100f9816100b7565b811461010457600080fd5b50565b600081359050610116816100f0565b92915050565b600060208284031215610132576101316100eb565b5b600061014084828501610107565b9150509291505056fea264697066735822122095dc4f62e9be4d6f4ca6ee05170cce75d80e700c89f890af369ff7dfa21ffbc164736f6c63430008120033a26469706673582212201776203e417bf9cbb691b14625fe648a9f4f8365bae5afb56b25f56b459f3fa364736f6c63430008120033",
					"opcodes": "PUSH1 0x80 PUSH1 0x40 MSTORE CALLVALUE DUP1 ISZERO PUSH2 0x10 JUMPI PUSH1 0x0 DUP1 REVERT JUMPDEST POP PUSH2 0xC25 DUP1 PUSH2 0x20 PUSH1 0x0 CODECOPY PUSH1 0x0 RETURN INVALID PUSH1 0x80 PUSH1 0x40 MSTORE CALLVALUE DUP1 ISZERO PUSH2 0x10 JUMPI PUSH1 0x0 DUP1 REVERT JUMPDEST POP PUSH1 0x4 CALLDATASIZE LT PUSH2 0x4C JUMPI PUSH1 0x0 CALLDATALOAD PUSH1 0xE0 SHR DUP1 PUSH4 0x3E1D6928 EQ PUSH2 0x51 JUMPI DUP1 PUSH4 0x7FEA0D4B EQ PUSH2 0x6F JUMPI DUP1 PUSH4 0xC3754742 EQ PUSH2 0x79 JUMPI DUP1 PUSH4 0xE507FFFC EQ PUSH2 0x83 JUMPI JUMPDEST PUSH1 0x0 DUP1 REVERT JUMPDEST PUSH2 0x59 PUSH2 0xA1 JUMP JUMPDEST PUSH1 0x40 MLOAD PUSH2 0x66 SWAP2 SWAP1 PUSH2 0x682 JUMP JUMPDEST PUSH1 0x40 MLOAD DUP1 SWAP2 SUB SWAP1 RETURN JUMPDEST PUSH2 0x77 PUSH2 0x347 JUMP JUMPDEST STOP JUMPDEST PUSH2 0x81 PUSH2 0x3B1 JUMP JUMPDEST STOP JUMPDEST PUSH2 0x8B PUSH2 0x4BD JUMP JUMPDEST PUSH1 0x40 MLOAD PUSH2 0x98 SWAP2 SWAP1 PUSH2 0x682 JUMP JUMPDEST PUSH1 0x40 MLOAD DUP1 SWAP2 SUB SWAP1 RETURN JUMPDEST PUSH1 0x0 PUSH20 0x0 PUSH4 0xABCD7960 PUSH1 0x0 DUP1 SLOAD SWAP1 PUSH2 0x100 EXP SWAP1 DIV PUSH20 0xFFFFFFFFFFFFFFFFFFFFFFFFFFFFFFFFFFFFFFFF AND PUSH20 0xFFFFFFFFFFFFFFFFFFFFFFFFFFFFFFFFFFFFFFFF AND PUSH4 0x6D4CE63C PUSH1 0x40 MLOAD DUP2 PUSH4 0xFFFFFFFF AND PUSH1 0xE0 SHL DUP2 MSTORE PUSH1 0x4 ADD PUSH1 0x20 PUSH1 0x40 MLOAD DUP1 DUP4 SUB DUP2 DUP7 GAS STATICCALL ISZERO DUP1 ISZERO PUSH2 0x128 JUMPI RETURNDATASIZE PUSH1 0x0 DUP1 RETURNDATACOPY RETURNDATASIZE PUSH1 0x0 REVERT JUMPDEST POP POP POP POP PUSH1 0x40 MLOAD RETURNDATASIZE PUSH1 0x1F NOT PUSH1 0x1F DUP3 ADD AND DUP3 ADD DUP1 PUSH1 0x40 MSTORE POP DUP2 ADD SWAP1 PUSH2 0x14C SWAP2 SWAP1 PUSH2 0x6D8 JUMP JUMPDEST PUSH1 0x64 PUSH1 0x40 MLOAD DUP4 PUSH4 0xFFFFFFFF AND PUSH1 0xE0 SHL DUP2 MSTORE PUSH1 0x4 ADD PUSH2 0x16B SWAP3 SWAP2 SWAP1 PUSH2 0x7B6 JUMP JUMPDEST PUSH1 0x20 PUSH1 0x40 MLOAD DUP1 DUP4 SUB DUP2 DUP7 GAS DELEGATECALL ISZERO DUP1 ISZERO PUSH2 0x188 JUMPI RETURNDATASIZE PUSH1 0x0 DUP1 RETURNDATACOPY RETURNDATASIZE PUSH1 0x0 REVERT JUMPDEST POP POP POP POP PUSH1 0x40 MLOAD RETURNDATASIZE PUSH1 0x1F NOT PUSH1 0x1F DUP3 ADD AND DUP3 ADD DUP1 PUSH1 0x40 MSTORE POP DUP2 ADD SWAP1 PUSH2 0x1AC SWAP2 SWAP1 PUSH2 0x81E JUMP JUMPDEST POP PUSH1 0x0 DUP1 SLOAD SWAP1 PUSH2 0x100 EXP SWAP1 DIV PUSH20 0xFFFFFFFFFFFFFFFFFFFFFFFFFFFFFFFFFFFFFFFF AND PUSH20 0xFFFFFFFFFFFFFFFFFFFFFFFFFFFFFFFFFFFFFFFF AND PUSH4 0x60FE47B1 PUSH1 0x4 PUSH1 0x40 MLOAD DUP3 PUSH4 0xFFFFFFFF AND PUSH1 0xE0 SHL DUP2 MSTORE PUSH1 0x4 ADD PUSH2 0x207 SWAP2 SWAP1 PUSH2 0x886 JUMP JUMPDEST PUSH1 0x0 PUSH1 0x40 MLOAD DUP1 DUP4 SUB DUP2 PUSH1 0x0 DUP8 DUP1 EXTCODESIZE ISZERO DUP1 ISZERO PUSH2 0x221 JUMPI PUSH1 0x0 DUP1 REVERT JUMPDEST POP GAS CALL ISZERO DUP1 ISZERO PUSH2 0x235 JUMPI RETURNDATASIZE PUSH1 0x0 DUP1 RETURNDATACOPY RETURNDATASIZE PUSH1 0x0 REVERT JUMPDEST POP POP POP POP PUSH20 0x0 PUSH4 0xABCD7960 PUSH1 0x0 DUP1 SLOAD SWAP1 PUSH2 0x100 EXP SWAP1 DIV PUSH20 0xFFFFFFFFFFFFFFFFFFFFFFFFFFFFFFFFFFFFFFFF AND PUSH20 0xFFFFFFFFFFFFFFFFFFFFFFFFFFFFFFFFFFFFFFFF AND PUSH4 0x6D4CE63C PUSH1 0x40 MLOAD DUP2 PUSH4 0xFFFFFFFF AND PUSH1 0xE0 SHL DUP2 MSTORE PUSH1 0x4 ADD PUSH1 0x20 PUSH1 0x40 MLOAD DUP1 DUP4 SUB DUP2 DUP7 GAS STATICCALL ISZERO DUP1 ISZERO PUSH2 0x2BE JUMPI RETURNDATASIZE PUSH1 0x0 DUP1 RETURNDATACOPY RETURNDATASIZE PUSH1 0x0 REVERT JUMPDEST POP POP POP POP PUSH1 0x40 MLOAD RETURNDATASIZE PUSH1 0x1F NOT PUSH1 0x1F DUP3 ADD AND DUP3 ADD DUP1 PUSH1 0x40 MSTORE POP DUP2 ADD SWAP1 PUSH2 0x2E2 SWAP2 SWAP1 PUSH2 0x6D8 JUMP JUMPDEST PUSH1 0x4 PUSH1 0x40 MLOAD DUP4 PUSH4 0xFFFFFFFF AND PUSH1 0xE0 SHL DUP2 MSTORE PUSH1 0x4 ADD PUSH2 0x301 SWAP3 SWAP2 SWAP1 PUSH2 0x8FC JUMP JUMPDEST PUSH1 0x20 PUSH1 0x40 MLOAD DUP1 DUP4 SUB DUP2 DUP7 GAS DELEGATECALL ISZERO DUP1 ISZERO PUSH2 0x31E JUMPI RETURNDATASIZE PUSH1 0x0 DUP1 RETURNDATACOPY RETURNDATASIZE PUSH1 0x0 REVERT JUMPDEST POP POP POP POP PUSH1 0x40 MLOAD RETURNDATASIZE PUSH1 0x1F NOT PUSH1 0x1F DUP3 ADD AND DUP3 ADD DUP1 PUSH1 0x40 MSTORE POP DUP2 ADD SWAP1 PUSH2 0x342 SWAP2 SWAP1 PUSH2 0x81E JUMP JUMPDEST SWAP1 POP SWAP1 JUMP JUMPDEST PUSH1 0x40 MLOAD PUSH2 0x353 SWAP1 PUSH2 0x65A JUMP JUMPDEST PUSH1 0x40 MLOAD DUP1 SWAP2 SUB SWAP1 PUSH1 0x0 CREATE DUP1 ISZERO DUP1 ISZERO PUSH2 0x36F JUMPI RETURNDATASIZE PUSH1 0x0 DUP1 RETURNDATACOPY RETURNDATASIZE PUSH1 0x0 REVERT JUMPDEST POP PUSH1 0x0 DUP1 PUSH2 0x100 EXP DUP2 SLOAD DUP2 PUSH20 0xFFFFFFFFFFFFFFFFFFFFFFFFFFFFFFFFFFFFFFFF MUL NOT AND SWAP1 DUP4 PUSH20 0xFFFFFFFFFFFFFFFFFFFFFFFFFFFFFFFFFFFFFFFF AND MUL OR SWAP1 SSTORE POP JUMP JUMPDEST PUSH20 0x0 PUSH4 0xABCD7960 PUSH1 0x0 DUP1 SLOAD SWAP1 PUSH2 0x100 EXP SWAP1 DIV PUSH20 0xFFFFFFFFFFFFFFFFFFFFFFFFFFFFFFFFFFFFFFFF AND PUSH20 0xFFFFFFFFFFFFFFFFFFFFFFFFFFFFFFFFFFFFFFFF AND PUSH4 0x6D4CE63C PUSH1 0x40 MLOAD DUP2 PUSH4 0xFFFFFFFF AND PUSH1 0xE0 SHL DUP2 MSTORE PUSH1 0x4 ADD PUSH1 0x20 PUSH1 0x40 MLOAD DUP1 DUP4 SUB DUP2 DUP7 GAS STATICCALL ISZERO DUP1 ISZERO PUSH2 0x436 JUMPI RETURNDATASIZE PUSH1 0x0 DUP1 RETURNDATACOPY RETURNDATASIZE PUSH1 0x0 REVERT JUMPDEST POP POP POP POP PUSH1 0x40 MLOAD RETURNDATASIZE PUSH1 0x1F NOT PUSH1 0x1F DUP3 ADD AND DUP3 ADD DUP1 PUSH1 0x40 MSTORE POP DUP2 ADD SWAP1 PUSH2 0x45A SWAP2 SWAP1 PUSH2 0x6D8 JUMP JUMPDEST PUSH1 0x64 PUSH1 0x40 MLOAD DUP4 PUSH4 0xFFFFFFFF AND PUSH1 0xE0 SHL DUP2 MSTORE PUSH1 0x4 ADD PUSH2 0x479 SWAP3 SWAP2 SWAP1 PUSH2 0x984 JUMP JUMPDEST PUSH1 0x20 PUSH1 0x40 MLOAD DUP1 DUP4 SUB DUP2 DUP7 GAS DELEGATECALL ISZERO DUP1 ISZERO PUSH2 0x496 JUMPI RETURNDATASIZE PUSH1 0x0 DUP1 RETURNDATACOPY RETURNDATASIZE PUSH1 0x0 REVERT JUMPDEST POP POP POP POP PUSH1 0x40 MLOAD RETURNDATASIZE PUSH1 0x1F NOT PUSH1 0x1F DUP3 ADD AND DUP3 ADD DUP1 PUSH1 0x40 MSTORE POP DUP2 ADD SWAP1 PUSH2 0x4BA SWAP2 SWAP1 PUSH2 0x81E JUMP JUMPDEST POP JUMP JUMPDEST PUSH1 0x0 PUSH20 0x0 PUSH4 0xABCD7960 PUSH1 0x0 DUP1 SLOAD SWAP1 PUSH2 0x100 EXP SWAP1 DIV PUSH20 0xFFFFFFFFFFFFFFFFFFFFFFFFFFFFFFFFFFFFFFFF AND PUSH20 0xFFFFFFFFFFFFFFFFFFFFFFFFFFFFFFFFFFFFFFFF AND PUSH4 0x6D4CE63C PUSH1 0x40 MLOAD DUP2 PUSH4 0xFFFFFFFF AND PUSH1 0xE0 SHL DUP2 MSTORE PUSH1 0x4 ADD PUSH1 0x20 PUSH1 0x40 MLOAD DUP1 DUP4 SUB DUP2 DUP7 GAS STATICCALL ISZERO DUP1 ISZERO PUSH2 0x544 JUMPI RETURNDATASIZE PUSH1 0x0 DUP1 RETURNDATACOPY RETURNDATASIZE PUSH1 0x0 REVERT JUMPDEST POP POP POP POP PUSH1 0x40 MLOAD RETURNDATASIZE PUSH1 0x1F NOT PUSH1 0x1F DUP3 ADD AND DUP3 ADD DUP1 PUSH1 0x40 MSTORE POP DUP2 ADD SWAP1 PUSH2 0x568 SWAP2 SWAP1 PUSH2 0x6D8 JUMP JUMPDEST PUSH1 0x0 DUP1 SLOAD SWAP1 PUSH2 0x100 EXP SWAP1 DIV PUSH20 0xFFFFFFFFFFFFFFFFFFFFFFFFFFFFFFFFFFFFFFFF AND PUSH20 0xFFFFFFFFFFFFFFFFFFFFFFFFFFFFFFFFFFFFFFFF AND PUSH4 0x2A1AFCD9 PUSH1 0x40 MLOAD DUP2 PUSH4 0xFFFFFFFF AND PUSH1 0xE0 SHL DUP2 MSTORE PUSH1 0x4 ADD PUSH1 0x20 PUSH1 0x40 MLOAD DUP1 DUP4 SUB DUP2 DUP7 GAS STATICCALL ISZERO DUP1 ISZERO PUSH2 0x5D3 JUMPI RETURNDATASIZE PUSH1 0x0 DUP1 RETURNDATACOPY RETURNDATASIZE PUSH1 0x0 REVERT JUMPDEST POP POP POP POP PUSH1 0x40 MLOAD RETURNDATASIZE PUSH1 0x1F NOT PUSH1 0x1F DUP3 ADD AND DUP3 ADD DUP1 PUSH1 0x40 MSTORE POP DUP2 ADD SWAP1 PUSH2 0x5F7 SWAP2 SWAP1 PUSH2 0x6D8 JUMP JUMPDEST PUSH1 0x40 MLOAD DUP4 PUSH4 0xFFFFFFFF AND PUSH1 0xE0 SHL DUP2 MSTORE PUSH1 0x4 ADD PUSH2 0x614 SWAP3 SWAP2 SWAP1 PUSH2 0xA0C JUMP JUMPDEST PUSH1 0x20 PUSH1 0x40 MLOAD DUP1 DUP4 SUB DUP2 DUP7 GAS DELEGATECALL ISZERO DUP1 ISZERO PUSH2 0x631 JUMPI RETURNDATASIZE PUSH1 0x0 DUP1 RETURNDATACOPY RETURNDATASIZE PUSH1 0x0 REVERT JUMPDEST POP POP POP POP PUSH1 0x40 MLOAD RETURNDATASIZE PUSH1 0x1F NOT PUSH1 0x1F DUP3 ADD AND DUP3 ADD DUP1 PUSH1 0x40 MSTORE POP DUP2 ADD SWAP1 PUSH2 0x655 SWAP2 SWAP1 PUSH2 0x81E JUMP JUMPDEST SWAP1 POP SWAP1 JUMP JUMPDEST PUSH2 0x1A7 DUP1 PUSH2 0xA49 DUP4 CODECOPY ADD SWAP1 JUMP JUMPDEST PUSH1 0x0 DUP2 ISZERO ISZERO SWAP1 POP SWAP2 SWAP1 POP JUMP JUMPDEST PUSH2 0x67C DUP2 PUSH2 0x667 JUMP JUMPDEST DUP3 MSTORE POP POP JUMP JUMPDEST PUSH1 0x0 PUSH1 0x20 DUP3 ADD SWAP1 POP PUSH2 0x697 PUSH1 0x0 DUP4 ADD DUP5 PUSH2 0x673 JUMP JUMPDEST SWAP3 SWAP2 POP POP JUMP JUMPDEST PUSH1 0x0 DUP1 REVERT JUMPDEST PUSH1 0x0 DUP2 SWAP1 POP SWAP2 SWAP1 POP JUMP JUMPDEST PUSH2 0x6B5 DUP2 PUSH2 0x6A2 JUMP JUMPDEST DUP2 EQ PUSH2 0x6C0 JUMPI PUSH1 0x0 DUP1 REVERT JUMPDEST POP JUMP JUMPDEST PUSH1 0x0 DUP2 MLOAD SWAP1 POP PUSH2 0x6D2 DUP2 PUSH2 0x6AC JUMP JUMPDEST SWAP3 SWAP2 POP POP JUMP JUMPDEST PUSH1 0x0 PUSH1 0x20 DUP3 DUP5 SUB SLT ISZERO PUSH2 0x6EE JUMPI PUSH2 0x6ED PUSH2 0x69D JUMP JUMPDEST JUMPDEST PUSH1 0x0 PUSH2 0x6FC DUP5 DUP3 DUP6 ADD PUSH2 0x6C3 JUMP JUMPDEST SWAP2 POP POP SWAP3 SWAP2 POP POP JUMP JUMPDEST PUSH2 0x70E DUP2 PUSH2 0x6A2 JUMP JUMPDEST DUP3 MSTORE POP POP JUMP JUMPDEST PUSH1 0x0 DUP2 SWAP1 POP SWAP2 SWAP1 POP JUMP JUMPDEST PUSH1 0x0 DUP2 SWAP1 POP SWAP2 SWAP1 POP JUMP JUMPDEST PUSH1 0x0 PUSH2 0x743 PUSH2 0x73E PUSH2 0x739 DUP5 PUSH2 0x714 JUMP JUMPDEST PUSH2 0x71E JUMP JUMPDEST PUSH2 0x6A2 JUMP JUMPDEST SWAP1 POP SWAP2 SWAP1 POP JUMP JUMPDEST PUSH2 0x753 DUP2 PUSH2 0x728 JUMP JUMPDEST DUP3 MSTORE POP POP JUMP JUMPDEST PUSH1 0x0 DUP3 DUP3 MSTORE PUSH1 0x20 DUP3 ADD SWAP1 POP SWAP3 SWAP2 POP POP JUMP JUMPDEST PUSH32 0x6973206E6F74203130302061742074686520626567696E696E67000000000000 PUSH1 0x0 DUP3 ADD MSTORE POP JUMP JUMPDEST PUSH1 0x0 PUSH2 0x7A0 PUSH1 0x1A DUP4 PUSH2 0x759 JUMP JUMPDEST SWAP2 POP PUSH2 0x7AB DUP3 PUSH2 0x76A JUMP JUMPDEST PUSH1 0x20 DUP3 ADD SWAP1 POP SWAP2 SWAP1 POP JUMP JUMPDEST PUSH1 0x0 PUSH1 0x60 DUP3 ADD SWAP1 POP PUSH2 0x7CB PUSH1 0x0 DUP4 ADD DUP6 PUSH2 0x705 JUMP JUMPDEST PUSH2 0x7D8 PUSH1 0x20 DUP4 ADD DUP5 PUSH2 0x74A JUMP JUMPDEST DUP2 DUP2 SUB PUSH1 0x40 DUP4 ADD MSTORE PUSH2 0x7E9 DUP2 PUSH2 0x793 JUMP JUMPDEST SWAP1 POP SWAP4 SWAP3 POP POP POP JUMP JUMPDEST PUSH2 0x7FB DUP2 PUSH2 0x667 JUMP JUMPDEST DUP2 EQ PUSH2 0x806 JUMPI PUSH1 0x0 DUP1 REVERT JUMPDEST POP JUMP JUMPDEST PUSH1 0x0 DUP2 MLOAD SWAP1 POP PUSH2 0x818 DUP2 PUSH2 0x7F2 JUMP JUMPDEST SWAP3 SWAP2 POP POP JUMP JUMPDEST PUSH1 0x0 PUSH1 0x20 DUP3 DUP5 SUB SLT ISZERO PUSH2 0x834 JUMPI PUSH2 0x833 PUSH2 0x69D JUMP JUMPDEST JUMPDEST PUSH1 0x0 PUSH2 0x842 DUP5 DUP3 DUP6 ADD PUSH2 0x809 JUMP JUMPDEST SWAP2 POP POP SWAP3 SWAP2 POP POP JUMP JUMPDEST PUSH1 0x0 DUP2 SWAP1 POP SWAP2 SWAP1 POP JUMP JUMPDEST PUSH1 0x0 PUSH2 0x870 PUSH2 0x86B PUSH2 0x866 DUP5 PUSH2 0x84B JUMP JUMPDEST PUSH2 0x71E JUMP JUMPDEST PUSH2 0x6A2 JUMP JUMPDEST SWAP1 POP SWAP2 SWAP1 POP JUMP JUMPDEST PUSH2 0x880 DUP2 PUSH2 0x855 JUMP JUMPDEST DUP3 MSTORE POP POP JUMP JUMPDEST PUSH1 0x0 PUSH1 0x20 DUP3 ADD SWAP1 POP PUSH2 0x89B PUSH1 0x0 DUP4 ADD DUP5 PUSH2 0x877 JUMP JUMPDEST SWAP3 SWAP2 POP POP JUMP JUMPDEST PUSH2 0x8AA DUP2 PUSH2 0x855 JUMP JUMPDEST DUP3 MSTORE POP POP JUMP JUMPDEST PUSH32 0x6973206E6F742034206166746572207365747474696E67206974000000000000 PUSH1 0x0 DUP3 ADD MSTORE POP JUMP JUMPDEST PUSH1 0x0 PUSH2 0x8E6 PUSH1 0x1A DUP4 PUSH2 0x759 JUMP JUMPDEST SWAP2 POP PUSH2 0x8F1 DUP3 PUSH2 0x8B0 JUMP JUMPDEST PUSH1 0x20 DUP3 ADD SWAP1 POP SWAP2 SWAP1 POP JUMP JUMPDEST PUSH1 0x0 PUSH1 0x60 DUP3 ADD SWAP1 POP PUSH2 0x911 PUSH1 0x0 DUP4 ADD DUP6 PUSH2 0x705 JUMP JUMPDEST PUSH2 0x91E PUSH1 0x20 DUP4 ADD DUP5 PUSH2 0x8A1 JUMP JUMPDEST DUP2 DUP2 SUB PUSH1 0x40 DUP4 ADD MSTORE PUSH2 0x92F DUP2 PUSH2 0x8D9 JUMP JUMPDEST SWAP1 POP SWAP4 SWAP3 POP POP POP JUMP JUMPDEST PUSH32 0x6973206E6F742031303000000000000000000000000000000000000000000000 PUSH1 0x0 DUP3 ADD MSTORE POP JUMP JUMPDEST PUSH1 0x0 PUSH2 0x96E PUSH1 0xA DUP4 PUSH2 0x759 JUMP JUMPDEST SWAP2 POP PUSH2 0x979 DUP3 PUSH2 0x938 JUMP JUMPDEST PUSH1 0x20 DUP3 ADD SWAP1 POP SWAP2 SWAP1 POP JUMP JUMPDEST PUSH1 0x0 PUSH1 0x60 DUP3 ADD SWAP1 POP PUSH2 0x999 PUSH1 0x0 DUP4 ADD DUP6 PUSH2 0x705 JUMP JUMPDEST PUSH2 0x9A6 PUSH1 0x20 DUP4 ADD DUP5 PUSH2 0x74A JUMP JUMPDEST DUP2 DUP2 SUB PUSH1 0x40 DUP4 ADD MSTORE PUSH2 0x9B7 DUP2 PUSH2 0x961 JUMP JUMPDEST SWAP1 POP SWAP4 SWAP3 POP POP POP JUMP JUMPDEST PUSH32 0x2067657420616E642073746F7265206461746520646966666572000000000000 PUSH1 0x0 DUP3 ADD MSTORE POP JUMP JUMPDEST PUSH1 0x0 PUSH2 0x9F6 PUSH1 0x1A DUP4 PUSH2 0x759 JUMP JUMPDEST SWAP2 POP PUSH2 0xA01 DUP3 PUSH2 0x9C0 JUMP JUMPDEST PUSH1 0x20 DUP3 ADD SWAP1 POP SWAP2 SWAP1 POP JUMP JUMPDEST PUSH1 0x0 PUSH1 0x60 DUP3 ADD SWAP1 POP PUSH2 0xA21 PUSH1 0x0 DUP4 ADD DUP6 PUSH2 0x705 JUMP JUMPDEST PUSH2 0xA2E PUSH1 0x20 DUP4 ADD DUP5 PUSH2 0x705 JUMP JUMPDEST DUP2 DUP2 SUB PUSH1 0x40 DUP4 ADD MSTORE PUSH2 0xA3F DUP2 PUSH2 0x9E9 JUMP JUMPDEST SWAP1 POP SWAP4 SWAP3 POP POP POP JUMP INVALID PUSH1 0x80 PUSH1 0x40 MSTORE CALLVALUE DUP1 ISZERO PUSH2 0x10 JUMPI PUSH1 0x0 DUP1 REVERT JUMPDEST POP PUSH1 0x64 PUSH1 0x0 DUP2 SWAP1 SSTORE POP PUSH2 0x17F DUP1 PUSH2 0x28 PUSH1 0x0 CODECOPY PUSH1 0x0 RETURN INVALID PUSH1 0x80 PUSH1 0x40 MSTORE CALLVALUE DUP1 ISZERO PUSH2 0x10 JUMPI PUSH1 0x0 DUP1 REVERT JUMPDEST POP PUSH1 0x4 CALLDATASIZE LT PUSH2 0x41 JUMPI PUSH1 0x0 CALLDATALOAD PUSH1 0xE0 SHR DUP1 PUSH4 0x2A1AFCD9 EQ PUSH2 0x46 JUMPI DUP1 PUSH4 0x60FE47B1 EQ PUSH2 0x64 JUMPI DUP1 PUSH4 0x6D4CE63C EQ PUSH2 0x80 JUMPI JUMPDEST PUSH1 0x0 DUP1 REVERT JUMPDEST PUSH2 0x4E PUSH2 0x9E JUMP JUMPDEST PUSH1 0x40 MLOAD PUSH2 0x5B SWAP2 SWAP1 PUSH2 0xD0 JUMP JUMPDEST PUSH1 0x40 MLOAD DUP1 SWAP2 SUB SWAP1 RETURN JUMPDEST PUSH2 0x7E PUSH1 0x4 DUP1 CALLDATASIZE SUB DUP2 ADD SWAP1 PUSH2 0x79 SWAP2 SWAP1 PUSH2 0x11C JUMP JUMPDEST PUSH2 0xA4 JUMP JUMPDEST STOP JUMPDEST PUSH2 0x88 PUSH2 0xAE JUMP JUMPDEST PUSH1 0x40 MLOAD PUSH2 0x95 SWAP2 SWAP1 PUSH2 0xD0 JUMP JUMPDEST PUSH1 0x40 MLOAD DUP1 SWAP2 SUB SWAP1 RETURN JUMPDEST PUSH1 0x0 SLOAD DUP2 JUMP JUMPDEST DUP1 PUSH1 0x0 DUP2 SWAP1 SSTORE POP POP JUMP JUMPDEST PUSH1 0x0 DUP1 SLOAD SWAP1 POP SWAP1 JUMP JUMPDEST PUSH1 0x0 DUP2 SWAP1 POP SWAP2 SWAP1 POP JUMP JUMPDEST PUSH2 0xCA DUP2 PUSH2 0xB7 JUMP JUMPDEST DUP3 MSTORE POP POP JUMP JUMPDEST PUSH1 0x0 PUSH1 0x20 DUP3 ADD SWAP1 POP PUSH2 0xE5 PUSH1 0x0 DUP4 ADD DUP5 PUSH2 0xC1 JUMP JUMPDEST SWAP3 SWAP2 POP POP JUMP JUMPDEST PUSH1 0x0 DUP1 REVERT JUMPDEST PUSH2 0xF9 DUP2 PUSH2 0xB7 JUMP JUMPDEST DUP2 EQ PUSH2 0x104 JUMPI PUSH1 0x0 DUP1 REVERT JUMPDEST POP JUMP JUMPDEST PUSH1 0x0 DUP2 CALLDATALOAD SWAP1 POP PUSH2 0x116 DUP2 PUSH2 0xF0 JUMP JUMPDEST SWAP3 SWAP2 POP POP JUMP JUMPDEST PUSH1 0x0 PUSH1 0x20 DUP3 DUP5 SUB SLT ISZERO PUSH2 0x132 JUMPI PUSH2 0x131 PUSH2 0xEB JUMP JUMPDEST JUMPDEST PUSH1 0x0 PUSH2 0x140 DUP5 DUP3 DUP6 ADD PUSH2 0x107 JUMP JUMPDEST SWAP2 POP POP SWAP3 SWAP2 POP POP JUMP INVALID LOG2 PUSH5 0x6970667358 0x22 SLT KECCAK256 SWAP6 0xDC 0x4F PUSH3 0xE9BE4D PUSH16 0x4CA6EE05170CCE75D80E700C89F890AF CALLDATASIZE SWAP16 0xF7 0xDF LOG2 0x1F 0xFB 0xC1 PUSH5 0x736F6C6343 STOP ADDMOD SLT STOP CALLER LOG2 PUSH5 0x6970667358 0x22 SLT KECCAK256 OR PUSH23 0x203E417BF9CBB691B14625FE648A9F4F8365BAE5AFB56B 0x25 CREATE2 PUSH12 0x459F3FA364736F6C63430008 SLT STOP CALLER "
				},
				"gasEstimates": {
					"creation": {
						"codeDepositCost": "621800",
						"executionCost": "657",
						"totalCost": "622457"
					},
					"external": {
						"beforeAll()": "infinite",
						"checkGet()": "infinite",
						"checkSet()": "infinite",
						"initialValueIs100()": "infinite"
					}
				},
				"methodIdentifiers": {
					"beforeAll()": "7fea0d4b",
					"checkGet()": "e507fffc",
					"checkSet()": "3e1d6928",
					"initialValueIs100()": "c3754742"
				}
			},
			"storageLayout": {
				"storage": [
					{
						"astId": 901,
						"contract": "tests/storage_test.sol:testSuite",
						"label": "foo",
						"offset": 0,
						"slot": "0",
						"type": "t_contract(SimpleStorage)893"
					}
				],
				"types": {
					"t_contract(SimpleStorage)893": {
						"encoding": "inplace",
						"label": "contract SimpleStorage",
						"numberOfBytes": "20"
					}
				}
			},
			"userdoc": {
				"kind": "user",
				"methods": {
					"beforeAll()": {
						"notice": "'beforeAll' runs before all other tests More special functions are: 'beforeEach', 'beforeAll', 'afterEach' & 'afterAll'"
					}
				},
				"version": 1
			}
		}
	}
}