{
	"tests/math1_test.sol": {
		"testSuite": {
			"abi": [
				{
					"inputs": [],
					"name": "beforeAll",
					"outputs": [],
					"stateMutability": "nonpayable",
					"type": "function"
				},
				{
					"inputs": [],
					"name": "checkAdd",
					"outputs": [],
					"stateMutability": "nonpayable",
					"type": "function"
				},
				{
					"inputs": [],
					"name": "checkAddThree",
					"outputs": [],
					"stateMutability": "payable",
					"type": "function"
				},
				{
					"inputs": [],
					"name": "checkInitialize",
					"outputs": [],
					"stateMutability": "nonpayable",
					"type": "function"
				}
			],
			"devdoc": {
				"kind": "dev",
				"methods": {},
				"version": 1
			},
			"evm": {
				"assembly": "    /* \"tests/math1_test.sol\":500:1240  contract testSuite {... */\n  mstore(0x40, 0x80)\n  callvalue\n  dup1\n  iszero\n  tag_1\n  jumpi\n  0x00\n  dup1\n  revert\ntag_1:\n  pop\n  dataSize(sub_0)\n  dup1\n  dataOffset(sub_0)\n  0x00\n  codecopy\n  0x00\n  return\nstop\n\nsub_0: assembly {\n        /* \"tests/math1_test.sol\":500:1240  contract testSuite {... */\n      mstore(0x40, 0x80)\n      jumpi(tag_1, lt(calldatasize, 0x04))\n      shr(0xe0, calldataload(0x00))\n      dup1\n      0x3b6f5887\n      eq\n      tag_2\n      jumpi\n      dup1\n      0x5cd8d30d\n      eq\n      tag_3\n      jumpi\n      dup1\n      0x7fea0d4b\n      eq\n      tag_4\n      jumpi\n      dup1\n      0xd1d485af\n      eq\n      tag_5\n      jumpi\n    tag_1:\n      0x00\n      dup1\n      revert\n        /* \"tests/math1_test.sol\":769:868  function checkInitialize() public {... */\n    tag_2:\n      callvalue\n      dup1\n      iszero\n      tag_6\n      jumpi\n      0x00\n      dup1\n      revert\n    tag_6:\n      pop\n      tag_7\n      tag_8\n      jump\t// in\n    tag_7:\n      stop\n        /* \"tests/math1_test.sol\":919:1105  function checkAddThree() public payable {... */\n    tag_3:\n      tag_9\n      tag_10\n      jump\t// in\n    tag_9:\n      stop\n        /* \"tests/math1_test.sol\":673:763  function beforeAll() public {... */\n    tag_4:\n      callvalue\n      dup1\n      iszero\n      tag_11\n      jumpi\n      0x00\n      dup1\n      revert\n    tag_11:\n      pop\n      tag_12\n      tag_13\n      jump\t// in\n    tag_12:\n      stop\n        /* \"tests/math1_test.sol\":1115:1237  function checkAdd() public {... */\n    tag_5:\n      callvalue\n      dup1\n      iszero\n      tag_14\n      jumpi\n      0x00\n      dup1\n      revert\n    tag_14:\n      pop\n      tag_15\n      tag_16\n      jump\t// in\n    tag_15:\n      stop\n        /* \"tests/math1_test.sol\":769:868  function checkInitialize() public {... */\n    tag_8:\n      jump\t// out\n        /* \"tests/math1_test.sol\":919:1105  function checkAddThree() public payable {... */\n    tag_10:\n      jump\t// out\n        /* \"tests/math1_test.sol\":673:763  function beforeAll() public {... */\n    tag_13:\n      jump\t// out\n        /* \"tests/math1_test.sol\":1115:1237  function checkAdd() public {... */\n    tag_16:\n      jump\t// out\n\n    auxdata: 0xa26469706673582212208e5c7eb0993dc12308b47da2fc231e933bc4fed11f8a5051a25bb95e6b8b25c064736f6c63430008140033\n}\n",
				"bytecode": {
					"linkReferences": {},
					"object": "608060405234801561000f575f80fd5b5060bc8061001c5f395ff3fe6080604052600436106039575f3560e01c80633b6f588714603d5780635cd8d30d1460505780637fea0d4b146058578063d1d485af14606b575b5f80fd5b3480156047575f80fd5b50604e607e565b005b60566080565b005b3480156062575f80fd5b5060696082565b005b3480156075575f80fd5b50607c6084565b005b565b565b565b56fea26469706673582212208e5c7eb0993dc12308b47da2fc231e933bc4fed11f8a5051a25bb95e6b8b25c064736f6c63430008140033",
					"opcodes": "PUSH1 0x80 PUSH1 0x40 MSTORE CALLVALUE DUP1 ISZERO PUSH2 0xF JUMPI PUSH0 DUP1 REVERT JUMPDEST POP PUSH1 0xBC DUP1 PUSH2 0x1C PUSH0 CODECOPY PUSH0 RETURN INVALID PUSH1 0x80 PUSH1 0x40 MSTORE PUSH1 0x4 CALLDATASIZE LT PUSH1 0x39 JUMPI PUSH0 CALLDATALOAD PUSH1 0xE0 SHR DUP1 PUSH4 0x3B6F5887 EQ PUSH1 0x3D JUMPI DUP1 PUSH4 0x5CD8D30D EQ PUSH1 0x50 JUMPI DUP1 PUSH4 0x7FEA0D4B EQ PUSH1 0x58 JUMPI DUP1 PUSH4 0xD1D485AF EQ PUSH1 0x6B JUMPI JUMPDEST PUSH0 DUP1 REVERT JUMPDEST CALLVALUE DUP1 ISZERO PUSH1 0x47 JUMPI PUSH0 DUP1 REVERT JUMPDEST POP PUSH1 0x4E PUSH1 0x7E JUMP JUMPDEST STOP JUMPDEST PUSH1 0x56 PUSH1 0x80 JUMP JUMPDEST STOP JUMPDEST CALLVALUE DUP1 ISZERO PUSH1 0x62 JUMPI PUSH0 DUP1 REVERT JUMPDEST POP PUSH1 0x69 PUSH1 0x82 JUMP JUMPDEST STOP JUMPDEST CALLVALUE DUP1 ISZERO PUSH1 0x75 JUMPI PUSH0 DUP1 REVERT JUMPDEST POP PUSH1 0x7C PUSH1 0x84 JUMP JUMPDEST STOP JUMPDEST JUMP JUMPDEST JUMP JUMPDEST JUMP JUMPDEST JUMP INVALID LOG2 PUSH5 0x6970667358 0x22 SLT KECCAK256 DUP15 0x5C PUSH31 0xB0993DC12308B47DA2FC231E933BC4FED11F8A5051A25BB95E6B8B25C06473 PUSH16 0x6C634300081400330000000000000000 "
				},
				"gasEstimates": {
					"creation": {
						"codeDepositCost": "37600",
						"executionCost": "85",
						"totalCost": "37685"
					},
					"external": {
						"beforeAll()": "165",
						"checkAdd()": "187",
						"checkAddThree()": "119",
						"checkInitialize()": "121"
					}
				},
				"methodIdentifiers": {
					"beforeAll()": "7fea0d4b",
					"checkAdd()": "d1d485af",
					"checkAddThree()": "5cd8d30d",
					"checkInitialize()": "3b6f5887"
				}
			},
			"storageLayout": {
				"storage": [
					{
						"astId": 817,
						"contract": "tests/math1_test.sol:testSuite",
						"label": "m",
						"offset": 0,
						"slot": "0",
						"type": "t_contract(Math)809"
					}
				],
				"types": {
					"t_contract(Math)809": {
						"encoding": "inplace",
						"label": "contract Math",
						"numberOfBytes": "20"
					}
				}
			},
			"userdoc": {
				"kind": "user",
				"methods": {
					"beforeAll()": {
						"notice": "'beforeAll' runs before all other tests More special functions are: 'beforeEach', 'beforeAll', 'afterEach' & 'afterAll'"
					},
					"checkAddThree()": {
						"notice": "#sender: account-0 #value: 10"
					}
				},
				"version": 1
			}
		}
	}
}