{
	"tests/storage1_test.sol": {
		"testSuite": {
			"abi": [
				{
					"inputs": [],
					"name": "beforeAll",
					"outputs": [],
					"stateMutability": "nonpayable",
					"type": "function"
				},
				{
					"inputs": [],
					"name": "checkGet",
					"outputs": [
						{
							"internalType": "bool",
							"name": "",
							"type": "bool"
						}
					],
					"stateMutability": "nonpayable",
					"type": "function"
				},
				{
					"inputs": [],
					"name": "checkSet",
					"outputs": [
						{
							"internalType": "bool",
							"name": "",
							"type": "bool"
						}
					],
					"stateMutability": "nonpayable",
					"type": "function"
				},
				{
					"inputs": [],
					"name": "initialValueIs100",
					"outputs": [],
					"stateMutability": "nonpayable",
					"type": "function"
				}
			],
			"devdoc": {
				"kind": "dev",
				"methods": {},
				"version": 1
			},
			"evm": {
				"assembly": "    /* \"tests/storage1_test.sol\":490:1389  contract testSuite {... */\n  mstore(0x40, 0x80)\n  callvalue\n  dup1\n  iszero\n  tag_1\n  jumpi\n  0x00\n  dup1\n  revert\ntag_1:\n  pop\n  dataSize(sub_0)\n  dup1\n  dataOffset(sub_0)\n  0x00\n  codecopy\n  0x00\n  return\nstop\n\nsub_0: assembly {\n        /* \"tests/storage1_test.sol\":490:1389  contract testSuite {... */\n      mstore(0x40, 0x80)\n      callvalue\n      dup1\n      iszero\n      tag_1\n      jumpi\n      0x00\n      dup1\n      revert\n    tag_1:\n      pop\n      jumpi(tag_2, lt(calldatasize, 0x04))\n      shr(0xe0, calldataload(0x00))\n      dup1\n      0x3e1d6928\n      eq\n      tag_3\n      jumpi\n      dup1\n      0x7fea0d4b\n      eq\n      tag_4\n      jumpi\n      dup1\n      0xc3754742\n      eq\n      tag_5\n      jumpi\n      dup1\n      0xe507fffc\n      eq\n      tag_6\n      jumpi\n    tag_2:\n      0x00\n      dup1\n      revert\n        /* \"tests/storage1_test.sol\":1201:1387  function checkSet() public returns (bool) {... */\n    tag_3:\n      tag_7\n      tag_8\n      jump\t// in\n    tag_7:\n      mload(0x40)\n      tag_9\n      swap2\n      swap1\n      tag_10\n      jump\t// in\n    tag_9:\n      mload(0x40)\n      dup1\n      swap2\n      sub\n      swap1\n      return\n        /* \"tests/storage1_test.sol\":674:778  function beforeAll() public {... */\n    tag_4:\n      tag_11\n      tag_12\n      jump\t// in\n    tag_11:\n      stop\n        /* \"tests/storage1_test.sol\":785:954  function initialValueIs100() public {... */\n    tag_5:\n      tag_13\n      tag_14\n      jump\t// in\n    tag_13:\n      stop\n        /* \"tests/storage1_test.sol\":960:1191  function checkGet() public  returns (bool){... */\n    tag_6:\n      tag_15\n      tag_16\n      jump\t// in\n    tag_15:\n      mload(0x40)\n      tag_17\n      swap2\n      swap1\n      tag_10\n      jump\t// in\n    tag_17:\n      mload(0x40)\n      dup1\n      swap2\n      sub\n      swap1\n      return\n        /* \"tests/storage1_test.sol\":1201:1387  function checkSet() public returns (bool) {... */\n    tag_8:\n        /* \"tests/storage1_test.sol\":1237:1241  bool */\n      0x00\n        /* \"tests/storage1_test.sol\":1272:1275  foo */\n      dup1\n      0x00\n      swap1\n      sload\n      swap1\n      0x0100\n      exp\n      swap1\n      div\n      0xffffffffffffffffffffffffffffffffffffffff\n      and\n        /* \"tests/storage1_test.sol\":1272:1279  foo.set */\n      0xffffffffffffffffffffffffffffffffffffffff\n      and\n      0x60fe47b1\n        /* \"tests/storage1_test.sol\":1280:1283  200 */\n      0xc8\n        /* \"tests/storage1_test.sol\":1272:1284  foo.set(200) */\n      mload(0x40)\n      dup3\n      0xffffffff\n      and\n      0xe0\n      shl\n      dup2\n      mstore\n      0x04\n      add\n      tag_19\n      swap2\n      swap1\n      tag_20\n      jump\t// in\n    tag_19:\n      0x00\n      mload(0x40)\n      dup1\n      dup4\n      sub\n      dup2\n      0x00\n      dup8\n      dup1\n      extcodesize\n      iszero\n      dup1\n      iszero\n      tag_21\n      jumpi\n      0x00\n      dup1\n      revert\n    tag_21:\n      pop\n      gas\n      call\n      iszero\n      dup1\n      iszero\n      tag_23\n      jumpi\n      returndatasize\n      0x00\n      dup1\n      returndatacopy\n      revert(0x00, returndatasize)\n    tag_23:\n      pop\n      pop\n      pop\n      pop\n        /* \"tests/storage1_test.sol\":1294:1309  uint storedData */\n      0x00\n        /* \"tests/storage1_test.sol\":1312:1315  foo */\n      dup1\n      0x00\n      swap1\n      sload\n      swap1\n      0x0100\n      exp\n      swap1\n      div\n      0xffffffffffffffffffffffffffffffffffffffff\n      and\n        /* \"tests/storage1_test.sol\":1312:1319  foo.get */\n      0xffffffffffffffffffffffffffffffffffffffff\n      and\n      0x6d4ce63c\n        /* \"tests/storage1_test.sol\":1312:1321  foo.get() */\n      mload(0x40)\n      dup2\n      0xffffffff\n      and\n      0xe0\n      shl\n      dup2\n      mstore\n      0x04\n      add\n      0x20\n      mload(0x40)\n      dup1\n      dup4\n      sub\n      dup2\n      dup7\n      gas\n      staticcall\n      iszero\n      dup1\n      iszero\n      tag_25\n      jumpi\n      returndatasize\n      0x00\n      dup1\n      returndatacopy\n      revert(0x00, returndatasize)\n    tag_25:\n      pop\n      pop\n      pop\n      pop\n      mload(0x40)\n      returndatasize\n      not(0x1f)\n      0x1f\n      dup3\n      add\n      and\n      dup3\n      add\n      dup1\n      0x40\n      mstore\n      pop\n      dup2\n      add\n      swap1\n      tag_26\n      swap2\n      swap1\n      tag_27\n      jump\t// in\n    tag_26:\n        /* \"tests/storage1_test.sol\":1294:1321  uint storedData = foo.get() */\n      swap1\n      pop\n        /* \"tests/storage1_test.sol\":1338:1344  Assert */\n      linkerSymbol(\"acbfb1c35000d78352310b16a054a6b1066124b9c6f054b10c085f549bff80c6\")\n        /* \"tests/storage1_test.sol\":1338:1350  Assert.equal */\n      0xabcd7960\n        /* \"tests/storage1_test.sol\":1351:1361  storedData */\n      dup3\n        /* \"tests/storage1_test.sol\":1363:1366  200 */\n      0xc8\n        /* \"tests/storage1_test.sol\":1338:1380  Assert.equal(storedData, 200, \"no es 200\") */\n      mload(0x40)\n      dup4\n      0xffffffff\n      and\n      0xe0\n      shl\n      dup2\n      mstore\n      0x04\n      add\n      tag_28\n      swap3\n      swap2\n      swap1\n      tag_29\n      jump\t// in\n    tag_28:\n      0x20\n      mload(0x40)\n      dup1\n      dup4\n      sub\n      dup2\n      dup7\n      gas\n      delegatecall\n      iszero\n      dup1\n      iszero\n      tag_31\n      jumpi\n      returndatasize\n      0x00\n      dup1\n      returndatacopy\n      revert(0x00, returndatasize)\n    tag_31:\n      pop\n      pop\n      pop\n      pop\n      mload(0x40)\n      returndatasize\n      not(0x1f)\n      0x1f\n      dup3\n      add\n      and\n      dup3\n      add\n      dup1\n      0x40\n      mstore\n      pop\n      dup2\n      add\n      swap1\n      tag_32\n      swap2\n      swap1\n      tag_33\n      jump\t// in\n    tag_32:\n        /* \"tests/storage1_test.sol\":1331:1380  return Assert.equal(storedData, 200, \"no es 200\") */\n      swap2\n      pop\n      pop\n        /* \"tests/storage1_test.sol\":1201:1387  function checkSet() public returns (bool) {... */\n      swap1\n      jump\t// out\n        /* \"tests/storage1_test.sol\":674:778  function beforeAll() public {... */\n    tag_12:\n        /* \"tests/storage1_test.sol\":752:771  new SimpleStorage() */\n      mload(0x40)\n      tag_35\n      swap1\n      tag_36\n      jump\t// in\n    tag_35:\n      mload(0x40)\n      dup1\n      swap2\n      sub\n      swap1\n      0x00\n      create\n      dup1\n      iszero\n      dup1\n      iszero\n      tag_37\n      jumpi\n      returndatasize\n      0x00\n      dup1\n      returndatacopy\n      revert(0x00, returndatasize)\n    tag_37:\n      pop\n        /* \"tests/storage1_test.sol\":746:749  foo */\n      0x00\n      dup1\n        /* \"tests/storage1_test.sol\":746:771  foo = new SimpleStorage() */\n      0x0100\n      exp\n      dup2\n      sload\n      dup2\n      0xffffffffffffffffffffffffffffffffffffffff\n      mul\n      not\n      and\n      swap1\n      dup4\n      0xffffffffffffffffffffffffffffffffffffffff\n      and\n      mul\n      or\n      swap1\n      sstore\n      pop\n        /* \"tests/storage1_test.sol\":674:778  function beforeAll() public {... */\n      jump\t// out\n        /* \"tests/storage1_test.sol\":785:954  function initialValueIs100() public {... */\n    tag_14:\n        /* \"tests/storage1_test.sol\":850:865  uint storedData */\n      0x00\n        /* \"tests/storage1_test.sol\":868:871  foo */\n      dup1\n      0x00\n      swap1\n      sload\n      swap1\n      0x0100\n      exp\n      swap1\n      div\n      0xffffffffffffffffffffffffffffffffffffffff\n      and\n        /* \"tests/storage1_test.sol\":868:875  foo.get */\n      0xffffffffffffffffffffffffffffffffffffffff\n      and\n      0x6d4ce63c\n        /* \"tests/storage1_test.sol\":868:877  foo.get() */\n      mload(0x40)\n      dup2\n      0xffffffff\n      and\n      0xe0\n      shl\n      dup2\n      mstore\n      0x04\n      add\n      0x20\n      mload(0x40)\n      dup1\n      dup4\n      sub\n      dup2\n      dup7\n      gas\n      staticcall\n      iszero\n      dup1\n      iszero\n      tag_40\n      jumpi\n      returndatasize\n      0x00\n      dup1\n      returndatacopy\n      revert(0x00, returndatasize)\n    tag_40:\n      pop\n      pop\n      pop\n      pop\n      mload(0x40)\n      returndatasize\n      not(0x1f)\n      0x1f\n      dup3\n      add\n      and\n      dup3\n      add\n      dup1\n      0x40\n      mstore\n      pop\n      dup2\n      add\n      swap1\n      tag_41\n      swap2\n      swap1\n      tag_27\n      jump\t// in\n    tag_41:\n        /* \"tests/storage1_test.sol\":850:877  uint storedData = foo.get() */\n      swap1\n      pop\n        /* \"tests/storage1_test.sol\":887:893  Assert */\n      linkerSymbol(\"acbfb1c35000d78352310b16a054a6b1066124b9c6f054b10c085f549bff80c6\")\n        /* \"tests/storage1_test.sol\":887:899  Assert.equal */\n      0xabcd7960\n        /* \"tests/storage1_test.sol\":900:910  storedData */\n      dup3\n        /* \"tests/storage1_test.sol\":912:915  100 */\n      0x64\n        /* \"tests/storage1_test.sol\":887:947  Assert.equal(storedData, 100, \"el valor inicial no es 100!\") */\n      mload(0x40)\n      dup4\n      0xffffffff\n      and\n      0xe0\n      shl\n      dup2\n      mstore\n      0x04\n      add\n      tag_42\n      swap3\n      swap2\n      swap1\n      tag_43\n      jump\t// in\n    tag_42:\n      0x20\n      mload(0x40)\n      dup1\n      dup4\n      sub\n      dup2\n      dup7\n      gas\n      delegatecall\n      iszero\n      dup1\n      iszero\n      tag_45\n      jumpi\n      returndatasize\n      0x00\n      dup1\n      returndatacopy\n      revert(0x00, returndatasize)\n    tag_45:\n      pop\n      pop\n      pop\n      pop\n      mload(0x40)\n      returndatasize\n      not(0x1f)\n      0x1f\n      dup3\n      add\n      and\n      dup3\n      add\n      dup1\n      0x40\n      mstore\n      pop\n      dup2\n      add\n      swap1\n      tag_46\n      swap2\n      swap1\n      tag_33\n      jump\t// in\n    tag_46:\n      pop\n        /* \"tests/storage1_test.sol\":821:954  {... */\n      pop\n        /* \"tests/storage1_test.sol\":785:954  function initialValueIs100() public {... */\n      jump\t// out\n        /* \"tests/storage1_test.sol\":960:1191  function checkGet() public  returns (bool){... */\n    tag_16:\n        /* \"tests/storage1_test.sol\":997:1001  bool */\n      0x00\n        /* \"tests/storage1_test.sol\":1031:1046  uint storedData */\n      dup1\n        /* \"tests/storage1_test.sol\":1049:1052  foo */\n      0x00\n      dup1\n      sload\n      swap1\n      0x0100\n      exp\n      swap1\n      div\n      0xffffffffffffffffffffffffffffffffffffffff\n      and\n        /* \"tests/storage1_test.sol\":1049:1056  foo.get */\n      0xffffffffffffffffffffffffffffffffffffffff\n      and\n      0x6d4ce63c\n        /* \"tests/storage1_test.sol\":1049:1058  foo.get() */\n      mload(0x40)\n      dup2\n      0xffffffff\n      and\n      0xe0\n      shl\n      dup2\n      mstore\n      0x04\n      add\n      0x20\n      mload(0x40)\n      dup1\n      dup4\n      sub\n      dup2\n      dup7\n      gas\n      staticcall\n      iszero\n      dup1\n      iszero\n      tag_49\n      jumpi\n      returndatasize\n      0x00\n      dup1\n      returndatacopy\n      revert(0x00, returndatasize)\n    tag_49:\n      pop\n      pop\n      pop\n      pop\n      mload(0x40)\n      returndatasize\n      not(0x1f)\n      0x1f\n      dup3\n      add\n      and\n      dup3\n      add\n      dup1\n      0x40\n      mstore\n      pop\n      dup2\n      add\n      swap1\n      tag_50\n      swap2\n      swap1\n      tag_27\n      jump\t// in\n    tag_50:\n        /* \"tests/storage1_test.sol\":1031:1058  uint storedData = foo.get() */\n      swap1\n      pop\n        /* \"tests/storage1_test.sol\":1068:1088  uint storedDataPosta */\n      0x00\n        /* \"tests/storage1_test.sol\":1091:1094  foo */\n      dup1\n      0x00\n      swap1\n      sload\n      swap1\n      0x0100\n      exp\n      swap1\n      div\n      0xffffffffffffffffffffffffffffffffffffffff\n      and\n        /* \"tests/storage1_test.sol\":1091:1105  foo.storedData */\n      0xffffffffffffffffffffffffffffffffffffffff\n      and\n      0x2a1afcd9\n        /* \"tests/storage1_test.sol\":1091:1107  foo.storedData() */\n      mload(0x40)\n      dup2\n      0xffffffff\n      and\n      0xe0\n      shl\n      dup2\n      mstore\n      0x04\n      add\n      0x20\n      mload(0x40)\n      dup1\n      dup4\n      sub\n      dup2\n      dup7\n      gas\n      staticcall\n      iszero\n      dup1\n      iszero\n      tag_52\n      jumpi\n      returndatasize\n      0x00\n      dup1\n      returndatacopy\n      revert(0x00, returndatasize)\n    tag_52:\n      pop\n      pop\n      pop\n      pop\n      mload(0x40)\n      returndatasize\n      not(0x1f)\n      0x1f\n      dup3\n      add\n      and\n      dup3\n      add\n      dup1\n      0x40\n      mstore\n      pop\n      dup2\n      add\n      swap1\n      tag_53\n      swap2\n      swap1\n      tag_27\n      jump\t// in\n    tag_53:\n        /* \"tests/storage1_test.sol\":1068:1107  uint storedDataPosta = foo.storedData() */\n      swap1\n      pop\n        /* \"tests/storage1_test.sol\":1124:1130  Assert */\n      linkerSymbol(\"acbfb1c35000d78352310b16a054a6b1066124b9c6f054b10c085f549bff80c6\")\n        /* \"tests/storage1_test.sol\":1124:1136  Assert.equal */\n      0xabcd7960\n        /* \"tests/storage1_test.sol\":1137:1147  storedData */\n      dup4\n        /* \"tests/storage1_test.sol\":1149:1164  storedDataPosta */\n      dup4\n        /* \"tests/storage1_test.sol\":1124:1184  Assert.equal(storedData, storedDataPosta, \"no son iguales!\") */\n      mload(0x40)\n      dup4\n      0xffffffff\n      and\n      0xe0\n      shl\n      dup2\n      mstore\n      0x04\n      add\n      tag_54\n      swap3\n      swap2\n      swap1\n      tag_55\n      jump\t// in\n    tag_54:\n      0x20\n      mload(0x40)\n      dup1\n      dup4\n      sub\n      dup2\n      dup7\n      gas\n      delegatecall\n      iszero\n      dup1\n      iszero\n      tag_57\n      jumpi\n      returndatasize\n      0x00\n      dup1\n      returndatacopy\n      revert(0x00, returndatasize)\n    tag_57:\n      pop\n      pop\n      pop\n      pop\n      mload(0x40)\n      returndatasize\n      not(0x1f)\n      0x1f\n      dup3\n      add\n      and\n      dup3\n      add\n      dup1\n      0x40\n      mstore\n      pop\n      dup2\n      add\n      swap1\n      tag_58\n      swap2\n      swap1\n      tag_33\n      jump\t// in\n    tag_58:\n        /* \"tests/storage1_test.sol\":1117:1184  return Assert.equal(storedData, storedDataPosta, \"no son iguales!\") */\n      swap3\n      pop\n      pop\n      pop\n        /* \"tests/storage1_test.sol\":960:1191  function checkGet() public  returns (bool){... */\n      swap1\n      jump\t// out\n    tag_36:\n      dataSize(sub_0)\n      dup1\n      dataOffset(sub_0)\n      dup4\n      codecopy\n      add\n      swap1\n      jump\t// out\n        /* \"#utility.yul\":7:97   */\n    tag_59:\n        /* \"#utility.yul\":41:48   */\n      0x00\n        /* \"#utility.yul\":84:89   */\n      dup2\n        /* \"#utility.yul\":77:90   */\n      iszero\n        /* \"#utility.yul\":70:91   */\n      iszero\n        /* \"#utility.yul\":59:91   */\n      swap1\n      pop\n        /* \"#utility.yul\":7:97   */\n      swap2\n      swap1\n      pop\n      jump\t// out\n        /* \"#utility.yul\":103:212   */\n    tag_60:\n        /* \"#utility.yul\":184:205   */\n      tag_88\n        /* \"#utility.yul\":199:204   */\n      dup2\n        /* \"#utility.yul\":184:205   */\n      tag_59\n      jump\t// in\n    tag_88:\n        /* \"#utility.yul\":179:182   */\n      dup3\n        /* \"#utility.yul\":172:206   */\n      mstore\n        /* \"#utility.yul\":103:212   */\n      pop\n      pop\n      jump\t// out\n        /* \"#utility.yul\":218:428   */\n    tag_10:\n        /* \"#utility.yul\":305:309   */\n      0x00\n        /* \"#utility.yul\":343:345   */\n      0x20\n        /* \"#utility.yul\":332:341   */\n      dup3\n        /* \"#utility.yul\":328:346   */\n      add\n        /* \"#utility.yul\":320:346   */\n      swap1\n      pop\n        /* \"#utility.yul\":356:421   */\n      tag_90\n        /* \"#utility.yul\":418:419   */\n      0x00\n        /* \"#utility.yul\":407:416   */\n      dup4\n        /* \"#utility.yul\":403:420   */\n      add\n        /* \"#utility.yul\":394:400   */\n      dup5\n        /* \"#utility.yul\":356:421   */\n      tag_60\n      jump\t// in\n    tag_90:\n        /* \"#utility.yul\":218:428   */\n      swap3\n      swap2\n      pop\n      pop\n      jump\t// out\n        /* \"#utility.yul\":434:521   */\n    tag_61:\n        /* \"#utility.yul\":481:488   */\n      0x00\n        /* \"#utility.yul\":510:515   */\n      dup2\n        /* \"#utility.yul\":499:515   */\n      swap1\n      pop\n        /* \"#utility.yul\":434:521   */\n      swap2\n      swap1\n      pop\n      jump\t// out\n        /* \"#utility.yul\":527:604   */\n    tag_62:\n        /* \"#utility.yul\":564:571   */\n      0x00\n        /* \"#utility.yul\":593:598   */\n      dup2\n        /* \"#utility.yul\":582:598   */\n      swap1\n      pop\n        /* \"#utility.yul\":527:604   */\n      swap2\n      swap1\n      pop\n      jump\t// out\n        /* \"#utility.yul\":610:670   */\n    tag_63:\n        /* \"#utility.yul\":638:641   */\n      0x00\n        /* \"#utility.yul\":659:664   */\n      dup2\n        /* \"#utility.yul\":652:664   */\n      swap1\n      pop\n        /* \"#utility.yul\":610:670   */\n      swap2\n      swap1\n      pop\n      jump\t// out\n        /* \"#utility.yul\":676:838   */\n    tag_64:\n        /* \"#utility.yul\":736:745   */\n      0x00\n        /* \"#utility.yul\":769:832   */\n      tag_95\n        /* \"#utility.yul\":787:831   */\n      tag_96\n        /* \"#utility.yul\":796:830   */\n      tag_97\n        /* \"#utility.yul\":824:829   */\n      dup5\n        /* \"#utility.yul\":796:830   */\n      tag_61\n      jump\t// in\n    tag_97:\n        /* \"#utility.yul\":787:831   */\n      tag_63\n      jump\t// in\n    tag_96:\n        /* \"#utility.yul\":769:832   */\n      tag_62\n      jump\t// in\n    tag_95:\n        /* \"#utility.yul\":756:832   */\n      swap1\n      pop\n        /* \"#utility.yul\":676:838   */\n      swap2\n      swap1\n      pop\n      jump\t// out\n        /* \"#utility.yul\":844:995   */\n    tag_65:\n        /* \"#utility.yul\":941:988   */\n      tag_99\n        /* \"#utility.yul\":982:987   */\n      dup2\n        /* \"#utility.yul\":941:988   */\n      tag_64\n      jump\t// in\n    tag_99:\n        /* \"#utility.yul\":936:939   */\n      dup3\n        /* \"#utility.yul\":929:989   */\n      mstore\n        /* \"#utility.yul\":844:995   */\n      pop\n      pop\n      jump\t// out\n        /* \"#utility.yul\":1001:1243   */\n    tag_20:\n        /* \"#utility.yul\":1104:1108   */\n      0x00\n        /* \"#utility.yul\":1142:1144   */\n      0x20\n        /* \"#utility.yul\":1131:1140   */\n      dup3\n        /* \"#utility.yul\":1127:1145   */\n      add\n        /* \"#utility.yul\":1119:1145   */\n      swap1\n      pop\n        /* \"#utility.yul\":1155:1236   */\n      tag_101\n        /* \"#utility.yul\":1233:1234   */\n      0x00\n        /* \"#utility.yul\":1222:1231   */\n      dup4\n        /* \"#utility.yul\":1218:1235   */\n      add\n        /* \"#utility.yul\":1209:1215   */\n      dup5\n        /* \"#utility.yul\":1155:1236   */\n      tag_65\n      jump\t// in\n    tag_101:\n        /* \"#utility.yul\":1001:1243   */\n      swap3\n      swap2\n      pop\n      pop\n      jump\t// out\n        /* \"#utility.yul\":1330:1447   */\n    tag_67:\n        /* \"#utility.yul\":1439:1440   */\n      0x00\n        /* \"#utility.yul\":1436:1437   */\n      dup1\n        /* \"#utility.yul\":1429:1441   */\n      revert\n        /* \"#utility.yul\":1576:1698   */\n    tag_69:\n        /* \"#utility.yul\":1649:1673   */\n      tag_106\n        /* \"#utility.yul\":1667:1672   */\n      dup2\n        /* \"#utility.yul\":1649:1673   */\n      tag_62\n      jump\t// in\n    tag_106:\n        /* \"#utility.yul\":1642:1647   */\n      dup2\n        /* \"#utility.yul\":1639:1674   */\n      eq\n        /* \"#utility.yul\":1629:1692   */\n      tag_107\n      jumpi\n        /* \"#utility.yul\":1688:1689   */\n      0x00\n        /* \"#utility.yul\":1685:1686   */\n      dup1\n        /* \"#utility.yul\":1678:1690   */\n      revert\n        /* \"#utility.yul\":1629:1692   */\n    tag_107:\n        /* \"#utility.yul\":1576:1698   */\n      pop\n      jump\t// out\n        /* \"#utility.yul\":1704:1847   */\n    tag_70:\n        /* \"#utility.yul\":1761:1766   */\n      0x00\n        /* \"#utility.yul\":1792:1798   */\n      dup2\n        /* \"#utility.yul\":1786:1799   */\n      mload\n        /* \"#utility.yul\":1777:1799   */\n      swap1\n      pop\n        /* \"#utility.yul\":1808:1841   */\n      tag_109\n        /* \"#utility.yul\":1835:1840   */\n      dup2\n        /* \"#utility.yul\":1808:1841   */\n      tag_69\n      jump\t// in\n    tag_109:\n        /* \"#utility.yul\":1704:1847   */\n      swap3\n      swap2\n      pop\n      pop\n      jump\t// out\n        /* \"#utility.yul\":1853:2204   */\n    tag_27:\n        /* \"#utility.yul\":1923:1929   */\n      0x00\n        /* \"#utility.yul\":1972:1974   */\n      0x20\n        /* \"#utility.yul\":1960:1969   */\n      dup3\n        /* \"#utility.yul\":1951:1958   */\n      dup5\n        /* \"#utility.yul\":1947:1970   */\n      sub\n        /* \"#utility.yul\":1943:1975   */\n      slt\n        /* \"#utility.yul\":1940:2059   */\n      iszero\n      tag_111\n      jumpi\n        /* \"#utility.yul\":1978:2057   */\n      tag_112\n      tag_67\n      jump\t// in\n    tag_112:\n        /* \"#utility.yul\":1940:2059   */\n    tag_111:\n        /* \"#utility.yul\":2098:2099   */\n      0x00\n        /* \"#utility.yul\":2123:2187   */\n      tag_113\n        /* \"#utility.yul\":2179:2186   */\n      dup5\n        /* \"#utility.yul\":2170:2176   */\n      dup3\n        /* \"#utility.yul\":2159:2168   */\n      dup6\n        /* \"#utility.yul\":2155:2177   */\n      add\n        /* \"#utility.yul\":2123:2187   */\n      tag_70\n      jump\t// in\n    tag_113:\n        /* \"#utility.yul\":2113:2187   */\n      swap2\n      pop\n        /* \"#utility.yul\":2069:2197   */\n      pop\n        /* \"#utility.yul\":1853:2204   */\n      swap3\n      swap2\n      pop\n      pop\n      jump\t// out\n        /* \"#utility.yul\":2210:2336   */\n    tag_71:\n        /* \"#utility.yul\":2305:2329   */\n      tag_115\n        /* \"#utility.yul\":2323:2328   */\n      dup2\n        /* \"#utility.yul\":2305:2329   */\n      tag_62\n      jump\t// in\n    tag_115:\n        /* \"#utility.yul\":2300:2303   */\n      dup3\n        /* \"#utility.yul\":2293:2330   */\n      mstore\n        /* \"#utility.yul\":2210:2336   */\n      pop\n      pop\n      jump\t// out\n        /* \"#utility.yul\":2342:2501   */\n    tag_72:\n        /* \"#utility.yul\":2447:2494   */\n      tag_117\n        /* \"#utility.yul\":2488:2493   */\n      dup2\n        /* \"#utility.yul\":2447:2494   */\n      tag_64\n      jump\t// in\n    tag_117:\n        /* \"#utility.yul\":2442:2445   */\n      dup3\n        /* \"#utility.yul\":2435:2495   */\n      mstore\n        /* \"#utility.yul\":2342:2501   */\n      pop\n      pop\n      jump\t// out\n        /* \"#utility.yul\":2507:2684   */\n    tag_73:\n        /* \"#utility.yul\":2599:2610   */\n      0x00\n        /* \"#utility.yul\":2633:2639   */\n      dup3\n        /* \"#utility.yul\":2628:2631   */\n      dup3\n        /* \"#utility.yul\":2621:2640   */\n      mstore\n        /* \"#utility.yul\":2673:2677   */\n      0x20\n        /* \"#utility.yul\":2668:2671   */\n      dup3\n        /* \"#utility.yul\":2664:2678   */\n      add\n        /* \"#utility.yul\":2649:2678   */\n      swap1\n      pop\n        /* \"#utility.yul\":2507:2684   */\n      swap3\n      swap2\n      pop\n      pop\n      jump\t// out\n        /* \"#utility.yul\":2690:2849   */\n    tag_74:\n        /* \"#utility.yul\":2830:2841   */\n      0x6e6f206573203230300000000000000000000000000000000000000000000000\n        /* \"#utility.yul\":2826:2827   */\n      0x00\n        /* \"#utility.yul\":2818:2824   */\n      dup3\n        /* \"#utility.yul\":2814:2828   */\n      add\n        /* \"#utility.yul\":2807:2842   */\n      mstore\n        /* \"#utility.yul\":2690:2849   */\n      pop\n      jump\t// out\n        /* \"#utility.yul\":2855:3236   */\n    tag_75:\n        /* \"#utility.yul\":3005:3008   */\n      0x00\n        /* \"#utility.yul\":3026:3100   */\n      tag_121\n        /* \"#utility.yul\":3098:3099   */\n      0x09\n        /* \"#utility.yul\":3093:3096   */\n      dup4\n        /* \"#utility.yul\":3026:3100   */\n      tag_73\n      jump\t// in\n    tag_121:\n        /* \"#utility.yul\":3019:3100   */\n      swap2\n      pop\n        /* \"#utility.yul\":3109:3202   */\n      tag_122\n        /* \"#utility.yul\":3198:3201   */\n      dup3\n        /* \"#utility.yul\":3109:3202   */\n      tag_74\n      jump\t// in\n    tag_122:\n        /* \"#utility.yul\":3227:3229   */\n      0x20\n        /* \"#utility.yul\":3222:3225   */\n      dup3\n        /* \"#utility.yul\":3218:3230   */\n      add\n        /* \"#utility.yul\":3211:3230   */\n      swap1\n      pop\n        /* \"#utility.yul\":2855:3236   */\n      swap2\n      swap1\n      pop\n      jump\t// out\n        /* \"#utility.yul\":3242:3933   */\n    tag_29:\n        /* \"#utility.yul\":3482:3486   */\n      0x00\n        /* \"#utility.yul\":3520:3522   */\n      0x60\n        /* \"#utility.yul\":3509:3518   */\n      dup3\n        /* \"#utility.yul\":3505:3523   */\n      add\n        /* \"#utility.yul\":3497:3523   */\n      swap1\n      pop\n        /* \"#utility.yul\":3533:3612   */\n      tag_124\n        /* \"#utility.yul\":3609:3610   */\n      0x00\n        /* \"#utility.yul\":3598:3607   */\n      dup4\n        /* \"#utility.yul\":3594:3611   */\n      add\n        /* \"#utility.yul\":3585:3591   */\n      dup6\n        /* \"#utility.yul\":3533:3612   */\n      tag_71\n      jump\t// in\n    tag_124:\n        /* \"#utility.yul\":3622:3712   */\n      tag_125\n        /* \"#utility.yul\":3708:3710   */\n      0x20\n        /* \"#utility.yul\":3697:3706   */\n      dup4\n        /* \"#utility.yul\":3693:3711   */\n      add\n        /* \"#utility.yul\":3684:3690   */\n      dup5\n        /* \"#utility.yul\":3622:3712   */\n      tag_72\n      jump\t// in\n    tag_125:\n        /* \"#utility.yul\":3759:3768   */\n      dup2\n        /* \"#utility.yul\":3753:3757   */\n      dup2\n        /* \"#utility.yul\":3749:3769   */\n      sub\n        /* \"#utility.yul\":3744:3746   */\n      0x40\n        /* \"#utility.yul\":3733:3742   */\n      dup4\n        /* \"#utility.yul\":3729:3747   */\n      add\n        /* \"#utility.yul\":3722:3770   */\n      mstore\n        /* \"#utility.yul\":3787:3926   */\n      tag_126\n        /* \"#utility.yul\":3921:3925   */\n      dup2\n        /* \"#utility.yul\":3787:3926   */\n      tag_75\n      jump\t// in\n    tag_126:\n        /* \"#utility.yul\":3779:3926   */\n      swap1\n      pop\n        /* \"#utility.yul\":3242:3933   */\n      swap4\n      swap3\n      pop\n      pop\n      pop\n      jump\t// out\n        /* \"#utility.yul\":3939:4055   */\n    tag_76:\n        /* \"#utility.yul\":4009:4030   */\n      tag_128\n        /* \"#utility.yul\":4024:4029   */\n      dup2\n        /* \"#utility.yul\":4009:4030   */\n      tag_59\n      jump\t// in\n    tag_128:\n        /* \"#utility.yul\":4002:4007   */\n      dup2\n        /* \"#utility.yul\":3999:4031   */\n      eq\n        /* \"#utility.yul\":3989:4049   */\n      tag_129\n      jumpi\n        /* \"#utility.yul\":4045:4046   */\n      0x00\n        /* \"#utility.yul\":4042:4043   */\n      dup1\n        /* \"#utility.yul\":4035:4047   */\n      revert\n        /* \"#utility.yul\":3989:4049   */\n    tag_129:\n        /* \"#utility.yul\":3939:4055   */\n      pop\n      jump\t// out\n        /* \"#utility.yul\":4061:4198   */\n    tag_77:\n        /* \"#utility.yul\":4115:4120   */\n      0x00\n        /* \"#utility.yul\":4146:4152   */\n      dup2\n        /* \"#utility.yul\":4140:4153   */\n      mload\n        /* \"#utility.yul\":4131:4153   */\n      swap1\n      pop\n        /* \"#utility.yul\":4162:4192   */\n      tag_131\n        /* \"#utility.yul\":4186:4191   */\n      dup2\n        /* \"#utility.yul\":4162:4192   */\n      tag_76\n      jump\t// in\n    tag_131:\n        /* \"#utility.yul\":4061:4198   */\n      swap3\n      swap2\n      pop\n      pop\n      jump\t// out\n        /* \"#utility.yul\":4204:4549   */\n    tag_33:\n        /* \"#utility.yul\":4271:4277   */\n      0x00\n        /* \"#utility.yul\":4320:4322   */\n      0x20\n        /* \"#utility.yul\":4308:4317   */\n      dup3\n        /* \"#utility.yul\":4299:4306   */\n      dup5\n        /* \"#utility.yul\":4295:4318   */\n      sub\n        /* \"#utility.yul\":4291:4323   */\n      slt\n        /* \"#utility.yul\":4288:4407   */\n      iszero\n      tag_133\n      jumpi\n        /* \"#utility.yul\":4326:4405   */\n      tag_134\n      tag_67\n      jump\t// in\n    tag_134:\n        /* \"#utility.yul\":4288:4407   */\n    tag_133:\n        /* \"#utility.yul\":4446:4447   */\n      0x00\n        /* \"#utility.yul\":4471:4532   */\n      tag_135\n        /* \"#utility.yul\":4524:4531   */\n      dup5\n        /* \"#utility.yul\":4515:4521   */\n      dup3\n        /* \"#utility.yul\":4504:4513   */\n      dup6\n        /* \"#utility.yul\":4500:4522   */\n      add\n        /* \"#utility.yul\":4471:4532   */\n      tag_77\n      jump\t// in\n    tag_135:\n        /* \"#utility.yul\":4461:4532   */\n      swap2\n      pop\n        /* \"#utility.yul\":4417:4542   */\n      pop\n        /* \"#utility.yul\":4204:4549   */\n      swap3\n      swap2\n      pop\n      pop\n      jump\t// out\n        /* \"#utility.yul\":4555:4642   */\n    tag_78:\n        /* \"#utility.yul\":4602:4609   */\n      0x00\n        /* \"#utility.yul\":4631:4636   */\n      dup2\n        /* \"#utility.yul\":4620:4636   */\n      swap1\n      pop\n        /* \"#utility.yul\":4555:4642   */\n      swap2\n      swap1\n      pop\n      jump\t// out\n        /* \"#utility.yul\":4648:4810   */\n    tag_79:\n        /* \"#utility.yul\":4708:4717   */\n      0x00\n        /* \"#utility.yul\":4741:4804   */\n      tag_138\n        /* \"#utility.yul\":4759:4803   */\n      tag_139\n        /* \"#utility.yul\":4768:4802   */\n      tag_140\n        /* \"#utility.yul\":4796:4801   */\n      dup5\n        /* \"#utility.yul\":4768:4802   */\n      tag_78\n      jump\t// in\n    tag_140:\n        /* \"#utility.yul\":4759:4803   */\n      tag_63\n      jump\t// in\n    tag_139:\n        /* \"#utility.yul\":4741:4804   */\n      tag_62\n      jump\t// in\n    tag_138:\n        /* \"#utility.yul\":4728:4804   */\n      swap1\n      pop\n        /* \"#utility.yul\":4648:4810   */\n      swap2\n      swap1\n      pop\n      jump\t// out\n        /* \"#utility.yul\":4816:4975   */\n    tag_80:\n        /* \"#utility.yul\":4921:4968   */\n      tag_142\n        /* \"#utility.yul\":4962:4967   */\n      dup2\n        /* \"#utility.yul\":4921:4968   */\n      tag_79\n      jump\t// in\n    tag_142:\n        /* \"#utility.yul\":4916:4919   */\n      dup3\n        /* \"#utility.yul\":4909:4969   */\n      mstore\n        /* \"#utility.yul\":4816:4975   */\n      pop\n      pop\n      jump\t// out\n        /* \"#utility.yul\":4981:5158   */\n    tag_81:\n        /* \"#utility.yul\":5121:5150   */\n      0x656c2076616c6f7220696e696369616c206e6f20657320313030210000000000\n        /* \"#utility.yul\":5117:5118   */\n      0x00\n        /* \"#utility.yul\":5109:5115   */\n      dup3\n        /* \"#utility.yul\":5105:5119   */\n      add\n        /* \"#utility.yul\":5098:5151   */\n      mstore\n        /* \"#utility.yul\":4981:5158   */\n      pop\n      jump\t// out\n        /* \"#utility.yul\":5164:5546   */\n    tag_82:\n        /* \"#utility.yul\":5314:5317   */\n      0x00\n        /* \"#utility.yul\":5335:5410   */\n      tag_145\n        /* \"#utility.yul\":5407:5409   */\n      0x1b\n        /* \"#utility.yul\":5402:5405   */\n      dup4\n        /* \"#utility.yul\":5335:5410   */\n      tag_73\n      jump\t// in\n    tag_145:\n        /* \"#utility.yul\":5328:5410   */\n      swap2\n      pop\n        /* \"#utility.yul\":5419:5512   */\n      tag_146\n        /* \"#utility.yul\":5508:5511   */\n      dup3\n        /* \"#utility.yul\":5419:5512   */\n      tag_81\n      jump\t// in\n    tag_146:\n        /* \"#utility.yul\":5537:5539   */\n      0x20\n        /* \"#utility.yul\":5532:5535   */\n      dup3\n        /* \"#utility.yul\":5528:5540   */\n      add\n        /* \"#utility.yul\":5521:5540   */\n      swap1\n      pop\n        /* \"#utility.yul\":5164:5546   */\n      swap2\n      swap1\n      pop\n      jump\t// out\n        /* \"#utility.yul\":5552:6243   */\n    tag_43:\n        /* \"#utility.yul\":5792:5796   */\n      0x00\n        /* \"#utility.yul\":5830:5832   */\n      0x60\n        /* \"#utility.yul\":5819:5828   */\n      dup3\n        /* \"#utility.yul\":5815:5833   */\n      add\n        /* \"#utility.yul\":5807:5833   */\n      swap1\n      pop\n        /* \"#utility.yul\":5843:5922   */\n      tag_148\n        /* \"#utility.yul\":5919:5920   */\n      0x00\n        /* \"#utility.yul\":5908:5917   */\n      dup4\n        /* \"#utility.yul\":5904:5921   */\n      add\n        /* \"#utility.yul\":5895:5901   */\n      dup6\n        /* \"#utility.yul\":5843:5922   */\n      tag_71\n      jump\t// in\n    tag_148:\n        /* \"#utility.yul\":5932:6022   */\n      tag_149\n        /* \"#utility.yul\":6018:6020   */\n      0x20\n        /* \"#utility.yul\":6007:6016   */\n      dup4\n        /* \"#utility.yul\":6003:6021   */\n      add\n        /* \"#utility.yul\":5994:6000   */\n      dup5\n        /* \"#utility.yul\":5932:6022   */\n      tag_80\n      jump\t// in\n    tag_149:\n        /* \"#utility.yul\":6069:6078   */\n      dup2\n        /* \"#utility.yul\":6063:6067   */\n      dup2\n        /* \"#utility.yul\":6059:6079   */\n      sub\n        /* \"#utility.yul\":6054:6056   */\n      0x40\n        /* \"#utility.yul\":6043:6052   */\n      dup4\n        /* \"#utility.yul\":6039:6057   */\n      add\n        /* \"#utility.yul\":6032:6080   */\n      mstore\n        /* \"#utility.yul\":6097:6236   */\n      tag_150\n        /* \"#utility.yul\":6231:6235   */\n      dup2\n        /* \"#utility.yul\":6097:6236   */\n      tag_82\n      jump\t// in\n    tag_150:\n        /* \"#utility.yul\":6089:6236   */\n      swap1\n      pop\n        /* \"#utility.yul\":5552:6243   */\n      swap4\n      swap3\n      pop\n      pop\n      pop\n      jump\t// out\n        /* \"#utility.yul\":6249:6414   */\n    tag_83:\n        /* \"#utility.yul\":6389:6406   */\n      0x6e6f20736f6e20696775616c6573210000000000000000000000000000000000\n        /* \"#utility.yul\":6385:6386   */\n      0x00\n        /* \"#utility.yul\":6377:6383   */\n      dup3\n        /* \"#utility.yul\":6373:6387   */\n      add\n        /* \"#utility.yul\":6366:6407   */\n      mstore\n        /* \"#utility.yul\":6249:6414   */\n      pop\n      jump\t// out\n        /* \"#utility.yul\":6420:6802   */\n    tag_84:\n        /* \"#utility.yul\":6570:6573   */\n      0x00\n        /* \"#utility.yul\":6591:6666   */\n      tag_153\n        /* \"#utility.yul\":6663:6665   */\n      0x0f\n        /* \"#utility.yul\":6658:6661   */\n      dup4\n        /* \"#utility.yul\":6591:6666   */\n      tag_73\n      jump\t// in\n    tag_153:\n        /* \"#utility.yul\":6584:6666   */\n      swap2\n      pop\n        /* \"#utility.yul\":6675:6768   */\n      tag_154\n        /* \"#utility.yul\":6764:6767   */\n      dup3\n        /* \"#utility.yul\":6675:6768   */\n      tag_83\n      jump\t// in\n    tag_154:\n        /* \"#utility.yul\":6793:6795   */\n      0x20\n        /* \"#utility.yul\":6788:6791   */\n      dup3\n        /* \"#utility.yul\":6784:6796   */\n      add\n        /* \"#utility.yul\":6777:6796   */\n      swap1\n      pop\n        /* \"#utility.yul\":6420:6802   */\n      swap2\n      swap1\n      pop\n      jump\t// out\n        /* \"#utility.yul\":6808:7479   */\n    tag_55:\n        /* \"#utility.yul\":7038:7042   */\n      0x00\n        /* \"#utility.yul\":7076:7078   */\n      0x60\n        /* \"#utility.yul\":7065:7074   */\n      dup3\n        /* \"#utility.yul\":7061:7079   */\n      add\n        /* \"#utility.yul\":7053:7079   */\n      swap1\n      pop\n        /* \"#utility.yul\":7089:7168   */\n      tag_156\n        /* \"#utility.yul\":7165:7166   */\n      0x00\n        /* \"#utility.yul\":7154:7163   */\n      dup4\n        /* \"#utility.yul\":7150:7167   */\n      add\n        /* \"#utility.yul\":7141:7147   */\n      dup6\n        /* \"#utility.yul\":7089:7168   */\n      tag_71\n      jump\t// in\n    tag_156:\n        /* \"#utility.yul\":7178:7258   */\n      tag_157\n        /* \"#utility.yul\":7254:7256   */\n      0x20\n        /* \"#utility.yul\":7243:7252   */\n      dup4\n        /* \"#utility.yul\":7239:7257   */\n      add\n        /* \"#utility.yul\":7230:7236   */\n      dup5\n        /* \"#utility.yul\":7178:7258   */\n      tag_71\n      jump\t// in\n    tag_157:\n        /* \"#utility.yul\":7305:7314   */\n      dup2\n        /* \"#utility.yul\":7299:7303   */\n      dup2\n        /* \"#utility.yul\":7295:7315   */\n      sub\n        /* \"#utility.yul\":7290:7292   */\n      0x40\n        /* \"#utility.yul\":7279:7288   */\n      dup4\n        /* \"#utility.yul\":7275:7293   */\n      add\n        /* \"#utility.yul\":7268:7316   */\n      mstore\n        /* \"#utility.yul\":7333:7472   */\n      tag_158\n        /* \"#utility.yul\":7467:7471   */\n      dup2\n        /* \"#utility.yul\":7333:7472   */\n      tag_84\n      jump\t// in\n    tag_158:\n        /* \"#utility.yul\":7325:7472   */\n      swap1\n      pop\n        /* \"#utility.yul\":6808:7479   */\n      swap4\n      swap3\n      pop\n      pop\n      pop\n      jump\t// out\n    stop\n\n    sub_0: assembly {\n            /* \"sc/test_unidad/storage.sol\":58:320  contract SimpleStorage {... */\n          mstore(0x40, 0x80)\n            /* \"sc/test_unidad/storage.sol\":116:164  constructor()  {... */\n          callvalue\n          dup1\n          iszero\n          tag_1\n          jumpi\n          0x00\n          dup1\n          revert\n        tag_1:\n          pop\n            /* \"sc/test_unidad/storage.sol\":154:157  100 */\n          0x64\n            /* \"sc/test_unidad/storage.sol\":141:151  storedData */\n          0x00\n            /* \"sc/test_unidad/storage.sol\":141:157  storedData = 100 */\n          dup2\n          swap1\n          sstore\n          pop\n            /* \"sc/test_unidad/storage.sol\":58:320  contract SimpleStorage {... */\n          dataSize(sub_0)\n          dup1\n          dataOffset(sub_0)\n          0x00\n          codecopy\n          0x00\n          return\n        stop\n\n        sub_0: assembly {\n                /* \"sc/test_unidad/storage.sol\":58:320  contract SimpleStorage {... */\n              mstore(0x40, 0x80)\n              callvalue\n              dup1\n              iszero\n              tag_1\n              jumpi\n              0x00\n              dup1\n              revert\n            tag_1:\n              pop\n              jumpi(tag_2, lt(calldatasize, 0x04))\n              shr(0xe0, calldataload(0x00))\n              dup1\n              0x2a1afcd9\n              eq\n              tag_3\n              jumpi\n              dup1\n              0x60fe47b1\n              eq\n              tag_4\n              jumpi\n              dup1\n              0x6d4ce63c\n              eq\n              tag_5\n              jumpi\n            tag_2:\n              0x00\n              dup1\n              revert\n                /* \"sc/test_unidad/storage.sol\":87:109  uint public storedData */\n            tag_3:\n              tag_6\n              tag_7\n              jump\t// in\n            tag_6:\n              mload(0x40)\n              tag_8\n              swap2\n              swap1\n              tag_9\n              jump\t// in\n            tag_8:\n              mload(0x40)\n              dup1\n              swap2\n              sub\n              swap1\n              return\n                /* \"sc/test_unidad/storage.sol\":170:229  function set(uint x) public {... */\n            tag_4:\n              tag_10\n              0x04\n              dup1\n              calldatasize\n              sub\n              dup2\n              add\n              swap1\n              tag_11\n              swap2\n              swap1\n              tag_12\n              jump\t// in\n            tag_11:\n              tag_13\n              jump\t// in\n            tag_10:\n              stop\n                /* \"sc/test_unidad/storage.sol\":235:318  function get() public view returns (uint retVal) {... */\n            tag_5:\n              tag_14\n              tag_15\n              jump\t// in\n            tag_14:\n              mload(0x40)\n              tag_16\n              swap2\n              swap1\n              tag_9\n              jump\t// in\n            tag_16:\n              mload(0x40)\n              dup1\n              swap2\n              sub\n              swap1\n              return\n                /* \"sc/test_unidad/storage.sol\":87:109  uint public storedData */\n            tag_7:\n              sload(0x00)\n              dup2\n              jump\t// out\n                /* \"sc/test_unidad/storage.sol\":170:229  function set(uint x) public {... */\n            tag_13:\n                /* \"sc/test_unidad/storage.sol\":221:222  x */\n              dup1\n                /* \"sc/test_unidad/storage.sol\":208:218  storedData */\n              0x00\n                /* \"sc/test_unidad/storage.sol\":208:222  storedData = x */\n              dup2\n              swap1\n              sstore\n              pop\n                /* \"sc/test_unidad/storage.sol\":170:229  function set(uint x) public {... */\n              pop\n              jump\t// out\n                /* \"sc/test_unidad/storage.sol\":235:318  function get() public view returns (uint retVal) {... */\n            tag_15:\n                /* \"sc/test_unidad/storage.sol\":271:282  uint retVal */\n              0x00\n                /* \"sc/test_unidad/storage.sol\":301:311  storedData */\n              dup1\n              sload\n                /* \"sc/test_unidad/storage.sol\":294:311  return storedData */\n              swap1\n              pop\n                /* \"sc/test_unidad/storage.sol\":235:318  function get() public view returns (uint retVal) {... */\n              swap1\n              jump\t// out\n                /* \"#utility.yul\":7:84   */\n            tag_19:\n                /* \"#utility.yul\":44:51   */\n              0x00\n                /* \"#utility.yul\":73:78   */\n              dup2\n                /* \"#utility.yul\":62:78   */\n              swap1\n              pop\n                /* \"#utility.yul\":7:84   */\n              swap2\n              swap1\n              pop\n              jump\t// out\n                /* \"#utility.yul\":90:208   */\n            tag_20:\n                /* \"#utility.yul\":177:201   */\n              tag_29\n                /* \"#utility.yul\":195:200   */\n              dup2\n                /* \"#utility.yul\":177:201   */\n              tag_19\n              jump\t// in\n            tag_29:\n                /* \"#utility.yul\":172:175   */\n              dup3\n                /* \"#utility.yul\":165:202   */\n              mstore\n                /* \"#utility.yul\":90:208   */\n              pop\n              pop\n              jump\t// out\n                /* \"#utility.yul\":214:436   */\n            tag_9:\n                /* \"#utility.yul\":307:311   */\n              0x00\n                /* \"#utility.yul\":345:347   */\n              0x20\n                /* \"#utility.yul\":334:343   */\n              dup3\n                /* \"#utility.yul\":330:348   */\n              add\n                /* \"#utility.yul\":322:348   */\n              swap1\n              pop\n                /* \"#utility.yul\":358:429   */\n              tag_31\n                /* \"#utility.yul\":426:427   */\n              0x00\n                /* \"#utility.yul\":415:424   */\n              dup4\n                /* \"#utility.yul\":411:428   */\n              add\n                /* \"#utility.yul\":402:408   */\n              dup5\n                /* \"#utility.yul\":358:429   */\n              tag_20\n              jump\t// in\n            tag_31:\n                /* \"#utility.yul\":214:436   */\n              swap3\n              swap2\n              pop\n              pop\n              jump\t// out\n                /* \"#utility.yul\":523:640   */\n            tag_22:\n                /* \"#utility.yul\":632:633   */\n              0x00\n                /* \"#utility.yul\":629:630   */\n              dup1\n                /* \"#utility.yul\":622:634   */\n              revert\n                /* \"#utility.yul\":769:891   */\n            tag_24:\n                /* \"#utility.yul\":842:866   */\n              tag_36\n                /* \"#utility.yul\":860:865   */\n              dup2\n                /* \"#utility.yul\":842:866   */\n              tag_19\n              jump\t// in\n            tag_36:\n                /* \"#utility.yul\":835:840   */\n              dup2\n                /* \"#utility.yul\":832:867   */\n              eq\n                /* \"#utility.yul\":822:885   */\n              tag_37\n              jumpi\n                /* \"#utility.yul\":881:882   */\n              0x00\n                /* \"#utility.yul\":878:879   */\n              dup1\n                /* \"#utility.yul\":871:883   */\n              revert\n                /* \"#utility.yul\":822:885   */\n            tag_37:\n                /* \"#utility.yul\":769:891   */\n              pop\n              jump\t// out\n                /* \"#utility.yul\":897:1036   */\n            tag_25:\n                /* \"#utility.yul\":943:948   */\n              0x00\n                /* \"#utility.yul\":981:987   */\n              dup2\n                /* \"#utility.yul\":968:988   */\n              calldataload\n                /* \"#utility.yul\":959:988   */\n              swap1\n              pop\n                /* \"#utility.yul\":997:1030   */\n              tag_39\n                /* \"#utility.yul\":1024:1029   */\n              dup2\n                /* \"#utility.yul\":997:1030   */\n              tag_24\n              jump\t// in\n            tag_39:\n                /* \"#utility.yul\":897:1036   */\n              swap3\n              swap2\n              pop\n              pop\n              jump\t// out\n                /* \"#utility.yul\":1042:1371   */\n            tag_12:\n                /* \"#utility.yul\":1101:1107   */\n              0x00\n                /* \"#utility.yul\":1150:1152   */\n              0x20\n                /* \"#utility.yul\":1138:1147   */\n              dup3\n                /* \"#utility.yul\":1129:1136   */\n              dup5\n                /* \"#utility.yul\":1125:1148   */\n              sub\n                /* \"#utility.yul\":1121:1153   */\n              slt\n                /* \"#utility.yul\":1118:1237   */\n              iszero\n              tag_41\n              jumpi\n                /* \"#utility.yul\":1156:1235   */\n              tag_42\n              tag_22\n              jump\t// in\n            tag_42:\n                /* \"#utility.yul\":1118:1237   */\n            tag_41:\n                /* \"#utility.yul\":1276:1277   */\n              0x00\n                /* \"#utility.yul\":1301:1354   */\n              tag_43\n                /* \"#utility.yul\":1346:1353   */\n              dup5\n                /* \"#utility.yul\":1337:1343   */\n              dup3\n                /* \"#utility.yul\":1326:1335   */\n              dup6\n                /* \"#utility.yul\":1322:1344   */\n              add\n                /* \"#utility.yul\":1301:1354   */\n              tag_25\n              jump\t// in\n            tag_43:\n                /* \"#utility.yul\":1291:1354   */\n              swap2\n              pop\n                /* \"#utility.yul\":1247:1364   */\n              pop\n                /* \"#utility.yul\":1042:1371   */\n              swap3\n              swap2\n              pop\n              pop\n              jump\t// out\n\n            auxdata: 0xa2646970667358221220033d9a8625ebb540dfb84307b8394217eda5c549c9daa899ead4993906ea449564736f6c63430008140033\n        }\n    }\n\n    auxdata: 0xa2646970667358221220bf7664de53c52760fd3e14344735f663441fefe17fe2584605b964ef8e9e1f6364736f6c63430008140033\n}\n",
				"bytecode": {
					"linkReferences": {
						"remix_tests.sol": {
							"Assert": [
								{
									"length": 20,
									"start": 469
								},
								{
									"length": 20,
									"start": 842
								},
								{
									"length": 20,
									"start": 1255
								}
							]
						}
					},
					"object": "608060405234801561000f575f80fd5b50610a578061001d5f395ff3fe608060405234801561000f575f80fd5b506004361061004a575f3560e01c80633e1d69281461004e5780637fea0d4b1461006c578063c375474214610076578063e507fffc14610080575b5f80fd5b61005661009e565b604051610063919061056e565b60405180910390f35b610074610235565b005b61007e61029b565b005b6100886103a8565b604051610095919061056e565b60405180910390f35b5f805f9054906101000a900473ffffffffffffffffffffffffffffffffffffffff1673ffffffffffffffffffffffffffffffffffffffff166360fe47b160c86040518263ffffffff1660e01b81526004016100f991906105d2565b5f604051808303815f87803b158015610110575f80fd5b505af1158015610122573d5f803e3d5ffd5b505050505f805f9054906101000a900473ffffffffffffffffffffffffffffffffffffffff1673ffffffffffffffffffffffffffffffffffffffff16636d4ce63c6040518163ffffffff1660e01b8152600401602060405180830381865afa158015610190573d5f803e3d5ffd5b505050506040513d601f19601f820116820180604052508101906101b49190610619565b905073__$acbfb1c35000d78352310b16a054a6b106$__63abcd79608260c86040518363ffffffff1660e01b81526004016101f09291906106bc565b602060405180830381865af415801561020b573d5f803e3d5ffd5b505050506040513d601f19601f8201168201806040525081019061022f9190610720565b91505090565b60405161024190610547565b604051809103905ff08015801561025a573d5f803e3d5ffd5b505f806101000a81548173ffffffffffffffffffffffffffffffffffffffff021916908373ffffffffffffffffffffffffffffffffffffffff160217905550565b5f805f9054906101000a900473ffffffffffffffffffffffffffffffffffffffff1673ffffffffffffffffffffffffffffffffffffffff16636d4ce63c6040518163ffffffff1660e01b8152600401602060405180830381865afa158015610305573d5f803e3d5ffd5b505050506040513d601f19601f820116820180604052508101906103299190610619565b905073__$acbfb1c35000d78352310b16a054a6b106$__63abcd79608260646040518363ffffffff1660e01b81526004016103659291906107ce565b602060405180830381865af4158015610380573d5f803e3d5ffd5b505050506040513d601f19601f820116820180604052508101906103a49190610720565b5050565b5f805f8054906101000a900473ffffffffffffffffffffffffffffffffffffffff1673ffffffffffffffffffffffffffffffffffffffff16636d4ce63c6040518163ffffffff1660e01b8152600401602060405180830381865afa158015610412573d5f803e3d5ffd5b505050506040513d601f19601f820116820180604052508101906104369190610619565b90505f805f9054906101000a900473ffffffffffffffffffffffffffffffffffffffff1673ffffffffffffffffffffffffffffffffffffffff16632a1afcd96040518163ffffffff1660e01b8152600401602060405180830381865afa1580156104a2573d5f803e3d5ffd5b505050506040513d601f19601f820116820180604052508101906104c69190610619565b905073__$acbfb1c35000d78352310b16a054a6b106$__63abcd796083836040518363ffffffff1660e01b8152600401610501929190610852565b602060405180830381865af415801561051c573d5f803e3d5ffd5b505050506040513d601f19601f820116820180604052508101906105409190610720565b9250505090565b6101958061088d83390190565b5f8115159050919050565b61056881610554565b82525050565b5f6020820190506105815f83018461055f565b92915050565b5f819050919050565b5f819050919050565b5f819050919050565b5f6105bc6105b76105b284610587565b610599565b610590565b9050919050565b6105cc816105a2565b82525050565b5f6020820190506105e55f8301846105c3565b92915050565b5f80fd5b6105f881610590565b8114610602575f80fd5b50565b5f81519050610613816105ef565b92915050565b5f6020828403121561062e5761062d6105eb565b5b5f61063b84828501610605565b91505092915050565b61064d81610590565b82525050565b61065c816105a2565b82525050565b5f82825260208201905092915050565b7f6e6f2065732032303000000000000000000000000000000000000000000000005f82015250565b5f6106a6600983610662565b91506106b182610672565b602082019050919050565b5f6060820190506106cf5f830185610644565b6106dc6020830184610653565b81810360408301526106ed8161069a565b90509392505050565b6106ff81610554565b8114610709575f80fd5b50565b5f8151905061071a816106f6565b92915050565b5f60208284031215610735576107346105eb565b5b5f6107428482850161070c565b91505092915050565b5f819050919050565b5f61076e6107696107648461074b565b610599565b610590565b9050919050565b61077e81610754565b82525050565b7f656c2076616c6f7220696e696369616c206e6f206573203130302100000000005f82015250565b5f6107b8601b83610662565b91506107c382610784565b602082019050919050565b5f6060820190506107e15f830185610644565b6107ee6020830184610775565b81810360408301526107ff816107ac565b90509392505050565b7f6e6f20736f6e20696775616c65732100000000000000000000000000000000005f82015250565b5f61083c600f83610662565b915061084782610808565b602082019050919050565b5f6060820190506108655f830185610644565b6108726020830184610644565b818103604083015261088381610830565b9050939250505056fe608060405234801561000f575f80fd5b5060645f81905550610171806100245f395ff3fe608060405234801561000f575f80fd5b506004361061003f575f3560e01c80632a1afcd91461004357806360fe47b1146100615780636d4ce63c1461007d575b5f80fd5b61004b61009b565b60405161005891906100c9565b60405180910390f35b61007b60048036038101906100769190610110565b6100a0565b005b6100856100a9565b60405161009291906100c9565b60405180910390f35b5f5481565b805f8190555050565b5f8054905090565b5f819050919050565b6100c3816100b1565b82525050565b5f6020820190506100dc5f8301846100ba565b92915050565b5f80fd5b6100ef816100b1565b81146100f9575f80fd5b50565b5f8135905061010a816100e6565b92915050565b5f60208284031215610125576101246100e2565b5b5f610132848285016100fc565b9150509291505056fea2646970667358221220033d9a8625ebb540dfb84307b8394217eda5c549c9daa899ead4993906ea449564736f6c63430008140033a2646970667358221220bf7664de53c52760fd3e14344735f663441fefe17fe2584605b964ef8e9e1f6364736f6c63430008140033",
					"opcodes": "PUSH1 0x80 PUSH1 0x40 MSTORE CALLVALUE DUP1 ISZERO PUSH2 0xF JUMPI PUSH0 DUP1 REVERT JUMPDEST POP PUSH2 0xA57 DUP1 PUSH2 0x1D PUSH0 CODECOPY PUSH0 RETURN INVALID PUSH1 0x80 PUSH1 0x40 MSTORE CALLVALUE DUP1 ISZERO PUSH2 0xF JUMPI PUSH0 DUP1 REVERT JUMPDEST POP PUSH1 0x4 CALLDATASIZE LT PUSH2 0x4A JUMPI PUSH0 CALLDATALOAD PUSH1 0xE0 SHR DUP1 PUSH4 0x3E1D6928 EQ PUSH2 0x4E JUMPI DUP1 PUSH4 0x7FEA0D4B EQ PUSH2 0x6C JUMPI DUP1 PUSH4 0xC3754742 EQ PUSH2 0x76 JUMPI DUP1 PUSH4 0xE507FFFC EQ PUSH2 0x80 JUMPI JUMPDEST PUSH0 DUP1 REVERT JUMPDEST PUSH2 0x56 PUSH2 0x9E JUMP JUMPDEST PUSH1 0x40 MLOAD PUSH2 0x63 SWAP2 SWAP1 PUSH2 0x56E JUMP JUMPDEST PUSH1 0x40 MLOAD DUP1 SWAP2 SUB SWAP1 RETURN JUMPDEST PUSH2 0x74 PUSH2 0x235 JUMP JUMPDEST STOP JUMPDEST PUSH2 0x7E PUSH2 0x29B JUMP JUMPDEST STOP JUMPDEST PUSH2 0x88 PUSH2 0x3A8 JUMP JUMPDEST PUSH1 0x40 MLOAD PUSH2 0x95 SWAP2 SWAP1 PUSH2 0x56E JUMP JUMPDEST PUSH1 0x40 MLOAD DUP1 SWAP2 SUB SWAP1 RETURN JUMPDEST PUSH0 DUP1 PUSH0 SWAP1 SLOAD SWAP1 PUSH2 0x100 EXP SWAP1 DIV PUSH20 0xFFFFFFFFFFFFFFFFFFFFFFFFFFFFFFFFFFFFFFFF AND PUSH20 0xFFFFFFFFFFFFFFFFFFFFFFFFFFFFFFFFFFFFFFFF AND PUSH4 0x60FE47B1 PUSH1 0xC8 PUSH1 0x40 MLOAD DUP3 PUSH4 0xFFFFFFFF AND PUSH1 0xE0 SHL DUP2 MSTORE PUSH1 0x4 ADD PUSH2 0xF9 SWAP2 SWAP1 PUSH2 0x5D2 JUMP JUMPDEST PUSH0 PUSH1 0x40 MLOAD DUP1 DUP4 SUB DUP2 PUSH0 DUP8 DUP1 EXTCODESIZE ISZERO DUP1 ISZERO PUSH2 0x110 JUMPI PUSH0 DUP1 REVERT JUMPDEST POP GAS CALL ISZERO DUP1 ISZERO PUSH2 0x122 JUMPI RETURNDATASIZE PUSH0 DUP1 RETURNDATACOPY RETURNDATASIZE PUSH0 REVERT JUMPDEST POP POP POP POP PUSH0 DUP1 PUSH0 SWAP1 SLOAD SWAP1 PUSH2 0x100 EXP SWAP1 DIV PUSH20 0xFFFFFFFFFFFFFFFFFFFFFFFFFFFFFFFFFFFFFFFF AND PUSH20 0xFFFFFFFFFFFFFFFFFFFFFFFFFFFFFFFFFFFFFFFF AND PUSH4 0x6D4CE63C PUSH1 0x40 MLOAD DUP2 PUSH4 0xFFFFFFFF AND PUSH1 0xE0 SHL DUP2 MSTORE PUSH1 0x4 ADD PUSH1 0x20 PUSH1 0x40 MLOAD DUP1 DUP4 SUB DUP2 DUP7 GAS STATICCALL ISZERO DUP1 ISZERO PUSH2 0x190 JUMPI RETURNDATASIZE PUSH0 DUP1 RETURNDATACOPY RETURNDATASIZE PUSH0 REVERT JUMPDEST POP POP POP POP PUSH1 0x40 MLOAD RETURNDATASIZE PUSH1 0x1F NOT PUSH1 0x1F DUP3 ADD AND DUP3 ADD DUP1 PUSH1 0x40 MSTORE POP DUP2 ADD SWAP1 PUSH2 0x1B4 SWAP2 SWAP1 PUSH2 0x619 JUMP JUMPDEST SWAP1 POP PUSH20 0x0 PUSH4 0xABCD7960 DUP3 PUSH1 0xC8 PUSH1 0x40 MLOAD DUP4 PUSH4 0xFFFFFFFF AND PUSH1 0xE0 SHL DUP2 MSTORE PUSH1 0x4 ADD PUSH2 0x1F0 SWAP3 SWAP2 SWAP1 PUSH2 0x6BC JUMP JUMPDEST PUSH1 0x20 PUSH1 0x40 MLOAD DUP1 DUP4 SUB DUP2 DUP7 GAS DELEGATECALL ISZERO DUP1 ISZERO PUSH2 0x20B JUMPI RETURNDATASIZE PUSH0 DUP1 RETURNDATACOPY RETURNDATASIZE PUSH0 REVERT JUMPDEST POP POP POP POP PUSH1 0x40 MLOAD RETURNDATASIZE PUSH1 0x1F NOT PUSH1 0x1F DUP3 ADD AND DUP3 ADD DUP1 PUSH1 0x40 MSTORE POP DUP2 ADD SWAP1 PUSH2 0x22F SWAP2 SWAP1 PUSH2 0x720 JUMP JUMPDEST SWAP2 POP POP SWAP1 JUMP JUMPDEST PUSH1 0x40 MLOAD PUSH2 0x241 SWAP1 PUSH2 0x547 JUMP JUMPDEST PUSH1 0x40 MLOAD DUP1 SWAP2 SUB SWAP1 PUSH0 CREATE DUP1 ISZERO DUP1 ISZERO PUSH2 0x25A JUMPI RETURNDATASIZE PUSH0 DUP1 RETURNDATACOPY RETURNDATASIZE PUSH0 REVERT JUMPDEST POP PUSH0 DUP1 PUSH2 0x100 EXP DUP2 SLOAD DUP2 PUSH20 0xFFFFFFFFFFFFFFFFFFFFFFFFFFFFFFFFFFFFFFFF MUL NOT AND SWAP1 DUP4 PUSH20 0xFFFFFFFFFFFFFFFFFFFFFFFFFFFFFFFFFFFFFFFF AND MUL OR SWAP1 SSTORE POP JUMP JUMPDEST PUSH0 DUP1 PUSH0 SWAP1 SLOAD SWAP1 PUSH2 0x100 EXP SWAP1 DIV PUSH20 0xFFFFFFFFFFFFFFFFFFFFFFFFFFFFFFFFFFFFFFFF AND PUSH20 0xFFFFFFFFFFFFFFFFFFFFFFFFFFFFFFFFFFFFFFFF AND PUSH4 0x6D4CE63C PUSH1 0x40 MLOAD DUP2 PUSH4 0xFFFFFFFF AND PUSH1 0xE0 SHL DUP2 MSTORE PUSH1 0x4 ADD PUSH1 0x20 PUSH1 0x40 MLOAD DUP1 DUP4 SUB DUP2 DUP7 GAS STATICCALL ISZERO DUP1 ISZERO PUSH2 0x305 JUMPI RETURNDATASIZE PUSH0 DUP1 RETURNDATACOPY RETURNDATASIZE PUSH0 REVERT JUMPDEST POP POP POP POP PUSH1 0x40 MLOAD RETURNDATASIZE PUSH1 0x1F NOT PUSH1 0x1F DUP3 ADD AND DUP3 ADD DUP1 PUSH1 0x40 MSTORE POP DUP2 ADD SWAP1 PUSH2 0x329 SWAP2 SWAP1 PUSH2 0x619 JUMP JUMPDEST SWAP1 POP PUSH20 0x0 PUSH4 0xABCD7960 DUP3 PUSH1 0x64 PUSH1 0x40 MLOAD DUP4 PUSH4 0xFFFFFFFF AND PUSH1 0xE0 SHL DUP2 MSTORE PUSH1 0x4 ADD PUSH2 0x365 SWAP3 SWAP2 SWAP1 PUSH2 0x7CE JUMP JUMPDEST PUSH1 0x20 PUSH1 0x40 MLOAD DUP1 DUP4 SUB DUP2 DUP7 GAS DELEGATECALL ISZERO DUP1 ISZERO PUSH2 0x380 JUMPI RETURNDATASIZE PUSH0 DUP1 RETURNDATACOPY RETURNDATASIZE PUSH0 REVERT JUMPDEST POP POP POP POP PUSH1 0x40 MLOAD RETURNDATASIZE PUSH1 0x1F NOT PUSH1 0x1F DUP3 ADD AND DUP3 ADD DUP1 PUSH1 0x40 MSTORE POP DUP2 ADD SWAP1 PUSH2 0x3A4 SWAP2 SWAP1 PUSH2 0x720 JUMP JUMPDEST POP POP JUMP JUMPDEST PUSH0 DUP1 PUSH0 DUP1 SLOAD SWAP1 PUSH2 0x100 EXP SWAP1 DIV PUSH20 0xFFFFFFFFFFFFFFFFFFFFFFFFFFFFFFFFFFFFFFFF AND PUSH20 0xFFFFFFFFFFFFFFFFFFFFFFFFFFFFFFFFFFFFFFFF AND PUSH4 0x6D4CE63C PUSH1 0x40 MLOAD DUP2 PUSH4 0xFFFFFFFF AND PUSH1 0xE0 SHL DUP2 MSTORE PUSH1 0x4 ADD PUSH1 0x20 PUSH1 0x40 MLOAD DUP1 DUP4 SUB DUP2 DUP7 GAS STATICCALL ISZERO DUP1 ISZERO PUSH2 0x412 JUMPI RETURNDATASIZE PUSH0 DUP1 RETURNDATACOPY RETURNDATASIZE PUSH0 REVERT JUMPDEST POP POP POP POP PUSH1 0x40 MLOAD RETURNDATASIZE PUSH1 0x1F NOT PUSH1 0x1F DUP3 ADD AND DUP3 ADD DUP1 PUSH1 0x40 MSTORE POP DUP2 ADD SWAP1 PUSH2 0x436 SWAP2 SWAP1 PUSH2 0x619 JUMP JUMPDEST SWAP1 POP PUSH0 DUP1 PUSH0 SWAP1 SLOAD SWAP1 PUSH2 0x100 EXP SWAP1 DIV PUSH20 0xFFFFFFFFFFFFFFFFFFFFFFFFFFFFFFFFFFFFFFFF AND PUSH20 0xFFFFFFFFFFFFFFFFFFFFFFFFFFFFFFFFFFFFFFFF AND PUSH4 0x2A1AFCD9 PUSH1 0x40 MLOAD DUP2 PUSH4 0xFFFFFFFF AND PUSH1 0xE0 SHL DUP2 MSTORE PUSH1 0x4 ADD PUSH1 0x20 PUSH1 0x40 MLOAD DUP1 DUP4 SUB DUP2 DUP7 GAS STATICCALL ISZERO DUP1 ISZERO PUSH2 0x4A2 JUMPI RETURNDATASIZE PUSH0 DUP1 RETURNDATACOPY RETURNDATASIZE PUSH0 REVERT JUMPDEST POP POP POP POP PUSH1 0x40 MLOAD RETURNDATASIZE PUSH1 0x1F NOT PUSH1 0x1F DUP3 ADD AND DUP3 ADD DUP1 PUSH1 0x40 MSTORE POP DUP2 ADD SWAP1 PUSH2 0x4C6 SWAP2 SWAP1 PUSH2 0x619 JUMP JUMPDEST SWAP1 POP PUSH20 0x0 PUSH4 0xABCD7960 DUP4 DUP4 PUSH1 0x40 MLOAD DUP4 PUSH4 0xFFFFFFFF AND PUSH1 0xE0 SHL DUP2 MSTORE PUSH1 0x4 ADD PUSH2 0x501 SWAP3 SWAP2 SWAP1 PUSH2 0x852 JUMP JUMPDEST PUSH1 0x20 PUSH1 0x40 MLOAD DUP1 DUP4 SUB DUP2 DUP7 GAS DELEGATECALL ISZERO DUP1 ISZERO PUSH2 0x51C JUMPI RETURNDATASIZE PUSH0 DUP1 RETURNDATACOPY RETURNDATASIZE PUSH0 REVERT JUMPDEST POP POP POP POP PUSH1 0x40 MLOAD RETURNDATASIZE PUSH1 0x1F NOT PUSH1 0x1F DUP3 ADD AND DUP3 ADD DUP1 PUSH1 0x40 MSTORE POP DUP2 ADD SWAP1 PUSH2 0x540 SWAP2 SWAP1 PUSH2 0x720 JUMP JUMPDEST SWAP3 POP POP POP SWAP1 JUMP JUMPDEST PUSH2 0x195 DUP1 PUSH2 0x88D DUP4 CODECOPY ADD SWAP1 JUMP JUMPDEST PUSH0 DUP2 ISZERO ISZERO SWAP1 POP SWAP2 SWAP1 POP JUMP JUMPDEST PUSH2 0x568 DUP2 PUSH2 0x554 JUMP JUMPDEST DUP3 MSTORE POP POP JUMP JUMPDEST PUSH0 PUSH1 0x20 DUP3 ADD SWAP1 POP PUSH2 0x581 PUSH0 DUP4 ADD DUP5 PUSH2 0x55F JUMP JUMPDEST SWAP3 SWAP2 POP POP JUMP JUMPDEST PUSH0 DUP2 SWAP1 POP SWAP2 SWAP1 POP JUMP JUMPDEST PUSH0 DUP2 SWAP1 POP SWAP2 SWAP1 POP JUMP JUMPDEST PUSH0 DUP2 SWAP1 POP SWAP2 SWAP1 POP JUMP JUMPDEST PUSH0 PUSH2 0x5BC PUSH2 0x5B7 PUSH2 0x5B2 DUP5 PUSH2 0x587 JUMP JUMPDEST PUSH2 0x599 JUMP JUMPDEST PUSH2 0x590 JUMP JUMPDEST SWAP1 POP SWAP2 SWAP1 POP JUMP JUMPDEST PUSH2 0x5CC DUP2 PUSH2 0x5A2 JUMP JUMPDEST DUP3 MSTORE POP POP JUMP JUMPDEST PUSH0 PUSH1 0x20 DUP3 ADD SWAP1 POP PUSH2 0x5E5 PUSH0 DUP4 ADD DUP5 PUSH2 0x5C3 JUMP JUMPDEST SWAP3 SWAP2 POP POP JUMP JUMPDEST PUSH0 DUP1 REVERT JUMPDEST PUSH2 0x5F8 DUP2 PUSH2 0x590 JUMP JUMPDEST DUP2 EQ PUSH2 0x602 JUMPI PUSH0 DUP1 REVERT JUMPDEST POP JUMP JUMPDEST PUSH0 DUP2 MLOAD SWAP1 POP PUSH2 0x613 DUP2 PUSH2 0x5EF JUMP JUMPDEST SWAP3 SWAP2 POP POP JUMP JUMPDEST PUSH0 PUSH1 0x20 DUP3 DUP5 SUB SLT ISZERO PUSH2 0x62E JUMPI PUSH2 0x62D PUSH2 0x5EB JUMP JUMPDEST JUMPDEST PUSH0 PUSH2 0x63B DUP5 DUP3 DUP6 ADD PUSH2 0x605 JUMP JUMPDEST SWAP2 POP POP SWAP3 SWAP2 POP POP JUMP JUMPDEST PUSH2 0x64D DUP2 PUSH2 0x590 JUMP JUMPDEST DUP3 MSTORE POP POP JUMP JUMPDEST PUSH2 0x65C DUP2 PUSH2 0x5A2 JUMP JUMPDEST DUP3 MSTORE POP POP JUMP JUMPDEST PUSH0 DUP3 DUP3 MSTORE PUSH1 0x20 DUP3 ADD SWAP1 POP SWAP3 SWAP2 POP POP JUMP JUMPDEST PUSH32 0x6E6F206573203230300000000000000000000000000000000000000000000000 PUSH0 DUP3 ADD MSTORE POP JUMP JUMPDEST PUSH0 PUSH2 0x6A6 PUSH1 0x9 DUP4 PUSH2 0x662 JUMP JUMPDEST SWAP2 POP PUSH2 0x6B1 DUP3 PUSH2 0x672 JUMP JUMPDEST PUSH1 0x20 DUP3 ADD SWAP1 POP SWAP2 SWAP1 POP JUMP JUMPDEST PUSH0 PUSH1 0x60 DUP3 ADD SWAP1 POP PUSH2 0x6CF PUSH0 DUP4 ADD DUP6 PUSH2 0x644 JUMP JUMPDEST PUSH2 0x6DC PUSH1 0x20 DUP4 ADD DUP5 PUSH2 0x653 JUMP JUMPDEST DUP2 DUP2 SUB PUSH1 0x40 DUP4 ADD MSTORE PUSH2 0x6ED DUP2 PUSH2 0x69A JUMP JUMPDEST SWAP1 POP SWAP4 SWAP3 POP POP POP JUMP JUMPDEST PUSH2 0x6FF DUP2 PUSH2 0x554 JUMP JUMPDEST DUP2 EQ PUSH2 0x709 JUMPI PUSH0 DUP1 REVERT JUMPDEST POP JUMP JUMPDEST PUSH0 DUP2 MLOAD SWAP1 POP PUSH2 0x71A DUP2 PUSH2 0x6F6 JUMP JUMPDEST SWAP3 SWAP2 POP POP JUMP JUMPDEST PUSH0 PUSH1 0x20 DUP3 DUP5 SUB SLT ISZERO PUSH2 0x735 JUMPI PUSH2 0x734 PUSH2 0x5EB JUMP JUMPDEST JUMPDEST PUSH0 PUSH2 0x742 DUP5 DUP3 DUP6 ADD PUSH2 0x70C JUMP JUMPDEST SWAP2 POP POP SWAP3 SWAP2 POP POP JUMP JUMPDEST PUSH0 DUP2 SWAP1 POP SWAP2 SWAP1 POP JUMP JUMPDEST PUSH0 PUSH2 0x76E PUSH2 0x769 PUSH2 0x764 DUP5 PUSH2 0x74B JUMP JUMPDEST PUSH2 0x599 JUMP JUMPDEST PUSH2 0x590 JUMP JUMPDEST SWAP1 POP SWAP2 SWAP1 POP JUMP JUMPDEST PUSH2 0x77E DUP2 PUSH2 0x754 JUMP JUMPDEST DUP3 MSTORE POP POP JUMP JUMPDEST PUSH32 0x656C2076616C6F7220696E696369616C206E6F20657320313030210000000000 PUSH0 DUP3 ADD MSTORE POP JUMP JUMPDEST PUSH0 PUSH2 0x7B8 PUSH1 0x1B DUP4 PUSH2 0x662 JUMP JUMPDEST SWAP2 POP PUSH2 0x7C3 DUP3 PUSH2 0x784 JUMP JUMPDEST PUSH1 0x20 DUP3 ADD SWAP1 POP SWAP2 SWAP1 POP JUMP JUMPDEST PUSH0 PUSH1 0x60 DUP3 ADD SWAP1 POP PUSH2 0x7E1 PUSH0 DUP4 ADD DUP6 PUSH2 0x644 JUMP JUMPDEST PUSH2 0x7EE PUSH1 0x20 DUP4 ADD DUP5 PUSH2 0x775 JUMP JUMPDEST DUP2 DUP2 SUB PUSH1 0x40 DUP4 ADD MSTORE PUSH2 0x7FF DUP2 PUSH2 0x7AC JUMP JUMPDEST SWAP1 POP SWAP4 SWAP3 POP POP POP JUMP JUMPDEST PUSH32 0x6E6F20736F6E20696775616C6573210000000000000000000000000000000000 PUSH0 DUP3 ADD MSTORE POP JUMP JUMPDEST PUSH0 PUSH2 0x83C PUSH1 0xF DUP4 PUSH2 0x662 JUMP JUMPDEST SWAP2 POP PUSH2 0x847 DUP3 PUSH2 0x808 JUMP JUMPDEST PUSH1 0x20 DUP3 ADD SWAP1 POP SWAP2 SWAP1 POP JUMP JUMPDEST PUSH0 PUSH1 0x60 DUP3 ADD SWAP1 POP PUSH2 0x865 PUSH0 DUP4 ADD DUP6 PUSH2 0x644 JUMP JUMPDEST PUSH2 0x872 PUSH1 0x20 DUP4 ADD DUP5 PUSH2 0x644 JUMP JUMPDEST DUP2 DUP2 SUB PUSH1 0x40 DUP4 ADD MSTORE PUSH2 0x883 DUP2 PUSH2 0x830 JUMP JUMPDEST SWAP1 POP SWAP4 SWAP3 POP POP POP JUMP INVALID PUSH1 0x80 PUSH1 0x40 MSTORE CALLVALUE DUP1 ISZERO PUSH2 0xF JUMPI PUSH0 DUP1 REVERT JUMPDEST POP PUSH1 0x64 PUSH0 DUP2 SWAP1 SSTORE POP PUSH2 0x171 DUP1 PUSH2 0x24 PUSH0 CODECOPY PUSH0 RETURN INVALID PUSH1 0x80 PUSH1 0x40 MSTORE CALLVALUE DUP1 ISZERO PUSH2 0xF JUMPI PUSH0 DUP1 REVERT JUMPDEST POP PUSH1 0x4 CALLDATASIZE LT PUSH2 0x3F JUMPI PUSH0 CALLDATALOAD PUSH1 0xE0 SHR DUP1 PUSH4 0x2A1AFCD9 EQ PUSH2 0x43 JUMPI DUP1 PUSH4 0x60FE47B1 EQ PUSH2 0x61 JUMPI DUP1 PUSH4 0x6D4CE63C EQ PUSH2 0x7D JUMPI JUMPDEST PUSH0 DUP1 REVERT JUMPDEST PUSH2 0x4B PUSH2 0x9B JUMP JUMPDEST PUSH1 0x40 MLOAD PUSH2 0x58 SWAP2 SWAP1 PUSH2 0xC9 JUMP JUMPDEST PUSH1 0x40 MLOAD DUP1 SWAP2 SUB SWAP1 RETURN JUMPDEST PUSH2 0x7B PUSH1 0x4 DUP1 CALLDATASIZE SUB DUP2 ADD SWAP1 PUSH2 0x76 SWAP2 SWAP1 PUSH2 0x110 JUMP JUMPDEST PUSH2 0xA0 JUMP JUMPDEST STOP JUMPDEST PUSH2 0x85 PUSH2 0xA9 JUMP JUMPDEST PUSH1 0x40 MLOAD PUSH2 0x92 SWAP2 SWAP1 PUSH2 0xC9 JUMP JUMPDEST PUSH1 0x40 MLOAD DUP1 SWAP2 SUB SWAP1 RETURN JUMPDEST PUSH0 SLOAD DUP2 JUMP JUMPDEST DUP1 PUSH0 DUP2 SWAP1 SSTORE POP POP JUMP JUMPDEST PUSH0 DUP1 SLOAD SWAP1 POP SWAP1 JUMP JUMPDEST PUSH0 DUP2 SWAP1 POP SWAP2 SWAP1 POP JUMP JUMPDEST PUSH2 0xC3 DUP2 PUSH2 0xB1 JUMP JUMPDEST DUP3 MSTORE POP POP JUMP JUMPDEST PUSH0 PUSH1 0x20 DUP3 ADD SWAP1 POP PUSH2 0xDC PUSH0 DUP4 ADD DUP5 PUSH2 0xBA JUMP JUMPDEST SWAP3 SWAP2 POP POP JUMP JUMPDEST PUSH0 DUP1 REVERT JUMPDEST PUSH2 0xEF DUP2 PUSH2 0xB1 JUMP JUMPDEST DUP2 EQ PUSH2 0xF9 JUMPI PUSH0 DUP1 REVERT JUMPDEST POP JUMP JUMPDEST PUSH0 DUP2 CALLDATALOAD SWAP1 POP PUSH2 0x10A DUP2 PUSH2 0xE6 JUMP JUMPDEST SWAP3 SWAP2 POP POP JUMP JUMPDEST PUSH0 PUSH1 0x20 DUP3 DUP5 SUB SLT ISZERO PUSH2 0x125 JUMPI PUSH2 0x124 PUSH2 0xE2 JUMP JUMPDEST JUMPDEST PUSH0 PUSH2 0x132 DUP5 DUP3 DUP6 ADD PUSH2 0xFC JUMP JUMPDEST SWAP2 POP POP SWAP3 SWAP2 POP POP JUMP INVALID LOG2 PUSH5 0x6970667358 0x22 SLT KECCAK256 SUB RETURNDATASIZE SWAP11 DUP7 0x25 0xEB 0xB5 BLOCKHASH 0xDF 0xB8 NUMBER SMOD 0xB8 CODECOPY TIMESTAMP OR 0xED 0xA5 0xC5 0x49 0xC9 0xDA 0xA8 SWAP10 0xEA 0xD4 SWAP10 CODECOPY MOD 0xEA PREVRANDAO SWAP6 PUSH5 0x736F6C6343 STOP ADDMOD EQ STOP CALLER LOG2 PUSH5 0x6970667358 0x22 SLT KECCAK256 0xBF PUSH23 0x64DE53C52760FD3E14344735F663441FEFE17FE2584605 0xB9 PUSH5 0xEF8E9E1F63 PUSH5 0x736F6C6343 STOP ADDMOD EQ STOP CALLER "
				},
				"gasEstimates": {
					"creation": {
						"codeDepositCost": "529400",
						"executionCost": "560",
						"totalCost": "529960"
					},
					"external": {
						"beforeAll()": "infinite",
						"checkGet()": "infinite",
						"checkSet()": "infinite",
						"initialValueIs100()": "infinite"
					}
				},
				"methodIdentifiers": {
					"beforeAll()": "7fea0d4b",
					"checkGet()": "e507fffc",
					"checkSet()": "3e1d6928",
					"initialValueIs100()": "c3754742"
				}
			},
			"storageLayout": {
				"storage": [
					{
						"astId": 901,
						"contract": "tests/storage1_test.sol:testSuite",
						"label": "foo",
						"offset": 0,
						"slot": "0",
						"type": "t_contract(SimpleStorage)893"
					}
				],
				"types": {
					"t_contract(SimpleStorage)893": {
						"encoding": "inplace",
						"label": "contract SimpleStorage",
						"numberOfBytes": "20"
					}
				}
			},
			"userdoc": {
				"kind": "user",
				"methods": {
					"beforeAll()": {
						"notice": "'beforeAll' runs before all other tests More special functions are: 'beforeEach', 'beforeAll', 'afterEach' & 'afterAll'"
					}
				},
				"version": 1
			}
		}
	}
}