{
	"data": {
		"bytecode": {
			"linkReferences": {},
			"object": "60806040526000805534801561001457600080fd5b50610119806100246000396000f3fe6080604052348015600f57600080fd5b506004361060325760003560e01c8063ea21785a146037578063f58586ee146051575b600080fd5b603d606b565b604051604891906098565b60405180910390f35b60576074565b6040516062919060ca565b60405180910390f35b60008054905090565b6000600560005411905090565b6000819050919050565b6092816081565b82525050565b600060208201905060ab6000830184608b565b92915050565b60008115159050919050565b60c48160b1565b82525050565b600060208201905060dd600083018460bd565b9291505056fea264697066735822122092c74f4193f565393cca2e61819819ae15f20bea71462a86a2000196caca3d8864736f6c63430008130033",
			"opcodes": "PUSH1 0x80 PUSH1 0x40 MSTORE PUSH1 0x0 DUP1 SSTORE CALLVALUE DUP1 ISZERO PUSH2 0x14 JUMPI PUSH1 0x0 DUP1 REVERT JUMPDEST POP PUSH2 0x119 DUP1 PUSH2 0x24 PUSH1 0x0 CODECOPY PUSH1 0x0 RETURN INVALID PUSH1 0x80 PUSH1 0x40 MSTORE CALLVALUE DUP1 ISZERO PUSH1 0xF JUMPI PUSH1 0x0 DUP1 REVERT JUMPDEST POP PUSH1 0x4 CALLDATASIZE LT PUSH1 0x32 JUMPI PUSH1 0x0 CALLDATALOAD PUSH1 0xE0 SHR DUP1 PUSH4 0xEA21785A EQ PUSH1 0x37 JUMPI DUP1 PUSH4 0xF58586EE EQ PUSH1 0x51 JUMPI JUMPDEST PUSH1 0x0 DUP1 REVERT JUMPDEST PUSH1 0x3D PUSH1 0x6B JUMP JUMPDEST PUSH1 0x40 MLOAD PUSH1 0x48 SWAP2 SWAP1 PUSH1 0x98 JUMP JUMPDEST PUSH1 0x40 MLOAD DUP1 SWAP2 SUB SWAP1 RETURN JUMPDEST PUSH1 0x57 PUSH1 0x74 JUMP JUMPDEST PUSH1 0x40 MLOAD PUSH1 0x62 SWAP2 SWAP1 PUSH1 0xCA JUMP JUMPDEST PUSH1 0x40 MLOAD DUP1 SWAP2 SUB SWAP1 RETURN JUMPDEST PUSH1 0x0 DUP1 SLOAD SWAP1 POP SWAP1 JUMP JUMPDEST PUSH1 0x0 PUSH1 0x5 PUSH1 0x0 SLOAD GT SWAP1 POP SWAP1 JUMP JUMPDEST PUSH1 0x0 DUP2 SWAP1 POP SWAP2 SWAP1 POP JUMP JUMPDEST PUSH1 0x92 DUP2 PUSH1 0x81 JUMP JUMPDEST DUP3 MSTORE POP POP JUMP JUMPDEST PUSH1 0x0 PUSH1 0x20 DUP3 ADD SWAP1 POP PUSH1 0xAB PUSH1 0x0 DUP4 ADD DUP5 PUSH1 0x8B JUMP JUMPDEST SWAP3 SWAP2 POP POP JUMP JUMPDEST PUSH1 0x0 DUP2 ISZERO ISZERO SWAP1 POP SWAP2 SWAP1 POP JUMP JUMPDEST PUSH1 0xC4 DUP2 PUSH1 0xB1 JUMP JUMPDEST DUP3 MSTORE POP POP JUMP JUMPDEST PUSH1 0x0 PUSH1 0x20 DUP3 ADD SWAP1 POP PUSH1 0xDD PUSH1 0x0 DUP4 ADD DUP5 PUSH1 0xBD JUMP JUMPDEST SWAP3 SWAP2 POP POP JUMP INVALID LOG2 PUSH5 0x6970667358 0x22 SLT KECCAK256 SWAP3 0xC7 0x4F COINBASE SWAP4 CREATE2 PUSH6 0x393CCA2E6181 SWAP9 NOT 0xAE ISZERO CALLCODE SIGNEXTEND 0xEA PUSH18 0x462A86A2000196CACA3D8864736F6C634300 ADDMOD SGT STOP CALLER "
		},
		"gasEstimates": {
			"creation": {
				"codeDepositCost": "56200",
				"executionCost": "5111",
				"totalCost": "61311"
			},
			"external": {
				"getCaptured()": "2415",
				"sucess()": "2449"
			},
			"internal": {
				"capture()": "infinite",
				"init()": "infinite"
			}
		},
		"methodIdentifiers": {
			"getCaptured()": "ea21785a",
			"sucess()": "f58586ee"
		}
	},
	"abi": [
		{
			"inputs": [],
			"name": "getCaptured",
			"outputs": [
				{
					"internalType": "uint256",
					"name": "",
					"type": "uint256"
				}
			],
			"stateMutability": "view",
			"type": "function"
		},
		{
			"inputs": [],
			"name": "sucess",
			"outputs": [
				{
					"internalType": "bool",
					"name": "",
					"type": "bool"
				}
			],
			"stateMutability": "view",
			"type": "function"
		}
	]
}