{
	"sc/proxy/Proxy.sol": {
		"Add3": {
			"abi": [
				{
					"inputs": [],
					"name": "addThree",
					"outputs": [],
					"stateMutability": "nonpayable",
					"type": "function"
				},
				{
					"inputs": [],
					"name": "getNumber",
					"outputs": [
						{
							"internalType": "uint256",
							"name": "",
							"type": "uint256"
						}
					],
					"stateMutability": "view",
					"type": "function"
				},
				{
					"inputs": [],
					"name": "initialize",
					"outputs": [],
					"stateMutability": "nonpayable",
					"type": "function"
				}
			],
			"devdoc": {
				"kind": "dev",
				"methods": {},
				"version": 1
			},
			"evm": {
				"assembly": "    /* \"sc/proxy/Proxy.sol\":1012:1285  contract Add3 {... */\n  mstore(0x40, 0x80)\n  callvalue\n  dup1\n  iszero\n  tag_1\n  jumpi\n  0x00\n  dup1\n  revert\ntag_1:\n  pop\n  dataSize(sub_0)\n  dup1\n  dataOffset(sub_0)\n  0x00\n  codecopy\n  0x00\n  return\nstop\n\nsub_0: assembly {\n        /* \"sc/proxy/Proxy.sol\":1012:1285  contract Add3 {... */\n      mstore(0x40, 0x80)\n      callvalue\n      dup1\n      iszero\n      tag_1\n      jumpi\n      0x00\n      dup1\n      revert\n    tag_1:\n      pop\n      jumpi(tag_2, lt(calldatasize, 0x04))\n      shr(0xe0, calldataload(0x00))\n      dup1\n      0x8129fc1c\n      eq\n      tag_3\n      jumpi\n      dup1\n      0xe2fbc880\n      eq\n      tag_4\n      jumpi\n      dup1\n      0xf2c9ecd8\n      eq\n      tag_5\n      jumpi\n    tag_2:\n      0x00\n      dup1\n      revert\n        /* \"sc/proxy/Proxy.sol\":1056:1118  function initialize() public {... */\n    tag_3:\n      tag_6\n      tag_7\n      jump\t// in\n    tag_6:\n      stop\n        /* \"sc/proxy/Proxy.sol\":1214:1283  function addThree() public {... */\n    tag_4:\n      tag_8\n      tag_9\n      jump\t// in\n    tag_8:\n      stop\n        /* \"sc/proxy/Proxy.sol\":1124:1208  function getNumber() public view returns (uint256) {... */\n    tag_5:\n      tag_10\n      tag_11\n      jump\t// in\n    tag_10:\n      mload(0x40)\n      tag_12\n      swap2\n      swap1\n      tag_13\n      jump\t// in\n    tag_12:\n      mload(0x40)\n      dup1\n      swap2\n      sub\n      swap1\n      return\n        /* \"sc/proxy/Proxy.sol\":1056:1118  function initialize() public {... */\n    tag_7:\n        /* \"sc/proxy/Proxy.sol\":1107:1111  0x64 */\n      0x64\n        /* \"sc/proxy/Proxy.sol\":1095:1104  ourNumber */\n      0x00\n        /* \"sc/proxy/Proxy.sol\":1095:1111  ourNumber = 0x64 */\n      dup2\n      swap1\n      sstore\n      pop\n        /* \"sc/proxy/Proxy.sol\":1056:1118  function initialize() public {... */\n      jump\t// out\n        /* \"sc/proxy/Proxy.sol\":1214:1283  function addThree() public {... */\n    tag_9:\n        /* \"sc/proxy/Proxy.sol\":1275:1276  3 */\n      0x03\n        /* \"sc/proxy/Proxy.sol\":1263:1272  ourNumber */\n      sload(0x00)\n        /* \"sc/proxy/Proxy.sol\":1263:1276  ourNumber + 3 */\n      tag_16\n      swap2\n      swap1\n      tag_17\n      jump\t// in\n    tag_16:\n        /* \"sc/proxy/Proxy.sol\":1251:1260  ourNumber */\n      0x00\n        /* \"sc/proxy/Proxy.sol\":1251:1276  ourNumber = ourNumber + 3 */\n      dup2\n      swap1\n      sstore\n      pop\n        /* \"sc/proxy/Proxy.sol\":1214:1283  function addThree() public {... */\n      jump\t// out\n        /* \"sc/proxy/Proxy.sol\":1124:1208  function getNumber() public view returns (uint256) {... */\n    tag_11:\n        /* \"sc/proxy/Proxy.sol\":1166:1173  uint256 */\n      0x00\n        /* \"sc/proxy/Proxy.sol\":1192:1201  ourNumber */\n      dup1\n      sload\n        /* \"sc/proxy/Proxy.sol\":1185:1201  return ourNumber */\n      swap1\n      pop\n        /* \"sc/proxy/Proxy.sol\":1124:1208  function getNumber() public view returns (uint256) {... */\n      swap1\n      jump\t// out\n        /* \"#utility.yul\":7:84   */\n    tag_19:\n        /* \"#utility.yul\":44:51   */\n      0x00\n        /* \"#utility.yul\":73:78   */\n      dup2\n        /* \"#utility.yul\":62:78   */\n      swap1\n      pop\n        /* \"#utility.yul\":7:84   */\n      swap2\n      swap1\n      pop\n      jump\t// out\n        /* \"#utility.yul\":90:208   */\n    tag_20:\n        /* \"#utility.yul\":177:201   */\n      tag_25\n        /* \"#utility.yul\":195:200   */\n      dup2\n        /* \"#utility.yul\":177:201   */\n      tag_19\n      jump\t// in\n    tag_25:\n        /* \"#utility.yul\":172:175   */\n      dup3\n        /* \"#utility.yul\":165:202   */\n      mstore\n        /* \"#utility.yul\":90:208   */\n      pop\n      pop\n      jump\t// out\n        /* \"#utility.yul\":214:436   */\n    tag_13:\n        /* \"#utility.yul\":307:311   */\n      0x00\n        /* \"#utility.yul\":345:347   */\n      0x20\n        /* \"#utility.yul\":334:343   */\n      dup3\n        /* \"#utility.yul\":330:348   */\n      add\n        /* \"#utility.yul\":322:348   */\n      swap1\n      pop\n        /* \"#utility.yul\":358:429   */\n      tag_27\n        /* \"#utility.yul\":426:427   */\n      0x00\n        /* \"#utility.yul\":415:424   */\n      dup4\n        /* \"#utility.yul\":411:428   */\n      add\n        /* \"#utility.yul\":402:408   */\n      dup5\n        /* \"#utility.yul\":358:429   */\n      tag_20\n      jump\t// in\n    tag_27:\n        /* \"#utility.yul\":214:436   */\n      swap3\n      swap2\n      pop\n      pop\n      jump\t// out\n        /* \"#utility.yul\":442:622   */\n    tag_21:\n        /* \"#utility.yul\":490:567   */\n      0x4e487b7100000000000000000000000000000000000000000000000000000000\n        /* \"#utility.yul\":487:488   */\n      0x00\n        /* \"#utility.yul\":480:568   */\n      mstore\n        /* \"#utility.yul\":587:591   */\n      0x11\n        /* \"#utility.yul\":584:585   */\n      0x04\n        /* \"#utility.yul\":577:592   */\n      mstore\n        /* \"#utility.yul\":611:615   */\n      0x24\n        /* \"#utility.yul\":608:609   */\n      0x00\n        /* \"#utility.yul\":601:616   */\n      revert\n        /* \"#utility.yul\":628:819   */\n    tag_17:\n        /* \"#utility.yul\":668:671   */\n      0x00\n        /* \"#utility.yul\":687:707   */\n      tag_30\n        /* \"#utility.yul\":705:706   */\n      dup3\n        /* \"#utility.yul\":687:707   */\n      tag_19\n      jump\t// in\n    tag_30:\n        /* \"#utility.yul\":682:707   */\n      swap2\n      pop\n        /* \"#utility.yul\":721:741   */\n      tag_31\n        /* \"#utility.yul\":739:740   */\n      dup4\n        /* \"#utility.yul\":721:741   */\n      tag_19\n      jump\t// in\n    tag_31:\n        /* \"#utility.yul\":716:741   */\n      swap3\n      pop\n        /* \"#utility.yul\":764:765   */\n      dup3\n        /* \"#utility.yul\":761:762   */\n      dup3\n        /* \"#utility.yul\":757:766   */\n      add\n        /* \"#utility.yul\":750:766   */\n      swap1\n      pop\n        /* \"#utility.yul\":785:788   */\n      dup1\n        /* \"#utility.yul\":782:783   */\n      dup3\n        /* \"#utility.yul\":779:789   */\n      gt\n        /* \"#utility.yul\":776:812   */\n      iszero\n      tag_32\n      jumpi\n        /* \"#utility.yul\":792:810   */\n      tag_33\n      tag_21\n      jump\t// in\n    tag_33:\n        /* \"#utility.yul\":776:812   */\n    tag_32:\n        /* \"#utility.yul\":628:819   */\n      swap3\n      swap2\n      pop\n      pop\n      jump\t// out\n\n    auxdata: 0xa26469706673582212203a6ad1da6124916e60a6f078eaea3b34cf961394e70e9f22966d197142bc277664736f6c63430008140033\n}\n",
				"bytecode": {
					"linkReferences": {},
					"object": "608060405234801561000f575f80fd5b506101628061001d5f395ff3fe608060405234801561000f575f80fd5b506004361061003f575f3560e01c80638129fc1c14610043578063e2fbc8801461004d578063f2c9ecd814610057575b5f80fd5b61004b610075565b005b61005561007e565b005b61005f610093565b60405161006c91906100b3565b60405180910390f35b60645f81905550565b60035f5461008c91906100f9565b5f81905550565b5f8054905090565b5f819050919050565b6100ad8161009b565b82525050565b5f6020820190506100c65f8301846100a4565b92915050565b7f4e487b71000000000000000000000000000000000000000000000000000000005f52601160045260245ffd5b5f6101038261009b565b915061010e8361009b565b9250828201905080821115610126576101256100cc565b5b9291505056fea26469706673582212203a6ad1da6124916e60a6f078eaea3b34cf961394e70e9f22966d197142bc277664736f6c63430008140033",
					"opcodes": "PUSH1 0x80 PUSH1 0x40 MSTORE CALLVALUE DUP1 ISZERO PUSH2 0xF JUMPI PUSH0 DUP1 REVERT JUMPDEST POP PUSH2 0x162 DUP1 PUSH2 0x1D PUSH0 CODECOPY PUSH0 RETURN INVALID PUSH1 0x80 PUSH1 0x40 MSTORE CALLVALUE DUP1 ISZERO PUSH2 0xF JUMPI PUSH0 DUP1 REVERT JUMPDEST POP PUSH1 0x4 CALLDATASIZE LT PUSH2 0x3F JUMPI PUSH0 CALLDATALOAD PUSH1 0xE0 SHR DUP1 PUSH4 0x8129FC1C EQ PUSH2 0x43 JUMPI DUP1 PUSH4 0xE2FBC880 EQ PUSH2 0x4D JUMPI DUP1 PUSH4 0xF2C9ECD8 EQ PUSH2 0x57 JUMPI JUMPDEST PUSH0 DUP1 REVERT JUMPDEST PUSH2 0x4B PUSH2 0x75 JUMP JUMPDEST STOP JUMPDEST PUSH2 0x55 PUSH2 0x7E JUMP JUMPDEST STOP JUMPDEST PUSH2 0x5F PUSH2 0x93 JUMP JUMPDEST PUSH1 0x40 MLOAD PUSH2 0x6C SWAP2 SWAP1 PUSH2 0xB3 JUMP JUMPDEST PUSH1 0x40 MLOAD DUP1 SWAP2 SUB SWAP1 RETURN JUMPDEST PUSH1 0x64 PUSH0 DUP2 SWAP1 SSTORE POP JUMP JUMPDEST PUSH1 0x3 PUSH0 SLOAD PUSH2 0x8C SWAP2 SWAP1 PUSH2 0xF9 JUMP JUMPDEST PUSH0 DUP2 SWAP1 SSTORE POP JUMP JUMPDEST PUSH0 DUP1 SLOAD SWAP1 POP SWAP1 JUMP JUMPDEST PUSH0 DUP2 SWAP1 POP SWAP2 SWAP1 POP JUMP JUMPDEST PUSH2 0xAD DUP2 PUSH2 0x9B JUMP JUMPDEST DUP3 MSTORE POP POP JUMP JUMPDEST PUSH0 PUSH1 0x20 DUP3 ADD SWAP1 POP PUSH2 0xC6 PUSH0 DUP4 ADD DUP5 PUSH2 0xA4 JUMP JUMPDEST SWAP3 SWAP2 POP POP JUMP JUMPDEST PUSH32 0x4E487B7100000000000000000000000000000000000000000000000000000000 PUSH0 MSTORE PUSH1 0x11 PUSH1 0x4 MSTORE PUSH1 0x24 PUSH0 REVERT JUMPDEST PUSH0 PUSH2 0x103 DUP3 PUSH2 0x9B JUMP JUMPDEST SWAP2 POP PUSH2 0x10E DUP4 PUSH2 0x9B JUMP JUMPDEST SWAP3 POP DUP3 DUP3 ADD SWAP1 POP DUP1 DUP3 GT ISZERO PUSH2 0x126 JUMPI PUSH2 0x125 PUSH2 0xCC JUMP JUMPDEST JUMPDEST SWAP3 SWAP2 POP POP JUMP INVALID LOG2 PUSH5 0x6970667358 0x22 SLT KECCAK256 GASPRICE PUSH11 0xD1DA6124916E60A6F078EA 0xEA EXTCODESIZE CALLVALUE 0xCF SWAP7 SGT SWAP5 0xE7 0xE SWAP16 0x22 SWAP7 PUSH14 0x197142BC277664736F6C63430008 EQ STOP CALLER "
				},
				"gasEstimates": {
					"creation": {
						"codeDepositCost": "70800",
						"executionCost": "121",
						"totalCost": "70921"
					},
					"external": {
						"addThree()": "infinite",
						"getNumber()": "2454",
						"initialize()": "22234"
					}
				},
				"methodIdentifiers": {
					"addThree()": "e2fbc880",
					"getNumber()": "f2c9ecd8",
					"initialize()": "8129fc1c"
				}
			},
			"storageLayout": {
				"storage": [
					{
						"astId": 39,
						"contract": "sc/proxy/Proxy.sol:Add3",
						"label": "ourNumber",
						"offset": 0,
						"slot": "0",
						"type": "t_uint256"
					}
				],
				"types": {
					"t_uint256": {
						"encoding": "inplace",
						"label": "uint256",
						"numberOfBytes": "32"
					}
				}
			},
			"userdoc": {
				"kind": "user",
				"methods": {},
				"version": 1
			}
		}
	}
}