{
	"sc/proxy/Proxy.sol": {
		"Proxy": {
			"abi": [
				{
					"stateMutability": "nonpayable",
					"type": "fallback"
				},
				{
					"inputs": [],
					"name": "getNumber2",
					"outputs": [
						{
							"internalType": "uint256",
							"name": "",
							"type": "uint256"
						}
					],
					"stateMutability": "view",
					"type": "function"
				},
				{
					"inputs": [],
					"name": "implementation",
					"outputs": [
						{
							"internalType": "address",
							"name": "",
							"type": "address"
						}
					],
					"stateMutability": "view",
					"type": "function"
				},
				{
					"inputs": [],
					"name": "initialize",
					"outputs": [],
					"stateMutability": "nonpayable",
					"type": "function"
				},
				{
					"inputs": [
						{
							"internalType": "address",
							"name": "implementation_",
							"type": "address"
						}
					],
					"name": "setImplementation",
					"outputs": [],
					"stateMutability": "nonpayable",
					"type": "function"
				}
			],
			"devdoc": {
				"kind": "dev",
				"methods": {},
				"version": 1
			},
			"evm": {
				"assembly": "    /* \"sc/proxy/Proxy.sol\":58:1010  contract Proxy {... */\n  mstore(0x40, 0x80)\n  callvalue\n  dup1\n  iszero\n  tag_1\n  jumpi\n  0x00\n  dup1\n  revert\ntag_1:\n  pop\n  dataSize(sub_0)\n  dup1\n  dataOffset(sub_0)\n  0x00\n  codecopy\n  0x00\n  return\nstop\n\nsub_0: assembly {\n        /* \"sc/proxy/Proxy.sol\":58:1010  contract Proxy {... */\n      mstore(0x40, 0x80)\n      callvalue\n      dup1\n      iszero\n      tag_1\n      jumpi\n      0x00\n      dup1\n      revert\n    tag_1:\n      pop\n      jumpi(tag_2, lt(calldatasize, 0x04))\n      shr(0xe0, calldataload(0x00))\n      dup1\n      0x5c60da1b\n      eq\n      tag_4\n      jumpi\n      dup1\n      0x8129fc1c\n      eq\n      tag_5\n      jumpi\n      dup1\n      0x984d0f90\n      eq\n      tag_6\n      jumpi\n      dup1\n      0xd784d426\n      eq\n      tag_7\n      jumpi\n      jump(tag_3)\n    tag_2:\n    tag_3:\n        /* \"sc/proxy/Proxy.sol\":480:484  0x40 */\n      0x40\n        /* \"sc/proxy/Proxy.sol\":474:485  mload(0x40) */\n      mload\n        /* \"sc/proxy/Proxy.sol\":519:533  calldatasize() */\n      calldatasize\n        /* \"sc/proxy/Proxy.sol\":516:517  0 */\n      0x00\n        /* \"sc/proxy/Proxy.sol\":511:514  ptr */\n      dup3\n        /* \"sc/proxy/Proxy.sol\":498:534  calldatacopy(ptr, 0, calldatasize()) */\n      calldatacopy\n        /* \"sc/proxy/Proxy.sol\":730:731  0 */\n      0x00\n        /* \"sc/proxy/Proxy.sol\":711:712  0 */\n      dup1\n        /* \"sc/proxy/Proxy.sol\":679:693  calldatasize() */\n      calldatasize\n        /* \"sc/proxy/Proxy.sol\":658:661  ptr */\n      dup4\n        /* \"sc/proxy/Proxy.sol\":620:639  implementation.slot */\n      0x01\n        /* \"sc/proxy/Proxy.sol\":614:640  sload(implementation.slot) */\n      sload\n        /* \"sc/proxy/Proxy.sol\":591:596  gas() */\n      gas\n        /* \"sc/proxy/Proxy.sol\":561:745  delegatecall(... */\n      delegatecall\n        /* \"sc/proxy/Proxy.sol\":770:786  returndatasize() */\n      returndatasize\n        /* \"sc/proxy/Proxy.sol\":822:826  size */\n      dup1\n        /* \"sc/proxy/Proxy.sol\":819:820  0 */\n      0x00\n        /* \"sc/proxy/Proxy.sol\":814:817  ptr */\n      dup5\n        /* \"sc/proxy/Proxy.sol\":799:827  returndatacopy(ptr, 0, size) */\n      returndatacopy\n        /* \"sc/proxy/Proxy.sol\":847:853  result */\n      dup2\n        /* \"sc/proxy/Proxy.sol\":871:872  0 */\n      0x00\n        /* \"sc/proxy/Proxy.sol\":866:922  case 0 {... */\n      dup2\n      eq\n      tag_11\n      jumpi\n        /* \"sc/proxy/Proxy.sol\":973:977  size */\n      dup2\n        /* \"sc/proxy/Proxy.sol\":968:971  ptr */\n      dup5\n        /* \"sc/proxy/Proxy.sol\":961:978  return(ptr, size) */\n      return\n        /* \"sc/proxy/Proxy.sol\":866:922  case 0 {... */\n    tag_11:\n        /* \"sc/proxy/Proxy.sol\":903:907  size */\n      dup2\n        /* \"sc/proxy/Proxy.sol\":898:901  ptr */\n      dup5\n        /* \"sc/proxy/Proxy.sol\":891:908  revert(ptr, size) */\n      revert\n        /* \"sc/proxy/Proxy.sol\":103:132  address public implementation */\n    tag_4:\n      tag_12\n      tag_13\n      jump\t// in\n    tag_12:\n      mload(0x40)\n      tag_14\n      swap2\n      swap1\n      tag_15\n      jump\t// in\n    tag_14:\n      mload(0x40)\n      dup1\n      swap2\n      sub\n      swap1\n      return\n        /* \"sc/proxy/Proxy.sol\":138:201  function initialize() public {... */\n    tag_5:\n      tag_16\n      tag_17\n      jump\t// in\n    tag_16:\n      stop\n        /* \"sc/proxy/Proxy.sol\":206:292  function getNumber2() public view returns (uint256) {... */\n    tag_6:\n      tag_18\n      tag_19\n      jump\t// in\n    tag_18:\n      mload(0x40)\n      tag_20\n      swap2\n      swap1\n      tag_21\n      jump\t// in\n    tag_20:\n      mload(0x40)\n      dup1\n      swap2\n      sub\n      swap1\n      return\n        /* \"sc/proxy/Proxy.sol\":297:405  function setImplementation(address implementation_) public {... */\n    tag_7:\n      tag_22\n      0x04\n      dup1\n      calldatasize\n      sub\n      dup2\n      add\n      swap1\n      tag_23\n      swap2\n      swap1\n      tag_24\n      jump\t// in\n    tag_23:\n      tag_25\n      jump\t// in\n    tag_22:\n      stop\n        /* \"sc/proxy/Proxy.sol\":103:132  address public implementation */\n    tag_13:\n      0x01\n      0x00\n      swap1\n      sload\n      swap1\n      0x0100\n      exp\n      swap1\n      div\n      0xffffffffffffffffffffffffffffffffffffffff\n      and\n      dup2\n      jump\t// out\n        /* \"sc/proxy/Proxy.sol\":138:201  function initialize() public {... */\n    tag_17:\n        /* \"sc/proxy/Proxy.sol\":190:194  0x28 */\n      0x28\n        /* \"sc/proxy/Proxy.sol\":177:187  ourNumber2 */\n      0x00\n        /* \"sc/proxy/Proxy.sol\":177:194  ourNumber2 = 0x28 */\n      dup2\n      swap1\n      sstore\n      pop\n        /* \"sc/proxy/Proxy.sol\":138:201  function initialize() public {... */\n      jump\t// out\n        /* \"sc/proxy/Proxy.sol\":206:292  function getNumber2() public view returns (uint256) {... */\n    tag_19:\n        /* \"sc/proxy/Proxy.sol\":249:256  uint256 */\n      0x00\n        /* \"sc/proxy/Proxy.sol\":275:285  ourNumber2 */\n      dup1\n      sload\n        /* \"sc/proxy/Proxy.sol\":268:285  return ourNumber2 */\n      swap1\n      pop\n        /* \"sc/proxy/Proxy.sol\":206:292  function getNumber2() public view returns (uint256) {... */\n      swap1\n      jump\t// out\n        /* \"sc/proxy/Proxy.sol\":297:405  function setImplementation(address implementation_) public {... */\n    tag_25:\n        /* \"sc/proxy/Proxy.sol\":383:398  implementation_ */\n      dup1\n        /* \"sc/proxy/Proxy.sol\":366:380  implementation */\n      0x01\n      0x00\n        /* \"sc/proxy/Proxy.sol\":366:398  implementation = implementation_ */\n      0x0100\n      exp\n      dup2\n      sload\n      dup2\n      0xffffffffffffffffffffffffffffffffffffffff\n      mul\n      not\n      and\n      swap1\n      dup4\n      0xffffffffffffffffffffffffffffffffffffffff\n      and\n      mul\n      or\n      swap1\n      sstore\n      pop\n        /* \"sc/proxy/Proxy.sol\":297:405  function setImplementation(address implementation_) public {... */\n      pop\n      jump\t// out\n        /* \"#utility.yul\":7:133   */\n    tag_29:\n        /* \"#utility.yul\":44:51   */\n      0x00\n        /* \"#utility.yul\":84:126   */\n      0xffffffffffffffffffffffffffffffffffffffff\n        /* \"#utility.yul\":77:82   */\n      dup3\n        /* \"#utility.yul\":73:127   */\n      and\n        /* \"#utility.yul\":62:127   */\n      swap1\n      pop\n        /* \"#utility.yul\":7:133   */\n      swap2\n      swap1\n      pop\n      jump\t// out\n        /* \"#utility.yul\":139:235   */\n    tag_30:\n        /* \"#utility.yul\":176:183   */\n      0x00\n        /* \"#utility.yul\":205:229   */\n      tag_42\n        /* \"#utility.yul\":223:228   */\n      dup3\n        /* \"#utility.yul\":205:229   */\n      tag_29\n      jump\t// in\n    tag_42:\n        /* \"#utility.yul\":194:229   */\n      swap1\n      pop\n        /* \"#utility.yul\":139:235   */\n      swap2\n      swap1\n      pop\n      jump\t// out\n        /* \"#utility.yul\":241:359   */\n    tag_31:\n        /* \"#utility.yul\":328:352   */\n      tag_44\n        /* \"#utility.yul\":346:351   */\n      dup2\n        /* \"#utility.yul\":328:352   */\n      tag_30\n      jump\t// in\n    tag_44:\n        /* \"#utility.yul\":323:326   */\n      dup3\n        /* \"#utility.yul\":316:353   */\n      mstore\n        /* \"#utility.yul\":241:359   */\n      pop\n      pop\n      jump\t// out\n        /* \"#utility.yul\":365:587   */\n    tag_15:\n        /* \"#utility.yul\":458:462   */\n      0x00\n        /* \"#utility.yul\":496:498   */\n      0x20\n        /* \"#utility.yul\":485:494   */\n      dup3\n        /* \"#utility.yul\":481:499   */\n      add\n        /* \"#utility.yul\":473:499   */\n      swap1\n      pop\n        /* \"#utility.yul\":509:580   */\n      tag_46\n        /* \"#utility.yul\":577:578   */\n      0x00\n        /* \"#utility.yul\":566:575   */\n      dup4\n        /* \"#utility.yul\":562:579   */\n      add\n        /* \"#utility.yul\":553:559   */\n      dup5\n        /* \"#utility.yul\":509:580   */\n      tag_31\n      jump\t// in\n    tag_46:\n        /* \"#utility.yul\":365:587   */\n      swap3\n      swap2\n      pop\n      pop\n      jump\t// out\n        /* \"#utility.yul\":593:670   */\n    tag_32:\n        /* \"#utility.yul\":630:637   */\n      0x00\n        /* \"#utility.yul\":659:664   */\n      dup2\n        /* \"#utility.yul\":648:664   */\n      swap1\n      pop\n        /* \"#utility.yul\":593:670   */\n      swap2\n      swap1\n      pop\n      jump\t// out\n        /* \"#utility.yul\":676:794   */\n    tag_33:\n        /* \"#utility.yul\":763:787   */\n      tag_49\n        /* \"#utility.yul\":781:786   */\n      dup2\n        /* \"#utility.yul\":763:787   */\n      tag_32\n      jump\t// in\n    tag_49:\n        /* \"#utility.yul\":758:761   */\n      dup3\n        /* \"#utility.yul\":751:788   */\n      mstore\n        /* \"#utility.yul\":676:794   */\n      pop\n      pop\n      jump\t// out\n        /* \"#utility.yul\":800:1022   */\n    tag_21:\n        /* \"#utility.yul\":893:897   */\n      0x00\n        /* \"#utility.yul\":931:933   */\n      0x20\n        /* \"#utility.yul\":920:929   */\n      dup3\n        /* \"#utility.yul\":916:934   */\n      add\n        /* \"#utility.yul\":908:934   */\n      swap1\n      pop\n        /* \"#utility.yul\":944:1015   */\n      tag_51\n        /* \"#utility.yul\":1012:1013   */\n      0x00\n        /* \"#utility.yul\":1001:1010   */\n      dup4\n        /* \"#utility.yul\":997:1014   */\n      add\n        /* \"#utility.yul\":988:994   */\n      dup5\n        /* \"#utility.yul\":944:1015   */\n      tag_33\n      jump\t// in\n    tag_51:\n        /* \"#utility.yul\":800:1022   */\n      swap3\n      swap2\n      pop\n      pop\n      jump\t// out\n        /* \"#utility.yul\":1109:1226   */\n    tag_35:\n        /* \"#utility.yul\":1218:1219   */\n      0x00\n        /* \"#utility.yul\":1215:1216   */\n      dup1\n        /* \"#utility.yul\":1208:1220   */\n      revert\n        /* \"#utility.yul\":1355:1477   */\n    tag_37:\n        /* \"#utility.yul\":1428:1452   */\n      tag_56\n        /* \"#utility.yul\":1446:1451   */\n      dup2\n        /* \"#utility.yul\":1428:1452   */\n      tag_30\n      jump\t// in\n    tag_56:\n        /* \"#utility.yul\":1421:1426   */\n      dup2\n        /* \"#utility.yul\":1418:1453   */\n      eq\n        /* \"#utility.yul\":1408:1471   */\n      tag_57\n      jumpi\n        /* \"#utility.yul\":1467:1468   */\n      0x00\n        /* \"#utility.yul\":1464:1465   */\n      dup1\n        /* \"#utility.yul\":1457:1469   */\n      revert\n        /* \"#utility.yul\":1408:1471   */\n    tag_57:\n        /* \"#utility.yul\":1355:1477   */\n      pop\n      jump\t// out\n        /* \"#utility.yul\":1483:1622   */\n    tag_38:\n        /* \"#utility.yul\":1529:1534   */\n      0x00\n        /* \"#utility.yul\":1567:1573   */\n      dup2\n        /* \"#utility.yul\":1554:1574   */\n      calldataload\n        /* \"#utility.yul\":1545:1574   */\n      swap1\n      pop\n        /* \"#utility.yul\":1583:1616   */\n      tag_59\n        /* \"#utility.yul\":1610:1615   */\n      dup2\n        /* \"#utility.yul\":1583:1616   */\n      tag_37\n      jump\t// in\n    tag_59:\n        /* \"#utility.yul\":1483:1622   */\n      swap3\n      swap2\n      pop\n      pop\n      jump\t// out\n        /* \"#utility.yul\":1628:1957   */\n    tag_24:\n        /* \"#utility.yul\":1687:1693   */\n      0x00\n        /* \"#utility.yul\":1736:1738   */\n      0x20\n        /* \"#utility.yul\":1724:1733   */\n      dup3\n        /* \"#utility.yul\":1715:1722   */\n      dup5\n        /* \"#utility.yul\":1711:1734   */\n      sub\n        /* \"#utility.yul\":1707:1739   */\n      slt\n        /* \"#utility.yul\":1704:1823   */\n      iszero\n      tag_61\n      jumpi\n        /* \"#utility.yul\":1742:1821   */\n      tag_62\n      tag_35\n      jump\t// in\n    tag_62:\n        /* \"#utility.yul\":1704:1823   */\n    tag_61:\n        /* \"#utility.yul\":1862:1863   */\n      0x00\n        /* \"#utility.yul\":1887:1940   */\n      tag_63\n        /* \"#utility.yul\":1932:1939   */\n      dup5\n        /* \"#utility.yul\":1923:1929   */\n      dup3\n        /* \"#utility.yul\":1912:1921   */\n      dup6\n        /* \"#utility.yul\":1908:1930   */\n      add\n        /* \"#utility.yul\":1887:1940   */\n      tag_38\n      jump\t// in\n    tag_63:\n        /* \"#utility.yul\":1877:1940   */\n      swap2\n      pop\n        /* \"#utility.yul\":1833:1950   */\n      pop\n        /* \"#utility.yul\":1628:1957   */\n      swap3\n      swap2\n      pop\n      pop\n      jump\t// out\n\n    auxdata: 0xa26469706673582212207336cfb47cea0329337039ac3445b47e82107f0a8abd762947acf3e822f94f7064736f6c63430008140033\n}\n",
				"bytecode": {
					"linkReferences": {},
					"object": "608060405234801561000f575f80fd5b506102678061001d5f395ff3fe608060405234801561000f575f80fd5b506004361061004e575f3560e01c80635c60da1b146100745780638129fc1c14610092578063984d0f901461009c578063d784d426146100ba5761004f565b5b604051365f82375f8036836001545af43d805f843e815f8114610070578184f35b8184fd5b61007c6100d6565b604051610089919061018e565b60405180910390f35b61009a6100fb565b005b6100a4610104565b6040516100b191906101bf565b60405180910390f35b6100d460048036038101906100cf9190610206565b61010c565b005b60015f9054906101000a900473ffffffffffffffffffffffffffffffffffffffff1681565b60285f81905550565b5f8054905090565b8060015f6101000a81548173ffffffffffffffffffffffffffffffffffffffff021916908373ffffffffffffffffffffffffffffffffffffffff16021790555050565b5f73ffffffffffffffffffffffffffffffffffffffff82169050919050565b5f6101788261014f565b9050919050565b6101888161016e565b82525050565b5f6020820190506101a15f83018461017f565b92915050565b5f819050919050565b6101b9816101a7565b82525050565b5f6020820190506101d25f8301846101b0565b92915050565b5f80fd5b6101e58161016e565b81146101ef575f80fd5b50565b5f81359050610200816101dc565b92915050565b5f6020828403121561021b5761021a6101d8565b5b5f610228848285016101f2565b9150509291505056fea26469706673582212207336cfb47cea0329337039ac3445b47e82107f0a8abd762947acf3e822f94f7064736f6c63430008140033",
					"opcodes": "PUSH1 0x80 PUSH1 0x40 MSTORE CALLVALUE DUP1 ISZERO PUSH2 0xF JUMPI PUSH0 DUP1 REVERT JUMPDEST POP PUSH2 0x267 DUP1 PUSH2 0x1D PUSH0 CODECOPY PUSH0 RETURN INVALID PUSH1 0x80 PUSH1 0x40 MSTORE CALLVALUE DUP1 ISZERO PUSH2 0xF JUMPI PUSH0 DUP1 REVERT JUMPDEST POP PUSH1 0x4 CALLDATASIZE LT PUSH2 0x4E JUMPI PUSH0 CALLDATALOAD PUSH1 0xE0 SHR DUP1 PUSH4 0x5C60DA1B EQ PUSH2 0x74 JUMPI DUP1 PUSH4 0x8129FC1C EQ PUSH2 0x92 JUMPI DUP1 PUSH4 0x984D0F90 EQ PUSH2 0x9C JUMPI DUP1 PUSH4 0xD784D426 EQ PUSH2 0xBA JUMPI PUSH2 0x4F JUMP JUMPDEST JUMPDEST PUSH1 0x40 MLOAD CALLDATASIZE PUSH0 DUP3 CALLDATACOPY PUSH0 DUP1 CALLDATASIZE DUP4 PUSH1 0x1 SLOAD GAS DELEGATECALL RETURNDATASIZE DUP1 PUSH0 DUP5 RETURNDATACOPY DUP2 PUSH0 DUP2 EQ PUSH2 0x70 JUMPI DUP2 DUP5 RETURN JUMPDEST DUP2 DUP5 REVERT JUMPDEST PUSH2 0x7C PUSH2 0xD6 JUMP JUMPDEST PUSH1 0x40 MLOAD PUSH2 0x89 SWAP2 SWAP1 PUSH2 0x18E JUMP JUMPDEST PUSH1 0x40 MLOAD DUP1 SWAP2 SUB SWAP1 RETURN JUMPDEST PUSH2 0x9A PUSH2 0xFB JUMP JUMPDEST STOP JUMPDEST PUSH2 0xA4 PUSH2 0x104 JUMP JUMPDEST PUSH1 0x40 MLOAD PUSH2 0xB1 SWAP2 SWAP1 PUSH2 0x1BF JUMP JUMPDEST PUSH1 0x40 MLOAD DUP1 SWAP2 SUB SWAP1 RETURN JUMPDEST PUSH2 0xD4 PUSH1 0x4 DUP1 CALLDATASIZE SUB DUP2 ADD SWAP1 PUSH2 0xCF SWAP2 SWAP1 PUSH2 0x206 JUMP JUMPDEST PUSH2 0x10C JUMP JUMPDEST STOP JUMPDEST PUSH1 0x1 PUSH0 SWAP1 SLOAD SWAP1 PUSH2 0x100 EXP SWAP1 DIV PUSH20 0xFFFFFFFFFFFFFFFFFFFFFFFFFFFFFFFFFFFFFFFF AND DUP2 JUMP JUMPDEST PUSH1 0x28 PUSH0 DUP2 SWAP1 SSTORE POP JUMP JUMPDEST PUSH0 DUP1 SLOAD SWAP1 POP SWAP1 JUMP JUMPDEST DUP1 PUSH1 0x1 PUSH0 PUSH2 0x100 EXP DUP2 SLOAD DUP2 PUSH20 0xFFFFFFFFFFFFFFFFFFFFFFFFFFFFFFFFFFFFFFFF MUL NOT AND SWAP1 DUP4 PUSH20 0xFFFFFFFFFFFFFFFFFFFFFFFFFFFFFFFFFFFFFFFF AND MUL OR SWAP1 SSTORE POP POP JUMP JUMPDEST PUSH0 PUSH20 0xFFFFFFFFFFFFFFFFFFFFFFFFFFFFFFFFFFFFFFFF DUP3 AND SWAP1 POP SWAP2 SWAP1 POP JUMP JUMPDEST PUSH0 PUSH2 0x178 DUP3 PUSH2 0x14F JUMP JUMPDEST SWAP1 POP SWAP2 SWAP1 POP JUMP JUMPDEST PUSH2 0x188 DUP2 PUSH2 0x16E JUMP JUMPDEST DUP3 MSTORE POP POP JUMP JUMPDEST PUSH0 PUSH1 0x20 DUP3 ADD SWAP1 POP PUSH2 0x1A1 PUSH0 DUP4 ADD DUP5 PUSH2 0x17F JUMP JUMPDEST SWAP3 SWAP2 POP POP JUMP JUMPDEST PUSH0 DUP2 SWAP1 POP SWAP2 SWAP1 POP JUMP JUMPDEST PUSH2 0x1B9 DUP2 PUSH2 0x1A7 JUMP JUMPDEST DUP3 MSTORE POP POP JUMP JUMPDEST PUSH0 PUSH1 0x20 DUP3 ADD SWAP1 POP PUSH2 0x1D2 PUSH0 DUP4 ADD DUP5 PUSH2 0x1B0 JUMP JUMPDEST SWAP3 SWAP2 POP POP JUMP JUMPDEST PUSH0 DUP1 REVERT JUMPDEST PUSH2 0x1E5 DUP2 PUSH2 0x16E JUMP JUMPDEST DUP2 EQ PUSH2 0x1EF JUMPI PUSH0 DUP1 REVERT JUMPDEST POP JUMP JUMPDEST PUSH0 DUP2 CALLDATALOAD SWAP1 POP PUSH2 0x200 DUP2 PUSH2 0x1DC JUMP JUMPDEST SWAP3 SWAP2 POP POP JUMP JUMPDEST PUSH0 PUSH1 0x20 DUP3 DUP5 SUB SLT ISZERO PUSH2 0x21B JUMPI PUSH2 0x21A PUSH2 0x1D8 JUMP JUMPDEST JUMPDEST PUSH0 PUSH2 0x228 DUP5 DUP3 DUP6 ADD PUSH2 0x1F2 JUMP JUMPDEST SWAP2 POP POP SWAP3 SWAP2 POP POP JUMP INVALID LOG2 PUSH5 0x6970667358 0x22 SLT KECCAK256 PUSH20 0x36CFB47CEA0329337039AC3445B47E82107F0A8A 0xBD PUSH23 0x2947ACF3E822F94F7064736F6C63430008140033000000 "
				},
				"gasEstimates": {
					"creation": {
						"codeDepositCost": "123000",
						"executionCost": "169",
						"totalCost": "123169"
					},
					"external": {
						"": "infinite",
						"getNumber2()": "2454",
						"implementation()": "2486",
						"initialize()": "22256",
						"setImplementation(address)": "24759"
					}
				},
				"methodIdentifiers": {
					"getNumber2()": "984d0f90",
					"implementation()": "5c60da1b",
					"initialize()": "8129fc1c",
					"setImplementation(address)": "d784d426"
				}
			},
			"storageLayout": {
				"storage": [
					{
						"astId": 3,
						"contract": "sc/proxy/Proxy.sol:Proxy",
						"label": "ourNumber2",
						"offset": 0,
						"slot": "0",
						"type": "t_uint256"
					},
					{
						"astId": 5,
						"contract": "sc/proxy/Proxy.sol:Proxy",
						"label": "implementation",
						"offset": 0,
						"slot": "1",
						"type": "t_address"
					}
				],
				"types": {
					"t_address": {
						"encoding": "inplace",
						"label": "address",
						"numberOfBytes": "20"
					},
					"t_uint256": {
						"encoding": "inplace",
						"label": "uint256",
						"numberOfBytes": "32"
					}
				}
			},
			"userdoc": {
				"kind": "user",
				"methods": {},
				"version": 1
			}
		}
	}
}