{
	"sc/Pikachu2.sol": {
		"PikaTrucho": {
			"abi": [
				{
					"inputs": [],
					"name": "PikachuEncounter",
					"outputs": [],
					"stateMutability": "nonpayable",
					"type": "function"
				},
				{
					"inputs": [],
					"name": "getCaptured",
					"outputs": [
						{
							"internalType": "uint256",
							"name": "",
							"type": "uint256"
						}
					],
					"stateMutability": "view",
					"type": "function"
				}
			],
			"devdoc": {
				"kind": "dev",
				"methods": {},
				"version": 1
			},
			"evm": {
				"assembly": "    /* \"sc/Pikachu2.sol\":357:447  contract PikaTrucho is Pokemon {... */\n  mstore(0x40, 0x80)\n    /* \"sc/Pikachu2.sol\":111:112  0 */\n  0x00\n    /* \"sc/Pikachu2.sol\":79:112  uint private capturedPokemons = 0 */\n  dup1\n  sstore\n    /* \"sc/Pikachu2.sol\":357:447  contract PikaTrucho is Pokemon {... */\n  callvalue\n  dup1\n  iszero\n  tag_1\n  jumpi\n  0x00\n  dup1\n  revert\ntag_1:\n  pop\n  dataSize(sub_0)\n  dup1\n  dataOffset(sub_0)\n  0x00\n  codecopy\n  0x00\n  return\nstop\n\nsub_0: assembly {\n        /* \"sc/Pikachu2.sol\":357:447  contract PikaTrucho is Pokemon {... */\n      mstore(0x40, 0x80)\n      callvalue\n      dup1\n      iszero\n      tag_1\n      jumpi\n      0x00\n      dup1\n      revert\n    tag_1:\n      pop\n      jumpi(tag_2, lt(calldatasize, 0x04))\n      shr(0xe0, calldataload(0x00))\n      dup1\n      0x43a0b7a2\n      eq\n      tag_3\n      jumpi\n      dup1\n      0xea21785a\n      eq\n      tag_4\n      jumpi\n    tag_2:\n      0x00\n      dup1\n      revert\n        /* \"sc/Pikachu2.sol\":394:445  function PikachuEncounter() public {... */\n    tag_3:\n      tag_5\n      tag_6\n      jump\t// in\n    tag_5:\n      stop\n        /* \"sc/Pikachu2.sol\":117:202  function getCaptured() external view returns(uint) {... */\n    tag_4:\n      tag_7\n      tag_8\n      jump\t// in\n    tag_7:\n      mload(0x40)\n      tag_9\n      swap2\n      swap1\n      tag_10\n      jump\t// in\n    tag_9:\n      mload(0x40)\n      dup1\n      swap2\n      sub\n      swap1\n      return\n        /* \"sc/Pikachu2.sol\":394:445  function PikachuEncounter() public {... */\n    tag_6:\n      jump\t// out\n        /* \"sc/Pikachu2.sol\":117:202  function getCaptured() external view returns(uint) {... */\n    tag_8:\n        /* \"sc/Pikachu2.sol\":162:166  uint */\n      0x00\n        /* \"sc/Pikachu2.sol\":181:197  capturedPokemons */\n      dup1\n      sload\n        /* \"sc/Pikachu2.sol\":174:197  return capturedPokemons */\n      swap1\n      pop\n        /* \"sc/Pikachu2.sol\":117:202  function getCaptured() external view returns(uint) {... */\n      swap1\n      jump\t// out\n        /* \"#utility.yul\":7:84   */\n    tag_13:\n        /* \"#utility.yul\":44:51   */\n      0x00\n        /* \"#utility.yul\":73:78   */\n      dup2\n        /* \"#utility.yul\":62:78   */\n      swap1\n      pop\n        /* \"#utility.yul\":7:84   */\n      swap2\n      swap1\n      pop\n      jump\t// out\n        /* \"#utility.yul\":90:208   */\n    tag_14:\n        /* \"#utility.yul\":177:201   */\n      tag_18\n        /* \"#utility.yul\":195:200   */\n      dup2\n        /* \"#utility.yul\":177:201   */\n      tag_13\n      jump\t// in\n    tag_18:\n        /* \"#utility.yul\":172:175   */\n      dup3\n        /* \"#utility.yul\":165:202   */\n      mstore\n        /* \"#utility.yul\":90:208   */\n      pop\n      pop\n      jump\t// out\n        /* \"#utility.yul\":214:436   */\n    tag_10:\n        /* \"#utility.yul\":307:311   */\n      0x00\n        /* \"#utility.yul\":345:347   */\n      0x20\n        /* \"#utility.yul\":334:343   */\n      dup3\n        /* \"#utility.yul\":330:348   */\n      add\n        /* \"#utility.yul\":322:348   */\n      swap1\n      pop\n        /* \"#utility.yul\":358:429   */\n      tag_20\n        /* \"#utility.yul\":426:427   */\n      0x00\n        /* \"#utility.yul\":415:424   */\n      dup4\n        /* \"#utility.yul\":411:428   */\n      add\n        /* \"#utility.yul\":402:408   */\n      dup5\n        /* \"#utility.yul\":358:429   */\n      tag_14\n      jump\t// in\n    tag_20:\n        /* \"#utility.yul\":214:436   */\n      swap3\n      swap2\n      pop\n      pop\n      jump\t// out\n\n    auxdata: 0xa2646970667358221220cbeed7da886cb65890b02f8c2453bf971883b611518cf5fb79ac794b2b60e84d64736f6c63430008130033\n}\n",
				"bytecode": {
					"linkReferences": {},
					"object": "60806040526000805534801561001457600080fd5b5060ca806100236000396000f3fe6080604052348015600f57600080fd5b506004361060325760003560e01c806343a0b7a2146037578063ea21785a14603f575b600080fd5b603d6059565b005b6045605b565b60405160509190607b565b60405180910390f35b565b60008054905090565b6000819050919050565b6075816064565b82525050565b6000602082019050608e6000830184606e565b9291505056fea2646970667358221220cbeed7da886cb65890b02f8c2453bf971883b611518cf5fb79ac794b2b60e84d64736f6c63430008130033",
					"opcodes": "PUSH1 0x80 PUSH1 0x40 MSTORE PUSH1 0x0 DUP1 SSTORE CALLVALUE DUP1 ISZERO PUSH2 0x14 JUMPI PUSH1 0x0 DUP1 REVERT JUMPDEST POP PUSH1 0xCA DUP1 PUSH2 0x23 PUSH1 0x0 CODECOPY PUSH1 0x0 RETURN INVALID PUSH1 0x80 PUSH1 0x40 MSTORE CALLVALUE DUP1 ISZERO PUSH1 0xF JUMPI PUSH1 0x0 DUP1 REVERT JUMPDEST POP PUSH1 0x4 CALLDATASIZE LT PUSH1 0x32 JUMPI PUSH1 0x0 CALLDATALOAD PUSH1 0xE0 SHR DUP1 PUSH4 0x43A0B7A2 EQ PUSH1 0x37 JUMPI DUP1 PUSH4 0xEA21785A EQ PUSH1 0x3F JUMPI JUMPDEST PUSH1 0x0 DUP1 REVERT JUMPDEST PUSH1 0x3D PUSH1 0x59 JUMP JUMPDEST STOP JUMPDEST PUSH1 0x45 PUSH1 0x5B JUMP JUMPDEST PUSH1 0x40 MLOAD PUSH1 0x50 SWAP2 SWAP1 PUSH1 0x7B JUMP JUMPDEST PUSH1 0x40 MLOAD DUP1 SWAP2 SUB SWAP1 RETURN JUMPDEST JUMP JUMPDEST PUSH1 0x0 DUP1 SLOAD SWAP1 POP SWAP1 JUMP JUMPDEST PUSH1 0x0 DUP2 SWAP1 POP SWAP2 SWAP1 POP JUMP JUMPDEST PUSH1 0x75 DUP2 PUSH1 0x64 JUMP JUMPDEST DUP3 MSTORE POP POP JUMP JUMPDEST PUSH1 0x0 PUSH1 0x20 DUP3 ADD SWAP1 POP PUSH1 0x8E PUSH1 0x0 DUP4 ADD DUP5 PUSH1 0x6E JUMP JUMPDEST SWAP3 SWAP2 POP POP JUMP INVALID LOG2 PUSH5 0x6970667358 0x22 SLT KECCAK256 0xCB 0xEE 0xD7 0xDA DUP9 PUSH13 0xB65890B02F8C2453BF971883B6 GT MLOAD DUP13 CREATE2 0xFB PUSH26 0xAC794B2B60E84D64736F6C634300081300330000000000000000 "
				},
				"gasEstimates": {
					"creation": {
						"codeDepositCost": "40400",
						"executionCost": "5099",
						"totalCost": "45499"
					},
					"external": {
						"PikachuEncounter()": "122",
						"getCaptured()": "2437"
					}
				},
				"methodIdentifiers": {
					"PikachuEncounter()": "43a0b7a2",
					"getCaptured()": "ea21785a"
				}
			},
			"storageLayout": {
				"storage": [
					{
						"astId": 4,
						"contract": "sc/Pikachu2.sol:PikaTrucho",
						"label": "capturedPokemons",
						"offset": 0,
						"slot": "0",
						"type": "t_uint256"
					}
				],
				"types": {
					"t_uint256": {
						"encoding": "inplace",
						"label": "uint256",
						"numberOfBytes": "32"
					}
				}
			},
			"userdoc": {
				"kind": "user",
				"methods": {},
				"version": 1
			}
		}
	}
}