{
	"sc/register1.sol": {
		"RegisterAccess": {
			"abi": [
				{
					"inputs": [],
					"stateMutability": "nonpayable",
					"type": "constructor"
				},
				{
					"anonymous": false,
					"inputs": [
						{
							"indexed": false,
							"internalType": "string",
							"name": "oldInfo",
							"type": "string"
						},
						{
							"indexed": false,
							"internalType": "string",
							"name": "newInfo",
							"type": "string"
						}
					],
					"name": "InfoChange",
					"type": "event"
				},
				{
					"inputs": [
						{
							"internalType": "string",
							"name": "_info",
							"type": "string"
						}
					],
					"name": "addInfo",
					"outputs": [
						{
							"internalType": "uint256",
							"name": "index",
							"type": "uint256"
						}
					],
					"stateMutability": "nonpayable",
					"type": "function"
				},
				{
					"inputs": [
						{
							"internalType": "uint256",
							"name": "index",
							"type": "uint256"
						}
					],
					"name": "getInfo",
					"outputs": [
						{
							"internalType": "string",
							"name": "",
							"type": "string"
						}
					],
					"stateMutability": "view",
					"type": "function"
				},
				{
					"inputs": [],
					"name": "listInfo",
					"outputs": [
						{
							"internalType": "string[]",
							"name": "",
							"type": "string[]"
						}
					],
					"stateMutability": "view",
					"type": "function"
				},
				{
					"inputs": [],
					"name": "owner",
					"outputs": [
						{
							"internalType": "address",
							"name": "",
							"type": "address"
						}
					],
					"stateMutability": "view",
					"type": "function"
				},
				{
					"inputs": [
						{
							"internalType": "uint256",
							"name": "index",
							"type": "uint256"
						},
						{
							"internalType": "string",
							"name": "_info",
							"type": "string"
						}
					],
					"name": "setInfo",
					"outputs": [],
					"stateMutability": "nonpayable",
					"type": "function"
				}
			],
			"devdoc": {
				"kind": "dev",
				"methods": {},
				"version": 1
			},
			"evm": {
				"assembly": "    /* \"sc/register1.sol\":57:1343  contract RegisterAccess {... */\n  mstore(0x40, 0x80)\n    /* \"sc/register1.sol\":196:288  constructor() {... */\n  callvalue\n  dup1\n  iszero\n  tag_1\n  jumpi\n  0x00\n  dup1\n  revert\ntag_1:\n  pop\n    /* \"sc/register1.sol\":229:239  msg.sender */\n  caller\n    /* \"sc/register1.sol\":221:226  owner */\n  0x01\n  0x00\n    /* \"sc/register1.sol\":221:239  owner = msg.sender */\n  0x0100\n  exp\n  dup2\n  sload\n  dup2\n  0xffffffffffffffffffffffffffffffffffffffff\n  mul\n  not\n  and\n  swap1\n  dup4\n  0xffffffffffffffffffffffffffffffffffffffff\n  and\n  mul\n  or\n  swap1\n  sstore\n  pop\n    /* \"sc/register1.sol\":57:1343  contract RegisterAccess {... */\n  dataSize(sub_0)\n  dup1\n  dataOffset(sub_0)\n  0x00\n  codecopy\n  0x00\n  return\nstop\n\nsub_0: assembly {\n        /* \"sc/register1.sol\":57:1343  contract RegisterAccess {... */\n      mstore(0x40, 0x80)\n      callvalue\n      dup1\n      iszero\n      tag_1\n      jumpi\n      0x00\n      dup1\n      revert\n    tag_1:\n      pop\n      jumpi(tag_2, lt(calldatasize, 0x04))\n      shr(0xe0, calldataload(0x00))\n      dup1\n      0x0bf803e4\n      eq\n      tag_3\n      jumpi\n      dup1\n      0x1a3cd59a\n      eq\n      tag_4\n      jumpi\n      dup1\n      0x8da5cb5b\n      eq\n      tag_5\n      jumpi\n      dup1\n      0xb6820002\n      eq\n      tag_6\n      jumpi\n      dup1\n      0xd03d5849\n      eq\n      tag_7\n      jumpi\n    tag_2:\n      0x00\n      dup1\n      revert\n        /* \"sc/register1.sol\":856:1010  function addInfo(string memory _info) public /* onlyWhitelist*/ returns (uint index) {... */\n    tag_3:\n      tag_8\n      0x04\n      dup1\n      calldatasize\n      sub\n      dup2\n      add\n      swap1\n      tag_9\n      swap2\n      swap1\n      tag_10\n      jump\t// in\n    tag_9:\n      tag_11\n      jump\t// in\n    tag_8:\n      mload(0x40)\n      tag_12\n      swap2\n      swap1\n      tag_13\n      jump\t// in\n    tag_12:\n      mload(0x40)\n      dup1\n      swap2\n      sub\n      swap1\n      return\n        /* \"sc/register1.sol\":576:678  function getInfo(uint index) public view returns (string memory) {... */\n    tag_4:\n      tag_14\n      0x04\n      dup1\n      calldatasize\n      sub\n      dup2\n      add\n      swap1\n      tag_15\n      swap2\n      swap1\n      tag_16\n      jump\t// in\n    tag_15:\n      tag_17\n      jump\t// in\n    tag_14:\n      mload(0x40)\n      tag_18\n      swap2\n      swap1\n      tag_19\n      jump\t// in\n    tag_18:\n      mload(0x40)\n      dup1\n      swap2\n      sub\n      swap1\n      return\n        /* \"sc/register1.sol\":116:136  address public owner */\n    tag_5:\n      tag_20\n      tag_21\n      jump\t// in\n    tag_20:\n      mload(0x40)\n      tag_22\n      swap2\n      swap1\n      tag_23\n      jump\t// in\n    tag_22:\n      mload(0x40)\n      dup1\n      swap2\n      sub\n      swap1\n      return\n        /* \"sc/register1.sol\":686:846  function setInfo(uint index, string memory _info) public /*onlyWhitelist*/ {... */\n    tag_6:\n      tag_24\n      0x04\n      dup1\n      calldatasize\n      sub\n      dup2\n      add\n      swap1\n      tag_25\n      swap2\n      swap1\n      tag_26\n      jump\t// in\n    tag_25:\n      tag_27\n      jump\t// in\n    tag_24:\n      stop\n        /* \"sc/register1.sol\":1022:1110  function listInfo() public view returns (string[] memory) {... */\n    tag_7:\n      tag_28\n      tag_29\n      jump\t// in\n    tag_28:\n      mload(0x40)\n      tag_30\n      swap2\n      swap1\n      tag_31\n      jump\t// in\n    tag_30:\n      mload(0x40)\n      dup1\n      swap2\n      sub\n      swap1\n      return\n        /* \"sc/register1.sol\":856:1010  function addInfo(string memory _info) public /* onlyWhitelist*/ returns (uint index) {... */\n    tag_11:\n        /* \"sc/register1.sol\":929:939  uint index */\n      0x00\n        /* \"sc/register1.sol\":952:956  info */\n      dup1\n        /* \"sc/register1.sol\":963:968  _info */\n      dup3\n        /* \"sc/register1.sol\":952:969  info.push (_info) */\n      swap1\n      dup1\n      0x01\n      dup2\n      sload\n      add\n      dup1\n      dup3\n      sstore\n      dup1\n      swap2\n      pop\n      pop\n      0x01\n      swap1\n      sub\n      swap1\n      0x00\n      mstore\n      keccak256(0x00, 0x20)\n      add\n      0x00\n      swap1\n      swap2\n      swap1\n      swap2\n      swap1\n      swap2\n      pop\n      swap1\n      dup2\n      tag_34\n      swap2\n      swap1\n      tag_35\n      jump\t// in\n    tag_34:\n      pop\n        /* \"sc/register1.sol\":1001:1002  1 */\n      0x01\n        /* \"sc/register1.sol\":988:992  info */\n      0x00\n        /* \"sc/register1.sol\":988:999  info.length */\n      dup1\n      sload\n      swap1\n      pop\n        /* \"sc/register1.sol\":988:1002  info.length -1 */\n      tag_36\n      swap2\n      swap1\n      tag_37\n      jump\t// in\n    tag_36:\n        /* \"sc/register1.sol\":980:1002  index = info.length -1 */\n      swap1\n      pop\n        /* \"sc/register1.sol\":856:1010  function addInfo(string memory _info) public /* onlyWhitelist*/ returns (uint index) {... */\n      swap2\n      swap1\n      pop\n      jump\t// out\n        /* \"sc/register1.sol\":576:678  function getInfo(uint index) public view returns (string memory) {... */\n    tag_17:\n        /* \"sc/register1.sol\":626:639  string memory */\n      0x60\n        /* \"sc/register1.sol\":659:663  info */\n      0x00\n        /* \"sc/register1.sol\":664:669  index */\n      dup3\n        /* \"sc/register1.sol\":659:670  info[index] */\n      dup2\n      sload\n      dup2\n      lt\n      tag_39\n      jumpi\n      tag_40\n      tag_41\n      jump\t// in\n    tag_40:\n    tag_39:\n      swap1\n      0x00\n      mstore\n      keccak256(0x00, 0x20)\n      add\n        /* \"sc/register1.sol\":652:670  return info[index] */\n      dup1\n      sload\n      tag_43\n      swap1\n      tag_44\n      jump\t// in\n    tag_43:\n      dup1\n      0x1f\n      add\n      0x20\n      dup1\n      swap2\n      div\n      mul\n      0x20\n      add\n      mload(0x40)\n      swap1\n      dup2\n      add\n      0x40\n      mstore\n      dup1\n      swap3\n      swap2\n      swap1\n      dup2\n      dup2\n      mstore\n      0x20\n      add\n      dup3\n      dup1\n      sload\n      tag_45\n      swap1\n      tag_44\n      jump\t// in\n    tag_45:\n      dup1\n      iszero\n      tag_46\n      jumpi\n      dup1\n      0x1f\n      lt\n      tag_47\n      jumpi\n      0x0100\n      dup1\n      dup4\n      sload\n      div\n      mul\n      dup4\n      mstore\n      swap2\n      0x20\n      add\n      swap2\n      jump(tag_46)\n    tag_47:\n      dup3\n      add\n      swap2\n      swap1\n      0x00\n      mstore\n      keccak256(0x00, 0x20)\n      swap1\n    tag_48:\n      dup2\n      sload\n      dup2\n      mstore\n      swap1\n      0x01\n      add\n      swap1\n      0x20\n      add\n      dup1\n      dup4\n      gt\n      tag_48\n      jumpi\n      dup3\n      swap1\n      sub\n      0x1f\n      and\n      dup3\n      add\n      swap2\n    tag_46:\n      pop\n      pop\n      pop\n      pop\n      pop\n      swap1\n      pop\n        /* \"sc/register1.sol\":576:678  function getInfo(uint index) public view returns (string memory) {... */\n      swap2\n      swap1\n      pop\n      jump\t// out\n        /* \"sc/register1.sol\":116:136  address public owner */\n    tag_21:\n      0x01\n      0x00\n      swap1\n      sload\n      swap1\n      0x0100\n      exp\n      swap1\n      div\n      0xffffffffffffffffffffffffffffffffffffffff\n      and\n      dup2\n      jump\t// out\n        /* \"sc/register1.sol\":686:846  function setInfo(uint index, string memory _info) public /*onlyWhitelist*/ {... */\n    tag_27:\n        /* \"sc/register1.sol\":777:808  InfoChange (info[index], _info) */\n      0x305058d54db6daf26994cd687b168a24cdd9a7201462f1659782c4e429987992\n        /* \"sc/register1.sol\":789:793  info */\n      0x00\n        /* \"sc/register1.sol\":794:799  index */\n      dup4\n        /* \"sc/register1.sol\":789:800  info[index] */\n      dup2\n      sload\n      dup2\n      lt\n      tag_50\n      jumpi\n      tag_51\n      tag_41\n      jump\t// in\n    tag_51:\n    tag_50:\n      swap1\n      0x00\n      mstore\n      keccak256(0x00, 0x20)\n      add\n        /* \"sc/register1.sol\":802:807  _info */\n      dup3\n        /* \"sc/register1.sol\":777:808  InfoChange (info[index], _info) */\n      mload(0x40)\n      tag_53\n      swap3\n      swap2\n      swap1\n      tag_54\n      jump\t// in\n    tag_53:\n      mload(0x40)\n      dup1\n      swap2\n      sub\n      swap1\n      log1\n        /* \"sc/register1.sol\":833:838  _info */\n      dup1\n        /* \"sc/register1.sol\":819:823  info */\n      0x00\n        /* \"sc/register1.sol\":824:829  index */\n      dup4\n        /* \"sc/register1.sol\":819:830  info[index] */\n      dup2\n      sload\n      dup2\n      lt\n      tag_55\n      jumpi\n      tag_56\n      tag_41\n      jump\t// in\n    tag_56:\n    tag_55:\n      swap1\n      0x00\n      mstore\n      keccak256(0x00, 0x20)\n      add\n        /* \"sc/register1.sol\":819:838  info[index] = _info */\n      swap1\n      dup2\n      tag_58\n      swap2\n      swap1\n      tag_35\n      jump\t// in\n    tag_58:\n      pop\n        /* \"sc/register1.sol\":686:846  function setInfo(uint index, string memory _info) public /*onlyWhitelist*/ {... */\n      pop\n      pop\n      jump\t// out\n        /* \"sc/register1.sol\":1022:1110  function listInfo() public view returns (string[] memory) {... */\n    tag_29:\n        /* \"sc/register1.sol\":1063:1078  string[] memory */\n      0x60\n        /* \"sc/register1.sol\":1098:1102  info */\n      0x00\n        /* \"sc/register1.sol\":1091:1102  return info */\n      dup1\n      sload\n      dup1\n      0x20\n      mul\n      0x20\n      add\n      mload(0x40)\n      swap1\n      dup2\n      add\n      0x40\n      mstore\n      dup1\n      swap3\n      swap2\n      swap1\n      dup2\n      dup2\n      mstore\n      0x20\n      add\n      0x00\n      swap1\n    tag_60:\n      dup3\n      dup3\n      lt\n      iszero\n      tag_61\n      jumpi\n      dup4\n      dup3\n      swap1\n      0x00\n      mstore\n      keccak256(0x00, 0x20)\n      add\n      dup1\n      sload\n      tag_63\n      swap1\n      tag_44\n      jump\t// in\n    tag_63:\n      dup1\n      0x1f\n      add\n      0x20\n      dup1\n      swap2\n      div\n      mul\n      0x20\n      add\n      mload(0x40)\n      swap1\n      dup2\n      add\n      0x40\n      mstore\n      dup1\n      swap3\n      swap2\n      swap1\n      dup2\n      dup2\n      mstore\n      0x20\n      add\n      dup3\n      dup1\n      sload\n      tag_64\n      swap1\n      tag_44\n      jump\t// in\n    tag_64:\n      dup1\n      iszero\n      tag_65\n      jumpi\n      dup1\n      0x1f\n      lt\n      tag_66\n      jumpi\n      0x0100\n      dup1\n      dup4\n      sload\n      div\n      mul\n      dup4\n      mstore\n      swap2\n      0x20\n      add\n      swap2\n      jump(tag_65)\n    tag_66:\n      dup3\n      add\n      swap2\n      swap1\n      0x00\n      mstore\n      keccak256(0x00, 0x20)\n      swap1\n    tag_67:\n      dup2\n      sload\n      dup2\n      mstore\n      swap1\n      0x01\n      add\n      swap1\n      0x20\n      add\n      dup1\n      dup4\n      gt\n      tag_67\n      jumpi\n      dup3\n      swap1\n      sub\n      0x1f\n      and\n      dup3\n      add\n      swap2\n    tag_65:\n      pop\n      pop\n      pop\n      pop\n      pop\n      dup2\n      mstore\n      0x20\n      add\n      swap1\n      0x01\n      add\n      swap1\n      jump(tag_60)\n    tag_61:\n      pop\n      pop\n      pop\n      pop\n      swap1\n      pop\n        /* \"sc/register1.sol\":1022:1110  function listInfo() public view returns (string[] memory) {... */\n      swap1\n      jump\t// out\n        /* \"#utility.yul\":7:82   */\n    tag_68:\n        /* \"#utility.yul\":40:46   */\n      0x00\n        /* \"#utility.yul\":73:75   */\n      0x40\n        /* \"#utility.yul\":67:76   */\n      mload\n        /* \"#utility.yul\":57:76   */\n      swap1\n      pop\n        /* \"#utility.yul\":7:82   */\n      swap1\n      jump\t// out\n        /* \"#utility.yul\":88:205   */\n    tag_69:\n        /* \"#utility.yul\":197:198   */\n      0x00\n        /* \"#utility.yul\":194:195   */\n      dup1\n        /* \"#utility.yul\":187:199   */\n      revert\n        /* \"#utility.yul\":211:328   */\n    tag_70:\n        /* \"#utility.yul\":320:321   */\n      0x00\n        /* \"#utility.yul\":317:318   */\n      dup1\n        /* \"#utility.yul\":310:322   */\n      revert\n        /* \"#utility.yul\":334:451   */\n    tag_71:\n        /* \"#utility.yul\":443:444   */\n      0x00\n        /* \"#utility.yul\":440:441   */\n      dup1\n        /* \"#utility.yul\":433:445   */\n      revert\n        /* \"#utility.yul\":457:574   */\n    tag_72:\n        /* \"#utility.yul\":566:567   */\n      0x00\n        /* \"#utility.yul\":563:564   */\n      dup1\n        /* \"#utility.yul\":556:568   */\n      revert\n        /* \"#utility.yul\":580:682   */\n    tag_73:\n        /* \"#utility.yul\":621:627   */\n      0x00\n        /* \"#utility.yul\":672:674   */\n      0x1f\n        /* \"#utility.yul\":668:675   */\n      not\n        /* \"#utility.yul\":663:665   */\n      0x1f\n        /* \"#utility.yul\":656:661   */\n      dup4\n        /* \"#utility.yul\":652:666   */\n      add\n        /* \"#utility.yul\":648:676   */\n      and\n        /* \"#utility.yul\":638:676   */\n      swap1\n      pop\n        /* \"#utility.yul\":580:682   */\n      swap2\n      swap1\n      pop\n      jump\t// out\n        /* \"#utility.yul\":688:868   */\n    tag_74:\n        /* \"#utility.yul\":736:813   */\n      0x4e487b7100000000000000000000000000000000000000000000000000000000\n        /* \"#utility.yul\":733:734   */\n      0x00\n        /* \"#utility.yul\":726:814   */\n      mstore\n        /* \"#utility.yul\":833:837   */\n      0x41\n        /* \"#utility.yul\":830:831   */\n      0x04\n        /* \"#utility.yul\":823:838   */\n      mstore\n        /* \"#utility.yul\":857:861   */\n      0x24\n        /* \"#utility.yul\":854:855   */\n      0x00\n        /* \"#utility.yul\":847:862   */\n      revert\n        /* \"#utility.yul\":874:1155   */\n    tag_75:\n        /* \"#utility.yul\":957:984   */\n      tag_127\n        /* \"#utility.yul\":979:983   */\n      dup3\n        /* \"#utility.yul\":957:984   */\n      tag_73\n      jump\t// in\n    tag_127:\n        /* \"#utility.yul\":949:955   */\n      dup2\n        /* \"#utility.yul\":945:985   */\n      add\n        /* \"#utility.yul\":1087:1093   */\n      dup2\n        /* \"#utility.yul\":1075:1085   */\n      dup2\n        /* \"#utility.yul\":1072:1094   */\n      lt\n        /* \"#utility.yul\":1051:1069   */\n      0xffffffffffffffff\n        /* \"#utility.yul\":1039:1049   */\n      dup3\n        /* \"#utility.yul\":1036:1070   */\n      gt\n        /* \"#utility.yul\":1033:1095   */\n      or\n        /* \"#utility.yul\":1030:1118   */\n      iszero\n      tag_128\n      jumpi\n        /* \"#utility.yul\":1098:1116   */\n      tag_129\n      tag_74\n      jump\t// in\n    tag_129:\n        /* \"#utility.yul\":1030:1118   */\n    tag_128:\n        /* \"#utility.yul\":1138:1148   */\n      dup1\n        /* \"#utility.yul\":1134:1136   */\n      0x40\n        /* \"#utility.yul\":1127:1149   */\n      mstore\n        /* \"#utility.yul\":917:1155   */\n      pop\n        /* \"#utility.yul\":874:1155   */\n      pop\n      pop\n      jump\t// out\n        /* \"#utility.yul\":1161:1290   */\n    tag_76:\n        /* \"#utility.yul\":1195:1201   */\n      0x00\n        /* \"#utility.yul\":1222:1242   */\n      tag_131\n      tag_68\n      jump\t// in\n    tag_131:\n        /* \"#utility.yul\":1212:1242   */\n      swap1\n      pop\n        /* \"#utility.yul\":1251:1284   */\n      tag_132\n        /* \"#utility.yul\":1279:1283   */\n      dup3\n        /* \"#utility.yul\":1271:1277   */\n      dup3\n        /* \"#utility.yul\":1251:1284   */\n      tag_75\n      jump\t// in\n    tag_132:\n        /* \"#utility.yul\":1161:1290   */\n      swap2\n      swap1\n      pop\n      jump\t// out\n        /* \"#utility.yul\":1296:1604   */\n    tag_77:\n        /* \"#utility.yul\":1358:1362   */\n      0x00\n        /* \"#utility.yul\":1448:1466   */\n      0xffffffffffffffff\n        /* \"#utility.yul\":1440:1446   */\n      dup3\n        /* \"#utility.yul\":1437:1467   */\n      gt\n        /* \"#utility.yul\":1434:1490   */\n      iszero\n      tag_134\n      jumpi\n        /* \"#utility.yul\":1470:1488   */\n      tag_135\n      tag_74\n      jump\t// in\n    tag_135:\n        /* \"#utility.yul\":1434:1490   */\n    tag_134:\n        /* \"#utility.yul\":1508:1537   */\n      tag_136\n        /* \"#utility.yul\":1530:1536   */\n      dup3\n        /* \"#utility.yul\":1508:1537   */\n      tag_73\n      jump\t// in\n    tag_136:\n        /* \"#utility.yul\":1500:1537   */\n      swap1\n      pop\n        /* \"#utility.yul\":1592:1596   */\n      0x20\n        /* \"#utility.yul\":1586:1590   */\n      dup2\n        /* \"#utility.yul\":1582:1597   */\n      add\n        /* \"#utility.yul\":1574:1597   */\n      swap1\n      pop\n        /* \"#utility.yul\":1296:1604   */\n      swap2\n      swap1\n      pop\n      jump\t// out\n        /* \"#utility.yul\":1610:1756   */\n    tag_78:\n        /* \"#utility.yul\":1707:1713   */\n      dup3\n        /* \"#utility.yul\":1702:1705   */\n      dup2\n        /* \"#utility.yul\":1697:1700   */\n      dup4\n        /* \"#utility.yul\":1684:1714   */\n      calldatacopy\n        /* \"#utility.yul\":1748:1749   */\n      0x00\n        /* \"#utility.yul\":1739:1745   */\n      dup4\n        /* \"#utility.yul\":1734:1737   */\n      dup4\n        /* \"#utility.yul\":1730:1746   */\n      add\n        /* \"#utility.yul\":1723:1750   */\n      mstore\n        /* \"#utility.yul\":1610:1756   */\n      pop\n      pop\n      pop\n      jump\t// out\n        /* \"#utility.yul\":1762:2187   */\n    tag_79:\n        /* \"#utility.yul\":1840:1845   */\n      0x00\n        /* \"#utility.yul\":1865:1931   */\n      tag_139\n        /* \"#utility.yul\":1881:1930   */\n      tag_140\n        /* \"#utility.yul\":1923:1929   */\n      dup5\n        /* \"#utility.yul\":1881:1930   */\n      tag_77\n      jump\t// in\n    tag_140:\n        /* \"#utility.yul\":1865:1931   */\n      tag_76\n      jump\t// in\n    tag_139:\n        /* \"#utility.yul\":1856:1931   */\n      swap1\n      pop\n        /* \"#utility.yul\":1954:1960   */\n      dup3\n        /* \"#utility.yul\":1947:1952   */\n      dup2\n        /* \"#utility.yul\":1940:1961   */\n      mstore\n        /* \"#utility.yul\":1992:1996   */\n      0x20\n        /* \"#utility.yul\":1985:1990   */\n      dup2\n        /* \"#utility.yul\":1981:1997   */\n      add\n        /* \"#utility.yul\":2030:2033   */\n      dup5\n        /* \"#utility.yul\":2021:2027   */\n      dup5\n        /* \"#utility.yul\":2016:2019   */\n      dup5\n        /* \"#utility.yul\":2012:2028   */\n      add\n        /* \"#utility.yul\":2009:2034   */\n      gt\n        /* \"#utility.yul\":2006:2118   */\n      iszero\n      tag_141\n      jumpi\n        /* \"#utility.yul\":2037:2116   */\n      tag_142\n      tag_72\n      jump\t// in\n    tag_142:\n        /* \"#utility.yul\":2006:2118   */\n    tag_141:\n        /* \"#utility.yul\":2127:2181   */\n      tag_143\n        /* \"#utility.yul\":2174:2180   */\n      dup5\n        /* \"#utility.yul\":2169:2172   */\n      dup3\n        /* \"#utility.yul\":2164:2167   */\n      dup6\n        /* \"#utility.yul\":2127:2181   */\n      tag_78\n      jump\t// in\n    tag_143:\n        /* \"#utility.yul\":1846:2187   */\n      pop\n        /* \"#utility.yul\":1762:2187   */\n      swap4\n      swap3\n      pop\n      pop\n      pop\n      jump\t// out\n        /* \"#utility.yul\":2207:2547   */\n    tag_80:\n        /* \"#utility.yul\":2263:2268   */\n      0x00\n        /* \"#utility.yul\":2312:2315   */\n      dup3\n        /* \"#utility.yul\":2305:2309   */\n      0x1f\n        /* \"#utility.yul\":2297:2303   */\n      dup4\n        /* \"#utility.yul\":2293:2310   */\n      add\n        /* \"#utility.yul\":2289:2316   */\n      slt\n        /* \"#utility.yul\":2279:2401   */\n      tag_145\n      jumpi\n        /* \"#utility.yul\":2320:2399   */\n      tag_146\n      tag_71\n      jump\t// in\n    tag_146:\n        /* \"#utility.yul\":2279:2401   */\n    tag_145:\n        /* \"#utility.yul\":2437:2443   */\n      dup2\n        /* \"#utility.yul\":2424:2444   */\n      calldataload\n        /* \"#utility.yul\":2462:2541   */\n      tag_147\n        /* \"#utility.yul\":2537:2540   */\n      dup5\n        /* \"#utility.yul\":2529:2535   */\n      dup3\n        /* \"#utility.yul\":2522:2526   */\n      0x20\n        /* \"#utility.yul\":2514:2520   */\n      dup7\n        /* \"#utility.yul\":2510:2527   */\n      add\n        /* \"#utility.yul\":2462:2541   */\n      tag_79\n      jump\t// in\n    tag_147:\n        /* \"#utility.yul\":2453:2541   */\n      swap2\n      pop\n        /* \"#utility.yul\":2269:2547   */\n      pop\n        /* \"#utility.yul\":2207:2547   */\n      swap3\n      swap2\n      pop\n      pop\n      jump\t// out\n        /* \"#utility.yul\":2553:3062   */\n    tag_10:\n        /* \"#utility.yul\":2622:2628   */\n      0x00\n        /* \"#utility.yul\":2671:2673   */\n      0x20\n        /* \"#utility.yul\":2659:2668   */\n      dup3\n        /* \"#utility.yul\":2650:2657   */\n      dup5\n        /* \"#utility.yul\":2646:2669   */\n      sub\n        /* \"#utility.yul\":2642:2674   */\n      slt\n        /* \"#utility.yul\":2639:2758   */\n      iszero\n      tag_149\n      jumpi\n        /* \"#utility.yul\":2677:2756   */\n      tag_150\n      tag_69\n      jump\t// in\n    tag_150:\n        /* \"#utility.yul\":2639:2758   */\n    tag_149:\n        /* \"#utility.yul\":2825:2826   */\n      0x00\n        /* \"#utility.yul\":2814:2823   */\n      dup3\n        /* \"#utility.yul\":2810:2827   */\n      add\n        /* \"#utility.yul\":2797:2828   */\n      calldataload\n        /* \"#utility.yul\":2855:2873   */\n      0xffffffffffffffff\n        /* \"#utility.yul\":2847:2853   */\n      dup2\n        /* \"#utility.yul\":2844:2874   */\n      gt\n        /* \"#utility.yul\":2841:2958   */\n      iszero\n      tag_151\n      jumpi\n        /* \"#utility.yul\":2877:2956   */\n      tag_152\n      tag_70\n      jump\t// in\n    tag_152:\n        /* \"#utility.yul\":2841:2958   */\n    tag_151:\n        /* \"#utility.yul\":2982:3045   */\n      tag_153\n        /* \"#utility.yul\":3037:3044   */\n      dup5\n        /* \"#utility.yul\":3028:3034   */\n      dup3\n        /* \"#utility.yul\":3017:3026   */\n      dup6\n        /* \"#utility.yul\":3013:3035   */\n      add\n        /* \"#utility.yul\":2982:3045   */\n      tag_80\n      jump\t// in\n    tag_153:\n        /* \"#utility.yul\":2972:3045   */\n      swap2\n      pop\n        /* \"#utility.yul\":2768:3055   */\n      pop\n        /* \"#utility.yul\":2553:3062   */\n      swap3\n      swap2\n      pop\n      pop\n      jump\t// out\n        /* \"#utility.yul\":3068:3145   */\n    tag_81:\n        /* \"#utility.yul\":3105:3112   */\n      0x00\n        /* \"#utility.yul\":3134:3139   */\n      dup2\n        /* \"#utility.yul\":3123:3139   */\n      swap1\n      pop\n        /* \"#utility.yul\":3068:3145   */\n      swap2\n      swap1\n      pop\n      jump\t// out\n        /* \"#utility.yul\":3151:3269   */\n    tag_82:\n        /* \"#utility.yul\":3238:3262   */\n      tag_156\n        /* \"#utility.yul\":3256:3261   */\n      dup2\n        /* \"#utility.yul\":3238:3262   */\n      tag_81\n      jump\t// in\n    tag_156:\n        /* \"#utility.yul\":3233:3236   */\n      dup3\n        /* \"#utility.yul\":3226:3263   */\n      mstore\n        /* \"#utility.yul\":3151:3269   */\n      pop\n      pop\n      jump\t// out\n        /* \"#utility.yul\":3275:3497   */\n    tag_13:\n        /* \"#utility.yul\":3368:3372   */\n      0x00\n        /* \"#utility.yul\":3406:3408   */\n      0x20\n        /* \"#utility.yul\":3395:3404   */\n      dup3\n        /* \"#utility.yul\":3391:3409   */\n      add\n        /* \"#utility.yul\":3383:3409   */\n      swap1\n      pop\n        /* \"#utility.yul\":3419:3490   */\n      tag_158\n        /* \"#utility.yul\":3487:3488   */\n      0x00\n        /* \"#utility.yul\":3476:3485   */\n      dup4\n        /* \"#utility.yul\":3472:3489   */\n      add\n        /* \"#utility.yul\":3463:3469   */\n      dup5\n        /* \"#utility.yul\":3419:3490   */\n      tag_82\n      jump\t// in\n    tag_158:\n        /* \"#utility.yul\":3275:3497   */\n      swap3\n      swap2\n      pop\n      pop\n      jump\t// out\n        /* \"#utility.yul\":3503:3625   */\n    tag_83:\n        /* \"#utility.yul\":3576:3600   */\n      tag_160\n        /* \"#utility.yul\":3594:3599   */\n      dup2\n        /* \"#utility.yul\":3576:3600   */\n      tag_81\n      jump\t// in\n    tag_160:\n        /* \"#utility.yul\":3569:3574   */\n      dup2\n        /* \"#utility.yul\":3566:3601   */\n      eq\n        /* \"#utility.yul\":3556:3619   */\n      tag_161\n      jumpi\n        /* \"#utility.yul\":3615:3616   */\n      0x00\n        /* \"#utility.yul\":3612:3613   */\n      dup1\n        /* \"#utility.yul\":3605:3617   */\n      revert\n        /* \"#utility.yul\":3556:3619   */\n    tag_161:\n        /* \"#utility.yul\":3503:3625   */\n      pop\n      jump\t// out\n        /* \"#utility.yul\":3631:3770   */\n    tag_84:\n        /* \"#utility.yul\":3677:3682   */\n      0x00\n        /* \"#utility.yul\":3715:3721   */\n      dup2\n        /* \"#utility.yul\":3702:3722   */\n      calldataload\n        /* \"#utility.yul\":3693:3722   */\n      swap1\n      pop\n        /* \"#utility.yul\":3731:3764   */\n      tag_163\n        /* \"#utility.yul\":3758:3763   */\n      dup2\n        /* \"#utility.yul\":3731:3764   */\n      tag_83\n      jump\t// in\n    tag_163:\n        /* \"#utility.yul\":3631:3770   */\n      swap3\n      swap2\n      pop\n      pop\n      jump\t// out\n        /* \"#utility.yul\":3776:4105   */\n    tag_16:\n        /* \"#utility.yul\":3835:3841   */\n      0x00\n        /* \"#utility.yul\":3884:3886   */\n      0x20\n        /* \"#utility.yul\":3872:3881   */\n      dup3\n        /* \"#utility.yul\":3863:3870   */\n      dup5\n        /* \"#utility.yul\":3859:3882   */\n      sub\n        /* \"#utility.yul\":3855:3887   */\n      slt\n        /* \"#utility.yul\":3852:3971   */\n      iszero\n      tag_165\n      jumpi\n        /* \"#utility.yul\":3890:3969   */\n      tag_166\n      tag_69\n      jump\t// in\n    tag_166:\n        /* \"#utility.yul\":3852:3971   */\n    tag_165:\n        /* \"#utility.yul\":4010:4011   */\n      0x00\n        /* \"#utility.yul\":4035:4088   */\n      tag_167\n        /* \"#utility.yul\":4080:4087   */\n      dup5\n        /* \"#utility.yul\":4071:4077   */\n      dup3\n        /* \"#utility.yul\":4060:4069   */\n      dup6\n        /* \"#utility.yul\":4056:4078   */\n      add\n        /* \"#utility.yul\":4035:4088   */\n      tag_84\n      jump\t// in\n    tag_167:\n        /* \"#utility.yul\":4025:4088   */\n      swap2\n      pop\n        /* \"#utility.yul\":3981:4098   */\n      pop\n        /* \"#utility.yul\":3776:4105   */\n      swap3\n      swap2\n      pop\n      pop\n      jump\t// out\n        /* \"#utility.yul\":4111:4210   */\n    tag_85:\n        /* \"#utility.yul\":4163:4169   */\n      0x00\n        /* \"#utility.yul\":4197:4202   */\n      dup2\n        /* \"#utility.yul\":4191:4203   */\n      mload\n        /* \"#utility.yul\":4181:4203   */\n      swap1\n      pop\n        /* \"#utility.yul\":4111:4210   */\n      swap2\n      swap1\n      pop\n      jump\t// out\n        /* \"#utility.yul\":4216:4385   */\n    tag_86:\n        /* \"#utility.yul\":4300:4311   */\n      0x00\n        /* \"#utility.yul\":4334:4340   */\n      dup3\n        /* \"#utility.yul\":4329:4332   */\n      dup3\n        /* \"#utility.yul\":4322:4341   */\n      mstore\n        /* \"#utility.yul\":4374:4378   */\n      0x20\n        /* \"#utility.yul\":4369:4372   */\n      dup3\n        /* \"#utility.yul\":4365:4379   */\n      add\n        /* \"#utility.yul\":4350:4379   */\n      swap1\n      pop\n        /* \"#utility.yul\":4216:4385   */\n      swap3\n      swap2\n      pop\n      pop\n      jump\t// out\n        /* \"#utility.yul\":4391:4637   */\n    tag_87:\n        /* \"#utility.yul\":4472:4473   */\n      0x00\n        /* \"#utility.yul\":4482:4595   */\n    tag_171:\n        /* \"#utility.yul\":4496:4502   */\n      dup4\n        /* \"#utility.yul\":4493:4494   */\n      dup2\n        /* \"#utility.yul\":4490:4503   */\n      lt\n        /* \"#utility.yul\":4482:4595   */\n      iszero\n      tag_173\n      jumpi\n        /* \"#utility.yul\":4581:4582   */\n      dup1\n        /* \"#utility.yul\":4576:4579   */\n      dup3\n        /* \"#utility.yul\":4572:4583   */\n      add\n        /* \"#utility.yul\":4566:4584   */\n      mload\n        /* \"#utility.yul\":4562:4563   */\n      dup2\n        /* \"#utility.yul\":4557:4560   */\n      dup5\n        /* \"#utility.yul\":4553:4564   */\n      add\n        /* \"#utility.yul\":4546:4585   */\n      mstore\n        /* \"#utility.yul\":4518:4520   */\n      0x20\n        /* \"#utility.yul\":4515:4516   */\n      dup2\n        /* \"#utility.yul\":4511:4521   */\n      add\n        /* \"#utility.yul\":4506:4521   */\n      swap1\n      pop\n        /* \"#utility.yul\":4482:4595   */\n      jump(tag_171)\n    tag_173:\n        /* \"#utility.yul\":4629:4630   */\n      0x00\n        /* \"#utility.yul\":4620:4626   */\n      dup5\n        /* \"#utility.yul\":4615:4618   */\n      dup5\n        /* \"#utility.yul\":4611:4627   */\n      add\n        /* \"#utility.yul\":4604:4631   */\n      mstore\n        /* \"#utility.yul\":4453:4637   */\n      pop\n        /* \"#utility.yul\":4391:4637   */\n      pop\n      pop\n      pop\n      jump\t// out\n        /* \"#utility.yul\":4643:5020   */\n    tag_88:\n        /* \"#utility.yul\":4731:4734   */\n      0x00\n        /* \"#utility.yul\":4759:4798   */\n      tag_175\n        /* \"#utility.yul\":4792:4797   */\n      dup3\n        /* \"#utility.yul\":4759:4798   */\n      tag_85\n      jump\t// in\n    tag_175:\n        /* \"#utility.yul\":4814:4885   */\n      tag_176\n        /* \"#utility.yul\":4878:4884   */\n      dup2\n        /* \"#utility.yul\":4873:4876   */\n      dup6\n        /* \"#utility.yul\":4814:4885   */\n      tag_86\n      jump\t// in\n    tag_176:\n        /* \"#utility.yul\":4807:4885   */\n      swap4\n      pop\n        /* \"#utility.yul\":4894:4959   */\n      tag_177\n        /* \"#utility.yul\":4952:4958   */\n      dup2\n        /* \"#utility.yul\":4947:4950   */\n      dup6\n        /* \"#utility.yul\":4940:4944   */\n      0x20\n        /* \"#utility.yul\":4933:4938   */\n      dup7\n        /* \"#utility.yul\":4929:4945   */\n      add\n        /* \"#utility.yul\":4894:4959   */\n      tag_87\n      jump\t// in\n    tag_177:\n        /* \"#utility.yul\":4984:5013   */\n      tag_178\n        /* \"#utility.yul\":5006:5012   */\n      dup2\n        /* \"#utility.yul\":4984:5013   */\n      tag_73\n      jump\t// in\n    tag_178:\n        /* \"#utility.yul\":4979:4982   */\n      dup5\n        /* \"#utility.yul\":4975:5014   */\n      add\n        /* \"#utility.yul\":4968:5014   */\n      swap2\n      pop\n        /* \"#utility.yul\":4735:5020   */\n      pop\n        /* \"#utility.yul\":4643:5020   */\n      swap3\n      swap2\n      pop\n      pop\n      jump\t// out\n        /* \"#utility.yul\":5026:5339   */\n    tag_19:\n        /* \"#utility.yul\":5139:5143   */\n      0x00\n        /* \"#utility.yul\":5177:5179   */\n      0x20\n        /* \"#utility.yul\":5166:5175   */\n      dup3\n        /* \"#utility.yul\":5162:5180   */\n      add\n        /* \"#utility.yul\":5154:5180   */\n      swap1\n      pop\n        /* \"#utility.yul\":5226:5235   */\n      dup2\n        /* \"#utility.yul\":5220:5224   */\n      dup2\n        /* \"#utility.yul\":5216:5236   */\n      sub\n        /* \"#utility.yul\":5212:5213   */\n      0x00\n        /* \"#utility.yul\":5201:5210   */\n      dup4\n        /* \"#utility.yul\":5197:5214   */\n      add\n        /* \"#utility.yul\":5190:5237   */\n      mstore\n        /* \"#utility.yul\":5254:5332   */\n      tag_180\n        /* \"#utility.yul\":5327:5331   */\n      dup2\n        /* \"#utility.yul\":5318:5324   */\n      dup5\n        /* \"#utility.yul\":5254:5332   */\n      tag_88\n      jump\t// in\n    tag_180:\n        /* \"#utility.yul\":5246:5332   */\n      swap1\n      pop\n        /* \"#utility.yul\":5026:5339   */\n      swap3\n      swap2\n      pop\n      pop\n      jump\t// out\n        /* \"#utility.yul\":5345:5471   */\n    tag_89:\n        /* \"#utility.yul\":5382:5389   */\n      0x00\n        /* \"#utility.yul\":5422:5464   */\n      0xffffffffffffffffffffffffffffffffffffffff\n        /* \"#utility.yul\":5415:5420   */\n      dup3\n        /* \"#utility.yul\":5411:5465   */\n      and\n        /* \"#utility.yul\":5400:5465   */\n      swap1\n      pop\n        /* \"#utility.yul\":5345:5471   */\n      swap2\n      swap1\n      pop\n      jump\t// out\n        /* \"#utility.yul\":5477:5573   */\n    tag_90:\n        /* \"#utility.yul\":5514:5521   */\n      0x00\n        /* \"#utility.yul\":5543:5567   */\n      tag_183\n        /* \"#utility.yul\":5561:5566   */\n      dup3\n        /* \"#utility.yul\":5543:5567   */\n      tag_89\n      jump\t// in\n    tag_183:\n        /* \"#utility.yul\":5532:5567   */\n      swap1\n      pop\n        /* \"#utility.yul\":5477:5573   */\n      swap2\n      swap1\n      pop\n      jump\t// out\n        /* \"#utility.yul\":5579:5697   */\n    tag_91:\n        /* \"#utility.yul\":5666:5690   */\n      tag_185\n        /* \"#utility.yul\":5684:5689   */\n      dup2\n        /* \"#utility.yul\":5666:5690   */\n      tag_90\n      jump\t// in\n    tag_185:\n        /* \"#utility.yul\":5661:5664   */\n      dup3\n        /* \"#utility.yul\":5654:5691   */\n      mstore\n        /* \"#utility.yul\":5579:5697   */\n      pop\n      pop\n      jump\t// out\n        /* \"#utility.yul\":5703:5925   */\n    tag_23:\n        /* \"#utility.yul\":5796:5800   */\n      0x00\n        /* \"#utility.yul\":5834:5836   */\n      0x20\n        /* \"#utility.yul\":5823:5832   */\n      dup3\n        /* \"#utility.yul\":5819:5837   */\n      add\n        /* \"#utility.yul\":5811:5837   */\n      swap1\n      pop\n        /* \"#utility.yul\":5847:5918   */\n      tag_187\n        /* \"#utility.yul\":5915:5916   */\n      0x00\n        /* \"#utility.yul\":5904:5913   */\n      dup4\n        /* \"#utility.yul\":5900:5917   */\n      add\n        /* \"#utility.yul\":5891:5897   */\n      dup5\n        /* \"#utility.yul\":5847:5918   */\n      tag_91\n      jump\t// in\n    tag_187:\n        /* \"#utility.yul\":5703:5925   */\n      swap3\n      swap2\n      pop\n      pop\n      jump\t// out\n        /* \"#utility.yul\":5931:6585   */\n    tag_26:\n        /* \"#utility.yul\":6009:6015   */\n      0x00\n        /* \"#utility.yul\":6017:6023   */\n      dup1\n        /* \"#utility.yul\":6066:6068   */\n      0x40\n        /* \"#utility.yul\":6054:6063   */\n      dup4\n        /* \"#utility.yul\":6045:6052   */\n      dup6\n        /* \"#utility.yul\":6041:6064   */\n      sub\n        /* \"#utility.yul\":6037:6069   */\n      slt\n        /* \"#utility.yul\":6034:6153   */\n      iszero\n      tag_189\n      jumpi\n        /* \"#utility.yul\":6072:6151   */\n      tag_190\n      tag_69\n      jump\t// in\n    tag_190:\n        /* \"#utility.yul\":6034:6153   */\n    tag_189:\n        /* \"#utility.yul\":6192:6193   */\n      0x00\n        /* \"#utility.yul\":6217:6270   */\n      tag_191\n        /* \"#utility.yul\":6262:6269   */\n      dup6\n        /* \"#utility.yul\":6253:6259   */\n      dup3\n        /* \"#utility.yul\":6242:6251   */\n      dup7\n        /* \"#utility.yul\":6238:6260   */\n      add\n        /* \"#utility.yul\":6217:6270   */\n      tag_84\n      jump\t// in\n    tag_191:\n        /* \"#utility.yul\":6207:6270   */\n      swap3\n      pop\n        /* \"#utility.yul\":6163:6280   */\n      pop\n        /* \"#utility.yul\":6347:6349   */\n      0x20\n        /* \"#utility.yul\":6336:6345   */\n      dup4\n        /* \"#utility.yul\":6332:6350   */\n      add\n        /* \"#utility.yul\":6319:6351   */\n      calldataload\n        /* \"#utility.yul\":6378:6396   */\n      0xffffffffffffffff\n        /* \"#utility.yul\":6370:6376   */\n      dup2\n        /* \"#utility.yul\":6367:6397   */\n      gt\n        /* \"#utility.yul\":6364:6481   */\n      iszero\n      tag_192\n      jumpi\n        /* \"#utility.yul\":6400:6479   */\n      tag_193\n      tag_70\n      jump\t// in\n    tag_193:\n        /* \"#utility.yul\":6364:6481   */\n    tag_192:\n        /* \"#utility.yul\":6505:6568   */\n      tag_194\n        /* \"#utility.yul\":6560:6567   */\n      dup6\n        /* \"#utility.yul\":6551:6557   */\n      dup3\n        /* \"#utility.yul\":6540:6549   */\n      dup7\n        /* \"#utility.yul\":6536:6558   */\n      add\n        /* \"#utility.yul\":6505:6568   */\n      tag_80\n      jump\t// in\n    tag_194:\n        /* \"#utility.yul\":6495:6568   */\n      swap2\n      pop\n        /* \"#utility.yul\":6290:6578   */\n      pop\n        /* \"#utility.yul\":5931:6585   */\n      swap3\n      pop\n      swap3\n      swap1\n      pop\n      jump\t// out\n        /* \"#utility.yul\":6591:6715   */\n    tag_92:\n        /* \"#utility.yul\":6668:6674   */\n      0x00\n        /* \"#utility.yul\":6702:6707   */\n      dup2\n        /* \"#utility.yul\":6696:6708   */\n      mload\n        /* \"#utility.yul\":6686:6708   */\n      swap1\n      pop\n        /* \"#utility.yul\":6591:6715   */\n      swap2\n      swap1\n      pop\n      jump\t// out\n        /* \"#utility.yul\":6721:6915   */\n    tag_93:\n        /* \"#utility.yul\":6830:6841   */\n      0x00\n        /* \"#utility.yul\":6864:6870   */\n      dup3\n        /* \"#utility.yul\":6859:6862   */\n      dup3\n        /* \"#utility.yul\":6852:6871   */\n      mstore\n        /* \"#utility.yul\":6904:6908   */\n      0x20\n        /* \"#utility.yul\":6899:6902   */\n      dup3\n        /* \"#utility.yul\":6895:6909   */\n      add\n        /* \"#utility.yul\":6880:6909   */\n      swap1\n      pop\n        /* \"#utility.yul\":6721:6915   */\n      swap3\n      swap2\n      pop\n      pop\n      jump\t// out\n        /* \"#utility.yul\":6921:7063   */\n    tag_94:\n        /* \"#utility.yul\":6998:7002   */\n      0x00\n        /* \"#utility.yul\":7021:7024   */\n      dup2\n        /* \"#utility.yul\":7013:7024   */\n      swap1\n      pop\n        /* \"#utility.yul\":7051:7055   */\n      0x20\n        /* \"#utility.yul\":7046:7049   */\n      dup3\n        /* \"#utility.yul\":7042:7056   */\n      add\n        /* \"#utility.yul\":7034:7056   */\n      swap1\n      pop\n        /* \"#utility.yul\":6921:7063   */\n      swap2\n      swap1\n      pop\n      jump\t// out\n        /* \"#utility.yul\":7069:7228   */\n    tag_95:\n        /* \"#utility.yul\":7143:7154   */\n      0x00\n        /* \"#utility.yul\":7177:7183   */\n      dup3\n        /* \"#utility.yul\":7172:7175   */\n      dup3\n        /* \"#utility.yul\":7165:7184   */\n      mstore\n        /* \"#utility.yul\":7217:7221   */\n      0x20\n        /* \"#utility.yul\":7212:7215   */\n      dup3\n        /* \"#utility.yul\":7208:7222   */\n      add\n        /* \"#utility.yul\":7193:7222   */\n      swap1\n      pop\n        /* \"#utility.yul\":7069:7228   */\n      swap3\n      swap2\n      pop\n      pop\n      jump\t// out\n        /* \"#utility.yul\":7234:7591   */\n    tag_96:\n        /* \"#utility.yul\":7312:7315   */\n      0x00\n        /* \"#utility.yul\":7340:7379   */\n      tag_200\n        /* \"#utility.yul\":7373:7378   */\n      dup3\n        /* \"#utility.yul\":7340:7379   */\n      tag_85\n      jump\t// in\n    tag_200:\n        /* \"#utility.yul\":7395:7456   */\n      tag_201\n        /* \"#utility.yul\":7449:7455   */\n      dup2\n        /* \"#utility.yul\":7444:7447   */\n      dup6\n        /* \"#utility.yul\":7395:7456   */\n      tag_95\n      jump\t// in\n    tag_201:\n        /* \"#utility.yul\":7388:7456   */\n      swap4\n      pop\n        /* \"#utility.yul\":7465:7530   */\n      tag_202\n        /* \"#utility.yul\":7523:7529   */\n      dup2\n        /* \"#utility.yul\":7518:7521   */\n      dup6\n        /* \"#utility.yul\":7511:7515   */\n      0x20\n        /* \"#utility.yul\":7504:7509   */\n      dup7\n        /* \"#utility.yul\":7500:7516   */\n      add\n        /* \"#utility.yul\":7465:7530   */\n      tag_87\n      jump\t// in\n    tag_202:\n        /* \"#utility.yul\":7555:7584   */\n      tag_203\n        /* \"#utility.yul\":7577:7583   */\n      dup2\n        /* \"#utility.yul\":7555:7584   */\n      tag_73\n      jump\t// in\n    tag_203:\n        /* \"#utility.yul\":7550:7553   */\n      dup5\n        /* \"#utility.yul\":7546:7585   */\n      add\n        /* \"#utility.yul\":7539:7585   */\n      swap2\n      pop\n        /* \"#utility.yul\":7316:7591   */\n      pop\n        /* \"#utility.yul\":7234:7591   */\n      swap3\n      swap2\n      pop\n      pop\n      jump\t// out\n        /* \"#utility.yul\":7597:7793   */\n    tag_97:\n        /* \"#utility.yul\":7686:7696   */\n      0x00\n        /* \"#utility.yul\":7721:7787   */\n      tag_205\n        /* \"#utility.yul\":7783:7786   */\n      dup4\n        /* \"#utility.yul\":7775:7781   */\n      dup4\n        /* \"#utility.yul\":7721:7787   */\n      tag_96\n      jump\t// in\n    tag_205:\n        /* \"#utility.yul\":7707:7787   */\n      swap1\n      pop\n        /* \"#utility.yul\":7597:7793   */\n      swap3\n      swap2\n      pop\n      pop\n      jump\t// out\n        /* \"#utility.yul\":7799:7922   */\n    tag_98:\n        /* \"#utility.yul\":7879:7883   */\n      0x00\n        /* \"#utility.yul\":7911:7915   */\n      0x20\n        /* \"#utility.yul\":7906:7909   */\n      dup3\n        /* \"#utility.yul\":7902:7916   */\n      add\n        /* \"#utility.yul\":7894:7916   */\n      swap1\n      pop\n        /* \"#utility.yul\":7799:7922   */\n      swap2\n      swap1\n      pop\n      jump\t// out\n        /* \"#utility.yul\":7956:8947   */\n    tag_99:\n        /* \"#utility.yul\":8095:8098   */\n      0x00\n        /* \"#utility.yul\":8124:8188   */\n      tag_208\n        /* \"#utility.yul\":8182:8187   */\n      dup3\n        /* \"#utility.yul\":8124:8188   */\n      tag_92\n      jump\t// in\n    tag_208:\n        /* \"#utility.yul\":8204:8300   */\n      tag_209\n        /* \"#utility.yul\":8293:8299   */\n      dup2\n        /* \"#utility.yul\":8288:8291   */\n      dup6\n        /* \"#utility.yul\":8204:8300   */\n      tag_93\n      jump\t// in\n    tag_209:\n        /* \"#utility.yul\":8197:8300   */\n      swap4\n      pop\n        /* \"#utility.yul\":8326:8329   */\n      dup4\n        /* \"#utility.yul\":8371:8375   */\n      0x20\n        /* \"#utility.yul\":8363:8369   */\n      dup3\n        /* \"#utility.yul\":8359:8376   */\n      mul\n        /* \"#utility.yul\":8354:8357   */\n      dup6\n        /* \"#utility.yul\":8350:8377   */\n      add\n        /* \"#utility.yul\":8401:8467   */\n      tag_210\n        /* \"#utility.yul\":8461:8466   */\n      dup6\n        /* \"#utility.yul\":8401:8467   */\n      tag_94\n      jump\t// in\n    tag_210:\n        /* \"#utility.yul\":8490:8497   */\n      dup1\n        /* \"#utility.yul\":8521:8522   */\n      0x00\n        /* \"#utility.yul\":8506:8902   */\n    tag_211:\n        /* \"#utility.yul\":8531:8537   */\n      dup6\n        /* \"#utility.yul\":8528:8529   */\n      dup2\n        /* \"#utility.yul\":8525:8538   */\n      lt\n        /* \"#utility.yul\":8506:8902   */\n      iszero\n      tag_213\n      jumpi\n        /* \"#utility.yul\":8602:8611   */\n      dup5\n        /* \"#utility.yul\":8596:8600   */\n      dup5\n        /* \"#utility.yul\":8592:8612   */\n      sub\n        /* \"#utility.yul\":8587:8590   */\n      dup10\n        /* \"#utility.yul\":8580:8613   */\n      mstore\n        /* \"#utility.yul\":8653:8659   */\n      dup2\n        /* \"#utility.yul\":8647:8660   */\n      mload\n        /* \"#utility.yul\":8681:8765   */\n      tag_214\n        /* \"#utility.yul\":8760:8764   */\n      dup6\n        /* \"#utility.yul\":8745:8758   */\n      dup3\n        /* \"#utility.yul\":8681:8765   */\n      tag_97\n      jump\t// in\n    tag_214:\n        /* \"#utility.yul\":8673:8765   */\n      swap5\n      pop\n        /* \"#utility.yul\":8788:8858   */\n      tag_215\n        /* \"#utility.yul\":8851:8857   */\n      dup4\n        /* \"#utility.yul\":8788:8858   */\n      tag_98\n      jump\t// in\n    tag_215:\n        /* \"#utility.yul\":8778:8858   */\n      swap3\n      pop\n        /* \"#utility.yul\":8887:8891   */\n      0x20\n        /* \"#utility.yul\":8882:8885   */\n      dup11\n        /* \"#utility.yul\":8878:8892   */\n      add\n        /* \"#utility.yul\":8871:8892   */\n      swap10\n      pop\n        /* \"#utility.yul\":8566:8902   */\n      pop\n        /* \"#utility.yul\":8553:8554   */\n      0x01\n        /* \"#utility.yul\":8550:8551   */\n      dup2\n        /* \"#utility.yul\":8546:8555   */\n      add\n        /* \"#utility.yul\":8541:8555   */\n      swap1\n      pop\n        /* \"#utility.yul\":8506:8902   */\n      jump(tag_211)\n    tag_213:\n        /* \"#utility.yul\":8510:8524   */\n      pop\n        /* \"#utility.yul\":8918:8922   */\n      dup3\n        /* \"#utility.yul\":8911:8922   */\n      swap8\n      pop\n        /* \"#utility.yul\":8938:8941   */\n      dup8\n        /* \"#utility.yul\":8931:8941   */\n      swap6\n      pop\n        /* \"#utility.yul\":8100:8947   */\n      pop\n      pop\n      pop\n      pop\n      pop\n        /* \"#utility.yul\":7956:8947   */\n      swap3\n      swap2\n      pop\n      pop\n      jump\t// out\n        /* \"#utility.yul\":8953:9366   */\n    tag_31:\n        /* \"#utility.yul\":9116:9120   */\n      0x00\n        /* \"#utility.yul\":9154:9156   */\n      0x20\n        /* \"#utility.yul\":9143:9152   */\n      dup3\n        /* \"#utility.yul\":9139:9157   */\n      add\n        /* \"#utility.yul\":9131:9157   */\n      swap1\n      pop\n        /* \"#utility.yul\":9203:9212   */\n      dup2\n        /* \"#utility.yul\":9197:9201   */\n      dup2\n        /* \"#utility.yul\":9193:9213   */\n      sub\n        /* \"#utility.yul\":9189:9190   */\n      0x00\n        /* \"#utility.yul\":9178:9187   */\n      dup4\n        /* \"#utility.yul\":9174:9191   */\n      add\n        /* \"#utility.yul\":9167:9214   */\n      mstore\n        /* \"#utility.yul\":9231:9359   */\n      tag_217\n        /* \"#utility.yul\":9354:9358   */\n      dup2\n        /* \"#utility.yul\":9345:9351   */\n      dup5\n        /* \"#utility.yul\":9231:9359   */\n      tag_99\n      jump\t// in\n    tag_217:\n        /* \"#utility.yul\":9223:9359   */\n      swap1\n      pop\n        /* \"#utility.yul\":8953:9366   */\n      swap3\n      swap2\n      pop\n      pop\n      jump\t// out\n        /* \"#utility.yul\":9372:9552   */\n    tag_100:\n        /* \"#utility.yul\":9420:9497   */\n      0x4e487b7100000000000000000000000000000000000000000000000000000000\n        /* \"#utility.yul\":9417:9418   */\n      0x00\n        /* \"#utility.yul\":9410:9498   */\n      mstore\n        /* \"#utility.yul\":9517:9521   */\n      0x22\n        /* \"#utility.yul\":9514:9515   */\n      0x04\n        /* \"#utility.yul\":9507:9522   */\n      mstore\n        /* \"#utility.yul\":9541:9545   */\n      0x24\n        /* \"#utility.yul\":9538:9539   */\n      0x00\n        /* \"#utility.yul\":9531:9546   */\n      revert\n        /* \"#utility.yul\":9558:9878   */\n    tag_44:\n        /* \"#utility.yul\":9602:9608   */\n      0x00\n        /* \"#utility.yul\":9639:9640   */\n      0x02\n        /* \"#utility.yul\":9633:9637   */\n      dup3\n        /* \"#utility.yul\":9629:9641   */\n      div\n        /* \"#utility.yul\":9619:9641   */\n      swap1\n      pop\n        /* \"#utility.yul\":9686:9687   */\n      0x01\n        /* \"#utility.yul\":9680:9684   */\n      dup3\n        /* \"#utility.yul\":9676:9688   */\n      and\n        /* \"#utility.yul\":9707:9725   */\n      dup1\n        /* \"#utility.yul\":9697:9778   */\n      tag_220\n      jumpi\n        /* \"#utility.yul\":9763:9767   */\n      0x7f\n        /* \"#utility.yul\":9755:9761   */\n      dup3\n        /* \"#utility.yul\":9751:9768   */\n      and\n        /* \"#utility.yul\":9741:9768   */\n      swap2\n      pop\n        /* \"#utility.yul\":9697:9778   */\n    tag_220:\n        /* \"#utility.yul\":9825:9827   */\n      0x20\n        /* \"#utility.yul\":9817:9823   */\n      dup3\n        /* \"#utility.yul\":9814:9828   */\n      lt\n        /* \"#utility.yul\":9794:9812   */\n      dup2\n        /* \"#utility.yul\":9791:9829   */\n      sub\n        /* \"#utility.yul\":9788:9872   */\n      tag_221\n      jumpi\n        /* \"#utility.yul\":9844:9862   */\n      tag_222\n      tag_100\n      jump\t// in\n    tag_222:\n        /* \"#utility.yul\":9788:9872   */\n    tag_221:\n        /* \"#utility.yul\":9609:9878   */\n      pop\n        /* \"#utility.yul\":9558:9878   */\n      swap2\n      swap1\n      pop\n      jump\t// out\n        /* \"#utility.yul\":9884:10025   */\n    tag_101:\n        /* \"#utility.yul\":9933:9937   */\n      0x00\n        /* \"#utility.yul\":9956:9959   */\n      dup2\n        /* \"#utility.yul\":9948:9959   */\n      swap1\n      pop\n        /* \"#utility.yul\":9979:9982   */\n      dup2\n        /* \"#utility.yul\":9976:9977   */\n      0x00\n        /* \"#utility.yul\":9969:9983   */\n      mstore\n        /* \"#utility.yul\":10013:10017   */\n      0x20\n        /* \"#utility.yul\":10010:10011   */\n      0x00\n        /* \"#utility.yul\":10000:10018   */\n      keccak256\n        /* \"#utility.yul\":9992:10018   */\n      swap1\n      pop\n        /* \"#utility.yul\":9884:10025   */\n      swap2\n      swap1\n      pop\n      jump\t// out\n        /* \"#utility.yul\":10031:10124   */\n    tag_102:\n        /* \"#utility.yul\":10068:10074   */\n      0x00\n        /* \"#utility.yul\":10115:10117   */\n      0x20\n        /* \"#utility.yul\":10110:10112   */\n      0x1f\n        /* \"#utility.yul\":10103:10108   */\n      dup4\n        /* \"#utility.yul\":10099:10113   */\n      add\n        /* \"#utility.yul\":10095:10118   */\n      div\n        /* \"#utility.yul\":10085:10118   */\n      swap1\n      pop\n        /* \"#utility.yul\":10031:10124   */\n      swap2\n      swap1\n      pop\n      jump\t// out\n        /* \"#utility.yul\":10130:10237   */\n    tag_103:\n        /* \"#utility.yul\":10174:10182   */\n      0x00\n        /* \"#utility.yul\":10224:10229   */\n      dup3\n        /* \"#utility.yul\":10218:10222   */\n      dup3\n        /* \"#utility.yul\":10214:10230   */\n      shl\n        /* \"#utility.yul\":10193:10230   */\n      swap1\n      pop\n        /* \"#utility.yul\":10130:10237   */\n      swap3\n      swap2\n      pop\n      pop\n      jump\t// out\n        /* \"#utility.yul\":10243:10636   */\n    tag_104:\n        /* \"#utility.yul\":10312:10318   */\n      0x00\n        /* \"#utility.yul\":10362:10363   */\n      0x08\n        /* \"#utility.yul\":10350:10360   */\n      dup4\n        /* \"#utility.yul\":10346:10364   */\n      mul\n        /* \"#utility.yul\":10385:10482   */\n      tag_227\n        /* \"#utility.yul\":10415:10481   */\n      0xffffffffffffffffffffffffffffffffffffffffffffffffffffffffffffffff\n        /* \"#utility.yul\":10404:10413   */\n      dup3\n        /* \"#utility.yul\":10385:10482   */\n      tag_103\n      jump\t// in\n    tag_227:\n        /* \"#utility.yul\":10503:10542   */\n      tag_228\n        /* \"#utility.yul\":10533:10541   */\n      dup7\n        /* \"#utility.yul\":10522:10531   */\n      dup4\n        /* \"#utility.yul\":10503:10542   */\n      tag_103\n      jump\t// in\n    tag_228:\n        /* \"#utility.yul\":10491:10542   */\n      swap6\n      pop\n        /* \"#utility.yul\":10575:10579   */\n      dup1\n        /* \"#utility.yul\":10571:10580   */\n      not\n        /* \"#utility.yul\":10564:10569   */\n      dup5\n        /* \"#utility.yul\":10560:10581   */\n      and\n        /* \"#utility.yul\":10551:10581   */\n      swap4\n      pop\n        /* \"#utility.yul\":10624:10628   */\n      dup1\n        /* \"#utility.yul\":10614:10622   */\n      dup7\n        /* \"#utility.yul\":10610:10629   */\n      and\n        /* \"#utility.yul\":10603:10608   */\n      dup5\n        /* \"#utility.yul\":10600:10630   */\n      or\n        /* \"#utility.yul\":10590:10630   */\n      swap3\n      pop\n        /* \"#utility.yul\":10319:10636   */\n      pop\n      pop\n        /* \"#utility.yul\":10243:10636   */\n      swap4\n      swap3\n      pop\n      pop\n      pop\n      jump\t// out\n        /* \"#utility.yul\":10642:10702   */\n    tag_105:\n        /* \"#utility.yul\":10670:10673   */\n      0x00\n        /* \"#utility.yul\":10691:10696   */\n      dup2\n        /* \"#utility.yul\":10684:10696   */\n      swap1\n      pop\n        /* \"#utility.yul\":10642:10702   */\n      swap2\n      swap1\n      pop\n      jump\t// out\n        /* \"#utility.yul\":10708:10850   */\n    tag_106:\n        /* \"#utility.yul\":10758:10767   */\n      0x00\n        /* \"#utility.yul\":10791:10844   */\n      tag_231\n        /* \"#utility.yul\":10809:10843   */\n      tag_232\n        /* \"#utility.yul\":10818:10842   */\n      tag_233\n        /* \"#utility.yul\":10836:10841   */\n      dup5\n        /* \"#utility.yul\":10818:10842   */\n      tag_81\n      jump\t// in\n    tag_233:\n        /* \"#utility.yul\":10809:10843   */\n      tag_105\n      jump\t// in\n    tag_232:\n        /* \"#utility.yul\":10791:10844   */\n      tag_81\n      jump\t// in\n    tag_231:\n        /* \"#utility.yul\":10778:10844   */\n      swap1\n      pop\n        /* \"#utility.yul\":10708:10850   */\n      swap2\n      swap1\n      pop\n      jump\t// out\n        /* \"#utility.yul\":10856:10931   */\n    tag_107:\n        /* \"#utility.yul\":10899:10902   */\n      0x00\n        /* \"#utility.yul\":10920:10925   */\n      dup2\n        /* \"#utility.yul\":10913:10925   */\n      swap1\n      pop\n        /* \"#utility.yul\":10856:10931   */\n      swap2\n      swap1\n      pop\n      jump\t// out\n        /* \"#utility.yul\":10937:11206   */\n    tag_108:\n        /* \"#utility.yul\":11047:11086   */\n      tag_236\n        /* \"#utility.yul\":11078:11085   */\n      dup4\n        /* \"#utility.yul\":11047:11086   */\n      tag_106\n      jump\t// in\n    tag_236:\n        /* \"#utility.yul\":11108:11199   */\n      tag_237\n        /* \"#utility.yul\":11157:11198   */\n      tag_238\n        /* \"#utility.yul\":11181:11197   */\n      dup3\n        /* \"#utility.yul\":11157:11198   */\n      tag_107\n      jump\t// in\n    tag_238:\n        /* \"#utility.yul\":11149:11155   */\n      dup5\n        /* \"#utility.yul\":11142:11146   */\n      dup5\n        /* \"#utility.yul\":11136:11147   */\n      sload\n        /* \"#utility.yul\":11108:11199   */\n      tag_104\n      jump\t// in\n    tag_237:\n        /* \"#utility.yul\":11102:11106   */\n      dup3\n        /* \"#utility.yul\":11095:11200   */\n      sstore\n        /* \"#utility.yul\":11013:11206   */\n      pop\n        /* \"#utility.yul\":10937:11206   */\n      pop\n      pop\n      pop\n      jump\t// out\n        /* \"#utility.yul\":11212:11285   */\n    tag_109:\n        /* \"#utility.yul\":11257:11260   */\n      0x00\n        /* \"#utility.yul\":11212:11285   */\n      swap1\n      jump\t// out\n        /* \"#utility.yul\":11291:11480   */\n    tag_110:\n        /* \"#utility.yul\":11368:11400   */\n      tag_241\n      tag_109\n      jump\t// in\n    tag_241:\n        /* \"#utility.yul\":11409:11474   */\n      tag_242\n        /* \"#utility.yul\":11467:11473   */\n      dup2\n        /* \"#utility.yul\":11459:11465   */\n      dup5\n        /* \"#utility.yul\":11453:11457   */\n      dup5\n        /* \"#utility.yul\":11409:11474   */\n      tag_108\n      jump\t// in\n    tag_242:\n        /* \"#utility.yul\":11344:11480   */\n      pop\n        /* \"#utility.yul\":11291:11480   */\n      pop\n      pop\n      jump\t// out\n        /* \"#utility.yul\":11486:11672   */\n    tag_111:\n        /* \"#utility.yul\":11546:11666   */\n    tag_244:\n        /* \"#utility.yul\":11563:11566   */\n      dup2\n        /* \"#utility.yul\":11556:11561   */\n      dup2\n        /* \"#utility.yul\":11553:11567   */\n      lt\n        /* \"#utility.yul\":11546:11666   */\n      iszero\n      tag_246\n      jumpi\n        /* \"#utility.yul\":11617:11656   */\n      tag_247\n        /* \"#utility.yul\":11654:11655   */\n      0x00\n        /* \"#utility.yul\":11647:11652   */\n      dup3\n        /* \"#utility.yul\":11617:11656   */\n      tag_110\n      jump\t// in\n    tag_247:\n        /* \"#utility.yul\":11590:11591   */\n      0x01\n        /* \"#utility.yul\":11583:11588   */\n      dup2\n        /* \"#utility.yul\":11579:11592   */\n      add\n        /* \"#utility.yul\":11570:11592   */\n      swap1\n      pop\n        /* \"#utility.yul\":11546:11666   */\n      jump(tag_244)\n    tag_246:\n        /* \"#utility.yul\":11486:11672   */\n      pop\n      pop\n      jump\t// out\n        /* \"#utility.yul\":11678:12221   */\n    tag_112:\n        /* \"#utility.yul\":11779:11781   */\n      0x1f\n        /* \"#utility.yul\":11774:11777   */\n      dup3\n        /* \"#utility.yul\":11771:11782   */\n      gt\n        /* \"#utility.yul\":11768:12214   */\n      iszero\n      tag_249\n      jumpi\n        /* \"#utility.yul\":11813:11851   */\n      tag_250\n        /* \"#utility.yul\":11845:11850   */\n      dup2\n        /* \"#utility.yul\":11813:11851   */\n      tag_101\n      jump\t// in\n    tag_250:\n        /* \"#utility.yul\":11897:11926   */\n      tag_251\n        /* \"#utility.yul\":11915:11925   */\n      dup5\n        /* \"#utility.yul\":11897:11926   */\n      tag_102\n      jump\t// in\n    tag_251:\n        /* \"#utility.yul\":11887:11895   */\n      dup2\n        /* \"#utility.yul\":11883:11927   */\n      add\n        /* \"#utility.yul\":12080:12082   */\n      0x20\n        /* \"#utility.yul\":12068:12078   */\n      dup6\n        /* \"#utility.yul\":12065:12083   */\n      lt\n        /* \"#utility.yul\":12062:12111   */\n      iszero\n      tag_252\n      jumpi\n        /* \"#utility.yul\":12101:12109   */\n      dup2\n        /* \"#utility.yul\":12086:12109   */\n      swap1\n      pop\n        /* \"#utility.yul\":12062:12111   */\n    tag_252:\n        /* \"#utility.yul\":12124:12204   */\n      tag_253\n        /* \"#utility.yul\":12180:12202   */\n      tag_254\n        /* \"#utility.yul\":12198:12201   */\n      dup6\n        /* \"#utility.yul\":12180:12202   */\n      tag_102\n      jump\t// in\n    tag_254:\n        /* \"#utility.yul\":12170:12178   */\n      dup4\n        /* \"#utility.yul\":12166:12203   */\n      add\n        /* \"#utility.yul\":12153:12164   */\n      dup3\n        /* \"#utility.yul\":12124:12204   */\n      tag_111\n      jump\t// in\n    tag_253:\n        /* \"#utility.yul\":11783:12214   */\n      pop\n      pop\n        /* \"#utility.yul\":11768:12214   */\n    tag_249:\n        /* \"#utility.yul\":11678:12221   */\n      pop\n      pop\n      pop\n      jump\t// out\n        /* \"#utility.yul\":12227:12344   */\n    tag_113:\n        /* \"#utility.yul\":12281:12289   */\n      0x00\n        /* \"#utility.yul\":12331:12336   */\n      dup3\n        /* \"#utility.yul\":12325:12329   */\n      dup3\n        /* \"#utility.yul\":12321:12337   */\n      shr\n        /* \"#utility.yul\":12300:12337   */\n      swap1\n      pop\n        /* \"#utility.yul\":12227:12344   */\n      swap3\n      swap2\n      pop\n      pop\n      jump\t// out\n        /* \"#utility.yul\":12350:12519   */\n    tag_114:\n        /* \"#utility.yul\":12394:12400   */\n      0x00\n        /* \"#utility.yul\":12427:12478   */\n      tag_257\n        /* \"#utility.yul\":12475:12476   */\n      0x00\n        /* \"#utility.yul\":12471:12477   */\n      not\n        /* \"#utility.yul\":12463:12468   */\n      dup5\n        /* \"#utility.yul\":12460:12461   */\n      0x08\n        /* \"#utility.yul\":12456:12469   */\n      mul\n        /* \"#utility.yul\":12427:12478   */\n      tag_113\n      jump\t// in\n    tag_257:\n        /* \"#utility.yul\":12423:12479   */\n      not\n        /* \"#utility.yul\":12508:12512   */\n      dup1\n        /* \"#utility.yul\":12502:12506   */\n      dup4\n        /* \"#utility.yul\":12498:12513   */\n      and\n        /* \"#utility.yul\":12488:12513   */\n      swap2\n      pop\n        /* \"#utility.yul\":12401:12519   */\n      pop\n        /* \"#utility.yul\":12350:12519   */\n      swap3\n      swap2\n      pop\n      pop\n      jump\t// out\n        /* \"#utility.yul\":12524:12819   */\n    tag_115:\n        /* \"#utility.yul\":12600:12604   */\n      0x00\n        /* \"#utility.yul\":12746:12775   */\n      tag_259\n        /* \"#utility.yul\":12771:12774   */\n      dup4\n        /* \"#utility.yul\":12765:12769   */\n      dup4\n        /* \"#utility.yul\":12746:12775   */\n      tag_114\n      jump\t// in\n    tag_259:\n        /* \"#utility.yul\":12738:12775   */\n      swap2\n      pop\n        /* \"#utility.yul\":12808:12811   */\n      dup3\n        /* \"#utility.yul\":12805:12806   */\n      0x02\n        /* \"#utility.yul\":12801:12812   */\n      mul\n        /* \"#utility.yul\":12795:12799   */\n      dup3\n        /* \"#utility.yul\":12792:12813   */\n      or\n        /* \"#utility.yul\":12784:12813   */\n      swap1\n      pop\n        /* \"#utility.yul\":12524:12819   */\n      swap3\n      swap2\n      pop\n      pop\n      jump\t// out\n        /* \"#utility.yul\":12824:14219   */\n    tag_35:\n        /* \"#utility.yul\":12941:12978   */\n      tag_261\n        /* \"#utility.yul\":12974:12977   */\n      dup3\n        /* \"#utility.yul\":12941:12978   */\n      tag_85\n      jump\t// in\n    tag_261:\n        /* \"#utility.yul\":13043:13061   */\n      0xffffffffffffffff\n        /* \"#utility.yul\":13035:13041   */\n      dup2\n        /* \"#utility.yul\":13032:13062   */\n      gt\n        /* \"#utility.yul\":13029:13085   */\n      iszero\n      tag_262\n      jumpi\n        /* \"#utility.yul\":13065:13083   */\n      tag_263\n      tag_74\n      jump\t// in\n    tag_263:\n        /* \"#utility.yul\":13029:13085   */\n    tag_262:\n        /* \"#utility.yul\":13109:13147   */\n      tag_264\n        /* \"#utility.yul\":13141:13145   */\n      dup3\n        /* \"#utility.yul\":13135:13146   */\n      sload\n        /* \"#utility.yul\":13109:13147   */\n      tag_44\n      jump\t// in\n    tag_264:\n        /* \"#utility.yul\":13194:13261   */\n      tag_265\n        /* \"#utility.yul\":13254:13260   */\n      dup3\n        /* \"#utility.yul\":13246:13252   */\n      dup3\n        /* \"#utility.yul\":13240:13244   */\n      dup6\n        /* \"#utility.yul\":13194:13261   */\n      tag_112\n      jump\t// in\n    tag_265:\n        /* \"#utility.yul\":13288:13289   */\n      0x00\n        /* \"#utility.yul\":13312:13316   */\n      0x20\n        /* \"#utility.yul\":13299:13316   */\n      swap1\n      pop\n        /* \"#utility.yul\":13344:13346   */\n      0x1f\n        /* \"#utility.yul\":13336:13342   */\n      dup4\n        /* \"#utility.yul\":13333:13347   */\n      gt\n        /* \"#utility.yul\":13361:13362   */\n      0x01\n        /* \"#utility.yul\":13356:13974   */\n      dup2\n      eq\n      tag_267\n      jumpi\n        /* \"#utility.yul\":14018:14019   */\n      0x00\n        /* \"#utility.yul\":14035:14041   */\n      dup5\n        /* \"#utility.yul\":14032:14109   */\n      iszero\n      tag_268\n      jumpi\n        /* \"#utility.yul\":14084:14093   */\n      dup3\n        /* \"#utility.yul\":14079:14082   */\n      dup8\n        /* \"#utility.yul\":14075:14094   */\n      add\n        /* \"#utility.yul\":14069:14095   */\n      mload\n        /* \"#utility.yul\":14060:14095   */\n      swap1\n      pop\n        /* \"#utility.yul\":14032:14109   */\n    tag_268:\n        /* \"#utility.yul\":14135:14202   */\n      tag_269\n        /* \"#utility.yul\":14195:14201   */\n      dup6\n        /* \"#utility.yul\":14188:14193   */\n      dup3\n        /* \"#utility.yul\":14135:14202   */\n      tag_115\n      jump\t// in\n    tag_269:\n        /* \"#utility.yul\":14129:14133   */\n      dup7\n        /* \"#utility.yul\":14122:14203   */\n      sstore\n        /* \"#utility.yul\":13991:14213   */\n      pop\n        /* \"#utility.yul\":13326:14213   */\n      jump(tag_266)\n        /* \"#utility.yul\":13356:13974   */\n    tag_267:\n        /* \"#utility.yul\":13408:13412   */\n      0x1f\n        /* \"#utility.yul\":13404:13413   */\n      not\n        /* \"#utility.yul\":13396:13402   */\n      dup5\n        /* \"#utility.yul\":13392:13414   */\n      and\n        /* \"#utility.yul\":13442:13479   */\n      tag_270\n        /* \"#utility.yul\":13474:13478   */\n      dup7\n        /* \"#utility.yul\":13442:13479   */\n      tag_101\n      jump\t// in\n    tag_270:\n        /* \"#utility.yul\":13501:13502   */\n      0x00\n        /* \"#utility.yul\":13515:13723   */\n    tag_271:\n        /* \"#utility.yul\":13529:13536   */\n      dup3\n        /* \"#utility.yul\":13526:13527   */\n      dup2\n        /* \"#utility.yul\":13523:13537   */\n      lt\n        /* \"#utility.yul\":13515:13723   */\n      iszero\n      tag_273\n      jumpi\n        /* \"#utility.yul\":13608:13617   */\n      dup5\n        /* \"#utility.yul\":13603:13606   */\n      dup10\n        /* \"#utility.yul\":13599:13618   */\n      add\n        /* \"#utility.yul\":13593:13619   */\n      mload\n        /* \"#utility.yul\":13585:13591   */\n      dup3\n        /* \"#utility.yul\":13578:13620   */\n      sstore\n        /* \"#utility.yul\":13659:13660   */\n      0x01\n        /* \"#utility.yul\":13651:13657   */\n      dup3\n        /* \"#utility.yul\":13647:13661   */\n      add\n        /* \"#utility.yul\":13637:13661   */\n      swap2\n      pop\n        /* \"#utility.yul\":13706:13708   */\n      0x20\n        /* \"#utility.yul\":13695:13704   */\n      dup6\n        /* \"#utility.yul\":13691:13709   */\n      add\n        /* \"#utility.yul\":13678:13709   */\n      swap5\n      pop\n        /* \"#utility.yul\":13552:13556   */\n      0x20\n        /* \"#utility.yul\":13549:13550   */\n      dup2\n        /* \"#utility.yul\":13545:13557   */\n      add\n        /* \"#utility.yul\":13540:13557   */\n      swap1\n      pop\n        /* \"#utility.yul\":13515:13723   */\n      jump(tag_271)\n    tag_273:\n        /* \"#utility.yul\":13751:13757   */\n      dup7\n        /* \"#utility.yul\":13742:13749   */\n      dup4\n        /* \"#utility.yul\":13739:13758   */\n      lt\n        /* \"#utility.yul\":13736:13915   */\n      iszero\n      tag_274\n      jumpi\n        /* \"#utility.yul\":13809:13818   */\n      dup5\n        /* \"#utility.yul\":13804:13807   */\n      dup10\n        /* \"#utility.yul\":13800:13819   */\n      add\n        /* \"#utility.yul\":13794:13820   */\n      mload\n        /* \"#utility.yul\":13852:13900   */\n      tag_275\n        /* \"#utility.yul\":13894:13898   */\n      0x1f\n        /* \"#utility.yul\":13886:13892   */\n      dup10\n        /* \"#utility.yul\":13882:13899   */\n      and\n        /* \"#utility.yul\":13871:13880   */\n      dup3\n        /* \"#utility.yul\":13852:13900   */\n      tag_114\n      jump\t// in\n    tag_275:\n        /* \"#utility.yul\":13844:13850   */\n      dup4\n        /* \"#utility.yul\":13837:13901   */\n      sstore\n        /* \"#utility.yul\":13759:13915   */\n      pop\n        /* \"#utility.yul\":13736:13915   */\n    tag_274:\n        /* \"#utility.yul\":13961:13962   */\n      0x01\n        /* \"#utility.yul\":13957:13958   */\n      0x02\n        /* \"#utility.yul\":13949:13955   */\n      dup9\n        /* \"#utility.yul\":13945:13959   */\n      mul\n        /* \"#utility.yul\":13941:13963   */\n      add\n        /* \"#utility.yul\":13935:13939   */\n      dup9\n        /* \"#utility.yul\":13928:13964   */\n      sstore\n        /* \"#utility.yul\":13363:13974   */\n      pop\n      pop\n      pop\n        /* \"#utility.yul\":13326:14213   */\n    tag_266:\n      pop\n        /* \"#utility.yul\":12916:14219   */\n      pop\n      pop\n      pop\n        /* \"#utility.yul\":12824:14219   */\n      pop\n      pop\n      jump\t// out\n        /* \"#utility.yul\":14225:14405   */\n    tag_116:\n        /* \"#utility.yul\":14273:14350   */\n      0x4e487b7100000000000000000000000000000000000000000000000000000000\n        /* \"#utility.yul\":14270:14271   */\n      0x00\n        /* \"#utility.yul\":14263:14351   */\n      mstore\n        /* \"#utility.yul\":14370:14374   */\n      0x11\n        /* \"#utility.yul\":14367:14368   */\n      0x04\n        /* \"#utility.yul\":14360:14375   */\n      mstore\n        /* \"#utility.yul\":14394:14398   */\n      0x24\n        /* \"#utility.yul\":14391:14392   */\n      0x00\n        /* \"#utility.yul\":14384:14399   */\n      revert\n        /* \"#utility.yul\":14411:14605   */\n    tag_37:\n        /* \"#utility.yul\":14451:14455   */\n      0x00\n        /* \"#utility.yul\":14471:14491   */\n      tag_278\n        /* \"#utility.yul\":14489:14490   */\n      dup3\n        /* \"#utility.yul\":14471:14491   */\n      tag_81\n      jump\t// in\n    tag_278:\n        /* \"#utility.yul\":14466:14491   */\n      swap2\n      pop\n        /* \"#utility.yul\":14505:14525   */\n      tag_279\n        /* \"#utility.yul\":14523:14524   */\n      dup4\n        /* \"#utility.yul\":14505:14525   */\n      tag_81\n      jump\t// in\n    tag_279:\n        /* \"#utility.yul\":14500:14525   */\n      swap3\n      pop\n        /* \"#utility.yul\":14549:14550   */\n      dup3\n        /* \"#utility.yul\":14546:14547   */\n      dup3\n        /* \"#utility.yul\":14542:14551   */\n      sub\n        /* \"#utility.yul\":14534:14551   */\n      swap1\n      pop\n        /* \"#utility.yul\":14573:14574   */\n      dup2\n        /* \"#utility.yul\":14567:14571   */\n      dup2\n        /* \"#utility.yul\":14564:14575   */\n      gt\n        /* \"#utility.yul\":14561:14598   */\n      iszero\n      tag_280\n      jumpi\n        /* \"#utility.yul\":14578:14596   */\n      tag_281\n      tag_116\n      jump\t// in\n    tag_281:\n        /* \"#utility.yul\":14561:14598   */\n    tag_280:\n        /* \"#utility.yul\":14411:14605   */\n      swap3\n      swap2\n      pop\n      pop\n      jump\t// out\n        /* \"#utility.yul\":14611:14791   */\n    tag_41:\n        /* \"#utility.yul\":14659:14736   */\n      0x4e487b7100000000000000000000000000000000000000000000000000000000\n        /* \"#utility.yul\":14656:14657   */\n      0x00\n        /* \"#utility.yul\":14649:14737   */\n      mstore\n        /* \"#utility.yul\":14756:14760   */\n      0x32\n        /* \"#utility.yul\":14753:14754   */\n      0x04\n        /* \"#utility.yul\":14746:14761   */\n      mstore\n        /* \"#utility.yul\":14780:14784   */\n      0x24\n        /* \"#utility.yul\":14777:14778   */\n      0x00\n        /* \"#utility.yul\":14770:14785   */\n      revert\n        /* \"#utility.yul\":14821:15652   */\n    tag_117:\n        /* \"#utility.yul\":14906:14909   */\n      0x00\n        /* \"#utility.yul\":14943:14948   */\n      dup2\n        /* \"#utility.yul\":14937:14949   */\n      sload\n        /* \"#utility.yul\":14972:15008   */\n      tag_284\n        /* \"#utility.yul\":14998:15007   */\n      dup2\n        /* \"#utility.yul\":14972:15008   */\n      tag_44\n      jump\t// in\n    tag_284:\n        /* \"#utility.yul\":15024:15095   */\n      tag_285\n        /* \"#utility.yul\":15088:15094   */\n      dup2\n        /* \"#utility.yul\":15083:15086   */\n      dup7\n        /* \"#utility.yul\":15024:15095   */\n      tag_86\n      jump\t// in\n    tag_285:\n        /* \"#utility.yul\":15017:15095   */\n      swap5\n      pop\n        /* \"#utility.yul\":15126:15127   */\n      0x01\n        /* \"#utility.yul\":15115:15124   */\n      dup3\n        /* \"#utility.yul\":15111:15128   */\n      and\n        /* \"#utility.yul\":15142:15143   */\n      0x00\n        /* \"#utility.yul\":15137:15301   */\n      dup2\n      eq\n      tag_287\n      jumpi\n        /* \"#utility.yul\":15315:15316   */\n      0x01\n        /* \"#utility.yul\":15310:15646   */\n      dup2\n      eq\n      tag_288\n      jumpi\n        /* \"#utility.yul\":15104:15646   */\n      jump(tag_286)\n        /* \"#utility.yul\":15137:15301   */\n    tag_287:\n        /* \"#utility.yul\":15221:15225   */\n      0xff\n        /* \"#utility.yul\":15217:15226   */\n      not\n        /* \"#utility.yul\":15206:15215   */\n      dup4\n        /* \"#utility.yul\":15202:15227   */\n      and\n        /* \"#utility.yul\":15197:15200   */\n      dup7\n        /* \"#utility.yul\":15190:15228   */\n      mstore\n        /* \"#utility.yul\":15281:15287   */\n      dup2\n        /* \"#utility.yul\":15274:15288   */\n      iszero\n        /* \"#utility.yul\":15267:15289   */\n      iszero\n        /* \"#utility.yul\":15261:15265   */\n      0x20\n        /* \"#utility.yul\":15257:15290   */\n      mul\n        /* \"#utility.yul\":15252:15255   */\n      dup7\n        /* \"#utility.yul\":15248:15291   */\n      add\n        /* \"#utility.yul\":15241:15291   */\n      swap4\n      pop\n        /* \"#utility.yul\":15137:15301   */\n      jump(tag_286)\n        /* \"#utility.yul\":15310:15646   */\n    tag_288:\n        /* \"#utility.yul\":15377:15415   */\n      tag_289\n        /* \"#utility.yul\":15409:15414   */\n      dup6\n        /* \"#utility.yul\":15377:15415   */\n      tag_101\n      jump\t// in\n    tag_289:\n        /* \"#utility.yul\":15437:15438   */\n      0x00\n        /* \"#utility.yul\":15451:15605   */\n    tag_290:\n        /* \"#utility.yul\":15465:15471   */\n      dup4\n        /* \"#utility.yul\":15462:15463   */\n      dup2\n        /* \"#utility.yul\":15459:15472   */\n      lt\n        /* \"#utility.yul\":15451:15605   */\n      iszero\n      tag_292\n      jumpi\n        /* \"#utility.yul\":15539:15546   */\n      dup2\n        /* \"#utility.yul\":15533:15547   */\n      sload\n        /* \"#utility.yul\":15529:15530   */\n      dup2\n        /* \"#utility.yul\":15524:15527   */\n      dup10\n        /* \"#utility.yul\":15520:15531   */\n      add\n        /* \"#utility.yul\":15513:15548   */\n      mstore\n        /* \"#utility.yul\":15589:15590   */\n      0x01\n        /* \"#utility.yul\":15580:15587   */\n      dup3\n        /* \"#utility.yul\":15576:15591   */\n      add\n        /* \"#utility.yul\":15565:15591   */\n      swap2\n      pop\n        /* \"#utility.yul\":15487:15491   */\n      0x20\n        /* \"#utility.yul\":15484:15485   */\n      dup2\n        /* \"#utility.yul\":15480:15492   */\n      add\n        /* \"#utility.yul\":15475:15492   */\n      swap1\n      pop\n        /* \"#utility.yul\":15451:15605   */\n      jump(tag_290)\n    tag_292:\n        /* \"#utility.yul\":15634:15635   */\n      dup1\n        /* \"#utility.yul\":15629:15632   */\n      dup9\n        /* \"#utility.yul\":15625:15636   */\n      add\n        /* \"#utility.yul\":15618:15636   */\n      swap6\n      pop\n        /* \"#utility.yul\":15317:15646   */\n      pop\n      pop\n        /* \"#utility.yul\":15104:15646   */\n    tag_286:\n      pop\n        /* \"#utility.yul\":14910:15652   */\n      pop\n      pop\n        /* \"#utility.yul\":14821:15652   */\n      swap3\n      swap2\n      pop\n      pop\n      jump\t// out\n        /* \"#utility.yul\":15658:16166   */\n    tag_54:\n        /* \"#utility.yul\":15816:15820   */\n      0x00\n        /* \"#utility.yul\":15854:15856   */\n      0x40\n        /* \"#utility.yul\":15843:15852   */\n      dup3\n        /* \"#utility.yul\":15839:15857   */\n      add\n        /* \"#utility.yul\":15831:15857   */\n      swap1\n      pop\n        /* \"#utility.yul\":15903:15912   */\n      dup2\n        /* \"#utility.yul\":15897:15901   */\n      dup2\n        /* \"#utility.yul\":15893:15913   */\n      sub\n        /* \"#utility.yul\":15889:15890   */\n      0x00\n        /* \"#utility.yul\":15878:15887   */\n      dup4\n        /* \"#utility.yul\":15874:15891   */\n      add\n        /* \"#utility.yul\":15867:15914   */\n      mstore\n        /* \"#utility.yul\":15931:16006   */\n      tag_294\n        /* \"#utility.yul\":16001:16005   */\n      dup2\n        /* \"#utility.yul\":15992:15998   */\n      dup6\n        /* \"#utility.yul\":15931:16006   */\n      tag_117\n      jump\t// in\n    tag_294:\n        /* \"#utility.yul\":15923:16006   */\n      swap1\n      pop\n        /* \"#utility.yul\":16053:16062   */\n      dup2\n        /* \"#utility.yul\":16047:16051   */\n      dup2\n        /* \"#utility.yul\":16043:16063   */\n      sub\n        /* \"#utility.yul\":16038:16040   */\n      0x20\n        /* \"#utility.yul\":16027:16036   */\n      dup4\n        /* \"#utility.yul\":16023:16041   */\n      add\n        /* \"#utility.yul\":16016:16064   */\n      mstore\n        /* \"#utility.yul\":16081:16159   */\n      tag_295\n        /* \"#utility.yul\":16154:16158   */\n      dup2\n        /* \"#utility.yul\":16145:16151   */\n      dup5\n        /* \"#utility.yul\":16081:16159   */\n      tag_88\n      jump\t// in\n    tag_295:\n        /* \"#utility.yul\":16073:16159   */\n      swap1\n      pop\n        /* \"#utility.yul\":15658:16166   */\n      swap4\n      swap3\n      pop\n      pop\n      pop\n      jump\t// out\n\n    auxdata: 0xa264697066735822122040de28d81993d2579cfa57ed21b7c3236486315180a51b709e6461344c30db2164736f6c63430008110033\n}\n",
				"bytecode": {
					"linkReferences": {},
					"object": "608060405234801561001057600080fd5b5033600160006101000a81548173ffffffffffffffffffffffffffffffffffffffff021916908373ffffffffffffffffffffffffffffffffffffffff160217905550610cb0806100616000396000f3fe608060405234801561001057600080fd5b50600436106100575760003560e01c80630bf803e41461005c5780631a3cd59a1461008c5780638da5cb5b146100bc578063b6820002146100da578063d03d5849146100f6575b600080fd5b610076600480360381019061007191906104f2565b610114565b6040516100839190610554565b60405180910390f35b6100a660048036038101906100a1919061059b565b610163565b6040516100b39190610647565b60405180910390f35b6100c4610213565b6040516100d191906106aa565b60405180910390f35b6100f460048036038101906100ef91906106c5565b610239565b005b6100fe6102bf565b60405161010b919061082d565b60405180910390f35b600080829080600181540180825580915050600190039060005260206000200160009091909190915090816101499190610a5b565b50600160008054905061015c9190610b5c565b9050919050565b60606000828154811061017957610178610b90565b5b90600052602060002001805461018e9061087e565b80601f01602080910402602001604051908101604052809291908181526020018280546101ba9061087e565b80156102075780601f106101dc57610100808354040283529160200191610207565b820191906000526020600020905b8154815290600101906020018083116101ea57829003601f168201915b50505050509050919050565b600160009054906101000a900473ffffffffffffffffffffffffffffffffffffffff1681565b7f305058d54db6daf26994cd687b168a24cdd9a7201462f1659782c4e4299879926000838154811061026e5761026d610b90565b5b9060005260206000200182604051610287929190610c43565b60405180910390a180600083815481106102a4576102a3610b90565b5b9060005260206000200190816102ba9190610a5b565b505050565b60606000805480602002602001604051908101604052809291908181526020016000905b8282101561038f5783829060005260206000200180546103029061087e565b80601f016020809104026020016040519081016040528092919081815260200182805461032e9061087e565b801561037b5780601f106103505761010080835404028352916020019161037b565b820191906000526020600020905b81548152906001019060200180831161035e57829003601f168201915b5050505050815260200190600101906102e3565b50505050905090565b6000604051905090565b600080fd5b600080fd5b600080fd5b600080fd5b6000601f19601f8301169050919050565b7f4e487b7100000000000000000000000000000000000000000000000000000000600052604160045260246000fd5b6103ff826103b6565b810181811067ffffffffffffffff8211171561041e5761041d6103c7565b5b80604052505050565b6000610431610398565b905061043d82826103f6565b919050565b600067ffffffffffffffff82111561045d5761045c6103c7565b5b610466826103b6565b9050602081019050919050565b82818337600083830152505050565b600061049561049084610442565b610427565b9050828152602081018484840111156104b1576104b06103b1565b5b6104bc848285610473565b509392505050565b600082601f8301126104d9576104d86103ac565b5b81356104e9848260208601610482565b91505092915050565b600060208284031215610508576105076103a2565b5b600082013567ffffffffffffffff811115610526576105256103a7565b5b610532848285016104c4565b91505092915050565b6000819050919050565b61054e8161053b565b82525050565b60006020820190506105696000830184610545565b92915050565b6105788161053b565b811461058357600080fd5b50565b6000813590506105958161056f565b92915050565b6000602082840312156105b1576105b06103a2565b5b60006105bf84828501610586565b91505092915050565b600081519050919050565b600082825260208201905092915050565b60005b838110156106025780820151818401526020810190506105e7565b60008484015250505050565b6000610619826105c8565b61062381856105d3565b93506106338185602086016105e4565b61063c816103b6565b840191505092915050565b60006020820190508181036000830152610661818461060e565b905092915050565b600073ffffffffffffffffffffffffffffffffffffffff82169050919050565b600061069482610669565b9050919050565b6106a481610689565b82525050565b60006020820190506106bf600083018461069b565b92915050565b600080604083850312156106dc576106db6103a2565b5b60006106ea85828601610586565b925050602083013567ffffffffffffffff81111561070b5761070a6103a7565b5b610717858286016104c4565b9150509250929050565b600081519050919050565b600082825260208201905092915050565b6000819050602082019050919050565b600082825260208201905092915050565b6000610769826105c8565b610773818561074d565b93506107838185602086016105e4565b61078c816103b6565b840191505092915050565b60006107a3838361075e565b905092915050565b6000602082019050919050565b60006107c382610721565b6107cd818561072c565b9350836020820285016107df8561073d565b8060005b8581101561081b57848403895281516107fc8582610797565b9450610807836107ab565b925060208a019950506001810190506107e3565b50829750879550505050505092915050565b6000602082019050818103600083015261084781846107b8565b905092915050565b7f4e487b7100000000000000000000000000000000000000000000000000000000600052602260045260246000fd5b6000600282049050600182168061089657607f821691505b6020821081036108a9576108a861084f565b5b50919050565b60008190508160005260206000209050919050565b60006020601f8301049050919050565b600082821b905092915050565b6000600883026109117fffffffffffffffffffffffffffffffffffffffffffffffffffffffffffffffff826108d4565b61091b86836108d4565b95508019841693508086168417925050509392505050565b6000819050919050565b600061095861095361094e8461053b565b610933565b61053b565b9050919050565b6000819050919050565b6109728361093d565b61098661097e8261095f565b8484546108e1565b825550505050565b600090565b61099b61098e565b6109a6818484610969565b505050565b5b818110156109ca576109bf600082610993565b6001810190506109ac565b5050565b601f821115610a0f576109e0816108af565b6109e9846108c4565b810160208510156109f8578190505b610a0c610a04856108c4565b8301826109ab565b50505b505050565b600082821c905092915050565b6000610a3260001984600802610a14565b1980831691505092915050565b6000610a4b8383610a21565b9150826002028217905092915050565b610a64826105c8565b67ffffffffffffffff811115610a7d57610a7c6103c7565b5b610a87825461087e565b610a928282856109ce565b600060209050601f831160018114610ac55760008415610ab3578287015190505b610abd8582610a3f565b865550610b25565b601f198416610ad3866108af565b60005b82811015610afb57848901518255600182019150602085019450602081019050610ad6565b86831015610b185784890151610b14601f891682610a21565b8355505b6001600288020188555050505b505050505050565b7f4e487b7100000000000000000000000000000000000000000000000000000000600052601160045260246000fd5b6000610b678261053b565b9150610b728361053b565b9250828203905081811115610b8a57610b89610b2d565b5b92915050565b7f4e487b7100000000000000000000000000000000000000000000000000000000600052603260045260246000fd5b60008154610bcc8161087e565b610bd681866105d3565b94506001821660008114610bf15760018114610c0757610c3a565b60ff198316865281151560200286019350610c3a565b610c10856108af565b60005b83811015610c3257815481890152600182019150602081019050610c13565b808801955050505b50505092915050565b60006040820190508181036000830152610c5d8185610bbf565b90508181036020830152610c71818461060e565b9050939250505056fea264697066735822122040de28d81993d2579cfa57ed21b7c3236486315180a51b709e6461344c30db2164736f6c63430008110033",
					"opcodes": "PUSH1 0x80 PUSH1 0x40 MSTORE CALLVALUE DUP1 ISZERO PUSH2 0x10 JUMPI PUSH1 0x0 DUP1 REVERT JUMPDEST POP CALLER PUSH1 0x1 PUSH1 0x0 PUSH2 0x100 EXP DUP2 SLOAD DUP2 PUSH20 0xFFFFFFFFFFFFFFFFFFFFFFFFFFFFFFFFFFFFFFFF MUL NOT AND SWAP1 DUP4 PUSH20 0xFFFFFFFFFFFFFFFFFFFFFFFFFFFFFFFFFFFFFFFF AND MUL OR SWAP1 SSTORE POP PUSH2 0xCB0 DUP1 PUSH2 0x61 PUSH1 0x0 CODECOPY PUSH1 0x0 RETURN INVALID PUSH1 0x80 PUSH1 0x40 MSTORE CALLVALUE DUP1 ISZERO PUSH2 0x10 JUMPI PUSH1 0x0 DUP1 REVERT JUMPDEST POP PUSH1 0x4 CALLDATASIZE LT PUSH2 0x57 JUMPI PUSH1 0x0 CALLDATALOAD PUSH1 0xE0 SHR DUP1 PUSH4 0xBF803E4 EQ PUSH2 0x5C JUMPI DUP1 PUSH4 0x1A3CD59A EQ PUSH2 0x8C JUMPI DUP1 PUSH4 0x8DA5CB5B EQ PUSH2 0xBC JUMPI DUP1 PUSH4 0xB6820002 EQ PUSH2 0xDA JUMPI DUP1 PUSH4 0xD03D5849 EQ PUSH2 0xF6 JUMPI JUMPDEST PUSH1 0x0 DUP1 REVERT JUMPDEST PUSH2 0x76 PUSH1 0x4 DUP1 CALLDATASIZE SUB DUP2 ADD SWAP1 PUSH2 0x71 SWAP2 SWAP1 PUSH2 0x4F2 JUMP JUMPDEST PUSH2 0x114 JUMP JUMPDEST PUSH1 0x40 MLOAD PUSH2 0x83 SWAP2 SWAP1 PUSH2 0x554 JUMP JUMPDEST PUSH1 0x40 MLOAD DUP1 SWAP2 SUB SWAP1 RETURN JUMPDEST PUSH2 0xA6 PUSH1 0x4 DUP1 CALLDATASIZE SUB DUP2 ADD SWAP1 PUSH2 0xA1 SWAP2 SWAP1 PUSH2 0x59B JUMP JUMPDEST PUSH2 0x163 JUMP JUMPDEST PUSH1 0x40 MLOAD PUSH2 0xB3 SWAP2 SWAP1 PUSH2 0x647 JUMP JUMPDEST PUSH1 0x40 MLOAD DUP1 SWAP2 SUB SWAP1 RETURN JUMPDEST PUSH2 0xC4 PUSH2 0x213 JUMP JUMPDEST PUSH1 0x40 MLOAD PUSH2 0xD1 SWAP2 SWAP1 PUSH2 0x6AA JUMP JUMPDEST PUSH1 0x40 MLOAD DUP1 SWAP2 SUB SWAP1 RETURN JUMPDEST PUSH2 0xF4 PUSH1 0x4 DUP1 CALLDATASIZE SUB DUP2 ADD SWAP1 PUSH2 0xEF SWAP2 SWAP1 PUSH2 0x6C5 JUMP JUMPDEST PUSH2 0x239 JUMP JUMPDEST STOP JUMPDEST PUSH2 0xFE PUSH2 0x2BF JUMP JUMPDEST PUSH1 0x40 MLOAD PUSH2 0x10B SWAP2 SWAP1 PUSH2 0x82D JUMP JUMPDEST PUSH1 0x40 MLOAD DUP1 SWAP2 SUB SWAP1 RETURN JUMPDEST PUSH1 0x0 DUP1 DUP3 SWAP1 DUP1 PUSH1 0x1 DUP2 SLOAD ADD DUP1 DUP3 SSTORE DUP1 SWAP2 POP POP PUSH1 0x1 SWAP1 SUB SWAP1 PUSH1 0x0 MSTORE PUSH1 0x20 PUSH1 0x0 KECCAK256 ADD PUSH1 0x0 SWAP1 SWAP2 SWAP1 SWAP2 SWAP1 SWAP2 POP SWAP1 DUP2 PUSH2 0x149 SWAP2 SWAP1 PUSH2 0xA5B JUMP JUMPDEST POP PUSH1 0x1 PUSH1 0x0 DUP1 SLOAD SWAP1 POP PUSH2 0x15C SWAP2 SWAP1 PUSH2 0xB5C JUMP JUMPDEST SWAP1 POP SWAP2 SWAP1 POP JUMP JUMPDEST PUSH1 0x60 PUSH1 0x0 DUP3 DUP2 SLOAD DUP2 LT PUSH2 0x179 JUMPI PUSH2 0x178 PUSH2 0xB90 JUMP JUMPDEST JUMPDEST SWAP1 PUSH1 0x0 MSTORE PUSH1 0x20 PUSH1 0x0 KECCAK256 ADD DUP1 SLOAD PUSH2 0x18E SWAP1 PUSH2 0x87E JUMP JUMPDEST DUP1 PUSH1 0x1F ADD PUSH1 0x20 DUP1 SWAP2 DIV MUL PUSH1 0x20 ADD PUSH1 0x40 MLOAD SWAP1 DUP2 ADD PUSH1 0x40 MSTORE DUP1 SWAP3 SWAP2 SWAP1 DUP2 DUP2 MSTORE PUSH1 0x20 ADD DUP3 DUP1 SLOAD PUSH2 0x1BA SWAP1 PUSH2 0x87E JUMP JUMPDEST DUP1 ISZERO PUSH2 0x207 JUMPI DUP1 PUSH1 0x1F LT PUSH2 0x1DC JUMPI PUSH2 0x100 DUP1 DUP4 SLOAD DIV MUL DUP4 MSTORE SWAP2 PUSH1 0x20 ADD SWAP2 PUSH2 0x207 JUMP JUMPDEST DUP3 ADD SWAP2 SWAP1 PUSH1 0x0 MSTORE PUSH1 0x20 PUSH1 0x0 KECCAK256 SWAP1 JUMPDEST DUP2 SLOAD DUP2 MSTORE SWAP1 PUSH1 0x1 ADD SWAP1 PUSH1 0x20 ADD DUP1 DUP4 GT PUSH2 0x1EA JUMPI DUP3 SWAP1 SUB PUSH1 0x1F AND DUP3 ADD SWAP2 JUMPDEST POP POP POP POP POP SWAP1 POP SWAP2 SWAP1 POP JUMP JUMPDEST PUSH1 0x1 PUSH1 0x0 SWAP1 SLOAD SWAP1 PUSH2 0x100 EXP SWAP1 DIV PUSH20 0xFFFFFFFFFFFFFFFFFFFFFFFFFFFFFFFFFFFFFFFF AND DUP2 JUMP JUMPDEST PUSH32 0x305058D54DB6DAF26994CD687B168A24CDD9A7201462F1659782C4E429987992 PUSH1 0x0 DUP4 DUP2 SLOAD DUP2 LT PUSH2 0x26E JUMPI PUSH2 0x26D PUSH2 0xB90 JUMP JUMPDEST JUMPDEST SWAP1 PUSH1 0x0 MSTORE PUSH1 0x20 PUSH1 0x0 KECCAK256 ADD DUP3 PUSH1 0x40 MLOAD PUSH2 0x287 SWAP3 SWAP2 SWAP1 PUSH2 0xC43 JUMP JUMPDEST PUSH1 0x40 MLOAD DUP1 SWAP2 SUB SWAP1 LOG1 DUP1 PUSH1 0x0 DUP4 DUP2 SLOAD DUP2 LT PUSH2 0x2A4 JUMPI PUSH2 0x2A3 PUSH2 0xB90 JUMP JUMPDEST JUMPDEST SWAP1 PUSH1 0x0 MSTORE PUSH1 0x20 PUSH1 0x0 KECCAK256 ADD SWAP1 DUP2 PUSH2 0x2BA SWAP2 SWAP1 PUSH2 0xA5B JUMP JUMPDEST POP POP POP JUMP JUMPDEST PUSH1 0x60 PUSH1 0x0 DUP1 SLOAD DUP1 PUSH1 0x20 MUL PUSH1 0x20 ADD PUSH1 0x40 MLOAD SWAP1 DUP2 ADD PUSH1 0x40 MSTORE DUP1 SWAP3 SWAP2 SWAP1 DUP2 DUP2 MSTORE PUSH1 0x20 ADD PUSH1 0x0 SWAP1 JUMPDEST DUP3 DUP3 LT ISZERO PUSH2 0x38F JUMPI DUP4 DUP3 SWAP1 PUSH1 0x0 MSTORE PUSH1 0x20 PUSH1 0x0 KECCAK256 ADD DUP1 SLOAD PUSH2 0x302 SWAP1 PUSH2 0x87E JUMP JUMPDEST DUP1 PUSH1 0x1F ADD PUSH1 0x20 DUP1 SWAP2 DIV MUL PUSH1 0x20 ADD PUSH1 0x40 MLOAD SWAP1 DUP2 ADD PUSH1 0x40 MSTORE DUP1 SWAP3 SWAP2 SWAP1 DUP2 DUP2 MSTORE PUSH1 0x20 ADD DUP3 DUP1 SLOAD PUSH2 0x32E SWAP1 PUSH2 0x87E JUMP JUMPDEST DUP1 ISZERO PUSH2 0x37B JUMPI DUP1 PUSH1 0x1F LT PUSH2 0x350 JUMPI PUSH2 0x100 DUP1 DUP4 SLOAD DIV MUL DUP4 MSTORE SWAP2 PUSH1 0x20 ADD SWAP2 PUSH2 0x37B JUMP JUMPDEST DUP3 ADD SWAP2 SWAP1 PUSH1 0x0 MSTORE PUSH1 0x20 PUSH1 0x0 KECCAK256 SWAP1 JUMPDEST DUP2 SLOAD DUP2 MSTORE SWAP1 PUSH1 0x1 ADD SWAP1 PUSH1 0x20 ADD DUP1 DUP4 GT PUSH2 0x35E JUMPI DUP3 SWAP1 SUB PUSH1 0x1F AND DUP3 ADD SWAP2 JUMPDEST POP POP POP POP POP DUP2 MSTORE PUSH1 0x20 ADD SWAP1 PUSH1 0x1 ADD SWAP1 PUSH2 0x2E3 JUMP JUMPDEST POP POP POP POP SWAP1 POP SWAP1 JUMP JUMPDEST PUSH1 0x0 PUSH1 0x40 MLOAD SWAP1 POP SWAP1 JUMP JUMPDEST PUSH1 0x0 DUP1 REVERT JUMPDEST PUSH1 0x0 DUP1 REVERT JUMPDEST PUSH1 0x0 DUP1 REVERT JUMPDEST PUSH1 0x0 DUP1 REVERT JUMPDEST PUSH1 0x0 PUSH1 0x1F NOT PUSH1 0x1F DUP4 ADD AND SWAP1 POP SWAP2 SWAP1 POP JUMP JUMPDEST PUSH32 0x4E487B7100000000000000000000000000000000000000000000000000000000 PUSH1 0x0 MSTORE PUSH1 0x41 PUSH1 0x4 MSTORE PUSH1 0x24 PUSH1 0x0 REVERT JUMPDEST PUSH2 0x3FF DUP3 PUSH2 0x3B6 JUMP JUMPDEST DUP2 ADD DUP2 DUP2 LT PUSH8 0xFFFFFFFFFFFFFFFF DUP3 GT OR ISZERO PUSH2 0x41E JUMPI PUSH2 0x41D PUSH2 0x3C7 JUMP JUMPDEST JUMPDEST DUP1 PUSH1 0x40 MSTORE POP POP POP JUMP JUMPDEST PUSH1 0x0 PUSH2 0x431 PUSH2 0x398 JUMP JUMPDEST SWAP1 POP PUSH2 0x43D DUP3 DUP3 PUSH2 0x3F6 JUMP JUMPDEST SWAP2 SWAP1 POP JUMP JUMPDEST PUSH1 0x0 PUSH8 0xFFFFFFFFFFFFFFFF DUP3 GT ISZERO PUSH2 0x45D JUMPI PUSH2 0x45C PUSH2 0x3C7 JUMP JUMPDEST JUMPDEST PUSH2 0x466 DUP3 PUSH2 0x3B6 JUMP JUMPDEST SWAP1 POP PUSH1 0x20 DUP2 ADD SWAP1 POP SWAP2 SWAP1 POP JUMP JUMPDEST DUP3 DUP2 DUP4 CALLDATACOPY PUSH1 0x0 DUP4 DUP4 ADD MSTORE POP POP POP JUMP JUMPDEST PUSH1 0x0 PUSH2 0x495 PUSH2 0x490 DUP5 PUSH2 0x442 JUMP JUMPDEST PUSH2 0x427 JUMP JUMPDEST SWAP1 POP DUP3 DUP2 MSTORE PUSH1 0x20 DUP2 ADD DUP5 DUP5 DUP5 ADD GT ISZERO PUSH2 0x4B1 JUMPI PUSH2 0x4B0 PUSH2 0x3B1 JUMP JUMPDEST JUMPDEST PUSH2 0x4BC DUP5 DUP3 DUP6 PUSH2 0x473 JUMP JUMPDEST POP SWAP4 SWAP3 POP POP POP JUMP JUMPDEST PUSH1 0x0 DUP3 PUSH1 0x1F DUP4 ADD SLT PUSH2 0x4D9 JUMPI PUSH2 0x4D8 PUSH2 0x3AC JUMP JUMPDEST JUMPDEST DUP2 CALLDATALOAD PUSH2 0x4E9 DUP5 DUP3 PUSH1 0x20 DUP7 ADD PUSH2 0x482 JUMP JUMPDEST SWAP2 POP POP SWAP3 SWAP2 POP POP JUMP JUMPDEST PUSH1 0x0 PUSH1 0x20 DUP3 DUP5 SUB SLT ISZERO PUSH2 0x508 JUMPI PUSH2 0x507 PUSH2 0x3A2 JUMP JUMPDEST JUMPDEST PUSH1 0x0 DUP3 ADD CALLDATALOAD PUSH8 0xFFFFFFFFFFFFFFFF DUP2 GT ISZERO PUSH2 0x526 JUMPI PUSH2 0x525 PUSH2 0x3A7 JUMP JUMPDEST JUMPDEST PUSH2 0x532 DUP5 DUP3 DUP6 ADD PUSH2 0x4C4 JUMP JUMPDEST SWAP2 POP POP SWAP3 SWAP2 POP POP JUMP JUMPDEST PUSH1 0x0 DUP2 SWAP1 POP SWAP2 SWAP1 POP JUMP JUMPDEST PUSH2 0x54E DUP2 PUSH2 0x53B JUMP JUMPDEST DUP3 MSTORE POP POP JUMP JUMPDEST PUSH1 0x0 PUSH1 0x20 DUP3 ADD SWAP1 POP PUSH2 0x569 PUSH1 0x0 DUP4 ADD DUP5 PUSH2 0x545 JUMP JUMPDEST SWAP3 SWAP2 POP POP JUMP JUMPDEST PUSH2 0x578 DUP2 PUSH2 0x53B JUMP JUMPDEST DUP2 EQ PUSH2 0x583 JUMPI PUSH1 0x0 DUP1 REVERT JUMPDEST POP JUMP JUMPDEST PUSH1 0x0 DUP2 CALLDATALOAD SWAP1 POP PUSH2 0x595 DUP2 PUSH2 0x56F JUMP JUMPDEST SWAP3 SWAP2 POP POP JUMP JUMPDEST PUSH1 0x0 PUSH1 0x20 DUP3 DUP5 SUB SLT ISZERO PUSH2 0x5B1 JUMPI PUSH2 0x5B0 PUSH2 0x3A2 JUMP JUMPDEST JUMPDEST PUSH1 0x0 PUSH2 0x5BF DUP5 DUP3 DUP6 ADD PUSH2 0x586 JUMP JUMPDEST SWAP2 POP POP SWAP3 SWAP2 POP POP JUMP JUMPDEST PUSH1 0x0 DUP2 MLOAD SWAP1 POP SWAP2 SWAP1 POP JUMP JUMPDEST PUSH1 0x0 DUP3 DUP3 MSTORE PUSH1 0x20 DUP3 ADD SWAP1 POP SWAP3 SWAP2 POP POP JUMP JUMPDEST PUSH1 0x0 JUMPDEST DUP4 DUP2 LT ISZERO PUSH2 0x602 JUMPI DUP1 DUP3 ADD MLOAD DUP2 DUP5 ADD MSTORE PUSH1 0x20 DUP2 ADD SWAP1 POP PUSH2 0x5E7 JUMP JUMPDEST PUSH1 0x0 DUP5 DUP5 ADD MSTORE POP POP POP POP JUMP JUMPDEST PUSH1 0x0 PUSH2 0x619 DUP3 PUSH2 0x5C8 JUMP JUMPDEST PUSH2 0x623 DUP2 DUP6 PUSH2 0x5D3 JUMP JUMPDEST SWAP4 POP PUSH2 0x633 DUP2 DUP6 PUSH1 0x20 DUP7 ADD PUSH2 0x5E4 JUMP JUMPDEST PUSH2 0x63C DUP2 PUSH2 0x3B6 JUMP JUMPDEST DUP5 ADD SWAP2 POP POP SWAP3 SWAP2 POP POP JUMP JUMPDEST PUSH1 0x0 PUSH1 0x20 DUP3 ADD SWAP1 POP DUP2 DUP2 SUB PUSH1 0x0 DUP4 ADD MSTORE PUSH2 0x661 DUP2 DUP5 PUSH2 0x60E JUMP JUMPDEST SWAP1 POP SWAP3 SWAP2 POP POP JUMP JUMPDEST PUSH1 0x0 PUSH20 0xFFFFFFFFFFFFFFFFFFFFFFFFFFFFFFFFFFFFFFFF DUP3 AND SWAP1 POP SWAP2 SWAP1 POP JUMP JUMPDEST PUSH1 0x0 PUSH2 0x694 DUP3 PUSH2 0x669 JUMP JUMPDEST SWAP1 POP SWAP2 SWAP1 POP JUMP JUMPDEST PUSH2 0x6A4 DUP2 PUSH2 0x689 JUMP JUMPDEST DUP3 MSTORE POP POP JUMP JUMPDEST PUSH1 0x0 PUSH1 0x20 DUP3 ADD SWAP1 POP PUSH2 0x6BF PUSH1 0x0 DUP4 ADD DUP5 PUSH2 0x69B JUMP JUMPDEST SWAP3 SWAP2 POP POP JUMP JUMPDEST PUSH1 0x0 DUP1 PUSH1 0x40 DUP4 DUP6 SUB SLT ISZERO PUSH2 0x6DC JUMPI PUSH2 0x6DB PUSH2 0x3A2 JUMP JUMPDEST JUMPDEST PUSH1 0x0 PUSH2 0x6EA DUP6 DUP3 DUP7 ADD PUSH2 0x586 JUMP JUMPDEST SWAP3 POP POP PUSH1 0x20 DUP4 ADD CALLDATALOAD PUSH8 0xFFFFFFFFFFFFFFFF DUP2 GT ISZERO PUSH2 0x70B JUMPI PUSH2 0x70A PUSH2 0x3A7 JUMP JUMPDEST JUMPDEST PUSH2 0x717 DUP6 DUP3 DUP7 ADD PUSH2 0x4C4 JUMP JUMPDEST SWAP2 POP POP SWAP3 POP SWAP3 SWAP1 POP JUMP JUMPDEST PUSH1 0x0 DUP2 MLOAD SWAP1 POP SWAP2 SWAP1 POP JUMP JUMPDEST PUSH1 0x0 DUP3 DUP3 MSTORE PUSH1 0x20 DUP3 ADD SWAP1 POP SWAP3 SWAP2 POP POP JUMP JUMPDEST PUSH1 0x0 DUP2 SWAP1 POP PUSH1 0x20 DUP3 ADD SWAP1 POP SWAP2 SWAP1 POP JUMP JUMPDEST PUSH1 0x0 DUP3 DUP3 MSTORE PUSH1 0x20 DUP3 ADD SWAP1 POP SWAP3 SWAP2 POP POP JUMP JUMPDEST PUSH1 0x0 PUSH2 0x769 DUP3 PUSH2 0x5C8 JUMP JUMPDEST PUSH2 0x773 DUP2 DUP6 PUSH2 0x74D JUMP JUMPDEST SWAP4 POP PUSH2 0x783 DUP2 DUP6 PUSH1 0x20 DUP7 ADD PUSH2 0x5E4 JUMP JUMPDEST PUSH2 0x78C DUP2 PUSH2 0x3B6 JUMP JUMPDEST DUP5 ADD SWAP2 POP POP SWAP3 SWAP2 POP POP JUMP JUMPDEST PUSH1 0x0 PUSH2 0x7A3 DUP4 DUP4 PUSH2 0x75E JUMP JUMPDEST SWAP1 POP SWAP3 SWAP2 POP POP JUMP JUMPDEST PUSH1 0x0 PUSH1 0x20 DUP3 ADD SWAP1 POP SWAP2 SWAP1 POP JUMP JUMPDEST PUSH1 0x0 PUSH2 0x7C3 DUP3 PUSH2 0x721 JUMP JUMPDEST PUSH2 0x7CD DUP2 DUP6 PUSH2 0x72C JUMP JUMPDEST SWAP4 POP DUP4 PUSH1 0x20 DUP3 MUL DUP6 ADD PUSH2 0x7DF DUP6 PUSH2 0x73D JUMP JUMPDEST DUP1 PUSH1 0x0 JUMPDEST DUP6 DUP2 LT ISZERO PUSH2 0x81B JUMPI DUP5 DUP5 SUB DUP10 MSTORE DUP2 MLOAD PUSH2 0x7FC DUP6 DUP3 PUSH2 0x797 JUMP JUMPDEST SWAP5 POP PUSH2 0x807 DUP4 PUSH2 0x7AB JUMP JUMPDEST SWAP3 POP PUSH1 0x20 DUP11 ADD SWAP10 POP POP PUSH1 0x1 DUP2 ADD SWAP1 POP PUSH2 0x7E3 JUMP JUMPDEST POP DUP3 SWAP8 POP DUP8 SWAP6 POP POP POP POP POP POP SWAP3 SWAP2 POP POP JUMP JUMPDEST PUSH1 0x0 PUSH1 0x20 DUP3 ADD SWAP1 POP DUP2 DUP2 SUB PUSH1 0x0 DUP4 ADD MSTORE PUSH2 0x847 DUP2 DUP5 PUSH2 0x7B8 JUMP JUMPDEST SWAP1 POP SWAP3 SWAP2 POP POP JUMP JUMPDEST PUSH32 0x4E487B7100000000000000000000000000000000000000000000000000000000 PUSH1 0x0 MSTORE PUSH1 0x22 PUSH1 0x4 MSTORE PUSH1 0x24 PUSH1 0x0 REVERT JUMPDEST PUSH1 0x0 PUSH1 0x2 DUP3 DIV SWAP1 POP PUSH1 0x1 DUP3 AND DUP1 PUSH2 0x896 JUMPI PUSH1 0x7F DUP3 AND SWAP2 POP JUMPDEST PUSH1 0x20 DUP3 LT DUP2 SUB PUSH2 0x8A9 JUMPI PUSH2 0x8A8 PUSH2 0x84F JUMP JUMPDEST JUMPDEST POP SWAP2 SWAP1 POP JUMP JUMPDEST PUSH1 0x0 DUP2 SWAP1 POP DUP2 PUSH1 0x0 MSTORE PUSH1 0x20 PUSH1 0x0 KECCAK256 SWAP1 POP SWAP2 SWAP1 POP JUMP JUMPDEST PUSH1 0x0 PUSH1 0x20 PUSH1 0x1F DUP4 ADD DIV SWAP1 POP SWAP2 SWAP1 POP JUMP JUMPDEST PUSH1 0x0 DUP3 DUP3 SHL SWAP1 POP SWAP3 SWAP2 POP POP JUMP JUMPDEST PUSH1 0x0 PUSH1 0x8 DUP4 MUL PUSH2 0x911 PUSH32 0xFFFFFFFFFFFFFFFFFFFFFFFFFFFFFFFFFFFFFFFFFFFFFFFFFFFFFFFFFFFFFFFF DUP3 PUSH2 0x8D4 JUMP JUMPDEST PUSH2 0x91B DUP7 DUP4 PUSH2 0x8D4 JUMP JUMPDEST SWAP6 POP DUP1 NOT DUP5 AND SWAP4 POP DUP1 DUP7 AND DUP5 OR SWAP3 POP POP POP SWAP4 SWAP3 POP POP POP JUMP JUMPDEST PUSH1 0x0 DUP2 SWAP1 POP SWAP2 SWAP1 POP JUMP JUMPDEST PUSH1 0x0 PUSH2 0x958 PUSH2 0x953 PUSH2 0x94E DUP5 PUSH2 0x53B JUMP JUMPDEST PUSH2 0x933 JUMP JUMPDEST PUSH2 0x53B JUMP JUMPDEST SWAP1 POP SWAP2 SWAP1 POP JUMP JUMPDEST PUSH1 0x0 DUP2 SWAP1 POP SWAP2 SWAP1 POP JUMP JUMPDEST PUSH2 0x972 DUP4 PUSH2 0x93D JUMP JUMPDEST PUSH2 0x986 PUSH2 0x97E DUP3 PUSH2 0x95F JUMP JUMPDEST DUP5 DUP5 SLOAD PUSH2 0x8E1 JUMP JUMPDEST DUP3 SSTORE POP POP POP POP JUMP JUMPDEST PUSH1 0x0 SWAP1 JUMP JUMPDEST PUSH2 0x99B PUSH2 0x98E JUMP JUMPDEST PUSH2 0x9A6 DUP2 DUP5 DUP5 PUSH2 0x969 JUMP JUMPDEST POP POP POP JUMP JUMPDEST JUMPDEST DUP2 DUP2 LT ISZERO PUSH2 0x9CA JUMPI PUSH2 0x9BF PUSH1 0x0 DUP3 PUSH2 0x993 JUMP JUMPDEST PUSH1 0x1 DUP2 ADD SWAP1 POP PUSH2 0x9AC JUMP JUMPDEST POP POP JUMP JUMPDEST PUSH1 0x1F DUP3 GT ISZERO PUSH2 0xA0F JUMPI PUSH2 0x9E0 DUP2 PUSH2 0x8AF JUMP JUMPDEST PUSH2 0x9E9 DUP5 PUSH2 0x8C4 JUMP JUMPDEST DUP2 ADD PUSH1 0x20 DUP6 LT ISZERO PUSH2 0x9F8 JUMPI DUP2 SWAP1 POP JUMPDEST PUSH2 0xA0C PUSH2 0xA04 DUP6 PUSH2 0x8C4 JUMP JUMPDEST DUP4 ADD DUP3 PUSH2 0x9AB JUMP JUMPDEST POP POP JUMPDEST POP POP POP JUMP JUMPDEST PUSH1 0x0 DUP3 DUP3 SHR SWAP1 POP SWAP3 SWAP2 POP POP JUMP JUMPDEST PUSH1 0x0 PUSH2 0xA32 PUSH1 0x0 NOT DUP5 PUSH1 0x8 MUL PUSH2 0xA14 JUMP JUMPDEST NOT DUP1 DUP4 AND SWAP2 POP POP SWAP3 SWAP2 POP POP JUMP JUMPDEST PUSH1 0x0 PUSH2 0xA4B DUP4 DUP4 PUSH2 0xA21 JUMP JUMPDEST SWAP2 POP DUP3 PUSH1 0x2 MUL DUP3 OR SWAP1 POP SWAP3 SWAP2 POP POP JUMP JUMPDEST PUSH2 0xA64 DUP3 PUSH2 0x5C8 JUMP JUMPDEST PUSH8 0xFFFFFFFFFFFFFFFF DUP2 GT ISZERO PUSH2 0xA7D JUMPI PUSH2 0xA7C PUSH2 0x3C7 JUMP JUMPDEST JUMPDEST PUSH2 0xA87 DUP3 SLOAD PUSH2 0x87E JUMP JUMPDEST PUSH2 0xA92 DUP3 DUP3 DUP6 PUSH2 0x9CE JUMP JUMPDEST PUSH1 0x0 PUSH1 0x20 SWAP1 POP PUSH1 0x1F DUP4 GT PUSH1 0x1 DUP2 EQ PUSH2 0xAC5 JUMPI PUSH1 0x0 DUP5 ISZERO PUSH2 0xAB3 JUMPI DUP3 DUP8 ADD MLOAD SWAP1 POP JUMPDEST PUSH2 0xABD DUP6 DUP3 PUSH2 0xA3F JUMP JUMPDEST DUP7 SSTORE POP PUSH2 0xB25 JUMP JUMPDEST PUSH1 0x1F NOT DUP5 AND PUSH2 0xAD3 DUP7 PUSH2 0x8AF JUMP JUMPDEST PUSH1 0x0 JUMPDEST DUP3 DUP2 LT ISZERO PUSH2 0xAFB JUMPI DUP5 DUP10 ADD MLOAD DUP3 SSTORE PUSH1 0x1 DUP3 ADD SWAP2 POP PUSH1 0x20 DUP6 ADD SWAP5 POP PUSH1 0x20 DUP2 ADD SWAP1 POP PUSH2 0xAD6 JUMP JUMPDEST DUP7 DUP4 LT ISZERO PUSH2 0xB18 JUMPI DUP5 DUP10 ADD MLOAD PUSH2 0xB14 PUSH1 0x1F DUP10 AND DUP3 PUSH2 0xA21 JUMP JUMPDEST DUP4 SSTORE POP JUMPDEST PUSH1 0x1 PUSH1 0x2 DUP9 MUL ADD DUP9 SSTORE POP POP POP JUMPDEST POP POP POP POP POP POP JUMP JUMPDEST PUSH32 0x4E487B7100000000000000000000000000000000000000000000000000000000 PUSH1 0x0 MSTORE PUSH1 0x11 PUSH1 0x4 MSTORE PUSH1 0x24 PUSH1 0x0 REVERT JUMPDEST PUSH1 0x0 PUSH2 0xB67 DUP3 PUSH2 0x53B JUMP JUMPDEST SWAP2 POP PUSH2 0xB72 DUP4 PUSH2 0x53B JUMP JUMPDEST SWAP3 POP DUP3 DUP3 SUB SWAP1 POP DUP2 DUP2 GT ISZERO PUSH2 0xB8A JUMPI PUSH2 0xB89 PUSH2 0xB2D JUMP JUMPDEST JUMPDEST SWAP3 SWAP2 POP POP JUMP JUMPDEST PUSH32 0x4E487B7100000000000000000000000000000000000000000000000000000000 PUSH1 0x0 MSTORE PUSH1 0x32 PUSH1 0x4 MSTORE PUSH1 0x24 PUSH1 0x0 REVERT JUMPDEST PUSH1 0x0 DUP2 SLOAD PUSH2 0xBCC DUP2 PUSH2 0x87E JUMP JUMPDEST PUSH2 0xBD6 DUP2 DUP7 PUSH2 0x5D3 JUMP JUMPDEST SWAP5 POP PUSH1 0x1 DUP3 AND PUSH1 0x0 DUP2 EQ PUSH2 0xBF1 JUMPI PUSH1 0x1 DUP2 EQ PUSH2 0xC07 JUMPI PUSH2 0xC3A JUMP JUMPDEST PUSH1 0xFF NOT DUP4 AND DUP7 MSTORE DUP2 ISZERO ISZERO PUSH1 0x20 MUL DUP7 ADD SWAP4 POP PUSH2 0xC3A JUMP JUMPDEST PUSH2 0xC10 DUP6 PUSH2 0x8AF JUMP JUMPDEST PUSH1 0x0 JUMPDEST DUP4 DUP2 LT ISZERO PUSH2 0xC32 JUMPI DUP2 SLOAD DUP2 DUP10 ADD MSTORE PUSH1 0x1 DUP3 ADD SWAP2 POP PUSH1 0x20 DUP2 ADD SWAP1 POP PUSH2 0xC13 JUMP JUMPDEST DUP1 DUP9 ADD SWAP6 POP POP POP JUMPDEST POP POP POP SWAP3 SWAP2 POP POP JUMP JUMPDEST PUSH1 0x0 PUSH1 0x40 DUP3 ADD SWAP1 POP DUP2 DUP2 SUB PUSH1 0x0 DUP4 ADD MSTORE PUSH2 0xC5D DUP2 DUP6 PUSH2 0xBBF JUMP JUMPDEST SWAP1 POP DUP2 DUP2 SUB PUSH1 0x20 DUP4 ADD MSTORE PUSH2 0xC71 DUP2 DUP5 PUSH2 0x60E JUMP JUMPDEST SWAP1 POP SWAP4 SWAP3 POP POP POP JUMP INVALID LOG2 PUSH5 0x6970667358 0x22 SLT KECCAK256 BLOCKHASH 0xDE 0x28 0xD8 NOT SWAP4 0xD2 JUMPI SWAP13 STATICCALL JUMPI 0xED 0x21 0xB7 0xC3 0x23 PUSH5 0x86315180A5 SHL PUSH17 0x9E6461344C30DB2164736F6C6343000811 STOP CALLER "
				},
				"gasEstimates": {
					"creation": {
						"codeDepositCost": "649600",
						"executionCost": "24949",
						"totalCost": "674549"
					},
					"external": {
						"addInfo(string)": "infinite",
						"getInfo(uint256)": "infinite",
						"listInfo()": "infinite",
						"owner()": "2536",
						"setInfo(uint256,string)": "infinite"
					}
				},
				"methodIdentifiers": {
					"addInfo(string)": "0bf803e4",
					"getInfo(uint256)": "1a3cd59a",
					"listInfo()": "d03d5849",
					"owner()": "8da5cb5b",
					"setInfo(uint256,string)": "b6820002"
				}
			},
			"storageLayout": {
				"storage": [
					{
						"astId": 4,
						"contract": "sc/register1.sol:RegisterAccess",
						"label": "info",
						"offset": 0,
						"slot": "0",
						"type": "t_array(t_string_storage)dyn_storage"
					},
					{
						"astId": 6,
						"contract": "sc/register1.sol:RegisterAccess",
						"label": "owner",
						"offset": 0,
						"slot": "1",
						"type": "t_address"
					}
				],
				"types": {
					"t_address": {
						"encoding": "inplace",
						"label": "address",
						"numberOfBytes": "20"
					},
					"t_array(t_string_storage)dyn_storage": {
						"base": "t_string_storage",
						"encoding": "dynamic_array",
						"label": "string[]",
						"numberOfBytes": "32"
					},
					"t_string_storage": {
						"encoding": "bytes",
						"label": "string",
						"numberOfBytes": "32"
					}
				}
			},
			"userdoc": {
				"kind": "user",
				"methods": {},
				"version": 1
			}
		}
	}
}