{
	"sc/register.sol": {
		"RegisterAccess": {
			"abi": [
				{
					"inputs": [],
					"stateMutability": "nonpayable",
					"type": "constructor"
				},
				{
					"anonymous": false,
					"inputs": [
						{
							"indexed": false,
							"internalType": "string",
							"name": "oldInfo",
							"type": "string"
						},
						{
							"indexed": false,
							"internalType": "string",
							"name": "newInfo",
							"type": "string"
						}
					],
					"name": "InfoChange",
					"type": "event"
				},
				{
					"inputs": [
						{
							"internalType": "string",
							"name": "_info",
							"type": "string"
						}
					],
					"name": "addInfo",
					"outputs": [
						{
							"internalType": "uint256",
							"name": "index",
							"type": "uint256"
						}
					],
					"stateMutability": "nonpayable",
					"type": "function"
				},
				{
					"inputs": [
						{
							"internalType": "address",
							"name": "_member",
							"type": "address"
						}
					],
					"name": "addMember",
					"outputs": [],
					"stateMutability": "nonpayable",
					"type": "function"
				},
				{
					"inputs": [
						{
							"internalType": "address",
							"name": "_member",
							"type": "address"
						}
					],
					"name": "delMember",
					"outputs": [],
					"stateMutability": "nonpayable",
					"type": "function"
				},
				{
					"inputs": [
						{
							"internalType": "uint256",
							"name": "index",
							"type": "uint256"
						}
					],
					"name": "getInfo",
					"outputs": [
						{
							"internalType": "string",
							"name": "",
							"type": "string"
						}
					],
					"stateMutability": "view",
					"type": "function"
				},
				{
					"inputs": [],
					"name": "listInfo",
					"outputs": [
						{
							"internalType": "string[]",
							"name": "",
							"type": "string[]"
						}
					],
					"stateMutability": "view",
					"type": "function"
				},
				{
					"inputs": [],
					"name": "owner",
					"outputs": [
						{
							"internalType": "address",
							"name": "",
							"type": "address"
						}
					],
					"stateMutability": "view",
					"type": "function"
				},
				{
					"inputs": [
						{
							"internalType": "uint256",
							"name": "index",
							"type": "uint256"
						},
						{
							"internalType": "string",
							"name": "_info",
							"type": "string"
						}
					],
					"name": "setInfo",
					"outputs": [],
					"stateMutability": "nonpayable",
					"type": "function"
				},
				{
					"inputs": [
						{
							"internalType": "address",
							"name": "",
							"type": "address"
						}
					],
					"name": "whiteList",
					"outputs": [
						{
							"internalType": "bool",
							"name": "",
							"type": "bool"
						}
					],
					"stateMutability": "view",
					"type": "function"
				}
			],
			"devdoc": {
				"kind": "dev",
				"methods": {},
				"version": 1
			},
			"evm": {
				"assembly": "    /* \"sc/register.sol\":57:1322  contract RegisterAccess {... */\n  mstore(0x40, 0x80)\n    /* \"sc/register.sol\":194:284  constructor() {... */\n  callvalue\n  dup1\n  iszero\n  tag_1\n  jumpi\n  0x00\n  dup1\n  revert\ntag_1:\n  pop\n    /* \"sc/register.sol\":227:237  msg.sender */\n  caller\n    /* \"sc/register.sol\":219:224  owner */\n  0x01\n  0x00\n    /* \"sc/register.sol\":219:237  owner = msg.sender */\n  0x0100\n  exp\n  dup2\n  sload\n  dup2\n  0xffffffffffffffffffffffffffffffffffffffff\n  mul\n  not\n  and\n  swap1\n  dup4\n  0xffffffffffffffffffffffffffffffffffffffff\n  and\n  mul\n  or\n  swap1\n  sstore\n  pop\n    /* \"sc/register.sol\":272:276  true */\n  0x01\n    /* \"sc/register.sol\":248:257  whiteList */\n  0x02\n    /* \"sc/register.sol\":248:269  whiteList[msg.sender] */\n  0x00\n    /* \"sc/register.sol\":258:268  msg.sender */\n  caller\n    /* \"sc/register.sol\":248:269  whiteList[msg.sender] */\n  0xffffffffffffffffffffffffffffffffffffffff\n  and\n  0xffffffffffffffffffffffffffffffffffffffff\n  and\n  dup2\n  mstore\n  0x20\n  add\n  swap1\n  dup2\n  mstore\n  0x20\n  add\n  0x00\n  keccak256\n  0x00\n    /* \"sc/register.sol\":248:276  whiteList[msg.sender] = true */\n  0x0100\n  exp\n  dup2\n  sload\n  dup2\n  0xff\n  mul\n  not\n  and\n  swap1\n  dup4\n  iszero\n  iszero\n  mul\n  or\n  swap1\n  sstore\n  pop\n    /* \"sc/register.sol\":57:1322  contract RegisterAccess {... */\n  dataSize(sub_0)\n  dup1\n  dataOffset(sub_0)\n  0x00\n  codecopy\n  0x00\n  return\nstop\n\nsub_0: assembly {\n        /* \"sc/register.sol\":57:1322  contract RegisterAccess {... */\n      mstore(0x40, 0x80)\n      callvalue\n      dup1\n      iszero\n      tag_1\n      jumpi\n      0x00\n      dup1\n      revert\n    tag_1:\n      pop\n      jumpi(tag_2, lt(calldatasize, 0x04))\n      shr(0xe0, calldataload(0x00))\n      dup1\n      0x8da5cb5b\n      gt\n      tag_11\n      jumpi\n      dup1\n      0x8da5cb5b\n      eq\n      tag_7\n      jumpi\n      dup1\n      0xb6820002\n      eq\n      tag_8\n      jumpi\n      dup1\n      0xca6d56dc\n      eq\n      tag_9\n      jumpi\n      dup1\n      0xd03d5849\n      eq\n      tag_10\n      jumpi\n      jump(tag_2)\n    tag_11:\n      dup1\n      0x0bf803e4\n      eq\n      tag_3\n      jumpi\n      dup1\n      0x1a3cd59a\n      eq\n      tag_4\n      jumpi\n      dup1\n      0x1f81595d\n      eq\n      tag_5\n      jumpi\n      dup1\n      0x372c12b1\n      eq\n      tag_6\n      jumpi\n    tag_2:\n      0x00\n      dup1\n      revert\n        /* \"sc/register.sol\":844:993  function addInfo(string memory _info) public onlyWhitelist returns (uint index) {... */\n    tag_3:\n      tag_12\n      0x04\n      dup1\n      calldatasize\n      sub\n      dup2\n      add\n      swap1\n      tag_13\n      swap2\n      swap1\n      tag_14\n      jump\t// in\n    tag_13:\n      tag_15\n      jump\t// in\n    tag_12:\n      mload(0x40)\n      tag_16\n      swap2\n      swap1\n      tag_17\n      jump\t// in\n    tag_16:\n      mload(0x40)\n      dup1\n      swap2\n      sub\n      swap1\n      return\n        /* \"sc/register.sol\":568:670  function getInfo(uint index) public view returns (string memory) {... */\n    tag_4:\n      tag_18\n      0x04\n      dup1\n      calldatasize\n      sub\n      dup2\n      add\n      swap1\n      tag_19\n      swap2\n      swap1\n      tag_20\n      jump\t// in\n    tag_19:\n      tag_21\n      jump\t// in\n    tag_18:\n      mload(0x40)\n      tag_22\n      swap2\n      swap1\n      tag_23\n      jump\t// in\n    tag_22:\n      mload(0x40)\n      dup1\n      swap2\n      sub\n      swap1\n      return\n        /* \"sc/register.sol\":1217:1316  function delMember (address _member) public onlyOwner {... */\n    tag_5:\n      tag_24\n      0x04\n      dup1\n      calldatasize\n      sub\n      dup2\n      add\n      swap1\n      tag_25\n      swap2\n      swap1\n      tag_26\n      jump\t// in\n    tag_25:\n      tag_27\n      jump\t// in\n    tag_24:\n      stop\n        /* \"sc/register.sol\":143:185  mapping (address => bool) public whiteList */\n    tag_6:\n      tag_28\n      0x04\n      dup1\n      calldatasize\n      sub\n      dup2\n      add\n      swap1\n      tag_29\n      swap2\n      swap1\n      tag_26\n      jump\t// in\n    tag_29:\n      tag_30\n      jump\t// in\n    tag_28:\n      mload(0x40)\n      tag_31\n      swap2\n      swap1\n      tag_32\n      jump\t// in\n    tag_31:\n      mload(0x40)\n      dup1\n      swap2\n      sub\n      swap1\n      return\n        /* \"sc/register.sol\":116:136  address public owner */\n    tag_7:\n      tag_33\n      tag_34\n      jump\t// in\n    tag_33:\n      mload(0x40)\n      tag_35\n      swap2\n      swap1\n      tag_36\n      jump\t// in\n    tag_35:\n      mload(0x40)\n      dup1\n      swap2\n      sub\n      swap1\n      return\n        /* \"sc/register.sol\":678:834  function setInfo(uint index, string memory _info) public onlyWhitelist {... */\n    tag_8:\n      tag_37\n      0x04\n      dup1\n      calldatasize\n      sub\n      dup2\n      add\n      swap1\n      tag_38\n      swap2\n      swap1\n      tag_39\n      jump\t// in\n    tag_38:\n      tag_40\n      jump\t// in\n    tag_37:\n      stop\n        /* \"sc/register.sol\":1101:1207  function addMember (address _member) public onlyOwner {        ... */\n    tag_9:\n      tag_41\n      0x04\n      dup1\n      calldatasize\n      sub\n      dup2\n      add\n      swap1\n      tag_42\n      swap2\n      swap1\n      tag_26\n      jump\t// in\n    tag_42:\n      tag_43\n      jump\t// in\n    tag_41:\n      stop\n        /* \"sc/register.sol\":1005:1093  function listInfo() public view returns (string[] memory) {... */\n    tag_10:\n      tag_44\n      tag_45\n      jump\t// in\n    tag_44:\n      mload(0x40)\n      tag_46\n      swap2\n      swap1\n      tag_47\n      jump\t// in\n    tag_46:\n      mload(0x40)\n      dup1\n      swap2\n      sub\n      swap1\n      return\n        /* \"sc/register.sol\":844:993  function addInfo(string memory _info) public onlyWhitelist returns (uint index) {... */\n    tag_15:\n        /* \"sc/register.sol\":912:922  uint index */\n      0x00\n        /* \"sc/register.sol\":517:521  true */\n      0x01\n        /* \"sc/register.sol\":492:521  whiteList[msg.sender] == true */\n      iszero\n      iszero\n        /* \"sc/register.sol\":492:501  whiteList */\n      0x02\n        /* \"sc/register.sol\":492:513  whiteList[msg.sender] */\n      0x00\n        /* \"sc/register.sol\":502:512  msg.sender */\n      caller\n        /* \"sc/register.sol\":492:513  whiteList[msg.sender] */\n      0xffffffffffffffffffffffffffffffffffffffff\n      and\n      0xffffffffffffffffffffffffffffffffffffffff\n      and\n      dup2\n      mstore\n      0x20\n      add\n      swap1\n      dup2\n      mstore\n      0x20\n      add\n      0x00\n      keccak256\n      0x00\n      swap1\n      sload\n      swap1\n      0x0100\n      exp\n      swap1\n      div\n      0xff\n      and\n        /* \"sc/register.sol\":492:521  whiteList[msg.sender] == true */\n      iszero\n      iszero\n      eq\n        /* \"sc/register.sol\":484:540  require(whiteList[msg.sender] == true, \"Only whitelist\") */\n      tag_49\n      jumpi\n      mload(0x40)\n      0x08c379a000000000000000000000000000000000000000000000000000000000\n      dup2\n      mstore\n      0x04\n      add\n      tag_50\n      swap1\n      tag_51\n      jump\t// in\n    tag_50:\n      mload(0x40)\n      dup1\n      swap2\n      sub\n      swap1\n      revert\n    tag_49:\n        /* \"sc/register.sol\":935:939  info */\n      0x00\n        /* \"sc/register.sol\":946:951  _info */\n      dup3\n        /* \"sc/register.sol\":935:952  info.push (_info) */\n      swap1\n      dup1\n      0x01\n      dup2\n      sload\n      add\n      dup1\n      dup3\n      sstore\n      dup1\n      swap2\n      pop\n      pop\n      0x01\n      swap1\n      sub\n      swap1\n      0x00\n      mstore\n      keccak256(0x00, 0x20)\n      add\n      0x00\n      swap1\n      swap2\n      swap1\n      swap2\n      swap1\n      swap2\n      pop\n      swap1\n      dup2\n      tag_54\n      swap2\n      swap1\n      tag_55\n      jump\t// in\n    tag_54:\n      pop\n        /* \"sc/register.sol\":984:985  1 */\n      0x01\n        /* \"sc/register.sol\":971:975  info */\n      0x00\n        /* \"sc/register.sol\":971:982  info.length */\n      dup1\n      sload\n      swap1\n      pop\n        /* \"sc/register.sol\":971:985  info.length -1 */\n      tag_56\n      swap2\n      swap1\n      tag_57\n      jump\t// in\n    tag_56:\n        /* \"sc/register.sol\":963:985  index = info.length -1 */\n      swap1\n      pop\n        /* \"sc/register.sol\":844:993  function addInfo(string memory _info) public onlyWhitelist returns (uint index) {... */\n      swap2\n      swap1\n      pop\n      jump\t// out\n        /* \"sc/register.sol\":568:670  function getInfo(uint index) public view returns (string memory) {... */\n    tag_21:\n        /* \"sc/register.sol\":618:631  string memory */\n      0x60\n        /* \"sc/register.sol\":651:655  info */\n      0x00\n        /* \"sc/register.sol\":656:661  index */\n      dup3\n        /* \"sc/register.sol\":651:662  info[index] */\n      dup2\n      sload\n      dup2\n      lt\n      tag_59\n      jumpi\n      tag_60\n      tag_61\n      jump\t// in\n    tag_60:\n    tag_59:\n      swap1\n      0x00\n      mstore\n      keccak256(0x00, 0x20)\n      add\n        /* \"sc/register.sol\":644:662  return info[index] */\n      dup1\n      sload\n      tag_63\n      swap1\n      tag_64\n      jump\t// in\n    tag_63:\n      dup1\n      0x1f\n      add\n      0x20\n      dup1\n      swap2\n      div\n      mul\n      0x20\n      add\n      mload(0x40)\n      swap1\n      dup2\n      add\n      0x40\n      mstore\n      dup1\n      swap3\n      swap2\n      swap1\n      dup2\n      dup2\n      mstore\n      0x20\n      add\n      dup3\n      dup1\n      sload\n      tag_65\n      swap1\n      tag_64\n      jump\t// in\n    tag_65:\n      dup1\n      iszero\n      tag_66\n      jumpi\n      dup1\n      0x1f\n      lt\n      tag_67\n      jumpi\n      0x0100\n      dup1\n      dup4\n      sload\n      div\n      mul\n      dup4\n      mstore\n      swap2\n      0x20\n      add\n      swap2\n      jump(tag_66)\n    tag_67:\n      dup3\n      add\n      swap2\n      swap1\n      0x00\n      mstore\n      keccak256(0x00, 0x20)\n      swap1\n    tag_68:\n      dup2\n      sload\n      dup2\n      mstore\n      swap1\n      0x01\n      add\n      swap1\n      0x20\n      add\n      dup1\n      dup4\n      gt\n      tag_68\n      jumpi\n      dup3\n      swap1\n      sub\n      0x1f\n      and\n      dup3\n      add\n      swap2\n    tag_66:\n      pop\n      pop\n      pop\n      pop\n      pop\n      swap1\n      pop\n        /* \"sc/register.sol\":568:670  function getInfo(uint index) public view returns (string memory) {... */\n      swap2\n      swap1\n      pop\n      jump\t// out\n        /* \"sc/register.sol\":1217:1316  function delMember (address _member) public onlyOwner {... */\n    tag_27:\n        /* \"sc/register.sol\":403:408  owner */\n      0x01\n      0x00\n      swap1\n      sload\n      swap1\n      0x0100\n      exp\n      swap1\n      div\n      0xffffffffffffffffffffffffffffffffffffffff\n      and\n        /* \"sc/register.sol\":389:408  msg.sender == owner */\n      0xffffffffffffffffffffffffffffffffffffffff\n      and\n        /* \"sc/register.sol\":389:399  msg.sender */\n      caller\n        /* \"sc/register.sol\":389:408  msg.sender == owner */\n      0xffffffffffffffffffffffffffffffffffffffff\n      and\n      eq\n        /* \"sc/register.sol\":381:422  require(msg.sender == owner,\"Only owner\") */\n      tag_70\n      jumpi\n      mload(0x40)\n      0x08c379a000000000000000000000000000000000000000000000000000000000\n      dup2\n      mstore\n      0x04\n      add\n      tag_71\n      swap1\n      tag_72\n      jump\t// in\n    tag_71:\n      mload(0x40)\n      dup1\n      swap2\n      sub\n      swap1\n      revert\n    tag_70:\n        /* \"sc/register.sol\":1303:1308  false */\n      0x00\n        /* \"sc/register.sol\":1282:1291  whiteList */\n      0x02\n        /* \"sc/register.sol\":1282:1300  whiteList[_member] */\n      0x00\n        /* \"sc/register.sol\":1292:1299  _member */\n      dup4\n        /* \"sc/register.sol\":1282:1300  whiteList[_member] */\n      0xffffffffffffffffffffffffffffffffffffffff\n      and\n      0xffffffffffffffffffffffffffffffffffffffff\n      and\n      dup2\n      mstore\n      0x20\n      add\n      swap1\n      dup2\n      mstore\n      0x20\n      add\n      0x00\n      keccak256\n      0x00\n        /* \"sc/register.sol\":1282:1308  whiteList[_member] = false */\n      0x0100\n      exp\n      dup2\n      sload\n      dup2\n      0xff\n      mul\n      not\n      and\n      swap1\n      dup4\n      iszero\n      iszero\n      mul\n      or\n      swap1\n      sstore\n      pop\n        /* \"sc/register.sol\":1217:1316  function delMember (address _member) public onlyOwner {... */\n      pop\n      jump\t// out\n        /* \"sc/register.sol\":143:185  mapping (address => bool) public whiteList */\n    tag_30:\n      mstore(0x20, 0x02)\n      dup1\n      0x00\n      mstore\n      keccak256(0x00, 0x40)\n      0x00\n      swap2\n      pop\n      sload\n      swap1\n      0x0100\n      exp\n      swap1\n      div\n      0xff\n      and\n      dup2\n      jump\t// out\n        /* \"sc/register.sol\":116:136  address public owner */\n    tag_34:\n      0x01\n      0x00\n      swap1\n      sload\n      swap1\n      0x0100\n      exp\n      swap1\n      div\n      0xffffffffffffffffffffffffffffffffffffffff\n      and\n      dup2\n      jump\t// out\n        /* \"sc/register.sol\":678:834  function setInfo(uint index, string memory _info) public onlyWhitelist {... */\n    tag_40:\n        /* \"sc/register.sol\":517:521  true */\n      0x01\n        /* \"sc/register.sol\":492:521  whiteList[msg.sender] == true */\n      iszero\n      iszero\n        /* \"sc/register.sol\":492:501  whiteList */\n      0x02\n        /* \"sc/register.sol\":492:513  whiteList[msg.sender] */\n      0x00\n        /* \"sc/register.sol\":502:512  msg.sender */\n      caller\n        /* \"sc/register.sol\":492:513  whiteList[msg.sender] */\n      0xffffffffffffffffffffffffffffffffffffffff\n      and\n      0xffffffffffffffffffffffffffffffffffffffff\n      and\n      dup2\n      mstore\n      0x20\n      add\n      swap1\n      dup2\n      mstore\n      0x20\n      add\n      0x00\n      keccak256\n      0x00\n      swap1\n      sload\n      swap1\n      0x0100\n      exp\n      swap1\n      div\n      0xff\n      and\n        /* \"sc/register.sol\":492:521  whiteList[msg.sender] == true */\n      iszero\n      iszero\n      eq\n        /* \"sc/register.sol\":484:540  require(whiteList[msg.sender] == true, \"Only whitelist\") */\n      tag_75\n      jumpi\n      mload(0x40)\n      0x08c379a000000000000000000000000000000000000000000000000000000000\n      dup2\n      mstore\n      0x04\n      add\n      tag_76\n      swap1\n      tag_51\n      jump\t// in\n    tag_76:\n      mload(0x40)\n      dup1\n      swap2\n      sub\n      swap1\n      revert\n    tag_75:\n        /* \"sc/register.sol\":765:796  InfoChange (info[index], _info) */\n      0x305058d54db6daf26994cd687b168a24cdd9a7201462f1659782c4e429987992\n        /* \"sc/register.sol\":777:781  info */\n      0x00\n        /* \"sc/register.sol\":782:787  index */\n      dup4\n        /* \"sc/register.sol\":777:788  info[index] */\n      dup2\n      sload\n      dup2\n      lt\n      tag_78\n      jumpi\n      tag_79\n      tag_61\n      jump\t// in\n    tag_79:\n    tag_78:\n      swap1\n      0x00\n      mstore\n      keccak256(0x00, 0x20)\n      add\n        /* \"sc/register.sol\":790:795  _info */\n      dup3\n        /* \"sc/register.sol\":765:796  InfoChange (info[index], _info) */\n      mload(0x40)\n      tag_81\n      swap3\n      swap2\n      swap1\n      tag_82\n      jump\t// in\n    tag_81:\n      mload(0x40)\n      dup1\n      swap2\n      sub\n      swap1\n      log1\n        /* \"sc/register.sol\":821:826  _info */\n      dup1\n        /* \"sc/register.sol\":807:811  info */\n      0x00\n        /* \"sc/register.sol\":812:817  index */\n      dup4\n        /* \"sc/register.sol\":807:818  info[index] */\n      dup2\n      sload\n      dup2\n      lt\n      tag_83\n      jumpi\n      tag_84\n      tag_61\n      jump\t// in\n    tag_84:\n    tag_83:\n      swap1\n      0x00\n      mstore\n      keccak256(0x00, 0x20)\n      add\n        /* \"sc/register.sol\":807:826  info[index] = _info */\n      swap1\n      dup2\n      tag_86\n      swap2\n      swap1\n      tag_55\n      jump\t// in\n    tag_86:\n      pop\n        /* \"sc/register.sol\":678:834  function setInfo(uint index, string memory _info) public onlyWhitelist {... */\n      pop\n      pop\n      jump\t// out\n        /* \"sc/register.sol\":1101:1207  function addMember (address _member) public onlyOwner {        ... */\n    tag_43:\n        /* \"sc/register.sol\":403:408  owner */\n      0x01\n      0x00\n      swap1\n      sload\n      swap1\n      0x0100\n      exp\n      swap1\n      div\n      0xffffffffffffffffffffffffffffffffffffffff\n      and\n        /* \"sc/register.sol\":389:408  msg.sender == owner */\n      0xffffffffffffffffffffffffffffffffffffffff\n      and\n        /* \"sc/register.sol\":389:399  msg.sender */\n      caller\n        /* \"sc/register.sol\":389:408  msg.sender == owner */\n      0xffffffffffffffffffffffffffffffffffffffff\n      and\n      eq\n        /* \"sc/register.sol\":381:422  require(msg.sender == owner,\"Only owner\") */\n      tag_88\n      jumpi\n      mload(0x40)\n      0x08c379a000000000000000000000000000000000000000000000000000000000\n      dup2\n      mstore\n      0x04\n      add\n      tag_89\n      swap1\n      tag_72\n      jump\t// in\n    tag_89:\n      mload(0x40)\n      dup1\n      swap2\n      sub\n      swap1\n      revert\n    tag_88:\n        /* \"sc/register.sol\":1195:1199  true */\n      0x01\n        /* \"sc/register.sol\":1174:1183  whiteList */\n      0x02\n        /* \"sc/register.sol\":1174:1192  whiteList[_member] */\n      0x00\n        /* \"sc/register.sol\":1184:1191  _member */\n      dup4\n        /* \"sc/register.sol\":1174:1192  whiteList[_member] */\n      0xffffffffffffffffffffffffffffffffffffffff\n      and\n      0xffffffffffffffffffffffffffffffffffffffff\n      and\n      dup2\n      mstore\n      0x20\n      add\n      swap1\n      dup2\n      mstore\n      0x20\n      add\n      0x00\n      keccak256\n      0x00\n        /* \"sc/register.sol\":1174:1199  whiteList[_member] = true */\n      0x0100\n      exp\n      dup2\n      sload\n      dup2\n      0xff\n      mul\n      not\n      and\n      swap1\n      dup4\n      iszero\n      iszero\n      mul\n      or\n      swap1\n      sstore\n      pop\n        /* \"sc/register.sol\":1101:1207  function addMember (address _member) public onlyOwner {        ... */\n      pop\n      jump\t// out\n        /* \"sc/register.sol\":1005:1093  function listInfo() public view returns (string[] memory) {... */\n    tag_45:\n        /* \"sc/register.sol\":1046:1061  string[] memory */\n      0x60\n        /* \"sc/register.sol\":1081:1085  info */\n      0x00\n        /* \"sc/register.sol\":1074:1085  return info */\n      dup1\n      sload\n      dup1\n      0x20\n      mul\n      0x20\n      add\n      mload(0x40)\n      swap1\n      dup2\n      add\n      0x40\n      mstore\n      dup1\n      swap3\n      swap2\n      swap1\n      dup2\n      dup2\n      mstore\n      0x20\n      add\n      0x00\n      swap1\n    tag_92:\n      dup3\n      dup3\n      lt\n      iszero\n      tag_93\n      jumpi\n      dup4\n      dup3\n      swap1\n      0x00\n      mstore\n      keccak256(0x00, 0x20)\n      add\n      dup1\n      sload\n      tag_95\n      swap1\n      tag_64\n      jump\t// in\n    tag_95:\n      dup1\n      0x1f\n      add\n      0x20\n      dup1\n      swap2\n      div\n      mul\n      0x20\n      add\n      mload(0x40)\n      swap1\n      dup2\n      add\n      0x40\n      mstore\n      dup1\n      swap3\n      swap2\n      swap1\n      dup2\n      dup2\n      mstore\n      0x20\n      add\n      dup3\n      dup1\n      sload\n      tag_96\n      swap1\n      tag_64\n      jump\t// in\n    tag_96:\n      dup1\n      iszero\n      tag_97\n      jumpi\n      dup1\n      0x1f\n      lt\n      tag_98\n      jumpi\n      0x0100\n      dup1\n      dup4\n      sload\n      div\n      mul\n      dup4\n      mstore\n      swap2\n      0x20\n      add\n      swap2\n      jump(tag_97)\n    tag_98:\n      dup3\n      add\n      swap2\n      swap1\n      0x00\n      mstore\n      keccak256(0x00, 0x20)\n      swap1\n    tag_99:\n      dup2\n      sload\n      dup2\n      mstore\n      swap1\n      0x01\n      add\n      swap1\n      0x20\n      add\n      dup1\n      dup4\n      gt\n      tag_99\n      jumpi\n      dup3\n      swap1\n      sub\n      0x1f\n      and\n      dup3\n      add\n      swap2\n    tag_97:\n      pop\n      pop\n      pop\n      pop\n      pop\n      dup2\n      mstore\n      0x20\n      add\n      swap1\n      0x01\n      add\n      swap1\n      jump(tag_92)\n    tag_93:\n      pop\n      pop\n      pop\n      pop\n      swap1\n      pop\n        /* \"sc/register.sol\":1005:1093  function listInfo() public view returns (string[] memory) {... */\n      swap1\n      jump\t// out\n        /* \"#utility.yul\":7:82   */\n    tag_100:\n        /* \"#utility.yul\":40:46   */\n      0x00\n        /* \"#utility.yul\":73:75   */\n      0x40\n        /* \"#utility.yul\":67:76   */\n      mload\n        /* \"#utility.yul\":57:76   */\n      swap1\n      pop\n        /* \"#utility.yul\":7:82   */\n      swap1\n      jump\t// out\n        /* \"#utility.yul\":88:205   */\n    tag_101:\n        /* \"#utility.yul\":197:198   */\n      0x00\n        /* \"#utility.yul\":194:195   */\n      dup1\n        /* \"#utility.yul\":187:199   */\n      revert\n        /* \"#utility.yul\":211:328   */\n    tag_102:\n        /* \"#utility.yul\":320:321   */\n      0x00\n        /* \"#utility.yul\":317:318   */\n      dup1\n        /* \"#utility.yul\":310:322   */\n      revert\n        /* \"#utility.yul\":334:451   */\n    tag_103:\n        /* \"#utility.yul\":443:444   */\n      0x00\n        /* \"#utility.yul\":440:441   */\n      dup1\n        /* \"#utility.yul\":433:445   */\n      revert\n        /* \"#utility.yul\":457:574   */\n    tag_104:\n        /* \"#utility.yul\":566:567   */\n      0x00\n        /* \"#utility.yul\":563:564   */\n      dup1\n        /* \"#utility.yul\":556:568   */\n      revert\n        /* \"#utility.yul\":580:682   */\n    tag_105:\n        /* \"#utility.yul\":621:627   */\n      0x00\n        /* \"#utility.yul\":672:674   */\n      0x1f\n        /* \"#utility.yul\":668:675   */\n      not\n        /* \"#utility.yul\":663:665   */\n      0x1f\n        /* \"#utility.yul\":656:661   */\n      dup4\n        /* \"#utility.yul\":652:666   */\n      add\n        /* \"#utility.yul\":648:676   */\n      and\n        /* \"#utility.yul\":638:676   */\n      swap1\n      pop\n        /* \"#utility.yul\":580:682   */\n      swap2\n      swap1\n      pop\n      jump\t// out\n        /* \"#utility.yul\":688:868   */\n    tag_106:\n        /* \"#utility.yul\":736:813   */\n      0x4e487b7100000000000000000000000000000000000000000000000000000000\n        /* \"#utility.yul\":733:734   */\n      0x00\n        /* \"#utility.yul\":726:814   */\n      mstore\n        /* \"#utility.yul\":833:837   */\n      0x41\n        /* \"#utility.yul\":830:831   */\n      0x04\n        /* \"#utility.yul\":823:838   */\n      mstore\n        /* \"#utility.yul\":857:861   */\n      0x24\n        /* \"#utility.yul\":854:855   */\n      0x00\n        /* \"#utility.yul\":847:862   */\n      revert\n        /* \"#utility.yul\":874:1155   */\n    tag_107:\n        /* \"#utility.yul\":957:984   */\n      tag_167\n        /* \"#utility.yul\":979:983   */\n      dup3\n        /* \"#utility.yul\":957:984   */\n      tag_105\n      jump\t// in\n    tag_167:\n        /* \"#utility.yul\":949:955   */\n      dup2\n        /* \"#utility.yul\":945:985   */\n      add\n        /* \"#utility.yul\":1087:1093   */\n      dup2\n        /* \"#utility.yul\":1075:1085   */\n      dup2\n        /* \"#utility.yul\":1072:1094   */\n      lt\n        /* \"#utility.yul\":1051:1069   */\n      0xffffffffffffffff\n        /* \"#utility.yul\":1039:1049   */\n      dup3\n        /* \"#utility.yul\":1036:1070   */\n      gt\n        /* \"#utility.yul\":1033:1095   */\n      or\n        /* \"#utility.yul\":1030:1118   */\n      iszero\n      tag_168\n      jumpi\n        /* \"#utility.yul\":1098:1116   */\n      tag_169\n      tag_106\n      jump\t// in\n    tag_169:\n        /* \"#utility.yul\":1030:1118   */\n    tag_168:\n        /* \"#utility.yul\":1138:1148   */\n      dup1\n        /* \"#utility.yul\":1134:1136   */\n      0x40\n        /* \"#utility.yul\":1127:1149   */\n      mstore\n        /* \"#utility.yul\":917:1155   */\n      pop\n        /* \"#utility.yul\":874:1155   */\n      pop\n      pop\n      jump\t// out\n        /* \"#utility.yul\":1161:1290   */\n    tag_108:\n        /* \"#utility.yul\":1195:1201   */\n      0x00\n        /* \"#utility.yul\":1222:1242   */\n      tag_171\n      tag_100\n      jump\t// in\n    tag_171:\n        /* \"#utility.yul\":1212:1242   */\n      swap1\n      pop\n        /* \"#utility.yul\":1251:1284   */\n      tag_172\n        /* \"#utility.yul\":1279:1283   */\n      dup3\n        /* \"#utility.yul\":1271:1277   */\n      dup3\n        /* \"#utility.yul\":1251:1284   */\n      tag_107\n      jump\t// in\n    tag_172:\n        /* \"#utility.yul\":1161:1290   */\n      swap2\n      swap1\n      pop\n      jump\t// out\n        /* \"#utility.yul\":1296:1604   */\n    tag_109:\n        /* \"#utility.yul\":1358:1362   */\n      0x00\n        /* \"#utility.yul\":1448:1466   */\n      0xffffffffffffffff\n        /* \"#utility.yul\":1440:1446   */\n      dup3\n        /* \"#utility.yul\":1437:1467   */\n      gt\n        /* \"#utility.yul\":1434:1490   */\n      iszero\n      tag_174\n      jumpi\n        /* \"#utility.yul\":1470:1488   */\n      tag_175\n      tag_106\n      jump\t// in\n    tag_175:\n        /* \"#utility.yul\":1434:1490   */\n    tag_174:\n        /* \"#utility.yul\":1508:1537   */\n      tag_176\n        /* \"#utility.yul\":1530:1536   */\n      dup3\n        /* \"#utility.yul\":1508:1537   */\n      tag_105\n      jump\t// in\n    tag_176:\n        /* \"#utility.yul\":1500:1537   */\n      swap1\n      pop\n        /* \"#utility.yul\":1592:1596   */\n      0x20\n        /* \"#utility.yul\":1586:1590   */\n      dup2\n        /* \"#utility.yul\":1582:1597   */\n      add\n        /* \"#utility.yul\":1574:1597   */\n      swap1\n      pop\n        /* \"#utility.yul\":1296:1604   */\n      swap2\n      swap1\n      pop\n      jump\t// out\n        /* \"#utility.yul\":1610:1756   */\n    tag_110:\n        /* \"#utility.yul\":1707:1713   */\n      dup3\n        /* \"#utility.yul\":1702:1705   */\n      dup2\n        /* \"#utility.yul\":1697:1700   */\n      dup4\n        /* \"#utility.yul\":1684:1714   */\n      calldatacopy\n        /* \"#utility.yul\":1748:1749   */\n      0x00\n        /* \"#utility.yul\":1739:1745   */\n      dup4\n        /* \"#utility.yul\":1734:1737   */\n      dup4\n        /* \"#utility.yul\":1730:1746   */\n      add\n        /* \"#utility.yul\":1723:1750   */\n      mstore\n        /* \"#utility.yul\":1610:1756   */\n      pop\n      pop\n      pop\n      jump\t// out\n        /* \"#utility.yul\":1762:2187   */\n    tag_111:\n        /* \"#utility.yul\":1840:1845   */\n      0x00\n        /* \"#utility.yul\":1865:1931   */\n      tag_179\n        /* \"#utility.yul\":1881:1930   */\n      tag_180\n        /* \"#utility.yul\":1923:1929   */\n      dup5\n        /* \"#utility.yul\":1881:1930   */\n      tag_109\n      jump\t// in\n    tag_180:\n        /* \"#utility.yul\":1865:1931   */\n      tag_108\n      jump\t// in\n    tag_179:\n        /* \"#utility.yul\":1856:1931   */\n      swap1\n      pop\n        /* \"#utility.yul\":1954:1960   */\n      dup3\n        /* \"#utility.yul\":1947:1952   */\n      dup2\n        /* \"#utility.yul\":1940:1961   */\n      mstore\n        /* \"#utility.yul\":1992:1996   */\n      0x20\n        /* \"#utility.yul\":1985:1990   */\n      dup2\n        /* \"#utility.yul\":1981:1997   */\n      add\n        /* \"#utility.yul\":2030:2033   */\n      dup5\n        /* \"#utility.yul\":2021:2027   */\n      dup5\n        /* \"#utility.yul\":2016:2019   */\n      dup5\n        /* \"#utility.yul\":2012:2028   */\n      add\n        /* \"#utility.yul\":2009:2034   */\n      gt\n        /* \"#utility.yul\":2006:2118   */\n      iszero\n      tag_181\n      jumpi\n        /* \"#utility.yul\":2037:2116   */\n      tag_182\n      tag_104\n      jump\t// in\n    tag_182:\n        /* \"#utility.yul\":2006:2118   */\n    tag_181:\n        /* \"#utility.yul\":2127:2181   */\n      tag_183\n        /* \"#utility.yul\":2174:2180   */\n      dup5\n        /* \"#utility.yul\":2169:2172   */\n      dup3\n        /* \"#utility.yul\":2164:2167   */\n      dup6\n        /* \"#utility.yul\":2127:2181   */\n      tag_110\n      jump\t// in\n    tag_183:\n        /* \"#utility.yul\":1846:2187   */\n      pop\n        /* \"#utility.yul\":1762:2187   */\n      swap4\n      swap3\n      pop\n      pop\n      pop\n      jump\t// out\n        /* \"#utility.yul\":2207:2547   */\n    tag_112:\n        /* \"#utility.yul\":2263:2268   */\n      0x00\n        /* \"#utility.yul\":2312:2315   */\n      dup3\n        /* \"#utility.yul\":2305:2309   */\n      0x1f\n        /* \"#utility.yul\":2297:2303   */\n      dup4\n        /* \"#utility.yul\":2293:2310   */\n      add\n        /* \"#utility.yul\":2289:2316   */\n      slt\n        /* \"#utility.yul\":2279:2401   */\n      tag_185\n      jumpi\n        /* \"#utility.yul\":2320:2399   */\n      tag_186\n      tag_103\n      jump\t// in\n    tag_186:\n        /* \"#utility.yul\":2279:2401   */\n    tag_185:\n        /* \"#utility.yul\":2437:2443   */\n      dup2\n        /* \"#utility.yul\":2424:2444   */\n      calldataload\n        /* \"#utility.yul\":2462:2541   */\n      tag_187\n        /* \"#utility.yul\":2537:2540   */\n      dup5\n        /* \"#utility.yul\":2529:2535   */\n      dup3\n        /* \"#utility.yul\":2522:2526   */\n      0x20\n        /* \"#utility.yul\":2514:2520   */\n      dup7\n        /* \"#utility.yul\":2510:2527   */\n      add\n        /* \"#utility.yul\":2462:2541   */\n      tag_111\n      jump\t// in\n    tag_187:\n        /* \"#utility.yul\":2453:2541   */\n      swap2\n      pop\n        /* \"#utility.yul\":2269:2547   */\n      pop\n        /* \"#utility.yul\":2207:2547   */\n      swap3\n      swap2\n      pop\n      pop\n      jump\t// out\n        /* \"#utility.yul\":2553:3062   */\n    tag_14:\n        /* \"#utility.yul\":2622:2628   */\n      0x00\n        /* \"#utility.yul\":2671:2673   */\n      0x20\n        /* \"#utility.yul\":2659:2668   */\n      dup3\n        /* \"#utility.yul\":2650:2657   */\n      dup5\n        /* \"#utility.yul\":2646:2669   */\n      sub\n        /* \"#utility.yul\":2642:2674   */\n      slt\n        /* \"#utility.yul\":2639:2758   */\n      iszero\n      tag_189\n      jumpi\n        /* \"#utility.yul\":2677:2756   */\n      tag_190\n      tag_101\n      jump\t// in\n    tag_190:\n        /* \"#utility.yul\":2639:2758   */\n    tag_189:\n        /* \"#utility.yul\":2825:2826   */\n      0x00\n        /* \"#utility.yul\":2814:2823   */\n      dup3\n        /* \"#utility.yul\":2810:2827   */\n      add\n        /* \"#utility.yul\":2797:2828   */\n      calldataload\n        /* \"#utility.yul\":2855:2873   */\n      0xffffffffffffffff\n        /* \"#utility.yul\":2847:2853   */\n      dup2\n        /* \"#utility.yul\":2844:2874   */\n      gt\n        /* \"#utility.yul\":2841:2958   */\n      iszero\n      tag_191\n      jumpi\n        /* \"#utility.yul\":2877:2956   */\n      tag_192\n      tag_102\n      jump\t// in\n    tag_192:\n        /* \"#utility.yul\":2841:2958   */\n    tag_191:\n        /* \"#utility.yul\":2982:3045   */\n      tag_193\n        /* \"#utility.yul\":3037:3044   */\n      dup5\n        /* \"#utility.yul\":3028:3034   */\n      dup3\n        /* \"#utility.yul\":3017:3026   */\n      dup6\n        /* \"#utility.yul\":3013:3035   */\n      add\n        /* \"#utility.yul\":2982:3045   */\n      tag_112\n      jump\t// in\n    tag_193:\n        /* \"#utility.yul\":2972:3045   */\n      swap2\n      pop\n        /* \"#utility.yul\":2768:3055   */\n      pop\n        /* \"#utility.yul\":2553:3062   */\n      swap3\n      swap2\n      pop\n      pop\n      jump\t// out\n        /* \"#utility.yul\":3068:3145   */\n    tag_113:\n        /* \"#utility.yul\":3105:3112   */\n      0x00\n        /* \"#utility.yul\":3134:3139   */\n      dup2\n        /* \"#utility.yul\":3123:3139   */\n      swap1\n      pop\n        /* \"#utility.yul\":3068:3145   */\n      swap2\n      swap1\n      pop\n      jump\t// out\n        /* \"#utility.yul\":3151:3269   */\n    tag_114:\n        /* \"#utility.yul\":3238:3262   */\n      tag_196\n        /* \"#utility.yul\":3256:3261   */\n      dup2\n        /* \"#utility.yul\":3238:3262   */\n      tag_113\n      jump\t// in\n    tag_196:\n        /* \"#utility.yul\":3233:3236   */\n      dup3\n        /* \"#utility.yul\":3226:3263   */\n      mstore\n        /* \"#utility.yul\":3151:3269   */\n      pop\n      pop\n      jump\t// out\n        /* \"#utility.yul\":3275:3497   */\n    tag_17:\n        /* \"#utility.yul\":3368:3372   */\n      0x00\n        /* \"#utility.yul\":3406:3408   */\n      0x20\n        /* \"#utility.yul\":3395:3404   */\n      dup3\n        /* \"#utility.yul\":3391:3409   */\n      add\n        /* \"#utility.yul\":3383:3409   */\n      swap1\n      pop\n        /* \"#utility.yul\":3419:3490   */\n      tag_198\n        /* \"#utility.yul\":3487:3488   */\n      0x00\n        /* \"#utility.yul\":3476:3485   */\n      dup4\n        /* \"#utility.yul\":3472:3489   */\n      add\n        /* \"#utility.yul\":3463:3469   */\n      dup5\n        /* \"#utility.yul\":3419:3490   */\n      tag_114\n      jump\t// in\n    tag_198:\n        /* \"#utility.yul\":3275:3497   */\n      swap3\n      swap2\n      pop\n      pop\n      jump\t// out\n        /* \"#utility.yul\":3503:3625   */\n    tag_115:\n        /* \"#utility.yul\":3576:3600   */\n      tag_200\n        /* \"#utility.yul\":3594:3599   */\n      dup2\n        /* \"#utility.yul\":3576:3600   */\n      tag_113\n      jump\t// in\n    tag_200:\n        /* \"#utility.yul\":3569:3574   */\n      dup2\n        /* \"#utility.yul\":3566:3601   */\n      eq\n        /* \"#utility.yul\":3556:3619   */\n      tag_201\n      jumpi\n        /* \"#utility.yul\":3615:3616   */\n      0x00\n        /* \"#utility.yul\":3612:3613   */\n      dup1\n        /* \"#utility.yul\":3605:3617   */\n      revert\n        /* \"#utility.yul\":3556:3619   */\n    tag_201:\n        /* \"#utility.yul\":3503:3625   */\n      pop\n      jump\t// out\n        /* \"#utility.yul\":3631:3770   */\n    tag_116:\n        /* \"#utility.yul\":3677:3682   */\n      0x00\n        /* \"#utility.yul\":3715:3721   */\n      dup2\n        /* \"#utility.yul\":3702:3722   */\n      calldataload\n        /* \"#utility.yul\":3693:3722   */\n      swap1\n      pop\n        /* \"#utility.yul\":3731:3764   */\n      tag_203\n        /* \"#utility.yul\":3758:3763   */\n      dup2\n        /* \"#utility.yul\":3731:3764   */\n      tag_115\n      jump\t// in\n    tag_203:\n        /* \"#utility.yul\":3631:3770   */\n      swap3\n      swap2\n      pop\n      pop\n      jump\t// out\n        /* \"#utility.yul\":3776:4105   */\n    tag_20:\n        /* \"#utility.yul\":3835:3841   */\n      0x00\n        /* \"#utility.yul\":3884:3886   */\n      0x20\n        /* \"#utility.yul\":3872:3881   */\n      dup3\n        /* \"#utility.yul\":3863:3870   */\n      dup5\n        /* \"#utility.yul\":3859:3882   */\n      sub\n        /* \"#utility.yul\":3855:3887   */\n      slt\n        /* \"#utility.yul\":3852:3971   */\n      iszero\n      tag_205\n      jumpi\n        /* \"#utility.yul\":3890:3969   */\n      tag_206\n      tag_101\n      jump\t// in\n    tag_206:\n        /* \"#utility.yul\":3852:3971   */\n    tag_205:\n        /* \"#utility.yul\":4010:4011   */\n      0x00\n        /* \"#utility.yul\":4035:4088   */\n      tag_207\n        /* \"#utility.yul\":4080:4087   */\n      dup5\n        /* \"#utility.yul\":4071:4077   */\n      dup3\n        /* \"#utility.yul\":4060:4069   */\n      dup6\n        /* \"#utility.yul\":4056:4078   */\n      add\n        /* \"#utility.yul\":4035:4088   */\n      tag_116\n      jump\t// in\n    tag_207:\n        /* \"#utility.yul\":4025:4088   */\n      swap2\n      pop\n        /* \"#utility.yul\":3981:4098   */\n      pop\n        /* \"#utility.yul\":3776:4105   */\n      swap3\n      swap2\n      pop\n      pop\n      jump\t// out\n        /* \"#utility.yul\":4111:4210   */\n    tag_117:\n        /* \"#utility.yul\":4163:4169   */\n      0x00\n        /* \"#utility.yul\":4197:4202   */\n      dup2\n        /* \"#utility.yul\":4191:4203   */\n      mload\n        /* \"#utility.yul\":4181:4203   */\n      swap1\n      pop\n        /* \"#utility.yul\":4111:4210   */\n      swap2\n      swap1\n      pop\n      jump\t// out\n        /* \"#utility.yul\":4216:4385   */\n    tag_118:\n        /* \"#utility.yul\":4300:4311   */\n      0x00\n        /* \"#utility.yul\":4334:4340   */\n      dup3\n        /* \"#utility.yul\":4329:4332   */\n      dup3\n        /* \"#utility.yul\":4322:4341   */\n      mstore\n        /* \"#utility.yul\":4374:4378   */\n      0x20\n        /* \"#utility.yul\":4369:4372   */\n      dup3\n        /* \"#utility.yul\":4365:4379   */\n      add\n        /* \"#utility.yul\":4350:4379   */\n      swap1\n      pop\n        /* \"#utility.yul\":4216:4385   */\n      swap3\n      swap2\n      pop\n      pop\n      jump\t// out\n        /* \"#utility.yul\":4391:4637   */\n    tag_119:\n        /* \"#utility.yul\":4472:4473   */\n      0x00\n        /* \"#utility.yul\":4482:4595   */\n    tag_211:\n        /* \"#utility.yul\":4496:4502   */\n      dup4\n        /* \"#utility.yul\":4493:4494   */\n      dup2\n        /* \"#utility.yul\":4490:4503   */\n      lt\n        /* \"#utility.yul\":4482:4595   */\n      iszero\n      tag_213\n      jumpi\n        /* \"#utility.yul\":4581:4582   */\n      dup1\n        /* \"#utility.yul\":4576:4579   */\n      dup3\n        /* \"#utility.yul\":4572:4583   */\n      add\n        /* \"#utility.yul\":4566:4584   */\n      mload\n        /* \"#utility.yul\":4562:4563   */\n      dup2\n        /* \"#utility.yul\":4557:4560   */\n      dup5\n        /* \"#utility.yul\":4553:4564   */\n      add\n        /* \"#utility.yul\":4546:4585   */\n      mstore\n        /* \"#utility.yul\":4518:4520   */\n      0x20\n        /* \"#utility.yul\":4515:4516   */\n      dup2\n        /* \"#utility.yul\":4511:4521   */\n      add\n        /* \"#utility.yul\":4506:4521   */\n      swap1\n      pop\n        /* \"#utility.yul\":4482:4595   */\n      jump(tag_211)\n    tag_213:\n        /* \"#utility.yul\":4629:4630   */\n      0x00\n        /* \"#utility.yul\":4620:4626   */\n      dup5\n        /* \"#utility.yul\":4615:4618   */\n      dup5\n        /* \"#utility.yul\":4611:4627   */\n      add\n        /* \"#utility.yul\":4604:4631   */\n      mstore\n        /* \"#utility.yul\":4453:4637   */\n      pop\n        /* \"#utility.yul\":4391:4637   */\n      pop\n      pop\n      pop\n      jump\t// out\n        /* \"#utility.yul\":4643:5020   */\n    tag_120:\n        /* \"#utility.yul\":4731:4734   */\n      0x00\n        /* \"#utility.yul\":4759:4798   */\n      tag_215\n        /* \"#utility.yul\":4792:4797   */\n      dup3\n        /* \"#utility.yul\":4759:4798   */\n      tag_117\n      jump\t// in\n    tag_215:\n        /* \"#utility.yul\":4814:4885   */\n      tag_216\n        /* \"#utility.yul\":4878:4884   */\n      dup2\n        /* \"#utility.yul\":4873:4876   */\n      dup6\n        /* \"#utility.yul\":4814:4885   */\n      tag_118\n      jump\t// in\n    tag_216:\n        /* \"#utility.yul\":4807:4885   */\n      swap4\n      pop\n        /* \"#utility.yul\":4894:4959   */\n      tag_217\n        /* \"#utility.yul\":4952:4958   */\n      dup2\n        /* \"#utility.yul\":4947:4950   */\n      dup6\n        /* \"#utility.yul\":4940:4944   */\n      0x20\n        /* \"#utility.yul\":4933:4938   */\n      dup7\n        /* \"#utility.yul\":4929:4945   */\n      add\n        /* \"#utility.yul\":4894:4959   */\n      tag_119\n      jump\t// in\n    tag_217:\n        /* \"#utility.yul\":4984:5013   */\n      tag_218\n        /* \"#utility.yul\":5006:5012   */\n      dup2\n        /* \"#utility.yul\":4984:5013   */\n      tag_105\n      jump\t// in\n    tag_218:\n        /* \"#utility.yul\":4979:4982   */\n      dup5\n        /* \"#utility.yul\":4975:5014   */\n      add\n        /* \"#utility.yul\":4968:5014   */\n      swap2\n      pop\n        /* \"#utility.yul\":4735:5020   */\n      pop\n        /* \"#utility.yul\":4643:5020   */\n      swap3\n      swap2\n      pop\n      pop\n      jump\t// out\n        /* \"#utility.yul\":5026:5339   */\n    tag_23:\n        /* \"#utility.yul\":5139:5143   */\n      0x00\n        /* \"#utility.yul\":5177:5179   */\n      0x20\n        /* \"#utility.yul\":5166:5175   */\n      dup3\n        /* \"#utility.yul\":5162:5180   */\n      add\n        /* \"#utility.yul\":5154:5180   */\n      swap1\n      pop\n        /* \"#utility.yul\":5226:5235   */\n      dup2\n        /* \"#utility.yul\":5220:5224   */\n      dup2\n        /* \"#utility.yul\":5216:5236   */\n      sub\n        /* \"#utility.yul\":5212:5213   */\n      0x00\n        /* \"#utility.yul\":5201:5210   */\n      dup4\n        /* \"#utility.yul\":5197:5214   */\n      add\n        /* \"#utility.yul\":5190:5237   */\n      mstore\n        /* \"#utility.yul\":5254:5332   */\n      tag_220\n        /* \"#utility.yul\":5327:5331   */\n      dup2\n        /* \"#utility.yul\":5318:5324   */\n      dup5\n        /* \"#utility.yul\":5254:5332   */\n      tag_120\n      jump\t// in\n    tag_220:\n        /* \"#utility.yul\":5246:5332   */\n      swap1\n      pop\n        /* \"#utility.yul\":5026:5339   */\n      swap3\n      swap2\n      pop\n      pop\n      jump\t// out\n        /* \"#utility.yul\":5345:5471   */\n    tag_121:\n        /* \"#utility.yul\":5382:5389   */\n      0x00\n        /* \"#utility.yul\":5422:5464   */\n      0xffffffffffffffffffffffffffffffffffffffff\n        /* \"#utility.yul\":5415:5420   */\n      dup3\n        /* \"#utility.yul\":5411:5465   */\n      and\n        /* \"#utility.yul\":5400:5465   */\n      swap1\n      pop\n        /* \"#utility.yul\":5345:5471   */\n      swap2\n      swap1\n      pop\n      jump\t// out\n        /* \"#utility.yul\":5477:5573   */\n    tag_122:\n        /* \"#utility.yul\":5514:5521   */\n      0x00\n        /* \"#utility.yul\":5543:5567   */\n      tag_223\n        /* \"#utility.yul\":5561:5566   */\n      dup3\n        /* \"#utility.yul\":5543:5567   */\n      tag_121\n      jump\t// in\n    tag_223:\n        /* \"#utility.yul\":5532:5567   */\n      swap1\n      pop\n        /* \"#utility.yul\":5477:5573   */\n      swap2\n      swap1\n      pop\n      jump\t// out\n        /* \"#utility.yul\":5579:5701   */\n    tag_123:\n        /* \"#utility.yul\":5652:5676   */\n      tag_225\n        /* \"#utility.yul\":5670:5675   */\n      dup2\n        /* \"#utility.yul\":5652:5676   */\n      tag_122\n      jump\t// in\n    tag_225:\n        /* \"#utility.yul\":5645:5650   */\n      dup2\n        /* \"#utility.yul\":5642:5677   */\n      eq\n        /* \"#utility.yul\":5632:5695   */\n      tag_226\n      jumpi\n        /* \"#utility.yul\":5691:5692   */\n      0x00\n        /* \"#utility.yul\":5688:5689   */\n      dup1\n        /* \"#utility.yul\":5681:5693   */\n      revert\n        /* \"#utility.yul\":5632:5695   */\n    tag_226:\n        /* \"#utility.yul\":5579:5701   */\n      pop\n      jump\t// out\n        /* \"#utility.yul\":5707:5846   */\n    tag_124:\n        /* \"#utility.yul\":5753:5758   */\n      0x00\n        /* \"#utility.yul\":5791:5797   */\n      dup2\n        /* \"#utility.yul\":5778:5798   */\n      calldataload\n        /* \"#utility.yul\":5769:5798   */\n      swap1\n      pop\n        /* \"#utility.yul\":5807:5840   */\n      tag_228\n        /* \"#utility.yul\":5834:5839   */\n      dup2\n        /* \"#utility.yul\":5807:5840   */\n      tag_123\n      jump\t// in\n    tag_228:\n        /* \"#utility.yul\":5707:5846   */\n      swap3\n      swap2\n      pop\n      pop\n      jump\t// out\n        /* \"#utility.yul\":5852:6181   */\n    tag_26:\n        /* \"#utility.yul\":5911:5917   */\n      0x00\n        /* \"#utility.yul\":5960:5962   */\n      0x20\n        /* \"#utility.yul\":5948:5957   */\n      dup3\n        /* \"#utility.yul\":5939:5946   */\n      dup5\n        /* \"#utility.yul\":5935:5958   */\n      sub\n        /* \"#utility.yul\":5931:5963   */\n      slt\n        /* \"#utility.yul\":5928:6047   */\n      iszero\n      tag_230\n      jumpi\n        /* \"#utility.yul\":5966:6045   */\n      tag_231\n      tag_101\n      jump\t// in\n    tag_231:\n        /* \"#utility.yul\":5928:6047   */\n    tag_230:\n        /* \"#utility.yul\":6086:6087   */\n      0x00\n        /* \"#utility.yul\":6111:6164   */\n      tag_232\n        /* \"#utility.yul\":6156:6163   */\n      dup5\n        /* \"#utility.yul\":6147:6153   */\n      dup3\n        /* \"#utility.yul\":6136:6145   */\n      dup6\n        /* \"#utility.yul\":6132:6154   */\n      add\n        /* \"#utility.yul\":6111:6164   */\n      tag_124\n      jump\t// in\n    tag_232:\n        /* \"#utility.yul\":6101:6164   */\n      swap2\n      pop\n        /* \"#utility.yul\":6057:6174   */\n      pop\n        /* \"#utility.yul\":5852:6181   */\n      swap3\n      swap2\n      pop\n      pop\n      jump\t// out\n        /* \"#utility.yul\":6187:6277   */\n    tag_125:\n        /* \"#utility.yul\":6221:6228   */\n      0x00\n        /* \"#utility.yul\":6264:6269   */\n      dup2\n        /* \"#utility.yul\":6257:6270   */\n      iszero\n        /* \"#utility.yul\":6250:6271   */\n      iszero\n        /* \"#utility.yul\":6239:6271   */\n      swap1\n      pop\n        /* \"#utility.yul\":6187:6277   */\n      swap2\n      swap1\n      pop\n      jump\t// out\n        /* \"#utility.yul\":6283:6392   */\n    tag_126:\n        /* \"#utility.yul\":6364:6385   */\n      tag_235\n        /* \"#utility.yul\":6379:6384   */\n      dup2\n        /* \"#utility.yul\":6364:6385   */\n      tag_125\n      jump\t// in\n    tag_235:\n        /* \"#utility.yul\":6359:6362   */\n      dup3\n        /* \"#utility.yul\":6352:6386   */\n      mstore\n        /* \"#utility.yul\":6283:6392   */\n      pop\n      pop\n      jump\t// out\n        /* \"#utility.yul\":6398:6608   */\n    tag_32:\n        /* \"#utility.yul\":6485:6489   */\n      0x00\n        /* \"#utility.yul\":6523:6525   */\n      0x20\n        /* \"#utility.yul\":6512:6521   */\n      dup3\n        /* \"#utility.yul\":6508:6526   */\n      add\n        /* \"#utility.yul\":6500:6526   */\n      swap1\n      pop\n        /* \"#utility.yul\":6536:6601   */\n      tag_237\n        /* \"#utility.yul\":6598:6599   */\n      0x00\n        /* \"#utility.yul\":6587:6596   */\n      dup4\n        /* \"#utility.yul\":6583:6600   */\n      add\n        /* \"#utility.yul\":6574:6580   */\n      dup5\n        /* \"#utility.yul\":6536:6601   */\n      tag_126\n      jump\t// in\n    tag_237:\n        /* \"#utility.yul\":6398:6608   */\n      swap3\n      swap2\n      pop\n      pop\n      jump\t// out\n        /* \"#utility.yul\":6614:6732   */\n    tag_127:\n        /* \"#utility.yul\":6701:6725   */\n      tag_239\n        /* \"#utility.yul\":6719:6724   */\n      dup2\n        /* \"#utility.yul\":6701:6725   */\n      tag_122\n      jump\t// in\n    tag_239:\n        /* \"#utility.yul\":6696:6699   */\n      dup3\n        /* \"#utility.yul\":6689:6726   */\n      mstore\n        /* \"#utility.yul\":6614:6732   */\n      pop\n      pop\n      jump\t// out\n        /* \"#utility.yul\":6738:6960   */\n    tag_36:\n        /* \"#utility.yul\":6831:6835   */\n      0x00\n        /* \"#utility.yul\":6869:6871   */\n      0x20\n        /* \"#utility.yul\":6858:6867   */\n      dup3\n        /* \"#utility.yul\":6854:6872   */\n      add\n        /* \"#utility.yul\":6846:6872   */\n      swap1\n      pop\n        /* \"#utility.yul\":6882:6953   */\n      tag_241\n        /* \"#utility.yul\":6950:6951   */\n      0x00\n        /* \"#utility.yul\":6939:6948   */\n      dup4\n        /* \"#utility.yul\":6935:6952   */\n      add\n        /* \"#utility.yul\":6926:6932   */\n      dup5\n        /* \"#utility.yul\":6882:6953   */\n      tag_127\n      jump\t// in\n    tag_241:\n        /* \"#utility.yul\":6738:6960   */\n      swap3\n      swap2\n      pop\n      pop\n      jump\t// out\n        /* \"#utility.yul\":6966:7620   */\n    tag_39:\n        /* \"#utility.yul\":7044:7050   */\n      0x00\n        /* \"#utility.yul\":7052:7058   */\n      dup1\n        /* \"#utility.yul\":7101:7103   */\n      0x40\n        /* \"#utility.yul\":7089:7098   */\n      dup4\n        /* \"#utility.yul\":7080:7087   */\n      dup6\n        /* \"#utility.yul\":7076:7099   */\n      sub\n        /* \"#utility.yul\":7072:7104   */\n      slt\n        /* \"#utility.yul\":7069:7188   */\n      iszero\n      tag_243\n      jumpi\n        /* \"#utility.yul\":7107:7186   */\n      tag_244\n      tag_101\n      jump\t// in\n    tag_244:\n        /* \"#utility.yul\":7069:7188   */\n    tag_243:\n        /* \"#utility.yul\":7227:7228   */\n      0x00\n        /* \"#utility.yul\":7252:7305   */\n      tag_245\n        /* \"#utility.yul\":7297:7304   */\n      dup6\n        /* \"#utility.yul\":7288:7294   */\n      dup3\n        /* \"#utility.yul\":7277:7286   */\n      dup7\n        /* \"#utility.yul\":7273:7295   */\n      add\n        /* \"#utility.yul\":7252:7305   */\n      tag_116\n      jump\t// in\n    tag_245:\n        /* \"#utility.yul\":7242:7305   */\n      swap3\n      pop\n        /* \"#utility.yul\":7198:7315   */\n      pop\n        /* \"#utility.yul\":7382:7384   */\n      0x20\n        /* \"#utility.yul\":7371:7380   */\n      dup4\n        /* \"#utility.yul\":7367:7385   */\n      add\n        /* \"#utility.yul\":7354:7386   */\n      calldataload\n        /* \"#utility.yul\":7413:7431   */\n      0xffffffffffffffff\n        /* \"#utility.yul\":7405:7411   */\n      dup2\n        /* \"#utility.yul\":7402:7432   */\n      gt\n        /* \"#utility.yul\":7399:7516   */\n      iszero\n      tag_246\n      jumpi\n        /* \"#utility.yul\":7435:7514   */\n      tag_247\n      tag_102\n      jump\t// in\n    tag_247:\n        /* \"#utility.yul\":7399:7516   */\n    tag_246:\n        /* \"#utility.yul\":7540:7603   */\n      tag_248\n        /* \"#utility.yul\":7595:7602   */\n      dup6\n        /* \"#utility.yul\":7586:7592   */\n      dup3\n        /* \"#utility.yul\":7575:7584   */\n      dup7\n        /* \"#utility.yul\":7571:7593   */\n      add\n        /* \"#utility.yul\":7540:7603   */\n      tag_112\n      jump\t// in\n    tag_248:\n        /* \"#utility.yul\":7530:7603   */\n      swap2\n      pop\n        /* \"#utility.yul\":7325:7613   */\n      pop\n        /* \"#utility.yul\":6966:7620   */\n      swap3\n      pop\n      swap3\n      swap1\n      pop\n      jump\t// out\n        /* \"#utility.yul\":7626:7750   */\n    tag_128:\n        /* \"#utility.yul\":7703:7709   */\n      0x00\n        /* \"#utility.yul\":7737:7742   */\n      dup2\n        /* \"#utility.yul\":7731:7743   */\n      mload\n        /* \"#utility.yul\":7721:7743   */\n      swap1\n      pop\n        /* \"#utility.yul\":7626:7750   */\n      swap2\n      swap1\n      pop\n      jump\t// out\n        /* \"#utility.yul\":7756:7950   */\n    tag_129:\n        /* \"#utility.yul\":7865:7876   */\n      0x00\n        /* \"#utility.yul\":7899:7905   */\n      dup3\n        /* \"#utility.yul\":7894:7897   */\n      dup3\n        /* \"#utility.yul\":7887:7906   */\n      mstore\n        /* \"#utility.yul\":7939:7943   */\n      0x20\n        /* \"#utility.yul\":7934:7937   */\n      dup3\n        /* \"#utility.yul\":7930:7944   */\n      add\n        /* \"#utility.yul\":7915:7944   */\n      swap1\n      pop\n        /* \"#utility.yul\":7756:7950   */\n      swap3\n      swap2\n      pop\n      pop\n      jump\t// out\n        /* \"#utility.yul\":7956:8098   */\n    tag_130:\n        /* \"#utility.yul\":8033:8037   */\n      0x00\n        /* \"#utility.yul\":8056:8059   */\n      dup2\n        /* \"#utility.yul\":8048:8059   */\n      swap1\n      pop\n        /* \"#utility.yul\":8086:8090   */\n      0x20\n        /* \"#utility.yul\":8081:8084   */\n      dup3\n        /* \"#utility.yul\":8077:8091   */\n      add\n        /* \"#utility.yul\":8069:8091   */\n      swap1\n      pop\n        /* \"#utility.yul\":7956:8098   */\n      swap2\n      swap1\n      pop\n      jump\t// out\n        /* \"#utility.yul\":8104:8263   */\n    tag_131:\n        /* \"#utility.yul\":8178:8189   */\n      0x00\n        /* \"#utility.yul\":8212:8218   */\n      dup3\n        /* \"#utility.yul\":8207:8210   */\n      dup3\n        /* \"#utility.yul\":8200:8219   */\n      mstore\n        /* \"#utility.yul\":8252:8256   */\n      0x20\n        /* \"#utility.yul\":8247:8250   */\n      dup3\n        /* \"#utility.yul\":8243:8257   */\n      add\n        /* \"#utility.yul\":8228:8257   */\n      swap1\n      pop\n        /* \"#utility.yul\":8104:8263   */\n      swap3\n      swap2\n      pop\n      pop\n      jump\t// out\n        /* \"#utility.yul\":8269:8626   */\n    tag_132:\n        /* \"#utility.yul\":8347:8350   */\n      0x00\n        /* \"#utility.yul\":8375:8414   */\n      tag_254\n        /* \"#utility.yul\":8408:8413   */\n      dup3\n        /* \"#utility.yul\":8375:8414   */\n      tag_117\n      jump\t// in\n    tag_254:\n        /* \"#utility.yul\":8430:8491   */\n      tag_255\n        /* \"#utility.yul\":8484:8490   */\n      dup2\n        /* \"#utility.yul\":8479:8482   */\n      dup6\n        /* \"#utility.yul\":8430:8491   */\n      tag_131\n      jump\t// in\n    tag_255:\n        /* \"#utility.yul\":8423:8491   */\n      swap4\n      pop\n        /* \"#utility.yul\":8500:8565   */\n      tag_256\n        /* \"#utility.yul\":8558:8564   */\n      dup2\n        /* \"#utility.yul\":8553:8556   */\n      dup6\n        /* \"#utility.yul\":8546:8550   */\n      0x20\n        /* \"#utility.yul\":8539:8544   */\n      dup7\n        /* \"#utility.yul\":8535:8551   */\n      add\n        /* \"#utility.yul\":8500:8565   */\n      tag_119\n      jump\t// in\n    tag_256:\n        /* \"#utility.yul\":8590:8619   */\n      tag_257\n        /* \"#utility.yul\":8612:8618   */\n      dup2\n        /* \"#utility.yul\":8590:8619   */\n      tag_105\n      jump\t// in\n    tag_257:\n        /* \"#utility.yul\":8585:8588   */\n      dup5\n        /* \"#utility.yul\":8581:8620   */\n      add\n        /* \"#utility.yul\":8574:8620   */\n      swap2\n      pop\n        /* \"#utility.yul\":8351:8626   */\n      pop\n        /* \"#utility.yul\":8269:8626   */\n      swap3\n      swap2\n      pop\n      pop\n      jump\t// out\n        /* \"#utility.yul\":8632:8828   */\n    tag_133:\n        /* \"#utility.yul\":8721:8731   */\n      0x00\n        /* \"#utility.yul\":8756:8822   */\n      tag_259\n        /* \"#utility.yul\":8818:8821   */\n      dup4\n        /* \"#utility.yul\":8810:8816   */\n      dup4\n        /* \"#utility.yul\":8756:8822   */\n      tag_132\n      jump\t// in\n    tag_259:\n        /* \"#utility.yul\":8742:8822   */\n      swap1\n      pop\n        /* \"#utility.yul\":8632:8828   */\n      swap3\n      swap2\n      pop\n      pop\n      jump\t// out\n        /* \"#utility.yul\":8834:8957   */\n    tag_134:\n        /* \"#utility.yul\":8914:8918   */\n      0x00\n        /* \"#utility.yul\":8946:8950   */\n      0x20\n        /* \"#utility.yul\":8941:8944   */\n      dup3\n        /* \"#utility.yul\":8937:8951   */\n      add\n        /* \"#utility.yul\":8929:8951   */\n      swap1\n      pop\n        /* \"#utility.yul\":8834:8957   */\n      swap2\n      swap1\n      pop\n      jump\t// out\n        /* \"#utility.yul\":8991:9982   */\n    tag_135:\n        /* \"#utility.yul\":9130:9133   */\n      0x00\n        /* \"#utility.yul\":9159:9223   */\n      tag_262\n        /* \"#utility.yul\":9217:9222   */\n      dup3\n        /* \"#utility.yul\":9159:9223   */\n      tag_128\n      jump\t// in\n    tag_262:\n        /* \"#utility.yul\":9239:9335   */\n      tag_263\n        /* \"#utility.yul\":9328:9334   */\n      dup2\n        /* \"#utility.yul\":9323:9326   */\n      dup6\n        /* \"#utility.yul\":9239:9335   */\n      tag_129\n      jump\t// in\n    tag_263:\n        /* \"#utility.yul\":9232:9335   */\n      swap4\n      pop\n        /* \"#utility.yul\":9361:9364   */\n      dup4\n        /* \"#utility.yul\":9406:9410   */\n      0x20\n        /* \"#utility.yul\":9398:9404   */\n      dup3\n        /* \"#utility.yul\":9394:9411   */\n      mul\n        /* \"#utility.yul\":9389:9392   */\n      dup6\n        /* \"#utility.yul\":9385:9412   */\n      add\n        /* \"#utility.yul\":9436:9502   */\n      tag_264\n        /* \"#utility.yul\":9496:9501   */\n      dup6\n        /* \"#utility.yul\":9436:9502   */\n      tag_130\n      jump\t// in\n    tag_264:\n        /* \"#utility.yul\":9525:9532   */\n      dup1\n        /* \"#utility.yul\":9556:9557   */\n      0x00\n        /* \"#utility.yul\":9541:9937   */\n    tag_265:\n        /* \"#utility.yul\":9566:9572   */\n      dup6\n        /* \"#utility.yul\":9563:9564   */\n      dup2\n        /* \"#utility.yul\":9560:9573   */\n      lt\n        /* \"#utility.yul\":9541:9937   */\n      iszero\n      tag_267\n      jumpi\n        /* \"#utility.yul\":9637:9646   */\n      dup5\n        /* \"#utility.yul\":9631:9635   */\n      dup5\n        /* \"#utility.yul\":9627:9647   */\n      sub\n        /* \"#utility.yul\":9622:9625   */\n      dup10\n        /* \"#utility.yul\":9615:9648   */\n      mstore\n        /* \"#utility.yul\":9688:9694   */\n      dup2\n        /* \"#utility.yul\":9682:9695   */\n      mload\n        /* \"#utility.yul\":9716:9800   */\n      tag_268\n        /* \"#utility.yul\":9795:9799   */\n      dup6\n        /* \"#utility.yul\":9780:9793   */\n      dup3\n        /* \"#utility.yul\":9716:9800   */\n      tag_133\n      jump\t// in\n    tag_268:\n        /* \"#utility.yul\":9708:9800   */\n      swap5\n      pop\n        /* \"#utility.yul\":9823:9893   */\n      tag_269\n        /* \"#utility.yul\":9886:9892   */\n      dup4\n        /* \"#utility.yul\":9823:9893   */\n      tag_134\n      jump\t// in\n    tag_269:\n        /* \"#utility.yul\":9813:9893   */\n      swap3\n      pop\n        /* \"#utility.yul\":9922:9926   */\n      0x20\n        /* \"#utility.yul\":9917:9920   */\n      dup11\n        /* \"#utility.yul\":9913:9927   */\n      add\n        /* \"#utility.yul\":9906:9927   */\n      swap10\n      pop\n        /* \"#utility.yul\":9601:9937   */\n      pop\n        /* \"#utility.yul\":9588:9589   */\n      0x01\n        /* \"#utility.yul\":9585:9586   */\n      dup2\n        /* \"#utility.yul\":9581:9590   */\n      add\n        /* \"#utility.yul\":9576:9590   */\n      swap1\n      pop\n        /* \"#utility.yul\":9541:9937   */\n      jump(tag_265)\n    tag_267:\n        /* \"#utility.yul\":9545:9559   */\n      pop\n        /* \"#utility.yul\":9953:9957   */\n      dup3\n        /* \"#utility.yul\":9946:9957   */\n      swap8\n      pop\n        /* \"#utility.yul\":9973:9976   */\n      dup8\n        /* \"#utility.yul\":9966:9976   */\n      swap6\n      pop\n        /* \"#utility.yul\":9135:9982   */\n      pop\n      pop\n      pop\n      pop\n      pop\n        /* \"#utility.yul\":8991:9982   */\n      swap3\n      swap2\n      pop\n      pop\n      jump\t// out\n        /* \"#utility.yul\":9988:10401   */\n    tag_47:\n        /* \"#utility.yul\":10151:10155   */\n      0x00\n        /* \"#utility.yul\":10189:10191   */\n      0x20\n        /* \"#utility.yul\":10178:10187   */\n      dup3\n        /* \"#utility.yul\":10174:10192   */\n      add\n        /* \"#utility.yul\":10166:10192   */\n      swap1\n      pop\n        /* \"#utility.yul\":10238:10247   */\n      dup2\n        /* \"#utility.yul\":10232:10236   */\n      dup2\n        /* \"#utility.yul\":10228:10248   */\n      sub\n        /* \"#utility.yul\":10224:10225   */\n      0x00\n        /* \"#utility.yul\":10213:10222   */\n      dup4\n        /* \"#utility.yul\":10209:10226   */\n      add\n        /* \"#utility.yul\":10202:10249   */\n      mstore\n        /* \"#utility.yul\":10266:10394   */\n      tag_271\n        /* \"#utility.yul\":10389:10393   */\n      dup2\n        /* \"#utility.yul\":10380:10386   */\n      dup5\n        /* \"#utility.yul\":10266:10394   */\n      tag_135\n      jump\t// in\n    tag_271:\n        /* \"#utility.yul\":10258:10394   */\n      swap1\n      pop\n        /* \"#utility.yul\":9988:10401   */\n      swap3\n      swap2\n      pop\n      pop\n      jump\t// out\n        /* \"#utility.yul\":10407:10571   */\n    tag_136:\n        /* \"#utility.yul\":10547:10563   */\n      0x4f6e6c792077686974656c697374000000000000000000000000000000000000\n        /* \"#utility.yul\":10543:10544   */\n      0x00\n        /* \"#utility.yul\":10535:10541   */\n      dup3\n        /* \"#utility.yul\":10531:10545   */\n      add\n        /* \"#utility.yul\":10524:10564   */\n      mstore\n        /* \"#utility.yul\":10407:10571   */\n      pop\n      jump\t// out\n        /* \"#utility.yul\":10577:10943   */\n    tag_137:\n        /* \"#utility.yul\":10719:10722   */\n      0x00\n        /* \"#utility.yul\":10740:10807   */\n      tag_274\n        /* \"#utility.yul\":10804:10806   */\n      0x0e\n        /* \"#utility.yul\":10799:10802   */\n      dup4\n        /* \"#utility.yul\":10740:10807   */\n      tag_118\n      jump\t// in\n    tag_274:\n        /* \"#utility.yul\":10733:10807   */\n      swap2\n      pop\n        /* \"#utility.yul\":10816:10909   */\n      tag_275\n        /* \"#utility.yul\":10905:10908   */\n      dup3\n        /* \"#utility.yul\":10816:10909   */\n      tag_136\n      jump\t// in\n    tag_275:\n        /* \"#utility.yul\":10934:10936   */\n      0x20\n        /* \"#utility.yul\":10929:10932   */\n      dup3\n        /* \"#utility.yul\":10925:10937   */\n      add\n        /* \"#utility.yul\":10918:10937   */\n      swap1\n      pop\n        /* \"#utility.yul\":10577:10943   */\n      swap2\n      swap1\n      pop\n      jump\t// out\n        /* \"#utility.yul\":10949:11368   */\n    tag_51:\n        /* \"#utility.yul\":11115:11119   */\n      0x00\n        /* \"#utility.yul\":11153:11155   */\n      0x20\n        /* \"#utility.yul\":11142:11151   */\n      dup3\n        /* \"#utility.yul\":11138:11156   */\n      add\n        /* \"#utility.yul\":11130:11156   */\n      swap1\n      pop\n        /* \"#utility.yul\":11202:11211   */\n      dup2\n        /* \"#utility.yul\":11196:11200   */\n      dup2\n        /* \"#utility.yul\":11192:11212   */\n      sub\n        /* \"#utility.yul\":11188:11189   */\n      0x00\n        /* \"#utility.yul\":11177:11186   */\n      dup4\n        /* \"#utility.yul\":11173:11190   */\n      add\n        /* \"#utility.yul\":11166:11213   */\n      mstore\n        /* \"#utility.yul\":11230:11361   */\n      tag_277\n        /* \"#utility.yul\":11356:11360   */\n      dup2\n        /* \"#utility.yul\":11230:11361   */\n      tag_137\n      jump\t// in\n    tag_277:\n        /* \"#utility.yul\":11222:11361   */\n      swap1\n      pop\n        /* \"#utility.yul\":10949:11368   */\n      swap2\n      swap1\n      pop\n      jump\t// out\n        /* \"#utility.yul\":11374:11554   */\n    tag_138:\n        /* \"#utility.yul\":11422:11499   */\n      0x4e487b7100000000000000000000000000000000000000000000000000000000\n        /* \"#utility.yul\":11419:11420   */\n      0x00\n        /* \"#utility.yul\":11412:11500   */\n      mstore\n        /* \"#utility.yul\":11519:11523   */\n      0x22\n        /* \"#utility.yul\":11516:11517   */\n      0x04\n        /* \"#utility.yul\":11509:11524   */\n      mstore\n        /* \"#utility.yul\":11543:11547   */\n      0x24\n        /* \"#utility.yul\":11540:11541   */\n      0x00\n        /* \"#utility.yul\":11533:11548   */\n      revert\n        /* \"#utility.yul\":11560:11880   */\n    tag_64:\n        /* \"#utility.yul\":11604:11610   */\n      0x00\n        /* \"#utility.yul\":11641:11642   */\n      0x02\n        /* \"#utility.yul\":11635:11639   */\n      dup3\n        /* \"#utility.yul\":11631:11643   */\n      div\n        /* \"#utility.yul\":11621:11643   */\n      swap1\n      pop\n        /* \"#utility.yul\":11688:11689   */\n      0x01\n        /* \"#utility.yul\":11682:11686   */\n      dup3\n        /* \"#utility.yul\":11678:11690   */\n      and\n        /* \"#utility.yul\":11709:11727   */\n      dup1\n        /* \"#utility.yul\":11699:11780   */\n      tag_280\n      jumpi\n        /* \"#utility.yul\":11765:11769   */\n      0x7f\n        /* \"#utility.yul\":11757:11763   */\n      dup3\n        /* \"#utility.yul\":11753:11770   */\n      and\n        /* \"#utility.yul\":11743:11770   */\n      swap2\n      pop\n        /* \"#utility.yul\":11699:11780   */\n    tag_280:\n        /* \"#utility.yul\":11827:11829   */\n      0x20\n        /* \"#utility.yul\":11819:11825   */\n      dup3\n        /* \"#utility.yul\":11816:11830   */\n      lt\n        /* \"#utility.yul\":11796:11814   */\n      dup2\n        /* \"#utility.yul\":11793:11831   */\n      sub\n        /* \"#utility.yul\":11790:11874   */\n      tag_281\n      jumpi\n        /* \"#utility.yul\":11846:11864   */\n      tag_282\n      tag_138\n      jump\t// in\n    tag_282:\n        /* \"#utility.yul\":11790:11874   */\n    tag_281:\n        /* \"#utility.yul\":11611:11880   */\n      pop\n        /* \"#utility.yul\":11560:11880   */\n      swap2\n      swap1\n      pop\n      jump\t// out\n        /* \"#utility.yul\":11886:12027   */\n    tag_139:\n        /* \"#utility.yul\":11935:11939   */\n      0x00\n        /* \"#utility.yul\":11958:11961   */\n      dup2\n        /* \"#utility.yul\":11950:11961   */\n      swap1\n      pop\n        /* \"#utility.yul\":11981:11984   */\n      dup2\n        /* \"#utility.yul\":11978:11979   */\n      0x00\n        /* \"#utility.yul\":11971:11985   */\n      mstore\n        /* \"#utility.yul\":12015:12019   */\n      0x20\n        /* \"#utility.yul\":12012:12013   */\n      0x00\n        /* \"#utility.yul\":12002:12020   */\n      keccak256\n        /* \"#utility.yul\":11994:12020   */\n      swap1\n      pop\n        /* \"#utility.yul\":11886:12027   */\n      swap2\n      swap1\n      pop\n      jump\t// out\n        /* \"#utility.yul\":12033:12126   */\n    tag_140:\n        /* \"#utility.yul\":12070:12076   */\n      0x00\n        /* \"#utility.yul\":12117:12119   */\n      0x20\n        /* \"#utility.yul\":12112:12114   */\n      0x1f\n        /* \"#utility.yul\":12105:12110   */\n      dup4\n        /* \"#utility.yul\":12101:12115   */\n      add\n        /* \"#utility.yul\":12097:12120   */\n      div\n        /* \"#utility.yul\":12087:12120   */\n      swap1\n      pop\n        /* \"#utility.yul\":12033:12126   */\n      swap2\n      swap1\n      pop\n      jump\t// out\n        /* \"#utility.yul\":12132:12239   */\n    tag_141:\n        /* \"#utility.yul\":12176:12184   */\n      0x00\n        /* \"#utility.yul\":12226:12231   */\n      dup3\n        /* \"#utility.yul\":12220:12224   */\n      dup3\n        /* \"#utility.yul\":12216:12232   */\n      shl\n        /* \"#utility.yul\":12195:12232   */\n      swap1\n      pop\n        /* \"#utility.yul\":12132:12239   */\n      swap3\n      swap2\n      pop\n      pop\n      jump\t// out\n        /* \"#utility.yul\":12245:12638   */\n    tag_142:\n        /* \"#utility.yul\":12314:12320   */\n      0x00\n        /* \"#utility.yul\":12364:12365   */\n      0x08\n        /* \"#utility.yul\":12352:12362   */\n      dup4\n        /* \"#utility.yul\":12348:12366   */\n      mul\n        /* \"#utility.yul\":12387:12484   */\n      tag_287\n        /* \"#utility.yul\":12417:12483   */\n      0xffffffffffffffffffffffffffffffffffffffffffffffffffffffffffffffff\n        /* \"#utility.yul\":12406:12415   */\n      dup3\n        /* \"#utility.yul\":12387:12484   */\n      tag_141\n      jump\t// in\n    tag_287:\n        /* \"#utility.yul\":12505:12544   */\n      tag_288\n        /* \"#utility.yul\":12535:12543   */\n      dup7\n        /* \"#utility.yul\":12524:12533   */\n      dup4\n        /* \"#utility.yul\":12505:12544   */\n      tag_141\n      jump\t// in\n    tag_288:\n        /* \"#utility.yul\":12493:12544   */\n      swap6\n      pop\n        /* \"#utility.yul\":12577:12581   */\n      dup1\n        /* \"#utility.yul\":12573:12582   */\n      not\n        /* \"#utility.yul\":12566:12571   */\n      dup5\n        /* \"#utility.yul\":12562:12583   */\n      and\n        /* \"#utility.yul\":12553:12583   */\n      swap4\n      pop\n        /* \"#utility.yul\":12626:12630   */\n      dup1\n        /* \"#utility.yul\":12616:12624   */\n      dup7\n        /* \"#utility.yul\":12612:12631   */\n      and\n        /* \"#utility.yul\":12605:12610   */\n      dup5\n        /* \"#utility.yul\":12602:12632   */\n      or\n        /* \"#utility.yul\":12592:12632   */\n      swap3\n      pop\n        /* \"#utility.yul\":12321:12638   */\n      pop\n      pop\n        /* \"#utility.yul\":12245:12638   */\n      swap4\n      swap3\n      pop\n      pop\n      pop\n      jump\t// out\n        /* \"#utility.yul\":12644:12704   */\n    tag_143:\n        /* \"#utility.yul\":12672:12675   */\n      0x00\n        /* \"#utility.yul\":12693:12698   */\n      dup2\n        /* \"#utility.yul\":12686:12698   */\n      swap1\n      pop\n        /* \"#utility.yul\":12644:12704   */\n      swap2\n      swap1\n      pop\n      jump\t// out\n        /* \"#utility.yul\":12710:12852   */\n    tag_144:\n        /* \"#utility.yul\":12760:12769   */\n      0x00\n        /* \"#utility.yul\":12793:12846   */\n      tag_291\n        /* \"#utility.yul\":12811:12845   */\n      tag_292\n        /* \"#utility.yul\":12820:12844   */\n      tag_293\n        /* \"#utility.yul\":12838:12843   */\n      dup5\n        /* \"#utility.yul\":12820:12844   */\n      tag_113\n      jump\t// in\n    tag_293:\n        /* \"#utility.yul\":12811:12845   */\n      tag_143\n      jump\t// in\n    tag_292:\n        /* \"#utility.yul\":12793:12846   */\n      tag_113\n      jump\t// in\n    tag_291:\n        /* \"#utility.yul\":12780:12846   */\n      swap1\n      pop\n        /* \"#utility.yul\":12710:12852   */\n      swap2\n      swap1\n      pop\n      jump\t// out\n        /* \"#utility.yul\":12858:12933   */\n    tag_145:\n        /* \"#utility.yul\":12901:12904   */\n      0x00\n        /* \"#utility.yul\":12922:12927   */\n      dup2\n        /* \"#utility.yul\":12915:12927   */\n      swap1\n      pop\n        /* \"#utility.yul\":12858:12933   */\n      swap2\n      swap1\n      pop\n      jump\t// out\n        /* \"#utility.yul\":12939:13208   */\n    tag_146:\n        /* \"#utility.yul\":13049:13088   */\n      tag_296\n        /* \"#utility.yul\":13080:13087   */\n      dup4\n        /* \"#utility.yul\":13049:13088   */\n      tag_144\n      jump\t// in\n    tag_296:\n        /* \"#utility.yul\":13110:13201   */\n      tag_297\n        /* \"#utility.yul\":13159:13200   */\n      tag_298\n        /* \"#utility.yul\":13183:13199   */\n      dup3\n        /* \"#utility.yul\":13159:13200   */\n      tag_145\n      jump\t// in\n    tag_298:\n        /* \"#utility.yul\":13151:13157   */\n      dup5\n        /* \"#utility.yul\":13144:13148   */\n      dup5\n        /* \"#utility.yul\":13138:13149   */\n      sload\n        /* \"#utility.yul\":13110:13201   */\n      tag_142\n      jump\t// in\n    tag_297:\n        /* \"#utility.yul\":13104:13108   */\n      dup3\n        /* \"#utility.yul\":13097:13202   */\n      sstore\n        /* \"#utility.yul\":13015:13208   */\n      pop\n        /* \"#utility.yul\":12939:13208   */\n      pop\n      pop\n      pop\n      jump\t// out\n        /* \"#utility.yul\":13214:13287   */\n    tag_147:\n        /* \"#utility.yul\":13259:13262   */\n      0x00\n        /* \"#utility.yul\":13214:13287   */\n      swap1\n      jump\t// out\n        /* \"#utility.yul\":13293:13482   */\n    tag_148:\n        /* \"#utility.yul\":13370:13402   */\n      tag_301\n      tag_147\n      jump\t// in\n    tag_301:\n        /* \"#utility.yul\":13411:13476   */\n      tag_302\n        /* \"#utility.yul\":13469:13475   */\n      dup2\n        /* \"#utility.yul\":13461:13467   */\n      dup5\n        /* \"#utility.yul\":13455:13459   */\n      dup5\n        /* \"#utility.yul\":13411:13476   */\n      tag_146\n      jump\t// in\n    tag_302:\n        /* \"#utility.yul\":13346:13482   */\n      pop\n        /* \"#utility.yul\":13293:13482   */\n      pop\n      pop\n      jump\t// out\n        /* \"#utility.yul\":13488:13674   */\n    tag_149:\n        /* \"#utility.yul\":13548:13668   */\n    tag_304:\n        /* \"#utility.yul\":13565:13568   */\n      dup2\n        /* \"#utility.yul\":13558:13563   */\n      dup2\n        /* \"#utility.yul\":13555:13569   */\n      lt\n        /* \"#utility.yul\":13548:13668   */\n      iszero\n      tag_306\n      jumpi\n        /* \"#utility.yul\":13619:13658   */\n      tag_307\n        /* \"#utility.yul\":13656:13657   */\n      0x00\n        /* \"#utility.yul\":13649:13654   */\n      dup3\n        /* \"#utility.yul\":13619:13658   */\n      tag_148\n      jump\t// in\n    tag_307:\n        /* \"#utility.yul\":13592:13593   */\n      0x01\n        /* \"#utility.yul\":13585:13590   */\n      dup2\n        /* \"#utility.yul\":13581:13594   */\n      add\n        /* \"#utility.yul\":13572:13594   */\n      swap1\n      pop\n        /* \"#utility.yul\":13548:13668   */\n      jump(tag_304)\n    tag_306:\n        /* \"#utility.yul\":13488:13674   */\n      pop\n      pop\n      jump\t// out\n        /* \"#utility.yul\":13680:14223   */\n    tag_150:\n        /* \"#utility.yul\":13781:13783   */\n      0x1f\n        /* \"#utility.yul\":13776:13779   */\n      dup3\n        /* \"#utility.yul\":13773:13784   */\n      gt\n        /* \"#utility.yul\":13770:14216   */\n      iszero\n      tag_309\n      jumpi\n        /* \"#utility.yul\":13815:13853   */\n      tag_310\n        /* \"#utility.yul\":13847:13852   */\n      dup2\n        /* \"#utility.yul\":13815:13853   */\n      tag_139\n      jump\t// in\n    tag_310:\n        /* \"#utility.yul\":13899:13928   */\n      tag_311\n        /* \"#utility.yul\":13917:13927   */\n      dup5\n        /* \"#utility.yul\":13899:13928   */\n      tag_140\n      jump\t// in\n    tag_311:\n        /* \"#utility.yul\":13889:13897   */\n      dup2\n        /* \"#utility.yul\":13885:13929   */\n      add\n        /* \"#utility.yul\":14082:14084   */\n      0x20\n        /* \"#utility.yul\":14070:14080   */\n      dup6\n        /* \"#utility.yul\":14067:14085   */\n      lt\n        /* \"#utility.yul\":14064:14113   */\n      iszero\n      tag_312\n      jumpi\n        /* \"#utility.yul\":14103:14111   */\n      dup2\n        /* \"#utility.yul\":14088:14111   */\n      swap1\n      pop\n        /* \"#utility.yul\":14064:14113   */\n    tag_312:\n        /* \"#utility.yul\":14126:14206   */\n      tag_313\n        /* \"#utility.yul\":14182:14204   */\n      tag_314\n        /* \"#utility.yul\":14200:14203   */\n      dup6\n        /* \"#utility.yul\":14182:14204   */\n      tag_140\n      jump\t// in\n    tag_314:\n        /* \"#utility.yul\":14172:14180   */\n      dup4\n        /* \"#utility.yul\":14168:14205   */\n      add\n        /* \"#utility.yul\":14155:14166   */\n      dup3\n        /* \"#utility.yul\":14126:14206   */\n      tag_149\n      jump\t// in\n    tag_313:\n        /* \"#utility.yul\":13785:14216   */\n      pop\n      pop\n        /* \"#utility.yul\":13770:14216   */\n    tag_309:\n        /* \"#utility.yul\":13680:14223   */\n      pop\n      pop\n      pop\n      jump\t// out\n        /* \"#utility.yul\":14229:14346   */\n    tag_151:\n        /* \"#utility.yul\":14283:14291   */\n      0x00\n        /* \"#utility.yul\":14333:14338   */\n      dup3\n        /* \"#utility.yul\":14327:14331   */\n      dup3\n        /* \"#utility.yul\":14323:14339   */\n      shr\n        /* \"#utility.yul\":14302:14339   */\n      swap1\n      pop\n        /* \"#utility.yul\":14229:14346   */\n      swap3\n      swap2\n      pop\n      pop\n      jump\t// out\n        /* \"#utility.yul\":14352:14521   */\n    tag_152:\n        /* \"#utility.yul\":14396:14402   */\n      0x00\n        /* \"#utility.yul\":14429:14480   */\n      tag_317\n        /* \"#utility.yul\":14477:14478   */\n      0x00\n        /* \"#utility.yul\":14473:14479   */\n      not\n        /* \"#utility.yul\":14465:14470   */\n      dup5\n        /* \"#utility.yul\":14462:14463   */\n      0x08\n        /* \"#utility.yul\":14458:14471   */\n      mul\n        /* \"#utility.yul\":14429:14480   */\n      tag_151\n      jump\t// in\n    tag_317:\n        /* \"#utility.yul\":14425:14481   */\n      not\n        /* \"#utility.yul\":14510:14514   */\n      dup1\n        /* \"#utility.yul\":14504:14508   */\n      dup4\n        /* \"#utility.yul\":14500:14515   */\n      and\n        /* \"#utility.yul\":14490:14515   */\n      swap2\n      pop\n        /* \"#utility.yul\":14403:14521   */\n      pop\n        /* \"#utility.yul\":14352:14521   */\n      swap3\n      swap2\n      pop\n      pop\n      jump\t// out\n        /* \"#utility.yul\":14526:14821   */\n    tag_153:\n        /* \"#utility.yul\":14602:14606   */\n      0x00\n        /* \"#utility.yul\":14748:14777   */\n      tag_319\n        /* \"#utility.yul\":14773:14776   */\n      dup4\n        /* \"#utility.yul\":14767:14771   */\n      dup4\n        /* \"#utility.yul\":14748:14777   */\n      tag_152\n      jump\t// in\n    tag_319:\n        /* \"#utility.yul\":14740:14777   */\n      swap2\n      pop\n        /* \"#utility.yul\":14810:14813   */\n      dup3\n        /* \"#utility.yul\":14807:14808   */\n      0x02\n        /* \"#utility.yul\":14803:14814   */\n      mul\n        /* \"#utility.yul\":14797:14801   */\n      dup3\n        /* \"#utility.yul\":14794:14815   */\n      or\n        /* \"#utility.yul\":14786:14815   */\n      swap1\n      pop\n        /* \"#utility.yul\":14526:14821   */\n      swap3\n      swap2\n      pop\n      pop\n      jump\t// out\n        /* \"#utility.yul\":14826:16221   */\n    tag_55:\n        /* \"#utility.yul\":14943:14980   */\n      tag_321\n        /* \"#utility.yul\":14976:14979   */\n      dup3\n        /* \"#utility.yul\":14943:14980   */\n      tag_117\n      jump\t// in\n    tag_321:\n        /* \"#utility.yul\":15045:15063   */\n      0xffffffffffffffff\n        /* \"#utility.yul\":15037:15043   */\n      dup2\n        /* \"#utility.yul\":15034:15064   */\n      gt\n        /* \"#utility.yul\":15031:15087   */\n      iszero\n      tag_322\n      jumpi\n        /* \"#utility.yul\":15067:15085   */\n      tag_323\n      tag_106\n      jump\t// in\n    tag_323:\n        /* \"#utility.yul\":15031:15087   */\n    tag_322:\n        /* \"#utility.yul\":15111:15149   */\n      tag_324\n        /* \"#utility.yul\":15143:15147   */\n      dup3\n        /* \"#utility.yul\":15137:15148   */\n      sload\n        /* \"#utility.yul\":15111:15149   */\n      tag_64\n      jump\t// in\n    tag_324:\n        /* \"#utility.yul\":15196:15263   */\n      tag_325\n        /* \"#utility.yul\":15256:15262   */\n      dup3\n        /* \"#utility.yul\":15248:15254   */\n      dup3\n        /* \"#utility.yul\":15242:15246   */\n      dup6\n        /* \"#utility.yul\":15196:15263   */\n      tag_150\n      jump\t// in\n    tag_325:\n        /* \"#utility.yul\":15290:15291   */\n      0x00\n        /* \"#utility.yul\":15314:15318   */\n      0x20\n        /* \"#utility.yul\":15301:15318   */\n      swap1\n      pop\n        /* \"#utility.yul\":15346:15348   */\n      0x1f\n        /* \"#utility.yul\":15338:15344   */\n      dup4\n        /* \"#utility.yul\":15335:15349   */\n      gt\n        /* \"#utility.yul\":15363:15364   */\n      0x01\n        /* \"#utility.yul\":15358:15976   */\n      dup2\n      eq\n      tag_327\n      jumpi\n        /* \"#utility.yul\":16020:16021   */\n      0x00\n        /* \"#utility.yul\":16037:16043   */\n      dup5\n        /* \"#utility.yul\":16034:16111   */\n      iszero\n      tag_328\n      jumpi\n        /* \"#utility.yul\":16086:16095   */\n      dup3\n        /* \"#utility.yul\":16081:16084   */\n      dup8\n        /* \"#utility.yul\":16077:16096   */\n      add\n        /* \"#utility.yul\":16071:16097   */\n      mload\n        /* \"#utility.yul\":16062:16097   */\n      swap1\n      pop\n        /* \"#utility.yul\":16034:16111   */\n    tag_328:\n        /* \"#utility.yul\":16137:16204   */\n      tag_329\n        /* \"#utility.yul\":16197:16203   */\n      dup6\n        /* \"#utility.yul\":16190:16195   */\n      dup3\n        /* \"#utility.yul\":16137:16204   */\n      tag_153\n      jump\t// in\n    tag_329:\n        /* \"#utility.yul\":16131:16135   */\n      dup7\n        /* \"#utility.yul\":16124:16205   */\n      sstore\n        /* \"#utility.yul\":15993:16215   */\n      pop\n        /* \"#utility.yul\":15328:16215   */\n      jump(tag_326)\n        /* \"#utility.yul\":15358:15976   */\n    tag_327:\n        /* \"#utility.yul\":15410:15414   */\n      0x1f\n        /* \"#utility.yul\":15406:15415   */\n      not\n        /* \"#utility.yul\":15398:15404   */\n      dup5\n        /* \"#utility.yul\":15394:15416   */\n      and\n        /* \"#utility.yul\":15444:15481   */\n      tag_330\n        /* \"#utility.yul\":15476:15480   */\n      dup7\n        /* \"#utility.yul\":15444:15481   */\n      tag_139\n      jump\t// in\n    tag_330:\n        /* \"#utility.yul\":15503:15504   */\n      0x00\n        /* \"#utility.yul\":15517:15725   */\n    tag_331:\n        /* \"#utility.yul\":15531:15538   */\n      dup3\n        /* \"#utility.yul\":15528:15529   */\n      dup2\n        /* \"#utility.yul\":15525:15539   */\n      lt\n        /* \"#utility.yul\":15517:15725   */\n      iszero\n      tag_333\n      jumpi\n        /* \"#utility.yul\":15610:15619   */\n      dup5\n        /* \"#utility.yul\":15605:15608   */\n      dup10\n        /* \"#utility.yul\":15601:15620   */\n      add\n        /* \"#utility.yul\":15595:15621   */\n      mload\n        /* \"#utility.yul\":15587:15593   */\n      dup3\n        /* \"#utility.yul\":15580:15622   */\n      sstore\n        /* \"#utility.yul\":15661:15662   */\n      0x01\n        /* \"#utility.yul\":15653:15659   */\n      dup3\n        /* \"#utility.yul\":15649:15663   */\n      add\n        /* \"#utility.yul\":15639:15663   */\n      swap2\n      pop\n        /* \"#utility.yul\":15708:15710   */\n      0x20\n        /* \"#utility.yul\":15697:15706   */\n      dup6\n        /* \"#utility.yul\":15693:15711   */\n      add\n        /* \"#utility.yul\":15680:15711   */\n      swap5\n      pop\n        /* \"#utility.yul\":15554:15558   */\n      0x20\n        /* \"#utility.yul\":15551:15552   */\n      dup2\n        /* \"#utility.yul\":15547:15559   */\n      add\n        /* \"#utility.yul\":15542:15559   */\n      swap1\n      pop\n        /* \"#utility.yul\":15517:15725   */\n      jump(tag_331)\n    tag_333:\n        /* \"#utility.yul\":15753:15759   */\n      dup7\n        /* \"#utility.yul\":15744:15751   */\n      dup4\n        /* \"#utility.yul\":15741:15760   */\n      lt\n        /* \"#utility.yul\":15738:15917   */\n      iszero\n      tag_334\n      jumpi\n        /* \"#utility.yul\":15811:15820   */\n      dup5\n        /* \"#utility.yul\":15806:15809   */\n      dup10\n        /* \"#utility.yul\":15802:15821   */\n      add\n        /* \"#utility.yul\":15796:15822   */\n      mload\n        /* \"#utility.yul\":15854:15902   */\n      tag_335\n        /* \"#utility.yul\":15896:15900   */\n      0x1f\n        /* \"#utility.yul\":15888:15894   */\n      dup10\n        /* \"#utility.yul\":15884:15901   */\n      and\n        /* \"#utility.yul\":15873:15882   */\n      dup3\n        /* \"#utility.yul\":15854:15902   */\n      tag_152\n      jump\t// in\n    tag_335:\n        /* \"#utility.yul\":15846:15852   */\n      dup4\n        /* \"#utility.yul\":15839:15903   */\n      sstore\n        /* \"#utility.yul\":15761:15917   */\n      pop\n        /* \"#utility.yul\":15738:15917   */\n    tag_334:\n        /* \"#utility.yul\":15963:15964   */\n      0x01\n        /* \"#utility.yul\":15959:15960   */\n      0x02\n        /* \"#utility.yul\":15951:15957   */\n      dup9\n        /* \"#utility.yul\":15947:15961   */\n      mul\n        /* \"#utility.yul\":15943:15965   */\n      add\n        /* \"#utility.yul\":15937:15941   */\n      dup9\n        /* \"#utility.yul\":15930:15966   */\n      sstore\n        /* \"#utility.yul\":15365:15976   */\n      pop\n      pop\n      pop\n        /* \"#utility.yul\":15328:16215   */\n    tag_326:\n      pop\n        /* \"#utility.yul\":14918:16221   */\n      pop\n      pop\n      pop\n        /* \"#utility.yul\":14826:16221   */\n      pop\n      pop\n      jump\t// out\n        /* \"#utility.yul\":16227:16407   */\n    tag_154:\n        /* \"#utility.yul\":16275:16352   */\n      0x4e487b7100000000000000000000000000000000000000000000000000000000\n        /* \"#utility.yul\":16272:16273   */\n      0x00\n        /* \"#utility.yul\":16265:16353   */\n      mstore\n        /* \"#utility.yul\":16372:16376   */\n      0x11\n        /* \"#utility.yul\":16369:16370   */\n      0x04\n        /* \"#utility.yul\":16362:16377   */\n      mstore\n        /* \"#utility.yul\":16396:16400   */\n      0x24\n        /* \"#utility.yul\":16393:16394   */\n      0x00\n        /* \"#utility.yul\":16386:16401   */\n      revert\n        /* \"#utility.yul\":16413:16607   */\n    tag_57:\n        /* \"#utility.yul\":16453:16457   */\n      0x00\n        /* \"#utility.yul\":16473:16493   */\n      tag_338\n        /* \"#utility.yul\":16491:16492   */\n      dup3\n        /* \"#utility.yul\":16473:16493   */\n      tag_113\n      jump\t// in\n    tag_338:\n        /* \"#utility.yul\":16468:16493   */\n      swap2\n      pop\n        /* \"#utility.yul\":16507:16527   */\n      tag_339\n        /* \"#utility.yul\":16525:16526   */\n      dup4\n        /* \"#utility.yul\":16507:16527   */\n      tag_113\n      jump\t// in\n    tag_339:\n        /* \"#utility.yul\":16502:16527   */\n      swap3\n      pop\n        /* \"#utility.yul\":16551:16552   */\n      dup3\n        /* \"#utility.yul\":16548:16549   */\n      dup3\n        /* \"#utility.yul\":16544:16553   */\n      sub\n        /* \"#utility.yul\":16536:16553   */\n      swap1\n      pop\n        /* \"#utility.yul\":16575:16576   */\n      dup2\n        /* \"#utility.yul\":16569:16573   */\n      dup2\n        /* \"#utility.yul\":16566:16577   */\n      gt\n        /* \"#utility.yul\":16563:16600   */\n      iszero\n      tag_340\n      jumpi\n        /* \"#utility.yul\":16580:16598   */\n      tag_341\n      tag_154\n      jump\t// in\n    tag_341:\n        /* \"#utility.yul\":16563:16600   */\n    tag_340:\n        /* \"#utility.yul\":16413:16607   */\n      swap3\n      swap2\n      pop\n      pop\n      jump\t// out\n        /* \"#utility.yul\":16613:16793   */\n    tag_61:\n        /* \"#utility.yul\":16661:16738   */\n      0x4e487b7100000000000000000000000000000000000000000000000000000000\n        /* \"#utility.yul\":16658:16659   */\n      0x00\n        /* \"#utility.yul\":16651:16739   */\n      mstore\n        /* \"#utility.yul\":16758:16762   */\n      0x32\n        /* \"#utility.yul\":16755:16756   */\n      0x04\n        /* \"#utility.yul\":16748:16763   */\n      mstore\n        /* \"#utility.yul\":16782:16786   */\n      0x24\n        /* \"#utility.yul\":16779:16780   */\n      0x00\n        /* \"#utility.yul\":16772:16787   */\n      revert\n        /* \"#utility.yul\":16799:16959   */\n    tag_155:\n        /* \"#utility.yul\":16939:16951   */\n      0x4f6e6c79206f776e657200000000000000000000000000000000000000000000\n        /* \"#utility.yul\":16935:16936   */\n      0x00\n        /* \"#utility.yul\":16927:16933   */\n      dup3\n        /* \"#utility.yul\":16923:16937   */\n      add\n        /* \"#utility.yul\":16916:16952   */\n      mstore\n        /* \"#utility.yul\":16799:16959   */\n      pop\n      jump\t// out\n        /* \"#utility.yul\":16965:17331   */\n    tag_156:\n        /* \"#utility.yul\":17107:17110   */\n      0x00\n        /* \"#utility.yul\":17128:17195   */\n      tag_345\n        /* \"#utility.yul\":17192:17194   */\n      0x0a\n        /* \"#utility.yul\":17187:17190   */\n      dup4\n        /* \"#utility.yul\":17128:17195   */\n      tag_118\n      jump\t// in\n    tag_345:\n        /* \"#utility.yul\":17121:17195   */\n      swap2\n      pop\n        /* \"#utility.yul\":17204:17297   */\n      tag_346\n        /* \"#utility.yul\":17293:17296   */\n      dup3\n        /* \"#utility.yul\":17204:17297   */\n      tag_155\n      jump\t// in\n    tag_346:\n        /* \"#utility.yul\":17322:17324   */\n      0x20\n        /* \"#utility.yul\":17317:17320   */\n      dup3\n        /* \"#utility.yul\":17313:17325   */\n      add\n        /* \"#utility.yul\":17306:17325   */\n      swap1\n      pop\n        /* \"#utility.yul\":16965:17331   */\n      swap2\n      swap1\n      pop\n      jump\t// out\n        /* \"#utility.yul\":17337:17756   */\n    tag_72:\n        /* \"#utility.yul\":17503:17507   */\n      0x00\n        /* \"#utility.yul\":17541:17543   */\n      0x20\n        /* \"#utility.yul\":17530:17539   */\n      dup3\n        /* \"#utility.yul\":17526:17544   */\n      add\n        /* \"#utility.yul\":17518:17544   */\n      swap1\n      pop\n        /* \"#utility.yul\":17590:17599   */\n      dup2\n        /* \"#utility.yul\":17584:17588   */\n      dup2\n        /* \"#utility.yul\":17580:17600   */\n      sub\n        /* \"#utility.yul\":17576:17577   */\n      0x00\n        /* \"#utility.yul\":17565:17574   */\n      dup4\n        /* \"#utility.yul\":17561:17578   */\n      add\n        /* \"#utility.yul\":17554:17601   */\n      mstore\n        /* \"#utility.yul\":17618:17749   */\n      tag_348\n        /* \"#utility.yul\":17744:17748   */\n      dup2\n        /* \"#utility.yul\":17618:17749   */\n      tag_156\n      jump\t// in\n    tag_348:\n        /* \"#utility.yul\":17610:17749   */\n      swap1\n      pop\n        /* \"#utility.yul\":17337:17756   */\n      swap2\n      swap1\n      pop\n      jump\t// out\n        /* \"#utility.yul\":17786:18617   */\n    tag_157:\n        /* \"#utility.yul\":17871:17874   */\n      0x00\n        /* \"#utility.yul\":17908:17913   */\n      dup2\n        /* \"#utility.yul\":17902:17914   */\n      sload\n        /* \"#utility.yul\":17937:17973   */\n      tag_350\n        /* \"#utility.yul\":17963:17972   */\n      dup2\n        /* \"#utility.yul\":17937:17973   */\n      tag_64\n      jump\t// in\n    tag_350:\n        /* \"#utility.yul\":17989:18060   */\n      tag_351\n        /* \"#utility.yul\":18053:18059   */\n      dup2\n        /* \"#utility.yul\":18048:18051   */\n      dup7\n        /* \"#utility.yul\":17989:18060   */\n      tag_118\n      jump\t// in\n    tag_351:\n        /* \"#utility.yul\":17982:18060   */\n      swap5\n      pop\n        /* \"#utility.yul\":18091:18092   */\n      0x01\n        /* \"#utility.yul\":18080:18089   */\n      dup3\n        /* \"#utility.yul\":18076:18093   */\n      and\n        /* \"#utility.yul\":18107:18108   */\n      0x00\n        /* \"#utility.yul\":18102:18266   */\n      dup2\n      eq\n      tag_353\n      jumpi\n        /* \"#utility.yul\":18280:18281   */\n      0x01\n        /* \"#utility.yul\":18275:18611   */\n      dup2\n      eq\n      tag_354\n      jumpi\n        /* \"#utility.yul\":18069:18611   */\n      jump(tag_352)\n        /* \"#utility.yul\":18102:18266   */\n    tag_353:\n        /* \"#utility.yul\":18186:18190   */\n      0xff\n        /* \"#utility.yul\":18182:18191   */\n      not\n        /* \"#utility.yul\":18171:18180   */\n      dup4\n        /* \"#utility.yul\":18167:18192   */\n      and\n        /* \"#utility.yul\":18162:18165   */\n      dup7\n        /* \"#utility.yul\":18155:18193   */\n      mstore\n        /* \"#utility.yul\":18246:18252   */\n      dup2\n        /* \"#utility.yul\":18239:18253   */\n      iszero\n        /* \"#utility.yul\":18232:18254   */\n      iszero\n        /* \"#utility.yul\":18226:18230   */\n      0x20\n        /* \"#utility.yul\":18222:18255   */\n      mul\n        /* \"#utility.yul\":18217:18220   */\n      dup7\n        /* \"#utility.yul\":18213:18256   */\n      add\n        /* \"#utility.yul\":18206:18256   */\n      swap4\n      pop\n        /* \"#utility.yul\":18102:18266   */\n      jump(tag_352)\n        /* \"#utility.yul\":18275:18611   */\n    tag_354:\n        /* \"#utility.yul\":18342:18380   */\n      tag_355\n        /* \"#utility.yul\":18374:18379   */\n      dup6\n        /* \"#utility.yul\":18342:18380   */\n      tag_139\n      jump\t// in\n    tag_355:\n        /* \"#utility.yul\":18402:18403   */\n      0x00\n        /* \"#utility.yul\":18416:18570   */\n    tag_356:\n        /* \"#utility.yul\":18430:18436   */\n      dup4\n        /* \"#utility.yul\":18427:18428   */\n      dup2\n        /* \"#utility.yul\":18424:18437   */\n      lt\n        /* \"#utility.yul\":18416:18570   */\n      iszero\n      tag_358\n      jumpi\n        /* \"#utility.yul\":18504:18511   */\n      dup2\n        /* \"#utility.yul\":18498:18512   */\n      sload\n        /* \"#utility.yul\":18494:18495   */\n      dup2\n        /* \"#utility.yul\":18489:18492   */\n      dup10\n        /* \"#utility.yul\":18485:18496   */\n      add\n        /* \"#utility.yul\":18478:18513   */\n      mstore\n        /* \"#utility.yul\":18554:18555   */\n      0x01\n        /* \"#utility.yul\":18545:18552   */\n      dup3\n        /* \"#utility.yul\":18541:18556   */\n      add\n        /* \"#utility.yul\":18530:18556   */\n      swap2\n      pop\n        /* \"#utility.yul\":18452:18456   */\n      0x20\n        /* \"#utility.yul\":18449:18450   */\n      dup2\n        /* \"#utility.yul\":18445:18457   */\n      add\n        /* \"#utility.yul\":18440:18457   */\n      swap1\n      pop\n        /* \"#utility.yul\":18416:18570   */\n      jump(tag_356)\n    tag_358:\n        /* \"#utility.yul\":18599:18600   */\n      dup1\n        /* \"#utility.yul\":18594:18597   */\n      dup9\n        /* \"#utility.yul\":18590:18601   */\n      add\n        /* \"#utility.yul\":18583:18601   */\n      swap6\n      pop\n        /* \"#utility.yul\":18282:18611   */\n      pop\n      pop\n        /* \"#utility.yul\":18069:18611   */\n    tag_352:\n      pop\n        /* \"#utility.yul\":17875:18617   */\n      pop\n      pop\n        /* \"#utility.yul\":17786:18617   */\n      swap3\n      swap2\n      pop\n      pop\n      jump\t// out\n        /* \"#utility.yul\":18623:19131   */\n    tag_82:\n        /* \"#utility.yul\":18781:18785   */\n      0x00\n        /* \"#utility.yul\":18819:18821   */\n      0x40\n        /* \"#utility.yul\":18808:18817   */\n      dup3\n        /* \"#utility.yul\":18804:18822   */\n      add\n        /* \"#utility.yul\":18796:18822   */\n      swap1\n      pop\n        /* \"#utility.yul\":18868:18877   */\n      dup2\n        /* \"#utility.yul\":18862:18866   */\n      dup2\n        /* \"#utility.yul\":18858:18878   */\n      sub\n        /* \"#utility.yul\":18854:18855   */\n      0x00\n        /* \"#utility.yul\":18843:18852   */\n      dup4\n        /* \"#utility.yul\":18839:18856   */\n      add\n        /* \"#utility.yul\":18832:18879   */\n      mstore\n        /* \"#utility.yul\":18896:18971   */\n      tag_360\n        /* \"#utility.yul\":18966:18970   */\n      dup2\n        /* \"#utility.yul\":18957:18963   */\n      dup6\n        /* \"#utility.yul\":18896:18971   */\n      tag_157\n      jump\t// in\n    tag_360:\n        /* \"#utility.yul\":18888:18971   */\n      swap1\n      pop\n        /* \"#utility.yul\":19018:19027   */\n      dup2\n        /* \"#utility.yul\":19012:19016   */\n      dup2\n        /* \"#utility.yul\":19008:19028   */\n      sub\n        /* \"#utility.yul\":19003:19005   */\n      0x20\n        /* \"#utility.yul\":18992:19001   */\n      dup4\n        /* \"#utility.yul\":18988:19006   */\n      add\n        /* \"#utility.yul\":18981:19029   */\n      mstore\n        /* \"#utility.yul\":19046:19124   */\n      tag_361\n        /* \"#utility.yul\":19119:19123   */\n      dup2\n        /* \"#utility.yul\":19110:19116   */\n      dup5\n        /* \"#utility.yul\":19046:19124   */\n      tag_120\n      jump\t// in\n    tag_361:\n        /* \"#utility.yul\":19038:19124   */\n      swap1\n      pop\n        /* \"#utility.yul\":18623:19131   */\n      swap4\n      swap3\n      pop\n      pop\n      pop\n      jump\t// out\n\n    auxdata: 0xa2646970667358221220921d3ae55360da8e756ae453e8d21025cef1e096572f1009525474fbc8802b1864736f6c63430008110033\n}\n",
				"bytecode": {
					"linkReferences": {},
					"object": "608060405234801561001057600080fd5b5033600160006101000a81548173ffffffffffffffffffffffffffffffffffffffff021916908373ffffffffffffffffffffffffffffffffffffffff1602179055506001600260003373ffffffffffffffffffffffffffffffffffffffff1673ffffffffffffffffffffffffffffffffffffffff16815260200190815260200160002060006101000a81548160ff0219169083151502179055506111cd806100b96000396000f3fe608060405234801561001057600080fd5b50600436106100885760003560e01c80638da5cb5b1161005b5780638da5cb5b14610139578063b682000214610157578063ca6d56dc14610173578063d03d58491461018f57610088565b80630bf803e41461008d5780631a3cd59a146100bd5780631f81595d146100ed578063372c12b114610109575b600080fd5b6100a760048036038101906100a291906108a8565b6101ad565b6040516100b4919061090a565b60405180910390f35b6100d760048036038101906100d29190610951565b610290565b6040516100e491906109fd565b60405180910390f35b61010760048036038101906101029190610a7d565b610340565b005b610123600480360381019061011e9190610a7d565b61042b565b6040516101309190610ac5565b60405180910390f35b61014161044b565b60405161014e9190610aef565b60405180910390f35b610171600480360381019061016c9190610b0a565b610471565b005b61018d60048036038101906101889190610a7d565b61058a565b005b610197610675565b6040516101a49190610c72565b60405180910390f35b600060011515600260003373ffffffffffffffffffffffffffffffffffffffff1673ffffffffffffffffffffffffffffffffffffffff16815260200190815260200160002060009054906101000a900460ff16151514610242576040517f08c379a000000000000000000000000000000000000000000000000000000000815260040161023990610ce0565b60405180910390fd5b6000829080600181540180825580915050600190039060005260206000200160009091909190915090816102769190610f0c565b506001600080549050610289919061100d565b9050919050565b6060600082815481106102a6576102a5611041565b5b9060005260206000200180546102bb90610d2f565b80601f01602080910402602001604051908101604052809291908181526020018280546102e790610d2f565b80156103345780601f1061030957610100808354040283529160200191610334565b820191906000526020600020905b81548152906001019060200180831161031757829003601f168201915b50505050509050919050565b600160009054906101000a900473ffffffffffffffffffffffffffffffffffffffff1673ffffffffffffffffffffffffffffffffffffffff163373ffffffffffffffffffffffffffffffffffffffff16146103d0576040517f08c379a00000000000000000000000000000000000000000000000000000000081526004016103c7906110bc565b60405180910390fd5b6000600260008373ffffffffffffffffffffffffffffffffffffffff1673ffffffffffffffffffffffffffffffffffffffff16815260200190815260200160002060006101000a81548160ff02191690831515021790555050565b60026020528060005260406000206000915054906101000a900460ff1681565b600160009054906101000a900473ffffffffffffffffffffffffffffffffffffffff1681565b60011515600260003373ffffffffffffffffffffffffffffffffffffffff1673ffffffffffffffffffffffffffffffffffffffff16815260200190815260200160002060009054906101000a900460ff16151514610504576040517f08c379a00000000000000000000000000000000000000000000000000000000081526004016104fb90610ce0565b60405180910390fd5b7f305058d54db6daf26994cd687b168a24cdd9a7201462f1659782c4e4299879926000838154811061053957610538611041565b5b9060005260206000200182604051610552929190611160565b60405180910390a1806000838154811061056f5761056e611041565b5b9060005260206000200190816105859190610f0c565b505050565b600160009054906101000a900473ffffffffffffffffffffffffffffffffffffffff1673ffffffffffffffffffffffffffffffffffffffff163373ffffffffffffffffffffffffffffffffffffffff161461061a576040517f08c379a0000000000000000000000000000000000000000000000000000000008152600401610611906110bc565b60405180910390fd5b6001600260008373ffffffffffffffffffffffffffffffffffffffff1673ffffffffffffffffffffffffffffffffffffffff16815260200190815260200160002060006101000a81548160ff02191690831515021790555050565b60606000805480602002602001604051908101604052809291908181526020016000905b828210156107455783829060005260206000200180546106b890610d2f565b80601f01602080910402602001604051908101604052809291908181526020018280546106e490610d2f565b80156107315780601f1061070657610100808354040283529160200191610731565b820191906000526020600020905b81548152906001019060200180831161071457829003601f168201915b505050505081526020019060010190610699565b50505050905090565b6000604051905090565b600080fd5b600080fd5b600080fd5b600080fd5b6000601f19601f8301169050919050565b7f4e487b7100000000000000000000000000000000000000000000000000000000600052604160045260246000fd5b6107b58261076c565b810181811067ffffffffffffffff821117156107d4576107d361077d565b5b80604052505050565b60006107e761074e565b90506107f382826107ac565b919050565b600067ffffffffffffffff8211156108135761081261077d565b5b61081c8261076c565b9050602081019050919050565b82818337600083830152505050565b600061084b610846846107f8565b6107dd565b90508281526020810184848401111561086757610866610767565b5b610872848285610829565b509392505050565b600082601f83011261088f5761088e610762565b5b813561089f848260208601610838565b91505092915050565b6000602082840312156108be576108bd610758565b5b600082013567ffffffffffffffff8111156108dc576108db61075d565b5b6108e88482850161087a565b91505092915050565b6000819050919050565b610904816108f1565b82525050565b600060208201905061091f60008301846108fb565b92915050565b61092e816108f1565b811461093957600080fd5b50565b60008135905061094b81610925565b92915050565b60006020828403121561096757610966610758565b5b60006109758482850161093c565b91505092915050565b600081519050919050565b600082825260208201905092915050565b60005b838110156109b857808201518184015260208101905061099d565b60008484015250505050565b60006109cf8261097e565b6109d98185610989565b93506109e981856020860161099a565b6109f28161076c565b840191505092915050565b60006020820190508181036000830152610a1781846109c4565b905092915050565b600073ffffffffffffffffffffffffffffffffffffffff82169050919050565b6000610a4a82610a1f565b9050919050565b610a5a81610a3f565b8114610a6557600080fd5b50565b600081359050610a7781610a51565b92915050565b600060208284031215610a9357610a92610758565b5b6000610aa184828501610a68565b91505092915050565b60008115159050919050565b610abf81610aaa565b82525050565b6000602082019050610ada6000830184610ab6565b92915050565b610ae981610a3f565b82525050565b6000602082019050610b046000830184610ae0565b92915050565b60008060408385031215610b2157610b20610758565b5b6000610b2f8582860161093c565b925050602083013567ffffffffffffffff811115610b5057610b4f61075d565b5b610b5c8582860161087a565b9150509250929050565b600081519050919050565b600082825260208201905092915050565b6000819050602082019050919050565b600082825260208201905092915050565b6000610bae8261097e565b610bb88185610b92565b9350610bc881856020860161099a565b610bd18161076c565b840191505092915050565b6000610be88383610ba3565b905092915050565b6000602082019050919050565b6000610c0882610b66565b610c128185610b71565b935083602082028501610c2485610b82565b8060005b85811015610c605784840389528151610c418582610bdc565b9450610c4c83610bf0565b925060208a01995050600181019050610c28565b50829750879550505050505092915050565b60006020820190508181036000830152610c8c8184610bfd565b905092915050565b7f4f6e6c792077686974656c697374000000000000000000000000000000000000600082015250565b6000610cca600e83610989565b9150610cd582610c94565b602082019050919050565b60006020820190508181036000830152610cf981610cbd565b9050919050565b7f4e487b7100000000000000000000000000000000000000000000000000000000600052602260045260246000fd5b60006002820490506001821680610d4757607f821691505b602082108103610d5a57610d59610d00565b5b50919050565b60008190508160005260206000209050919050565b60006020601f8301049050919050565b600082821b905092915050565b600060088302610dc27fffffffffffffffffffffffffffffffffffffffffffffffffffffffffffffffff82610d85565b610dcc8683610d85565b95508019841693508086168417925050509392505050565b6000819050919050565b6000610e09610e04610dff846108f1565b610de4565b6108f1565b9050919050565b6000819050919050565b610e2383610dee565b610e37610e2f82610e10565b848454610d92565b825550505050565b600090565b610e4c610e3f565b610e57818484610e1a565b505050565b5b81811015610e7b57610e70600082610e44565b600181019050610e5d565b5050565b601f821115610ec057610e9181610d60565b610e9a84610d75565b81016020851015610ea9578190505b610ebd610eb585610d75565b830182610e5c565b50505b505050565b600082821c905092915050565b6000610ee360001984600802610ec5565b1980831691505092915050565b6000610efc8383610ed2565b9150826002028217905092915050565b610f158261097e565b67ffffffffffffffff811115610f2e57610f2d61077d565b5b610f388254610d2f565b610f43828285610e7f565b600060209050601f831160018114610f765760008415610f64578287015190505b610f6e8582610ef0565b865550610fd6565b601f198416610f8486610d60565b60005b82811015610fac57848901518255600182019150602085019450602081019050610f87565b86831015610fc95784890151610fc5601f891682610ed2565b8355505b6001600288020188555050505b505050505050565b7f4e487b7100000000000000000000000000000000000000000000000000000000600052601160045260246000fd5b6000611018826108f1565b9150611023836108f1565b925082820390508181111561103b5761103a610fde565b5b92915050565b7f4e487b7100000000000000000000000000000000000000000000000000000000600052603260045260246000fd5b7f4f6e6c79206f776e657200000000000000000000000000000000000000000000600082015250565b60006110a6600a83610989565b91506110b182611070565b602082019050919050565b600060208201905081810360008301526110d581611099565b9050919050565b600081546110e981610d2f565b6110f38186610989565b9450600182166000811461110e576001811461112457611157565b60ff198316865281151560200286019350611157565b61112d85610d60565b60005b8381101561114f57815481890152600182019150602081019050611130565b808801955050505b50505092915050565b6000604082019050818103600083015261117a81856110dc565b9050818103602083015261118e81846109c4565b9050939250505056fea2646970667358221220921d3ae55360da8e756ae453e8d21025cef1e096572f1009525474fbc8802b1864736f6c63430008110033",
					"opcodes": "PUSH1 0x80 PUSH1 0x40 MSTORE CALLVALUE DUP1 ISZERO PUSH2 0x10 JUMPI PUSH1 0x0 DUP1 REVERT JUMPDEST POP CALLER PUSH1 0x1 PUSH1 0x0 PUSH2 0x100 EXP DUP2 SLOAD DUP2 PUSH20 0xFFFFFFFFFFFFFFFFFFFFFFFFFFFFFFFFFFFFFFFF MUL NOT AND SWAP1 DUP4 PUSH20 0xFFFFFFFFFFFFFFFFFFFFFFFFFFFFFFFFFFFFFFFF AND MUL OR SWAP1 SSTORE POP PUSH1 0x1 PUSH1 0x2 PUSH1 0x0 CALLER PUSH20 0xFFFFFFFFFFFFFFFFFFFFFFFFFFFFFFFFFFFFFFFF AND PUSH20 0xFFFFFFFFFFFFFFFFFFFFFFFFFFFFFFFFFFFFFFFF AND DUP2 MSTORE PUSH1 0x20 ADD SWAP1 DUP2 MSTORE PUSH1 0x20 ADD PUSH1 0x0 KECCAK256 PUSH1 0x0 PUSH2 0x100 EXP DUP2 SLOAD DUP2 PUSH1 0xFF MUL NOT AND SWAP1 DUP4 ISZERO ISZERO MUL OR SWAP1 SSTORE POP PUSH2 0x11CD DUP1 PUSH2 0xB9 PUSH1 0x0 CODECOPY PUSH1 0x0 RETURN INVALID PUSH1 0x80 PUSH1 0x40 MSTORE CALLVALUE DUP1 ISZERO PUSH2 0x10 JUMPI PUSH1 0x0 DUP1 REVERT JUMPDEST POP PUSH1 0x4 CALLDATASIZE LT PUSH2 0x88 JUMPI PUSH1 0x0 CALLDATALOAD PUSH1 0xE0 SHR DUP1 PUSH4 0x8DA5CB5B GT PUSH2 0x5B JUMPI DUP1 PUSH4 0x8DA5CB5B EQ PUSH2 0x139 JUMPI DUP1 PUSH4 0xB6820002 EQ PUSH2 0x157 JUMPI DUP1 PUSH4 0xCA6D56DC EQ PUSH2 0x173 JUMPI DUP1 PUSH4 0xD03D5849 EQ PUSH2 0x18F JUMPI PUSH2 0x88 JUMP JUMPDEST DUP1 PUSH4 0xBF803E4 EQ PUSH2 0x8D JUMPI DUP1 PUSH4 0x1A3CD59A EQ PUSH2 0xBD JUMPI DUP1 PUSH4 0x1F81595D EQ PUSH2 0xED JUMPI DUP1 PUSH4 0x372C12B1 EQ PUSH2 0x109 JUMPI JUMPDEST PUSH1 0x0 DUP1 REVERT JUMPDEST PUSH2 0xA7 PUSH1 0x4 DUP1 CALLDATASIZE SUB DUP2 ADD SWAP1 PUSH2 0xA2 SWAP2 SWAP1 PUSH2 0x8A8 JUMP JUMPDEST PUSH2 0x1AD JUMP JUMPDEST PUSH1 0x40 MLOAD PUSH2 0xB4 SWAP2 SWAP1 PUSH2 0x90A JUMP JUMPDEST PUSH1 0x40 MLOAD DUP1 SWAP2 SUB SWAP1 RETURN JUMPDEST PUSH2 0xD7 PUSH1 0x4 DUP1 CALLDATASIZE SUB DUP2 ADD SWAP1 PUSH2 0xD2 SWAP2 SWAP1 PUSH2 0x951 JUMP JUMPDEST PUSH2 0x290 JUMP JUMPDEST PUSH1 0x40 MLOAD PUSH2 0xE4 SWAP2 SWAP1 PUSH2 0x9FD JUMP JUMPDEST PUSH1 0x40 MLOAD DUP1 SWAP2 SUB SWAP1 RETURN JUMPDEST PUSH2 0x107 PUSH1 0x4 DUP1 CALLDATASIZE SUB DUP2 ADD SWAP1 PUSH2 0x102 SWAP2 SWAP1 PUSH2 0xA7D JUMP JUMPDEST PUSH2 0x340 JUMP JUMPDEST STOP JUMPDEST PUSH2 0x123 PUSH1 0x4 DUP1 CALLDATASIZE SUB DUP2 ADD SWAP1 PUSH2 0x11E SWAP2 SWAP1 PUSH2 0xA7D JUMP JUMPDEST PUSH2 0x42B JUMP JUMPDEST PUSH1 0x40 MLOAD PUSH2 0x130 SWAP2 SWAP1 PUSH2 0xAC5 JUMP JUMPDEST PUSH1 0x40 MLOAD DUP1 SWAP2 SUB SWAP1 RETURN JUMPDEST PUSH2 0x141 PUSH2 0x44B JUMP JUMPDEST PUSH1 0x40 MLOAD PUSH2 0x14E SWAP2 SWAP1 PUSH2 0xAEF JUMP JUMPDEST PUSH1 0x40 MLOAD DUP1 SWAP2 SUB SWAP1 RETURN JUMPDEST PUSH2 0x171 PUSH1 0x4 DUP1 CALLDATASIZE SUB DUP2 ADD SWAP1 PUSH2 0x16C SWAP2 SWAP1 PUSH2 0xB0A JUMP JUMPDEST PUSH2 0x471 JUMP JUMPDEST STOP JUMPDEST PUSH2 0x18D PUSH1 0x4 DUP1 CALLDATASIZE SUB DUP2 ADD SWAP1 PUSH2 0x188 SWAP2 SWAP1 PUSH2 0xA7D JUMP JUMPDEST PUSH2 0x58A JUMP JUMPDEST STOP JUMPDEST PUSH2 0x197 PUSH2 0x675 JUMP JUMPDEST PUSH1 0x40 MLOAD PUSH2 0x1A4 SWAP2 SWAP1 PUSH2 0xC72 JUMP JUMPDEST PUSH1 0x40 MLOAD DUP1 SWAP2 SUB SWAP1 RETURN JUMPDEST PUSH1 0x0 PUSH1 0x1 ISZERO ISZERO PUSH1 0x2 PUSH1 0x0 CALLER PUSH20 0xFFFFFFFFFFFFFFFFFFFFFFFFFFFFFFFFFFFFFFFF AND PUSH20 0xFFFFFFFFFFFFFFFFFFFFFFFFFFFFFFFFFFFFFFFF AND DUP2 MSTORE PUSH1 0x20 ADD SWAP1 DUP2 MSTORE PUSH1 0x20 ADD PUSH1 0x0 KECCAK256 PUSH1 0x0 SWAP1 SLOAD SWAP1 PUSH2 0x100 EXP SWAP1 DIV PUSH1 0xFF AND ISZERO ISZERO EQ PUSH2 0x242 JUMPI PUSH1 0x40 MLOAD PUSH32 0x8C379A000000000000000000000000000000000000000000000000000000000 DUP2 MSTORE PUSH1 0x4 ADD PUSH2 0x239 SWAP1 PUSH2 0xCE0 JUMP JUMPDEST PUSH1 0x40 MLOAD DUP1 SWAP2 SUB SWAP1 REVERT JUMPDEST PUSH1 0x0 DUP3 SWAP1 DUP1 PUSH1 0x1 DUP2 SLOAD ADD DUP1 DUP3 SSTORE DUP1 SWAP2 POP POP PUSH1 0x1 SWAP1 SUB SWAP1 PUSH1 0x0 MSTORE PUSH1 0x20 PUSH1 0x0 KECCAK256 ADD PUSH1 0x0 SWAP1 SWAP2 SWAP1 SWAP2 SWAP1 SWAP2 POP SWAP1 DUP2 PUSH2 0x276 SWAP2 SWAP1 PUSH2 0xF0C JUMP JUMPDEST POP PUSH1 0x1 PUSH1 0x0 DUP1 SLOAD SWAP1 POP PUSH2 0x289 SWAP2 SWAP1 PUSH2 0x100D JUMP JUMPDEST SWAP1 POP SWAP2 SWAP1 POP JUMP JUMPDEST PUSH1 0x60 PUSH1 0x0 DUP3 DUP2 SLOAD DUP2 LT PUSH2 0x2A6 JUMPI PUSH2 0x2A5 PUSH2 0x1041 JUMP JUMPDEST JUMPDEST SWAP1 PUSH1 0x0 MSTORE PUSH1 0x20 PUSH1 0x0 KECCAK256 ADD DUP1 SLOAD PUSH2 0x2BB SWAP1 PUSH2 0xD2F JUMP JUMPDEST DUP1 PUSH1 0x1F ADD PUSH1 0x20 DUP1 SWAP2 DIV MUL PUSH1 0x20 ADD PUSH1 0x40 MLOAD SWAP1 DUP2 ADD PUSH1 0x40 MSTORE DUP1 SWAP3 SWAP2 SWAP1 DUP2 DUP2 MSTORE PUSH1 0x20 ADD DUP3 DUP1 SLOAD PUSH2 0x2E7 SWAP1 PUSH2 0xD2F JUMP JUMPDEST DUP1 ISZERO PUSH2 0x334 JUMPI DUP1 PUSH1 0x1F LT PUSH2 0x309 JUMPI PUSH2 0x100 DUP1 DUP4 SLOAD DIV MUL DUP4 MSTORE SWAP2 PUSH1 0x20 ADD SWAP2 PUSH2 0x334 JUMP JUMPDEST DUP3 ADD SWAP2 SWAP1 PUSH1 0x0 MSTORE PUSH1 0x20 PUSH1 0x0 KECCAK256 SWAP1 JUMPDEST DUP2 SLOAD DUP2 MSTORE SWAP1 PUSH1 0x1 ADD SWAP1 PUSH1 0x20 ADD DUP1 DUP4 GT PUSH2 0x317 JUMPI DUP3 SWAP1 SUB PUSH1 0x1F AND DUP3 ADD SWAP2 JUMPDEST POP POP POP POP POP SWAP1 POP SWAP2 SWAP1 POP JUMP JUMPDEST PUSH1 0x1 PUSH1 0x0 SWAP1 SLOAD SWAP1 PUSH2 0x100 EXP SWAP1 DIV PUSH20 0xFFFFFFFFFFFFFFFFFFFFFFFFFFFFFFFFFFFFFFFF AND PUSH20 0xFFFFFFFFFFFFFFFFFFFFFFFFFFFFFFFFFFFFFFFF AND CALLER PUSH20 0xFFFFFFFFFFFFFFFFFFFFFFFFFFFFFFFFFFFFFFFF AND EQ PUSH2 0x3D0 JUMPI PUSH1 0x40 MLOAD PUSH32 0x8C379A000000000000000000000000000000000000000000000000000000000 DUP2 MSTORE PUSH1 0x4 ADD PUSH2 0x3C7 SWAP1 PUSH2 0x10BC JUMP JUMPDEST PUSH1 0x40 MLOAD DUP1 SWAP2 SUB SWAP1 REVERT JUMPDEST PUSH1 0x0 PUSH1 0x2 PUSH1 0x0 DUP4 PUSH20 0xFFFFFFFFFFFFFFFFFFFFFFFFFFFFFFFFFFFFFFFF AND PUSH20 0xFFFFFFFFFFFFFFFFFFFFFFFFFFFFFFFFFFFFFFFF AND DUP2 MSTORE PUSH1 0x20 ADD SWAP1 DUP2 MSTORE PUSH1 0x20 ADD PUSH1 0x0 KECCAK256 PUSH1 0x0 PUSH2 0x100 EXP DUP2 SLOAD DUP2 PUSH1 0xFF MUL NOT AND SWAP1 DUP4 ISZERO ISZERO MUL OR SWAP1 SSTORE POP POP JUMP JUMPDEST PUSH1 0x2 PUSH1 0x20 MSTORE DUP1 PUSH1 0x0 MSTORE PUSH1 0x40 PUSH1 0x0 KECCAK256 PUSH1 0x0 SWAP2 POP SLOAD SWAP1 PUSH2 0x100 EXP SWAP1 DIV PUSH1 0xFF AND DUP2 JUMP JUMPDEST PUSH1 0x1 PUSH1 0x0 SWAP1 SLOAD SWAP1 PUSH2 0x100 EXP SWAP1 DIV PUSH20 0xFFFFFFFFFFFFFFFFFFFFFFFFFFFFFFFFFFFFFFFF AND DUP2 JUMP JUMPDEST PUSH1 0x1 ISZERO ISZERO PUSH1 0x2 PUSH1 0x0 CALLER PUSH20 0xFFFFFFFFFFFFFFFFFFFFFFFFFFFFFFFFFFFFFFFF AND PUSH20 0xFFFFFFFFFFFFFFFFFFFFFFFFFFFFFFFFFFFFFFFF AND DUP2 MSTORE PUSH1 0x20 ADD SWAP1 DUP2 MSTORE PUSH1 0x20 ADD PUSH1 0x0 KECCAK256 PUSH1 0x0 SWAP1 SLOAD SWAP1 PUSH2 0x100 EXP SWAP1 DIV PUSH1 0xFF AND ISZERO ISZERO EQ PUSH2 0x504 JUMPI PUSH1 0x40 MLOAD PUSH32 0x8C379A000000000000000000000000000000000000000000000000000000000 DUP2 MSTORE PUSH1 0x4 ADD PUSH2 0x4FB SWAP1 PUSH2 0xCE0 JUMP JUMPDEST PUSH1 0x40 MLOAD DUP1 SWAP2 SUB SWAP1 REVERT JUMPDEST PUSH32 0x305058D54DB6DAF26994CD687B168A24CDD9A7201462F1659782C4E429987992 PUSH1 0x0 DUP4 DUP2 SLOAD DUP2 LT PUSH2 0x539 JUMPI PUSH2 0x538 PUSH2 0x1041 JUMP JUMPDEST JUMPDEST SWAP1 PUSH1 0x0 MSTORE PUSH1 0x20 PUSH1 0x0 KECCAK256 ADD DUP3 PUSH1 0x40 MLOAD PUSH2 0x552 SWAP3 SWAP2 SWAP1 PUSH2 0x1160 JUMP JUMPDEST PUSH1 0x40 MLOAD DUP1 SWAP2 SUB SWAP1 LOG1 DUP1 PUSH1 0x0 DUP4 DUP2 SLOAD DUP2 LT PUSH2 0x56F JUMPI PUSH2 0x56E PUSH2 0x1041 JUMP JUMPDEST JUMPDEST SWAP1 PUSH1 0x0 MSTORE PUSH1 0x20 PUSH1 0x0 KECCAK256 ADD SWAP1 DUP2 PUSH2 0x585 SWAP2 SWAP1 PUSH2 0xF0C JUMP JUMPDEST POP POP POP JUMP JUMPDEST PUSH1 0x1 PUSH1 0x0 SWAP1 SLOAD SWAP1 PUSH2 0x100 EXP SWAP1 DIV PUSH20 0xFFFFFFFFFFFFFFFFFFFFFFFFFFFFFFFFFFFFFFFF AND PUSH20 0xFFFFFFFFFFFFFFFFFFFFFFFFFFFFFFFFFFFFFFFF AND CALLER PUSH20 0xFFFFFFFFFFFFFFFFFFFFFFFFFFFFFFFFFFFFFFFF AND EQ PUSH2 0x61A JUMPI PUSH1 0x40 MLOAD PUSH32 0x8C379A000000000000000000000000000000000000000000000000000000000 DUP2 MSTORE PUSH1 0x4 ADD PUSH2 0x611 SWAP1 PUSH2 0x10BC JUMP JUMPDEST PUSH1 0x40 MLOAD DUP1 SWAP2 SUB SWAP1 REVERT JUMPDEST PUSH1 0x1 PUSH1 0x2 PUSH1 0x0 DUP4 PUSH20 0xFFFFFFFFFFFFFFFFFFFFFFFFFFFFFFFFFFFFFFFF AND PUSH20 0xFFFFFFFFFFFFFFFFFFFFFFFFFFFFFFFFFFFFFFFF AND DUP2 MSTORE PUSH1 0x20 ADD SWAP1 DUP2 MSTORE PUSH1 0x20 ADD PUSH1 0x0 KECCAK256 PUSH1 0x0 PUSH2 0x100 EXP DUP2 SLOAD DUP2 PUSH1 0xFF MUL NOT AND SWAP1 DUP4 ISZERO ISZERO MUL OR SWAP1 SSTORE POP POP JUMP JUMPDEST PUSH1 0x60 PUSH1 0x0 DUP1 SLOAD DUP1 PUSH1 0x20 MUL PUSH1 0x20 ADD PUSH1 0x40 MLOAD SWAP1 DUP2 ADD PUSH1 0x40 MSTORE DUP1 SWAP3 SWAP2 SWAP1 DUP2 DUP2 MSTORE PUSH1 0x20 ADD PUSH1 0x0 SWAP1 JUMPDEST DUP3 DUP3 LT ISZERO PUSH2 0x745 JUMPI DUP4 DUP3 SWAP1 PUSH1 0x0 MSTORE PUSH1 0x20 PUSH1 0x0 KECCAK256 ADD DUP1 SLOAD PUSH2 0x6B8 SWAP1 PUSH2 0xD2F JUMP JUMPDEST DUP1 PUSH1 0x1F ADD PUSH1 0x20 DUP1 SWAP2 DIV MUL PUSH1 0x20 ADD PUSH1 0x40 MLOAD SWAP1 DUP2 ADD PUSH1 0x40 MSTORE DUP1 SWAP3 SWAP2 SWAP1 DUP2 DUP2 MSTORE PUSH1 0x20 ADD DUP3 DUP1 SLOAD PUSH2 0x6E4 SWAP1 PUSH2 0xD2F JUMP JUMPDEST DUP1 ISZERO PUSH2 0x731 JUMPI DUP1 PUSH1 0x1F LT PUSH2 0x706 JUMPI PUSH2 0x100 DUP1 DUP4 SLOAD DIV MUL DUP4 MSTORE SWAP2 PUSH1 0x20 ADD SWAP2 PUSH2 0x731 JUMP JUMPDEST DUP3 ADD SWAP2 SWAP1 PUSH1 0x0 MSTORE PUSH1 0x20 PUSH1 0x0 KECCAK256 SWAP1 JUMPDEST DUP2 SLOAD DUP2 MSTORE SWAP1 PUSH1 0x1 ADD SWAP1 PUSH1 0x20 ADD DUP1 DUP4 GT PUSH2 0x714 JUMPI DUP3 SWAP1 SUB PUSH1 0x1F AND DUP3 ADD SWAP2 JUMPDEST POP POP POP POP POP DUP2 MSTORE PUSH1 0x20 ADD SWAP1 PUSH1 0x1 ADD SWAP1 PUSH2 0x699 JUMP JUMPDEST POP POP POP POP SWAP1 POP SWAP1 JUMP JUMPDEST PUSH1 0x0 PUSH1 0x40 MLOAD SWAP1 POP SWAP1 JUMP JUMPDEST PUSH1 0x0 DUP1 REVERT JUMPDEST PUSH1 0x0 DUP1 REVERT JUMPDEST PUSH1 0x0 DUP1 REVERT JUMPDEST PUSH1 0x0 DUP1 REVERT JUMPDEST PUSH1 0x0 PUSH1 0x1F NOT PUSH1 0x1F DUP4 ADD AND SWAP1 POP SWAP2 SWAP1 POP JUMP JUMPDEST PUSH32 0x4E487B7100000000000000000000000000000000000000000000000000000000 PUSH1 0x0 MSTORE PUSH1 0x41 PUSH1 0x4 MSTORE PUSH1 0x24 PUSH1 0x0 REVERT JUMPDEST PUSH2 0x7B5 DUP3 PUSH2 0x76C JUMP JUMPDEST DUP2 ADD DUP2 DUP2 LT PUSH8 0xFFFFFFFFFFFFFFFF DUP3 GT OR ISZERO PUSH2 0x7D4 JUMPI PUSH2 0x7D3 PUSH2 0x77D JUMP JUMPDEST JUMPDEST DUP1 PUSH1 0x40 MSTORE POP POP POP JUMP JUMPDEST PUSH1 0x0 PUSH2 0x7E7 PUSH2 0x74E JUMP JUMPDEST SWAP1 POP PUSH2 0x7F3 DUP3 DUP3 PUSH2 0x7AC JUMP JUMPDEST SWAP2 SWAP1 POP JUMP JUMPDEST PUSH1 0x0 PUSH8 0xFFFFFFFFFFFFFFFF DUP3 GT ISZERO PUSH2 0x813 JUMPI PUSH2 0x812 PUSH2 0x77D JUMP JUMPDEST JUMPDEST PUSH2 0x81C DUP3 PUSH2 0x76C JUMP JUMPDEST SWAP1 POP PUSH1 0x20 DUP2 ADD SWAP1 POP SWAP2 SWAP1 POP JUMP JUMPDEST DUP3 DUP2 DUP4 CALLDATACOPY PUSH1 0x0 DUP4 DUP4 ADD MSTORE POP POP POP JUMP JUMPDEST PUSH1 0x0 PUSH2 0x84B PUSH2 0x846 DUP5 PUSH2 0x7F8 JUMP JUMPDEST PUSH2 0x7DD JUMP JUMPDEST SWAP1 POP DUP3 DUP2 MSTORE PUSH1 0x20 DUP2 ADD DUP5 DUP5 DUP5 ADD GT ISZERO PUSH2 0x867 JUMPI PUSH2 0x866 PUSH2 0x767 JUMP JUMPDEST JUMPDEST PUSH2 0x872 DUP5 DUP3 DUP6 PUSH2 0x829 JUMP JUMPDEST POP SWAP4 SWAP3 POP POP POP JUMP JUMPDEST PUSH1 0x0 DUP3 PUSH1 0x1F DUP4 ADD SLT PUSH2 0x88F JUMPI PUSH2 0x88E PUSH2 0x762 JUMP JUMPDEST JUMPDEST DUP2 CALLDATALOAD PUSH2 0x89F DUP5 DUP3 PUSH1 0x20 DUP7 ADD PUSH2 0x838 JUMP JUMPDEST SWAP2 POP POP SWAP3 SWAP2 POP POP JUMP JUMPDEST PUSH1 0x0 PUSH1 0x20 DUP3 DUP5 SUB SLT ISZERO PUSH2 0x8BE JUMPI PUSH2 0x8BD PUSH2 0x758 JUMP JUMPDEST JUMPDEST PUSH1 0x0 DUP3 ADD CALLDATALOAD PUSH8 0xFFFFFFFFFFFFFFFF DUP2 GT ISZERO PUSH2 0x8DC JUMPI PUSH2 0x8DB PUSH2 0x75D JUMP JUMPDEST JUMPDEST PUSH2 0x8E8 DUP5 DUP3 DUP6 ADD PUSH2 0x87A JUMP JUMPDEST SWAP2 POP POP SWAP3 SWAP2 POP POP JUMP JUMPDEST PUSH1 0x0 DUP2 SWAP1 POP SWAP2 SWAP1 POP JUMP JUMPDEST PUSH2 0x904 DUP2 PUSH2 0x8F1 JUMP JUMPDEST DUP3 MSTORE POP POP JUMP JUMPDEST PUSH1 0x0 PUSH1 0x20 DUP3 ADD SWAP1 POP PUSH2 0x91F PUSH1 0x0 DUP4 ADD DUP5 PUSH2 0x8FB JUMP JUMPDEST SWAP3 SWAP2 POP POP JUMP JUMPDEST PUSH2 0x92E DUP2 PUSH2 0x8F1 JUMP JUMPDEST DUP2 EQ PUSH2 0x939 JUMPI PUSH1 0x0 DUP1 REVERT JUMPDEST POP JUMP JUMPDEST PUSH1 0x0 DUP2 CALLDATALOAD SWAP1 POP PUSH2 0x94B DUP2 PUSH2 0x925 JUMP JUMPDEST SWAP3 SWAP2 POP POP JUMP JUMPDEST PUSH1 0x0 PUSH1 0x20 DUP3 DUP5 SUB SLT ISZERO PUSH2 0x967 JUMPI PUSH2 0x966 PUSH2 0x758 JUMP JUMPDEST JUMPDEST PUSH1 0x0 PUSH2 0x975 DUP5 DUP3 DUP6 ADD PUSH2 0x93C JUMP JUMPDEST SWAP2 POP POP SWAP3 SWAP2 POP POP JUMP JUMPDEST PUSH1 0x0 DUP2 MLOAD SWAP1 POP SWAP2 SWAP1 POP JUMP JUMPDEST PUSH1 0x0 DUP3 DUP3 MSTORE PUSH1 0x20 DUP3 ADD SWAP1 POP SWAP3 SWAP2 POP POP JUMP JUMPDEST PUSH1 0x0 JUMPDEST DUP4 DUP2 LT ISZERO PUSH2 0x9B8 JUMPI DUP1 DUP3 ADD MLOAD DUP2 DUP5 ADD MSTORE PUSH1 0x20 DUP2 ADD SWAP1 POP PUSH2 0x99D JUMP JUMPDEST PUSH1 0x0 DUP5 DUP5 ADD MSTORE POP POP POP POP JUMP JUMPDEST PUSH1 0x0 PUSH2 0x9CF DUP3 PUSH2 0x97E JUMP JUMPDEST PUSH2 0x9D9 DUP2 DUP6 PUSH2 0x989 JUMP JUMPDEST SWAP4 POP PUSH2 0x9E9 DUP2 DUP6 PUSH1 0x20 DUP7 ADD PUSH2 0x99A JUMP JUMPDEST PUSH2 0x9F2 DUP2 PUSH2 0x76C JUMP JUMPDEST DUP5 ADD SWAP2 POP POP SWAP3 SWAP2 POP POP JUMP JUMPDEST PUSH1 0x0 PUSH1 0x20 DUP3 ADD SWAP1 POP DUP2 DUP2 SUB PUSH1 0x0 DUP4 ADD MSTORE PUSH2 0xA17 DUP2 DUP5 PUSH2 0x9C4 JUMP JUMPDEST SWAP1 POP SWAP3 SWAP2 POP POP JUMP JUMPDEST PUSH1 0x0 PUSH20 0xFFFFFFFFFFFFFFFFFFFFFFFFFFFFFFFFFFFFFFFF DUP3 AND SWAP1 POP SWAP2 SWAP1 POP JUMP JUMPDEST PUSH1 0x0 PUSH2 0xA4A DUP3 PUSH2 0xA1F JUMP JUMPDEST SWAP1 POP SWAP2 SWAP1 POP JUMP JUMPDEST PUSH2 0xA5A DUP2 PUSH2 0xA3F JUMP JUMPDEST DUP2 EQ PUSH2 0xA65 JUMPI PUSH1 0x0 DUP1 REVERT JUMPDEST POP JUMP JUMPDEST PUSH1 0x0 DUP2 CALLDATALOAD SWAP1 POP PUSH2 0xA77 DUP2 PUSH2 0xA51 JUMP JUMPDEST SWAP3 SWAP2 POP POP JUMP JUMPDEST PUSH1 0x0 PUSH1 0x20 DUP3 DUP5 SUB SLT ISZERO PUSH2 0xA93 JUMPI PUSH2 0xA92 PUSH2 0x758 JUMP JUMPDEST JUMPDEST PUSH1 0x0 PUSH2 0xAA1 DUP5 DUP3 DUP6 ADD PUSH2 0xA68 JUMP JUMPDEST SWAP2 POP POP SWAP3 SWAP2 POP POP JUMP JUMPDEST PUSH1 0x0 DUP2 ISZERO ISZERO SWAP1 POP SWAP2 SWAP1 POP JUMP JUMPDEST PUSH2 0xABF DUP2 PUSH2 0xAAA JUMP JUMPDEST DUP3 MSTORE POP POP JUMP JUMPDEST PUSH1 0x0 PUSH1 0x20 DUP3 ADD SWAP1 POP PUSH2 0xADA PUSH1 0x0 DUP4 ADD DUP5 PUSH2 0xAB6 JUMP JUMPDEST SWAP3 SWAP2 POP POP JUMP JUMPDEST PUSH2 0xAE9 DUP2 PUSH2 0xA3F JUMP JUMPDEST DUP3 MSTORE POP POP JUMP JUMPDEST PUSH1 0x0 PUSH1 0x20 DUP3 ADD SWAP1 POP PUSH2 0xB04 PUSH1 0x0 DUP4 ADD DUP5 PUSH2 0xAE0 JUMP JUMPDEST SWAP3 SWAP2 POP POP JUMP JUMPDEST PUSH1 0x0 DUP1 PUSH1 0x40 DUP4 DUP6 SUB SLT ISZERO PUSH2 0xB21 JUMPI PUSH2 0xB20 PUSH2 0x758 JUMP JUMPDEST JUMPDEST PUSH1 0x0 PUSH2 0xB2F DUP6 DUP3 DUP7 ADD PUSH2 0x93C JUMP JUMPDEST SWAP3 POP POP PUSH1 0x20 DUP4 ADD CALLDATALOAD PUSH8 0xFFFFFFFFFFFFFFFF DUP2 GT ISZERO PUSH2 0xB50 JUMPI PUSH2 0xB4F PUSH2 0x75D JUMP JUMPDEST JUMPDEST PUSH2 0xB5C DUP6 DUP3 DUP7 ADD PUSH2 0x87A JUMP JUMPDEST SWAP2 POP POP SWAP3 POP SWAP3 SWAP1 POP JUMP JUMPDEST PUSH1 0x0 DUP2 MLOAD SWAP1 POP SWAP2 SWAP1 POP JUMP JUMPDEST PUSH1 0x0 DUP3 DUP3 MSTORE PUSH1 0x20 DUP3 ADD SWAP1 POP SWAP3 SWAP2 POP POP JUMP JUMPDEST PUSH1 0x0 DUP2 SWAP1 POP PUSH1 0x20 DUP3 ADD SWAP1 POP SWAP2 SWAP1 POP JUMP JUMPDEST PUSH1 0x0 DUP3 DUP3 MSTORE PUSH1 0x20 DUP3 ADD SWAP1 POP SWAP3 SWAP2 POP POP JUMP JUMPDEST PUSH1 0x0 PUSH2 0xBAE DUP3 PUSH2 0x97E JUMP JUMPDEST PUSH2 0xBB8 DUP2 DUP6 PUSH2 0xB92 JUMP JUMPDEST SWAP4 POP PUSH2 0xBC8 DUP2 DUP6 PUSH1 0x20 DUP7 ADD PUSH2 0x99A JUMP JUMPDEST PUSH2 0xBD1 DUP2 PUSH2 0x76C JUMP JUMPDEST DUP5 ADD SWAP2 POP POP SWAP3 SWAP2 POP POP JUMP JUMPDEST PUSH1 0x0 PUSH2 0xBE8 DUP4 DUP4 PUSH2 0xBA3 JUMP JUMPDEST SWAP1 POP SWAP3 SWAP2 POP POP JUMP JUMPDEST PUSH1 0x0 PUSH1 0x20 DUP3 ADD SWAP1 POP SWAP2 SWAP1 POP JUMP JUMPDEST PUSH1 0x0 PUSH2 0xC08 DUP3 PUSH2 0xB66 JUMP JUMPDEST PUSH2 0xC12 DUP2 DUP6 PUSH2 0xB71 JUMP JUMPDEST SWAP4 POP DUP4 PUSH1 0x20 DUP3 MUL DUP6 ADD PUSH2 0xC24 DUP6 PUSH2 0xB82 JUMP JUMPDEST DUP1 PUSH1 0x0 JUMPDEST DUP6 DUP2 LT ISZERO PUSH2 0xC60 JUMPI DUP5 DUP5 SUB DUP10 MSTORE DUP2 MLOAD PUSH2 0xC41 DUP6 DUP3 PUSH2 0xBDC JUMP JUMPDEST SWAP5 POP PUSH2 0xC4C DUP4 PUSH2 0xBF0 JUMP JUMPDEST SWAP3 POP PUSH1 0x20 DUP11 ADD SWAP10 POP POP PUSH1 0x1 DUP2 ADD SWAP1 POP PUSH2 0xC28 JUMP JUMPDEST POP DUP3 SWAP8 POP DUP8 SWAP6 POP POP POP POP POP POP SWAP3 SWAP2 POP POP JUMP JUMPDEST PUSH1 0x0 PUSH1 0x20 DUP3 ADD SWAP1 POP DUP2 DUP2 SUB PUSH1 0x0 DUP4 ADD MSTORE PUSH2 0xC8C DUP2 DUP5 PUSH2 0xBFD JUMP JUMPDEST SWAP1 POP SWAP3 SWAP2 POP POP JUMP JUMPDEST PUSH32 0x4F6E6C792077686974656C697374000000000000000000000000000000000000 PUSH1 0x0 DUP3 ADD MSTORE POP JUMP JUMPDEST PUSH1 0x0 PUSH2 0xCCA PUSH1 0xE DUP4 PUSH2 0x989 JUMP JUMPDEST SWAP2 POP PUSH2 0xCD5 DUP3 PUSH2 0xC94 JUMP JUMPDEST PUSH1 0x20 DUP3 ADD SWAP1 POP SWAP2 SWAP1 POP JUMP JUMPDEST PUSH1 0x0 PUSH1 0x20 DUP3 ADD SWAP1 POP DUP2 DUP2 SUB PUSH1 0x0 DUP4 ADD MSTORE PUSH2 0xCF9 DUP2 PUSH2 0xCBD JUMP JUMPDEST SWAP1 POP SWAP2 SWAP1 POP JUMP JUMPDEST PUSH32 0x4E487B7100000000000000000000000000000000000000000000000000000000 PUSH1 0x0 MSTORE PUSH1 0x22 PUSH1 0x4 MSTORE PUSH1 0x24 PUSH1 0x0 REVERT JUMPDEST PUSH1 0x0 PUSH1 0x2 DUP3 DIV SWAP1 POP PUSH1 0x1 DUP3 AND DUP1 PUSH2 0xD47 JUMPI PUSH1 0x7F DUP3 AND SWAP2 POP JUMPDEST PUSH1 0x20 DUP3 LT DUP2 SUB PUSH2 0xD5A JUMPI PUSH2 0xD59 PUSH2 0xD00 JUMP JUMPDEST JUMPDEST POP SWAP2 SWAP1 POP JUMP JUMPDEST PUSH1 0x0 DUP2 SWAP1 POP DUP2 PUSH1 0x0 MSTORE PUSH1 0x20 PUSH1 0x0 KECCAK256 SWAP1 POP SWAP2 SWAP1 POP JUMP JUMPDEST PUSH1 0x0 PUSH1 0x20 PUSH1 0x1F DUP4 ADD DIV SWAP1 POP SWAP2 SWAP1 POP JUMP JUMPDEST PUSH1 0x0 DUP3 DUP3 SHL SWAP1 POP SWAP3 SWAP2 POP POP JUMP JUMPDEST PUSH1 0x0 PUSH1 0x8 DUP4 MUL PUSH2 0xDC2 PUSH32 0xFFFFFFFFFFFFFFFFFFFFFFFFFFFFFFFFFFFFFFFFFFFFFFFFFFFFFFFFFFFFFFFF DUP3 PUSH2 0xD85 JUMP JUMPDEST PUSH2 0xDCC DUP7 DUP4 PUSH2 0xD85 JUMP JUMPDEST SWAP6 POP DUP1 NOT DUP5 AND SWAP4 POP DUP1 DUP7 AND DUP5 OR SWAP3 POP POP POP SWAP4 SWAP3 POP POP POP JUMP JUMPDEST PUSH1 0x0 DUP2 SWAP1 POP SWAP2 SWAP1 POP JUMP JUMPDEST PUSH1 0x0 PUSH2 0xE09 PUSH2 0xE04 PUSH2 0xDFF DUP5 PUSH2 0x8F1 JUMP JUMPDEST PUSH2 0xDE4 JUMP JUMPDEST PUSH2 0x8F1 JUMP JUMPDEST SWAP1 POP SWAP2 SWAP1 POP JUMP JUMPDEST PUSH1 0x0 DUP2 SWAP1 POP SWAP2 SWAP1 POP JUMP JUMPDEST PUSH2 0xE23 DUP4 PUSH2 0xDEE JUMP JUMPDEST PUSH2 0xE37 PUSH2 0xE2F DUP3 PUSH2 0xE10 JUMP JUMPDEST DUP5 DUP5 SLOAD PUSH2 0xD92 JUMP JUMPDEST DUP3 SSTORE POP POP POP POP JUMP JUMPDEST PUSH1 0x0 SWAP1 JUMP JUMPDEST PUSH2 0xE4C PUSH2 0xE3F JUMP JUMPDEST PUSH2 0xE57 DUP2 DUP5 DUP5 PUSH2 0xE1A JUMP JUMPDEST POP POP POP JUMP JUMPDEST JUMPDEST DUP2 DUP2 LT ISZERO PUSH2 0xE7B JUMPI PUSH2 0xE70 PUSH1 0x0 DUP3 PUSH2 0xE44 JUMP JUMPDEST PUSH1 0x1 DUP2 ADD SWAP1 POP PUSH2 0xE5D JUMP JUMPDEST POP POP JUMP JUMPDEST PUSH1 0x1F DUP3 GT ISZERO PUSH2 0xEC0 JUMPI PUSH2 0xE91 DUP2 PUSH2 0xD60 JUMP JUMPDEST PUSH2 0xE9A DUP5 PUSH2 0xD75 JUMP JUMPDEST DUP2 ADD PUSH1 0x20 DUP6 LT ISZERO PUSH2 0xEA9 JUMPI DUP2 SWAP1 POP JUMPDEST PUSH2 0xEBD PUSH2 0xEB5 DUP6 PUSH2 0xD75 JUMP JUMPDEST DUP4 ADD DUP3 PUSH2 0xE5C JUMP JUMPDEST POP POP JUMPDEST POP POP POP JUMP JUMPDEST PUSH1 0x0 DUP3 DUP3 SHR SWAP1 POP SWAP3 SWAP2 POP POP JUMP JUMPDEST PUSH1 0x0 PUSH2 0xEE3 PUSH1 0x0 NOT DUP5 PUSH1 0x8 MUL PUSH2 0xEC5 JUMP JUMPDEST NOT DUP1 DUP4 AND SWAP2 POP POP SWAP3 SWAP2 POP POP JUMP JUMPDEST PUSH1 0x0 PUSH2 0xEFC DUP4 DUP4 PUSH2 0xED2 JUMP JUMPDEST SWAP2 POP DUP3 PUSH1 0x2 MUL DUP3 OR SWAP1 POP SWAP3 SWAP2 POP POP JUMP JUMPDEST PUSH2 0xF15 DUP3 PUSH2 0x97E JUMP JUMPDEST PUSH8 0xFFFFFFFFFFFFFFFF DUP2 GT ISZERO PUSH2 0xF2E JUMPI PUSH2 0xF2D PUSH2 0x77D JUMP JUMPDEST JUMPDEST PUSH2 0xF38 DUP3 SLOAD PUSH2 0xD2F JUMP JUMPDEST PUSH2 0xF43 DUP3 DUP3 DUP6 PUSH2 0xE7F JUMP JUMPDEST PUSH1 0x0 PUSH1 0x20 SWAP1 POP PUSH1 0x1F DUP4 GT PUSH1 0x1 DUP2 EQ PUSH2 0xF76 JUMPI PUSH1 0x0 DUP5 ISZERO PUSH2 0xF64 JUMPI DUP3 DUP8 ADD MLOAD SWAP1 POP JUMPDEST PUSH2 0xF6E DUP6 DUP3 PUSH2 0xEF0 JUMP JUMPDEST DUP7 SSTORE POP PUSH2 0xFD6 JUMP JUMPDEST PUSH1 0x1F NOT DUP5 AND PUSH2 0xF84 DUP7 PUSH2 0xD60 JUMP JUMPDEST PUSH1 0x0 JUMPDEST DUP3 DUP2 LT ISZERO PUSH2 0xFAC JUMPI DUP5 DUP10 ADD MLOAD DUP3 SSTORE PUSH1 0x1 DUP3 ADD SWAP2 POP PUSH1 0x20 DUP6 ADD SWAP5 POP PUSH1 0x20 DUP2 ADD SWAP1 POP PUSH2 0xF87 JUMP JUMPDEST DUP7 DUP4 LT ISZERO PUSH2 0xFC9 JUMPI DUP5 DUP10 ADD MLOAD PUSH2 0xFC5 PUSH1 0x1F DUP10 AND DUP3 PUSH2 0xED2 JUMP JUMPDEST DUP4 SSTORE POP JUMPDEST PUSH1 0x1 PUSH1 0x2 DUP9 MUL ADD DUP9 SSTORE POP POP POP JUMPDEST POP POP POP POP POP POP JUMP JUMPDEST PUSH32 0x4E487B7100000000000000000000000000000000000000000000000000000000 PUSH1 0x0 MSTORE PUSH1 0x11 PUSH1 0x4 MSTORE PUSH1 0x24 PUSH1 0x0 REVERT JUMPDEST PUSH1 0x0 PUSH2 0x1018 DUP3 PUSH2 0x8F1 JUMP JUMPDEST SWAP2 POP PUSH2 0x1023 DUP4 PUSH2 0x8F1 JUMP JUMPDEST SWAP3 POP DUP3 DUP3 SUB SWAP1 POP DUP2 DUP2 GT ISZERO PUSH2 0x103B JUMPI PUSH2 0x103A PUSH2 0xFDE JUMP JUMPDEST JUMPDEST SWAP3 SWAP2 POP POP JUMP JUMPDEST PUSH32 0x4E487B7100000000000000000000000000000000000000000000000000000000 PUSH1 0x0 MSTORE PUSH1 0x32 PUSH1 0x4 MSTORE PUSH1 0x24 PUSH1 0x0 REVERT JUMPDEST PUSH32 0x4F6E6C79206F776E657200000000000000000000000000000000000000000000 PUSH1 0x0 DUP3 ADD MSTORE POP JUMP JUMPDEST PUSH1 0x0 PUSH2 0x10A6 PUSH1 0xA DUP4 PUSH2 0x989 JUMP JUMPDEST SWAP2 POP PUSH2 0x10B1 DUP3 PUSH2 0x1070 JUMP JUMPDEST PUSH1 0x20 DUP3 ADD SWAP1 POP SWAP2 SWAP1 POP JUMP JUMPDEST PUSH1 0x0 PUSH1 0x20 DUP3 ADD SWAP1 POP DUP2 DUP2 SUB PUSH1 0x0 DUP4 ADD MSTORE PUSH2 0x10D5 DUP2 PUSH2 0x1099 JUMP JUMPDEST SWAP1 POP SWAP2 SWAP1 POP JUMP JUMPDEST PUSH1 0x0 DUP2 SLOAD PUSH2 0x10E9 DUP2 PUSH2 0xD2F JUMP JUMPDEST PUSH2 0x10F3 DUP2 DUP7 PUSH2 0x989 JUMP JUMPDEST SWAP5 POP PUSH1 0x1 DUP3 AND PUSH1 0x0 DUP2 EQ PUSH2 0x110E JUMPI PUSH1 0x1 DUP2 EQ PUSH2 0x1124 JUMPI PUSH2 0x1157 JUMP JUMPDEST PUSH1 0xFF NOT DUP4 AND DUP7 MSTORE DUP2 ISZERO ISZERO PUSH1 0x20 MUL DUP7 ADD SWAP4 POP PUSH2 0x1157 JUMP JUMPDEST PUSH2 0x112D DUP6 PUSH2 0xD60 JUMP JUMPDEST PUSH1 0x0 JUMPDEST DUP4 DUP2 LT ISZERO PUSH2 0x114F JUMPI DUP2 SLOAD DUP2 DUP10 ADD MSTORE PUSH1 0x1 DUP3 ADD SWAP2 POP PUSH1 0x20 DUP2 ADD SWAP1 POP PUSH2 0x1130 JUMP JUMPDEST DUP1 DUP9 ADD SWAP6 POP POP POP JUMPDEST POP POP POP SWAP3 SWAP2 POP POP JUMP JUMPDEST PUSH1 0x0 PUSH1 0x40 DUP3 ADD SWAP1 POP DUP2 DUP2 SUB PUSH1 0x0 DUP4 ADD MSTORE PUSH2 0x117A DUP2 DUP6 PUSH2 0x10DC JUMP JUMPDEST SWAP1 POP DUP2 DUP2 SUB PUSH1 0x20 DUP4 ADD MSTORE PUSH2 0x118E DUP2 DUP5 PUSH2 0x9C4 JUMP JUMPDEST SWAP1 POP SWAP4 SWAP3 POP POP POP JUMP INVALID LOG2 PUSH5 0x6970667358 0x22 SLT KECCAK256 SWAP3 SAR GASPRICE 0xE5 MSTORE8 PUSH1 0xDA DUP15 PUSH22 0x6AE453E8D21025CEF1E096572F1009525474FBC8802B XOR PUSH5 0x736F6C6343 STOP ADDMOD GT STOP CALLER "
				},
				"gasEstimates": {
					"creation": {
						"codeDepositCost": "911400",
						"executionCost": "49570",
						"totalCost": "960970"
					},
					"external": {
						"addInfo(string)": "infinite",
						"addMember(address)": "27026",
						"delMember(address)": "27027",
						"getInfo(uint256)": "infinite",
						"listInfo()": "infinite",
						"owner()": "2514",
						"setInfo(uint256,string)": "infinite",
						"whiteList(address)": "2912"
					}
				},
				"methodIdentifiers": {
					"addInfo(string)": "0bf803e4",
					"addMember(address)": "ca6d56dc",
					"delMember(address)": "1f81595d",
					"getInfo(uint256)": "1a3cd59a",
					"listInfo()": "d03d5849",
					"owner()": "8da5cb5b",
					"setInfo(uint256,string)": "b6820002",
					"whiteList(address)": "372c12b1"
				}
			},
			"storageLayout": {
				"storage": [
					{
						"astId": 4,
						"contract": "sc/register.sol:RegisterAccess",
						"label": "info",
						"offset": 0,
						"slot": "0",
						"type": "t_array(t_string_storage)dyn_storage"
					},
					{
						"astId": 6,
						"contract": "sc/register.sol:RegisterAccess",
						"label": "owner",
						"offset": 0,
						"slot": "1",
						"type": "t_address"
					},
					{
						"astId": 10,
						"contract": "sc/register.sol:RegisterAccess",
						"label": "whiteList",
						"offset": 0,
						"slot": "2",
						"type": "t_mapping(t_address,t_bool)"
					}
				],
				"types": {
					"t_address": {
						"encoding": "inplace",
						"label": "address",
						"numberOfBytes": "20"
					},
					"t_array(t_string_storage)dyn_storage": {
						"base": "t_string_storage",
						"encoding": "dynamic_array",
						"label": "string[]",
						"numberOfBytes": "32"
					},
					"t_bool": {
						"encoding": "inplace",
						"label": "bool",
						"numberOfBytes": "1"
					},
					"t_mapping(t_address,t_bool)": {
						"encoding": "mapping",
						"key": "t_address",
						"label": "mapping(address => bool)",
						"numberOfBytes": "32",
						"value": "t_bool"
					},
					"t_string_storage": {
						"encoding": "bytes",
						"label": "string",
						"numberOfBytes": "32"
					}
				}
			},
			"userdoc": {
				"kind": "user",
				"methods": {},
				"version": 1
			}
		}
	}
}